:100000000C9404070C942C070C942C070C942C07CC
:100010000C942C070C942C070C942C070C942C0794
:100020000C942C070C942C070C942C070C942C0784
:100030000C942C070C942C070C942C070C942C0774
:100040000C94B1220C942C070C942C070C942C07C4
:100050000C942C070C942C070C942C070C942C0754
:100060000C94FB220C942C0725002D2D0048554D97
:100070002000685061005052455353555245003896
:1000800020484F555200323420484F5552003120FD
:10009000484F5552006850610050524553535552D5
:1000A0004500430054454D5045524154555245007A
:1000B0003820484F555200323420484F55520031B5
:1000C00020484F555200430054454D50455241542D
:1000D00055524500436865636B20332E33562061CB
:1000E0006E6420474E44005344413D44313120204A
:1000F00053434C3D44313300424D45323830206E3D
:100100006F7420666F756E640000000000003E5B37
:100110004F5B3E3E6B4F6B3E1C3E7C3E1C183C7E54
:100120003C181C577D571C1C5E7F5E1C00183C1839
:1001300000FFE7C3E7FF0018241800FFE7DBE7FF35
:1001400030483A060E2629792926407F05050740C2
:100150007F05253F5A3CE73C5A7F3E1C1C08081C83
:100160001C3E7F14227F22145F5F005F5F06097FC1
:10017000017F006689956A606060606094A2FFA25A
:100180009408047E040810207E201008082A1C0809
:10019000081C2A08081E101010100C1E0C1E0C3013
:1001A000383E3830060E3E0E06000000000000000B
:1001B0005F00000007000700147F147F14242A7FCB
:1001C0002A12231308646236495620500008070398
:1001D00000001C2241000041221C002A1C7F1C2A16
:1001E00008083E0808008070300008080808080069
:1001F0000060600020100804023E5149453E004264
:100200007F400072494949462141494D3318141233
:100210007F1027454545393C4A494931412111095B
:10022000073649494936464949291E00001400004D
:100230000040340000000814224114141414140067
:100240004122140802015909063E415D594E7C12B3
:1002500011127C7F494949363E414141227F41414B
:10026000413E7F494949417F090909013E414151C8
:10027000737F0808087F00417F41002040413F0113
:100280007F081422417F404040407F021C027F7F54
:100290000408107F3E4141413E7F090909063E4165
:1002A00051215E7F09192946264949493203017FB8
:1002B00001033F4040403F1F2040201F3F40384047
:1002C0003F631408146303047804036159494D43E0
:1002D000007F4141410204081020004141417F0458
:1002E000020102044040404040000307080020543F
:1002F0005478407F2844443838444444283844449F
:10030000287F385454541800087E090218A4A49C6D
:10031000787F0804047800447D40002040403D0080
:100320007F1028440000417F40007C047804787CE2
:10033000080404783844444438FC18242418182449
:100340002418FC7C08040408485454542404043F32
:1003500044243C4040207C1C2040201C3C40304039
:100360003C44281028444C9090907C4464544C4465
:100370000008364100000077000000413608000206
:10038000010204023C2623263C1EA1A161123A4030
:1003900040207A38545455592155557941225454A6
:1003A0007842215554784020545579400C1E5272A1
:1003B000123955555559395454545939555454587E
:1003C0000000457C410002457D420001457C407DA6
:1003D0001211127DF0282528F07C54554500205438
:1003E000547C547C0A097F4932494949323A444491
:1003F000443A324A4848303A4141217A3A42402010
:1004000078009DA0A07D3D4242423D3D4040403DA0
:100410003C24FF2424487E4943662B2FFC2F2BFFCE
:100420000929F620C0887E09032054547941000030
:10043000447D413048484A32384040227A007A0AA6
:100440000A727D0D19317D2629292F28262929296F
:100450002630484D402038080808080808080838A1
:100460002F10C8ACBA2F102834FA00007B00000807
:10047000142A142222142A14085500550055AA558E
:10048000AA55AAFF55FF55FF000000FF00101010ED
:10049000FF00141414FF001010FF00FF1010F010E4
:1004A000F0141414FC001414F700FF0000FF00FF08
:1004B0001414F404FC141417101F10101F101F1430
:1004C00014141F00101010F0000000001F10101076
:1004D000101F10101010F010000000FF101010106E
:1004E0001010101010FF10000000FF140000FF009B
:1004F000FF00001F10170000FC04F414141710175D
:100500001414F404F40000FF00F714141414141469
:1005100014F700F7141414171410101F101F1414DC
:1005200014F4141010F010F000001F101F00000051
:100530001F14000000FC140000F010F01010FF1059
:10054000FF141414FF141010101F00000000F0100E
:10055000FFFFFFFFFFF0F0F0F0F0FFFFFF000000F3
:100560000000FFFF0F0F0F0F0F3844443844FC4AC0
:100570004A4A347E02020606027E027E0263554922
:1005800041633844443C04407E201E2006027E0223
:100590000299A5E7A5991C2A492A1C4C7201724CA4
:1005A000304A4D4D303048784830BC625A463D3E66
:1005B000494949007E0101017E2A2A2A2A2A444407
:1005C0005F444440514A444040444A51400000FF87
:1005D0000103E080FF000008086B6B083612362428
:1005E00036060F090F060000181800000010100052
:1005F0003040FF0101001F01011E00191D171200EC
:100600003C3C3C3C000000000011007F96290001AA
:10061000007F9628003A0155C0021010C10141C563
:100620000400228040360168B00100B102B011B46C
:100630000102B60302023BB701C63A0155F704A90D
:10064000512C82B701C6E808408A00002919A53359
:10065000C0020D0DC1024300C20100C504004800E4
:1006600048B40100B60302023BE00F0F211C0B0E41
:1006700008499838091103141000E10F0F2F2B0CB3
:100680000E06477637071104231E00B00100B3049D
:1006900002000000B40100D003074218D103000794
:1006A00010D2020102D3020102D4020102C00512DB
:1006B0003B000211C103101088C50103C60102C826
:1006C0000C003236450616377577540C00CC010005
:1006D000F603010100CF03008130ED0464031281B1
:1006E000E803851078CB05392C003402F70120EAA5
:1006F000020000B00100B102001BB40100C00121E2
:10070000C10111C5023F3CC701B5360148F20100E5
:10071000260101E00F0F26240B0E0954A8460C17E2
:10072000090F0700E10F00191B0410072A473903BE
:10073000060630380F360100B80101C0010EB001C5
:1007400000C10410100202C006003500000102C5FD
:100750000104D2020104CA0100EA0180B903FF8347
:10076000577F967F96B60125C0065050013C1E0863
:10077000B4070240002A2A0D787F01F20B161603F7
:100780000808080810041616FD03110235B2050CFE
:100790000C003333B70135BB012BC00104C2020189
:1007A000FFC30111C40120C6010FD002A4A1E00EB5
:1007B000D000050E150D3743470915121619E10E25
:1007C000D000050D0C062D44400E1C1816193A01D8
:1007D000557F0A06000700B1020012B40102B604F8
:1007E00000202700CA0101CB0103C001137F14C5FB
:1007F00001CCC60100C70104C80103CC0106CD012C
:100800001CF9021515F3030A020AF603011000FA97
:1008100000FB00E2031E0254E001017F0AE0010335
:100820007F0A01007F64E60303FFFFB00724000393
:100830001F01DF00B40803A0002E30000F00B60730
:10084000020D0010100008BA010FB8020701F001F4
:10085000007F01280011007F642900BE0606F00118
:10086000F00000D0010DB00103E2013FC00122E21F
:100870000100B00100C0010AB0010000000000004A
:100880000000000000000000000000FFFF0F00005B
:10089000040062080008080003000C01030B5A0260
:1008A00003060903031710040300230503001706BA
:1008B0000309630703090C08030C10090332221013
:1008C00000160011000101120000001300010000D9
:1008D000013003010137020301000D8002006102B3
:1008E00001B0C1FFFF32000100000102000001035E
:1008F000003010090001000C000000900000800F83
:10090000000000100200001102EF001202000013AC
:10091000028F01000500000105000002055F0001D3
:1009200004010004040000FFFF320007000001FF83
:10093000FF32000002000001020000000000000081
:100940000000000000000000000100A4000100FF02
:10095000FF0A006000002708000808300014023178
:10096000001537320004063300160E34001122350C
:1009700000001536000785370007143800031439C6
:10098000002000900015001000100411003702290B
:100990000046002A004600070000001200890113EB
:1009A000000011FFFF96001200B9010100000102D2
:1009B00000000203003010090001000A0000000DD1
:1009C0000000000E003000610001006A000000809D
:1009D0000000008100000082005F0092000001938F
:1009E000000107FFFF500007000001E500F078015B
:1009F00000000102000002030030100400000005A6
:100A000000000008000702090000000A0000000CB6
:100A10000000000D0000000F000000100000001199
:100A2000000700120000001300000007000100FF93
:100A3000FFC8001000901611002702FFFF320012BD
:100A4000000D00FFFF32001300001229000A002BE6
:100A5000000D00FFFF3200200000002100000030E8
:100A600000000031000404320003003500050436A4
:100A70000008083700070438000303390007073C63
:100A80000004053D00080860000027610001006ABD
:100A90000000008000000081000000820000008350
:100AA000000000840000008500000090001000920B
:100AB00000000007003301E5000080000001000194
:100AC00000000102000007030030100400000008CD
:100AD000000202090000000A0000000C0000000DE6
:100AE0000000000F000000100000001100070012BD
:100AF00000000013000000FFFF32001000B01711CB
:100B0000000700FFFF0A0012003A01FFFF0A00136E
:100B100000001A29000C00FFFF0A0030000000311D
:100B200000050532000400350006003600070737CF
:100B300000050138000200390007073C0004073DAA
:100B4000000708600000A7610001006A00000021A2
:100B500000000020000000800000008100000082F2
:100B60000000008300000084000000850000009069
:100B70000010009200000093000300950010019700
:100B80000000009800000007007301FFFF32000121
:100B900000000102000007030030100800020309F2
:100BA0000000000A000800100000001100050012FB
:100BB00000000013000000FFFF64001000B012FFEF
:100BC000FF320011000700FFFF320012008C0013FB
:100BD00000001729002000FFFF3200300000003124
:100BE000000601320001013500060136000302371C
:100BF00000000038000707390004023C0006013DF0
:100C0000000301600000A7610001009000300007B0
:100C1000003301FFFF3200150030009A0010001170
:100C2000002000100028341200020013003810FFCA
:100C3000FF280012001200FFFF28001000203413CC
:100C4000004530FFFF460030000000310002043252
:100C500000070333000403340004003500010436A8
:100C60000007073700050338001006390010060199
:100C70000000010200000303003010080008080A09
:100C8000000800600000276100010090003E019212
:100C900000000193000001A0000030A30010000735
:100CA00000010007002100070023000700330007B0
:100CB00000330111001A001200213113006C0014DE
:100CC00000494210000008FFFF0A0011001A01FF4E
:100CD000FF0A0011001A03FFFF0A0011001A07FFA4
:100CE000FF0A0011001A0FFFFF0A0011003A0FFF60
:100CF000FF1E000100280102000001030030100760
:100D0000001210080003030B0000110C0000000F7C
:100D10000001181500200050000101510003065287
:100D20000008045300000054000506550006045650
:100D30000003035700030358001000590000100778
:100D4000001200FFFF2800070013000700170042F1
:100D500075696C7420627920444A49412075736931
:100D60006E6720436F646578004275696C643A2051
:100D70005365702031312032303236004C6F636160
:100D80006C20636C696D61746520617420612067FB
:100D90006C616E6365004D4F4E49544F5200454E95
:100DA0005649524F4E4D454E54414C0000000000F4
:100DB000240027002A00000000002300260029004C
:100DC000000000080002010000030407000000000A
:100DD0000000000001020408102040800102040805
:100DE0001020010204081020000000002500280047
:100DF0002B0004040404040404040202020202029C
:100E0000030303030303162411241FBECFEFD8E00E
:100E1000DEBFCDBF11E0A0E0B1E0ECECF9E602C02E
:100E200005900D92A034B107D9F725E0A0E4B1E018
:100E300001C01D92AE31B207E1F717E0C4E0D7E080
:100E400004C02197FE010E94BE34C330D107C9F708
:100E50000E94A9240C94E4340C940000089583307B
:100E600081F028F4813099F08230A9F0089587301C
:100E7000A9F08830C9F08430B1F4809180008F7D72
:100E800003C0809180008F7780938000089584B59F
:100E90008F7784BD089584B58F7DFBCF8091B0009E
:100EA0008F778093B00008958091B0008F7DF9CF47
:100EB000CF93DF93282F30E0F901E054F24F849173
:100EC000F901EC52F24FD491F901EE50F24FC49176
:100ED000CC23A1F081110E942F07EC2FF0E0EE0F40
:100EE000FF1FEA54F24FA591B491EC91ED2381E0FC
:100EF00090E009F480E0DF91CF91089580E090E0E8
:100F0000FACF1F93CF93DF93282F30E0F901E054FD
:100F1000F24F8491F901EC52F24FD491F901EE5065
:100F2000F24FC491CC23A9F0162F81110E942F07F4
:100F3000EC2FF0E0EE0FFF1FE851F24FA591B491B6
:100F40008FB7F894EC91111108C0D095DE23DC9393
:100F50008FBFDF91CF911F910895DE2BF8CFCF93F4
:100F6000DF9390E0FC01EC52F24F24918E50924FAF
:100F7000FC0184918823C9F090E0880F991FFC013F
:100F8000E455F24FA591B491FC01E851F24FC5919F
:100F9000D49161110DC09FB7F8948C912095822354
:100FA0008C938881282328839FBFDF91CF91089558
:100FB000623051F49FB7F8943C91822F809583233F
:100FC0008C93E8812E2BEFCF8FB7F894EC912E2BDA
:100FD0002C938FBFEACF8E3008F08E5087708064DC
:100FE00080937C0080917A00806480937A00809165
:100FF0007A0086FDFCCF8091780090917900089569
:101000003FB7F8948091B0049091B104A091B204DC
:10101000B091B30426B5A89B05C02F3F19F00196E7
:10102000A11DB11D3FBFBA2FA92F982F8827BC0142
:10103000CD01620F711D811D911D42E0660F771F6A
:10104000881F991F4A95D1F708958F929F92AF926A
:10105000BF92CF92DF92EF92FF926B017C010E94D0
:1010600000084B015C01C114D104E104F104B9F0A2
:101070000E940008681979098A099B09683E734033
:101080008105910580F321E0C21AD108E108F10839
:1010900088EE880E83E0981EA11CB11CE4CFFF905F
:1010A000EF90DF90CF90BF90AF909F908F9008957A
:1010B0002FB7F8946091AC047091AD048091AE04A8
:1010C0009091AF042FBF0895AF92BF92CF92DF925D
:1010D000EF92FF920F931F93CF93DF936C017B01ED
:1010E0008B01040F151FEB015E01AE18BF08C0177E
:1010F000D10759F06991D601ED91FC910190F081F1
:10110000E02DC6010995892B79F7C501DF91CF91B3
:101110001F910F91FF90EF90DF90CF90BF90AF9015
:1011200008950F931F93CF93DF93EC018B01FE0182
:1011300094913196649122969F3799F470E090E0F3
:1011400080E00E94250860E0E62FF0E032960E1B5A
:101150001F0B101611065CF3DF91CF911F910F91B9
:1011600008954398429885B18C7F292F2370822B54
:1011700085B98BB183709C7F892B8BB94198419A3B
:1011800030E020E02617A8F4FE01E20FF31FE491FF
:10119000429A85B18C7F9E2F9370892B85B98BB134
:1011A0008370EC7FE82BEBB94198419A2F5F3F4F5A
:1011B000E9CFC60FD11D439AC7CF4398429825B1B6
:1011C0002C7F392F3370232B25B92BB123709C7FB3
:1011D000922B9BB94198419A95B19C7F282F2370FF
:1011E000922B95B99BB193708C7F892B8BB94198C9
:1011F000419A429AFA01615078F0219195B19C7F11
:10120000822F8370982B95B98BB183702C7F822BA2
:101210008BB94198419AEFCF439A089543984298E9
:1012200025B12C7F392F3370232B25B92BB1237097
:101230009C7F922B9BB94198419A95B19C7F282F16
:101240002370922B95B99BB193708C7F892B8BB9AE
:101250004198419A429A85B18C7F972F9370892B40
:1012600085B98BB183707C7F782B7BB94198419A8B
:1012700085B18C7F962F9370892B85B98BB1837044
:101280006C7F682B6BB94198419A439A089581E02D
:101290008093B40484B1836084B98AB18C6F8AB9B5
:1012A000389A399A3A9A3B9A3C9A439A409A419A88
:1012B000449A62E370E080E090E00E942508449840
:1012C00064E670E080E090E00E942508449A64E6BD
:1012D00070E080E090E00E94250870E060E080EB24
:1012E00090E00C940E091F93CF93DF93C82F162F15
:1012F0008091B404811102C00E944709439842982A
:1013000085B18C7F85B98BB183708BB94198419A37
:1013100095B19C7F8C2F8370982B95B98BB183707E
:10132000CC7F8C2B8BB94198419A429A84B18C7FA7
:1013300084B98AB183708AB961E070E080E090E09E
:101340000E94250861E070E080E090E00E9425089E
:10135000409A409840984098C3B1D9B1409A61E012
:1013600070E080E090E00E942508409A4098409804
:10137000409883B199B1409A115020F7409A439A0E
:1013800024B1236024B92AB12C6F2AB9C370DC7F41
:10139000CD2B83709C7F892B9C2FDF91CF911F9148
:1013A00008950F931F93CF93DF938C0160E00E9409
:1013B0007309EC0161E0C8010E9473098C01BE0150
:1013C00090E080E0CB017727662730E020E0602BBB
:1013D000712B822B932BDF91CF911F910F91089549
:1013E000FF920F931F93CF93DF938C0160E00E94D5
:1013F0007309EC0161E0C8010E947309F82E62E0F4
:10140000C8010E947309AE0170E060E0742F662786
:101410005527442700E030E020E0402B5F29622B75
:10142000732B292F30E0C901B0E0A0E08A019B01B5
:10143000082B192B2A2B3B2BC901B801DF91CF9127
:101440001F910F91FF9008950F931F93CF93DF93F8
:10145000EC018B01FE0185919491FE013296249658
:10146000659174918F3F980771F490E080E00E943D
:101470002508045011091016110664F3DF91CF916D
:101480001F910F9108950E940E09F3CFFC01262FA2
:10149000358D868D82958170982F9627692F70E003
:1014A00072A361A330FF0CC0821307C080E290E0FA
:1014B00050E040E060E00C94DD0881E290E0F8CF7D
:1014C000878D90A1833927E7920741F058F484353E
:1014D00021E0920791F080329445C1F4626081E08E
:1014E00094E012C0863223E99207C1F3893025EBDC
:1014F0009207A1F38532924949F4660F771F660F70
:10150000771F636187E090E00C940E0981E690E01C
:10151000FBCF8F929F92AF92BF92CF92DF92EF92CA
:10152000FF920F931F93CF93DF9300D000D0CDB7DE
:10153000DEB77C014B015A016901FC01878D90A146
:101540008632954151F4F701868980FF06C0C801B3
:10155000841B950B81F50F5F1F4FF701858D80FF71
:1015600031C085A599828A82DB82CC82AE014F5F31
:101570005F4F64E090E00E94DD08F70181A9B98225
:10158000AA821B830C83AE014F5F5F4F64E090E043
:101590000E94DD080F900F900F900F90DF91CF9178
:1015A0001F910F91FF90EF90DF90CF90BF90AF9081
:1015B0009F908F9008952617370779F6C80ED91E89
:1015C0008A01CBCFB40187A190A50E940E09B50175
:1015D000F70181A592A50E940E09C814D90419F437
:1015E0000A151B05B9F2F701858D85FF08C08689AC
:1015F00080FF1EC0102F0027A02AB12A8501B40148
:10160000F70185A596A50E940E09B501F70181A9EC
:1016100092A90E940E09B601F70187A590A90E9420
:101620000E09B801F70183A994A90E940E09B2CF4F
:10163000DC2CCC248C289D286401E1CFAF92BF9292
:10164000CF92DF92EF92FF920F931F93CF93DF938E
:10165000EC018091B201882349F0C701880F991FDE
:101660008E739927E1ECEE22E82AF92A37FF05C0AC
:10167000620F731F319521953109260F371F77FFB0
:1016800002C070E060E088859985281739070CF45E
:10169000C9016C01C61AD70A17FF05C0400F511FB8
:1016A000119501951109040F151F57FF02C050E055
:1016B00040E02A853B85021713070CF49801590175
:1016C000A41AB50A8901015011099C012150310960
:1016D000CE010E94890A439842983BA58CA525B16A
:1016E0002C7F982F9370292B25B99BB193708C7FF9
:1016F000982B9BB94198419A95B19C7F832F837019
:10170000982B95B98BB183703C7F832B8BB9419813
:10171000419A429ACA14DB042CF09A2D8B2D560163
:10172000C92ED82E8F2DA70193E0569547959A95EF
:10173000E1F74C7F5E2D550F550F550F6F2D6370E0
:101740007F2D7C7FEE2DE3702E2D2C7FE22E887F67
:101750001C141D040CF03FC09091B3019501992316
:1017600011F195B19C7F95B99BB19370982B9BB962
:101770004198419A95B19C7F95B99BB19370942BF8
:101780009BB94198419A95B19C7F95B99BB1937053
:10179000952B9BB94198419A2150310911F791E05D
:1017A000C91AD108D5CF95B19C7F962B95B99BB11D
:1017B0009370972B9BB94198419A95B19C7F9E2B32
:1017C00095B99BB193709E299BB94198419A21503C
:1017D000310949F7E4CF439A8D8D80FF08C08F8D82
:1017E00098A18632954191F48E8980FF0FC00A85B9
:1017F0001B8501501109288539852150310950E098
:1018000040E070E060E0CE010E94890ADF91CF9154
:101810001F910F91FF90EF90DF90CF90BF90AF900E
:101820000895EF92FF920F931F93CF93DF937C0164
:10183000E90177FD6DC057FD6BC0FC018085918586
:10184000681779070CF064C082859385481759079B
:101850000CF05EC08091B201882341F0C901880F6D
:10186000991F8E739927C17CC82BD92B8A019B01A4
:10187000C7010E94890A8091B301882309F44FC0EF
:1018800043984298F70133A584A525B12C7F982F62
:101890009370292B25B99BB193708C7F982B9BB9A2
:1018A0004198419A95B19C7F832F8370982B95B96D
:1018B0008BB183703C7F832B8BB94198419A429ABC
:1018C00085B18C7F85B99BB18D2F887F9370892BD3
:1018D0008BB94198419A85B18C7F85B92BB1CE01E6
:1018E00033E0969587953A95E1F78C7F2370822BAC
:1018F0008BB94198419A85B18C7F85B98BB1CC0F5A
:10190000CC0FCC0F8370C82BCBB94198419A439A26
:10191000DF91CF911F910F91FF90EF900895BE013D
:10192000F70183A594A5DF91CF911F910F91FF90AF
:10193000EF900C940E09EF92FF920F931F93CF93A9
:10194000DF93CDB7DEB72A970FB6F894DEBF0FBE90
:10195000CDBF7C01862F8370F701868B962F917007
:1019600060FFE3C026813781F70131872087992303
:1019700009F4DEC024813581F70133872287823064
:1019800009F4DBC0833009F4DAC0813009F4D3C034
:1019900088E48A87F701858D968D90FF03C02A859C
:1019A00020582A8791FF04C02A8530E423272A87FC
:1019B00093FF04C02A8538E023272A87F701278D63
:1019C00030A180FF00C12431F8E63F0709F0B9C01B
:1019D0009A85892F88728A871F82892F85958074BE
:1019E000282F2260892F90E09595879580729927FE
:1019F000822B88878BE38987AE01495F5F4F63E065
:101A000086EB90E00E94DD082AE230E0F70130A783
:101A100027A38BE290E092A781A74CE250E054A765
:101A200043A736A725A730AB27A792AB81AB94ABD2
:101A300083ABAE01465F5F4F61E086E390E00E94BA
:101A4000DD088A8590E0F70194A383A3F7018689D6
:101A500080FF1CC0858D968D92FD18C087A190A532
:101A600021A532A530A727A392A781A785A596A572
:101A700021A932A936A725A792AB81AB87A590A94A
:101A800023A934A930AB27A794AB83ABF701028518
:101A9000138501501109208531852150310950E00D
:101AA00040E070E060E0C7010E94890AF7016681AA
:101AB0007781878D90A120E08732F3E99F0709F4B1
:101AC00020E2F701358D30FF39C119821A827B83FC
:101AD0006C831D822E83AE014F5F5F4F66E083E310
:101AE00090E00E94DD0819821A82AE014F5F5F4FBD
:101AF00062E087E390E00E94DD08F701858D80FFBA
:101B000007C050E040E060E083E190E00E94DD0823
:101B10002A960FB6F894DEBF0FBECDBFDF91CF91EE
:101B20001F910F91FF90EF900895248135811CCF74
:101B30002681378121CF88E22CCF88E92ACF88EF10
:101B400028CF273243E9340789F41F8281E388874D
:101B50008A85859585958595859588708987AE0157
:101B6000495F5F4F63E080EC90E04CCF233689E122
:101B7000380749F02138E4E93E0729F02131F5E141
:101B80003F0709F041CF8A8587FF02C081608A87BD
:101B90008A8586FF02C082608A878A858F73233692
:101BA00049E1340731F0213884E9380721F48A8586
:101BB0008F728A8729CF2131354109F025CF8A8557
:101BC0008F7E806CF6CF6A85862F062E000C990BCF
:101BD0002339F7E73F0751F0A8F52435E1E03E0748
:101BE00009F45CC02032F4E53F07A1F540E052E083
:101BF000F70150A747A341E052E052A741A742E0B6
:101C000052E054A743A740E152E056A745A741E15F
:101C100052E050AB47A742E152E052AB41AB43E147
:101C200052E054AB43AB882790782632F3E93F0764
:101C300021F02032344509F071C067FD846060E016
:101C400071E36EC0263243E9340781F22930E5EBB7
:101C50003E0761F220E230E0F70130A727A321E23E
:101C600030E032A721A722E230E034A723A720E505
:101C700030E036A725A721E530E030AB27A722E5E5
:101C800030E032AB21AB23E530E034AB23ABBC0119
:101C900066277078776280E690E046C027E330E000
:101CA000F70136A725A726E330E030AB27A729E3C5
:101CB00030E032AB21AB28E330E034AB23AB20E2A1
:101CC00030E030A727A321E230E032A721A722E2AB
:101CD00030E034A723A7F4E06F9FB00111246627FA
:101CE0007170882792708862682B792B81E090E070
:101CF0000E940E098A85682F70E075956795759525
:101D000067956870772783FD70616063F70174A33E
:101D100063A383E090E00E940E0998CE60E072E633
:101D2000682B792B80E094E00E940E096A85F4E02C
:101D30006F9FB001112466277170D8CF8339F7E700
:101D40009F07D9F1F0F4803244E59407B1F183386C
:101D5000E7E79E0731F184359140F1F46150710954
:101D600081E390E00E940E0970E060E082E390E081
:101D70000E940E0970E060E083E390E00E940E098B
:101D8000C7CE863223E99207C1F0893045EB94072C
:101D9000A1F08532924911F3F70161A172A162604D
:101DA00003C0F70161A172A181E690E00E940E09D3
:101DB00070E060E08AE690E0E1CFF70161A172A1F6
:101DC000626081E094E00E940E0970E060E084E0CF
:101DD00094E0D4CF20916801260F3327331F21329E
:101DE0003105ECF420918C01FC0190E080E024307E
:101DF00069F082E00895A09168012191AC01485BEF
:101E00005E4FA40FB52FB11D2C930196861798F342
:101E100080916801680F6093680180E0089581E017
:101E200008958FEF9FEF08958FEF9FEF08958091B2
:101E3000410190E09195819591090895CF93DF93A9
:101E4000CB01EA01642F0E94EA0ECE01DF91CF910F
:101E50000895CF93DF931F92CDB7DEB7698361E01A
:101E6000CE0101960E94EA0E81E090E00F90DF9192
:101E7000CF9108950895FC016370668B84819581EC
:101E800026813781613039F0633029F0918780876E
:101E90003387228708953187208793878287089523
:101EA0002F923F924F925F926F927F928F929F926A
:101EB000AF92BF92CF92DF92EF92FF920F931F9358
:101EC000CF93DF93CDB7DEB76A970FB6F894DEBF36
:101ED0000FBECDBF9A8F898F7A8369834A01D22E34
:101EE00018870F833701BC2CDC0159962D913C914A
:101EF0005A972115310509F015C118968D919C91BD
:101F00001997681779070CF0D7C11A968D919C9193
:101F1000481759070CF0D0C14C2C512CB6E0CB9E81
:101F2000600D711D11247C876B87161617060CF047
:101F3000C3C1EA2DF0E0FA87E98793E0EE0FFF1FB7
:101F40009A95E1F7F88BEF87CF01840F951F18164C
:101F500019060CF0B1C1A98DBA8D58968C918111DA
:101F600004C0BFEABD1508F4D394A98DBA8DED91D4
:101F7000FC9111970284F385E02DCD010995B5E020
:101F8000DB9EC0011124E981FA81FC83EB83312CB3
:101F9000212C9C01275F3E4F388F2F8B4A2D50E01C
:101FA0005E8B4D8BEF89F88DE20DF31D44919E827F
:101FB0008D82D12CC12C69817A81620D731D7A8B3F
:101FC000698B842F90E09C8B8B8BE98DFA8DA0819F
:101FD000B18140FF82C0F1E0BF126FC0AF126DC08F
:101FE0001C96ED91FC912F813885A4014C0D5D1D4F
:101FF00069897A89898D9A8D0995EB89FC89F5958E
:10200000E7954E2F5FEFC51AD50A6D817E818D89C8
:102010009E89680F791F7E836D8398E0C916D1046D
:1020200081F6AFEF2A1A3A0AEB81FC81E40DF51D27
:10203000FC83EB83F5E02F16310409F0B3CF2F8139
:10204000388526153705B9F0A98DBA8DED91FC912B
:10205000B1E0BB1257C0AB1255C069817A816B5F8A
:102060007F4F0088F189E02D830128E030E0A40152
:10207000898D9A8D0995A98DBA8DED91FC91119755
:102080000688F789E02DCD016A960FB6F894DEBF79
:102090000FBECDBFDF91CF911F910F91FF90EF90B9
:1020A000DF90CF90BF90AF909F908F907F906F9078
:1020B0005F904F903F902F9009941E96ED91FC9168
:1020C000EF80F88409851A8592014D815E816B81CC
:1020D0007C81898D9A8D099590CF2F813885261521
:1020E000370509F48ACF31E0B31207C0A31205C047
:1020F0001C96ED91FC91930178CF1E96ED91FC9189
:102100007301E0CF6B857C85641975090684F785BA
:10211000E02D73010F8518899201A401898D9A8D94
:102120000995A9CFF901349694913297459154912C
:10213000D91AB7E0DB9E400D511D1124F9012591FC
:1021400034913C8B2B8BFA0125903490FA01329616
:10215000749031963491398B3296649031964490D4
:1021600041E04C1518F04A1508F07FC0662D062C8A
:10217000000C770B7C836B83842D042C000C990B53
:102180009E838D83A98DBA8DED91FC911197028468
:10219000F385E02DCD010995512CD12CC12CEA2DD0
:1021A000F0E0FA87E9872B2D30E03C872B87A401EC
:1021B000440D511D47FC5A95588F4F8B69817A8188
:1021C000660D711D67FC7A957E876D877989C716C4
:1021D00008F051CF2C2D30E04D815E81420F531F0E
:1021E000A985BA854A9FC0014B9F900D5A9F900DBB
:1021F0001124FC01E80DF91DF88BEF87852D612C6A
:102200004F89588D420F531F5E8B4D8B671408F01A
:1022100050C044244394480E877041F4C101019694
:10222000EB89FC89E20DF31DD4901C01D7FE19C087
:10223000A98DBA8DED91FC91662D70E0B1E0BB12D5
:1022400019C0AB1217C02D853E85620F731F048421
:10225000F585E02D2F8138854D895E89898D9A8D90
:102260000995DD0C6394842DD1CF1E821D821C82C2
:102270001B8288CF4B815C81640F751FAB85BC8549
:102280006A9FC0016B9F900D7A9F900D1124698108
:102290007A81680F791F0684F785E02DEF80F88436
:1022A00009851A859D014F855889898D9A8D0995D3
:1022B000D8CF570CC3948ACF6A960FB6F894DEBF76
:1022C0000FBECDBFDF91CF911F910F91FF90EF9087
:1022D000DF90CF90BF90AF909F908F907F906F9046
:1022E0005F904F903F902F9008958F929F92AF9262
:1022F000CF92EF92FF920F931F93CF93DF93EC0156
:10230000262F898D9A8D009709F051C06A30D1F43B
:102310001D861C868D8948E0849F900111248E853E
:102320009F85820F931F9F878E8781E090E0DF91CA
:10233000CF911F910F91FF90EF90CF90AF909F9012
:102340008F9008956D3089F3CC88AD888F8988236C
:10235000C1F08C859D8536E0C39E800D911D1124B2
:10236000488559854817590764F44E855F851D8651
:102370001C8638E0A39EC0011124840F951F9F87FF
:102380008E87EA88FB88088919894E855F856C8568
:102390007D85CE010E94500F2C898C859D8546E05D
:1023A000249F800D911D11249D878C87BECF6A309C
:1023B00069F41D861C86FC013896E4912D898E8572
:1023C0009F85E29F800D911D1124ADCF6D3009F4E2
:1023D000ACCFFC0134963491631708F4A6CF329643
:1023E000E491E61708F4A1CFFC0132968590949011
:1023F000462F431B342F47E0349F800C911C11243F
:10240000F401329634913196E4913323A9F1EE230D
:1024100099F1CC88F4013596E491AD884F89442335
:1024200001F10E2E000CFF0BE30FF11DCE9EA0015B
:10243000CF9E500D11246C857D85460F571F6885F2
:102440007985641775076CF44E855F851D861C863B
:10245000FC013896E491AE9E400D511D11245F871A
:102460004E87EA88FB88088919894E855F856C85C7
:102470007D85CE010E94500FF4013496E4912C89A1
:102480008C859D85E29F800D911D11248DCF0F932A
:102490001F93CF93DF938C01D0E0C0E0F801EC0FE5
:1024A000FD1F6491662341F089EE94E00E9475114E
:1024B000892B11F02196F2CFCE01DF91CF911F91A0
:1024C0000F9108956F927F928F929F92AF92BF92D9
:1024D000CF92DF92EF92FF920F931F93CF93DF93F0
:1024E000EC016B015A0139014801E881F98102844C
:1024F000F385E02D0995E881F9810288F389E02DC3
:1025000087019301A501B601CE010995A501480DEA
:10251000591D41505109E881F9810288F389E02D64
:102520009301B601CE010995E881F9810088F1890E
:10253000E02D9401A501B601CE010995C60CD71C6A
:10254000B60161507109E881F9810088F189E02DB7
:102550009401A501CE010995E881F9810688F789E2
:10256000E02DCE01DF91CF911F910F91FF90EF9061
:10257000DF90CF90BF90AF909F908F907F906F90A3
:1025800009946F927F928F929F92AF92BF92CF9257
:10259000DF92EF92FF920F931F93CF93DF935C0133
:1025A000EB016A01490138018701DC01ED91FC91E1
:1025B0006217730719F5641675062CF0962D872D92
:1025C0003A01C92ED82E9601261937092F5F3F4FA1
:1025D000048CF58DE02DA301BE01C5010995DF91A5
:1025E000CF911F910F91FF90EF90DF90CF90BF9010
:1025F000AF909F908F907F906F90089546155705EC
:1026000091F42617370724F0892D4B01C22FD82FBC
:102610009E01281939092F5F3F4F068CF78DE02D59
:10262000A601B401DACF0284F385E02D0995D50126
:10263000ED91FC910488F589E02D83019401A601B8
:10264000BE01C5010995D501ED91FC910688F78978
:10265000E02DC501DF91CF911F910F91FF90EF9079
:10266000DF90CF90BF90AF909F908F907F906F90B2
:102670000994EF92FF920F931F93DC011A960D912C
:102680001C911B9718962D913C911997ED91FC91F7
:1026900000A0F1A1E02D7B0150E040E070E060E09F
:1026A00009951F910F91FF90EF9008954F925F92BF
:1026B0006F927F928F929F92AF92BF92CF92DF9252
:1026C000EF92FF920F931F93CF93DF936C012B0137
:1026D0005A0139014801DC01ED91FC910284F38536
:1026E000E02D0995E201640C751CD601ED91FC9179
:1026F000C615D7055CF40088F189E02D87019401A7
:10270000A501BE01C60109952196EFCF0688F7897C
:10271000E02DC601DF91CF911F910F91FF90EF90B7
:10272000DF90CF90BF90AF909F908F907F906F90F1
:102730005F904F9009948F929F92AF92BF92CF92E9
:10274000DF92EF92FF920F931F93CF93DF93EC01F1
:102750005B014A016901E881F9810284F385E02D7A
:10276000099595012C0D3D1D21503109E881F98114
:102770000488F589E02D78018401A401B501CE011A
:102780000995E881F9810688F789E02DCE01DF916E
:10279000CF911F910F91FF90EF90DF90CF90BF905E
:1027A000AF909F908F9009948F929F92AF92BF921B
:1027B000CF92DF92EF92FF920F931F93CF93DF930D
:1027C000EC015B014A0169017801E881F981028429
:1027D000F385E02D0995C80CD91C8601015011091B
:1027E000E881F9810488F589E02D9501A401B501FE
:1027F000CE010995E881F9810688F789E02DCE019F
:10280000DF91CF911F910F91FF90EF90DF90CF90CC
:10281000BF90AF909F908F900994EF92FF920F938B
:102820001F93DC01ED91FC9100A0F1A1E02D099531
:102830001F910F91FF90EF9008950F931F93DC016C
:10284000ED91FC91068CF78DE02D09951F910F916C
:1028500008950F931F93DC01ED91FC91048CF58D8D
:10286000E02D09951F910F910895DC01ED91FC91E8
:102870000084F185E02D09942F923F924F925F9250
:102880006F927F928F929F92AF92BF92CF92DF9280
:10289000EF92FF920F931F93CF93DF9300D000D05E
:1028A000CDB7DEB77C018B015C834B8381E090E088
:1028B0005C01A41AB50A1A01319421943108220C42
:1028C000331C460F571F2FEF3FEFB70189EE94E0FF
:1028D0000E943514A8012B813C81421B530B2FEF22
:1028E0003FEFB70189EE94E00E9435146B817C8143
:1028F0006E0D7F1D2FEF3FEFA80189EE94E00E943F
:102900003514B7018B819C81681B790B2FEF3FEF4A
:10291000A80189EE94E00E94351421E030E03A836A
:102920002983D12CC12CB7FC0AC08B819C810197D3
:102930009C838B8392E0290E311CA20CB31C2FEFD9
:10294000C21AD20A89819A8102969A838983A80E33
:10295000B91E36016E0C7F1C2FEF3FEF8B809C80E1
:10296000800E911EA401B30189EE94E00E943514FB
:1029700027014C185D082FEF3FEFA401B20189EE4B
:1029800094E00E9435142FEF3FEF48018B819C812A
:10299000881A990AA401B30189EE94E00E943514C3
:1029A0002FEF3FEFA401B20189EE94E00E943514AD
:1029B0004601800E911E2FEF3FEFA4016B807C80BB
:1029C0006E0C7F1CB30189EE94E00E9435142FEF4A
:1029D0003FEFA40127018B819C81481A590AB2015B
:1029E00089EE94E00E94351448018C189D082FEF61
:1029F0003FEFA401B30189EE94E00E9435142FEF5C
:102A00003FEFA401B20189EE94E00E9435142B81BE
:102A10003C81C216D3060CF486CF0F900F900F9016
:102A20000F90DF91CF911F910F91FF90EF90DF906A
:102A3000CF90BF90AF909F908F907F906F905F905E
:102A40004F903F902F9008952F923F924F925F9218
:102A50006F927F928F929F92AF92BF92CF92DF92AE
:102A6000EF92FF920F931F93CF93DF9300D000D08C
:102A700000D0CDB7DEB73C016A013E832D83FC82D6
:102A8000EB825801A41AB50AB7FE03C0B194A19411
:102A9000B1088D809E80861A970A97FE03C0919494
:102AA000819491088A149B045CF0902F812F0D81F2
:102AB0001E819D838E839C2D8D2D6B01692F782F18
:102AC0000C151D055CF09D818E817E836D83692FC1
:102AD000782F902F812F8601C92ED82E1601201A0B
:102AE000310A2B012D813E81421A530A57FE03C041
:102AF000519441945108710137FE03C03FEFE31A2E
:102B0000F30AF594E7948D819E81861797075CF50B
:102B1000A1E0B0E0BA83A983C016D1064CF1D3017D
:102B2000ED91FC910484F585E02D2B813C81A80179
:102B30006D817E818A149B041CF04D815E81B801F9
:102B4000C3010995E418F508F7FE0AC02D813E81FE
:102B500089819A81280F391F3E832D83E20CF31C53
:102B60000F5F1F4FD9CF2FEF3FEF3A832983D4CF89
:102B700026960FB6F894DEBF0FBECDBFDF91CF9182
:102B80001F910F91FF90EF90DF90CF90BF90AF908B
:102B90009F908F907F906F905F904F903F902F907D
:102BA0000895089590E080E008958FE090E0019707
:102BB000F1F7089562E00C94AF07CF93C82F61E05E
:102BC0000E94AF0760E08C2FCF910C948107CF93C8
:102BD000DF93D82FC8E08BE0D7FF27C00E94DA151B
:102BE0000E94D5158DE00E94DA150E94D5158DE062
:102BF0000E94DD15DD0FC15071F78BE00E94DA15E0
:102C00000E94D5158DE00E94DA150E94D5158BE043
:102C10000E945807EC018DE00E94DD1581E0CD2B6C
:102C200009F080E0DF91CF9108950E94DD15D8CFA3
:102C30008BE00E94DD158DE00E94DA150E94D5150B
:102C40008BE00E94DA150C94D5158BE00E94DA1502
:102C50008DE00E94DA150E94D5158BE00E94DD15EB
:102C60000E94D5158DE00C94DD159F92AF92BF9216
:102C7000CF92DF92EF92FF920F931F93CF93DF9348
:102C8000D82F162FF72EC42E0E942516C091400172
:102C90008C2F880F0E94E715882329F08D2F0E9422
:102CA000E715811110C00E94181600E0802FDF91F7
:102CB000CF911F910F91FF90EF90DF90CF90BF9039
:102CC000AF909F9008950E9425168C2F880F8160E9
:102CD0000E94E715082F882331F3912EC12FDF2D95
:102CE000EE24E394F12CAC2CB12C8BE00E94DA158D
:102CF00088E0D82E10E0110F8DE00E94DA150E94B6
:102D0000D5158BE00E945807892B09F011608DE0E2
:102D10000E94DD150E94D515DA94D110ECCF8BE01E
:102D2000EA14FB04C4F40E94DD158DE00E94DA155C
:102D30000E94D5158DE00E94DD158BE00E94DA150A
:102D400019938FEFE81AF80A8C2F89198C1568F2FD
:102D50000E941816ABCF0E94DA15E7CF2F923F9250
:102D60004F925F926F927F928F929F92AF92BF929B
:102D7000CF92DF92EF92FF920F931F93CF93DF9347
:102D8000CDB7DEB76F970FB6F894DEBF0FBECDBFDD
:102D900046E0BE016F5F7F4F87EF0E9435168A8B3A
:102DA00081111BC01A8A8A896F960FB6F894DEBF0C
:102DB0000FBECDBFDF91CF911F910F91FF90EF908C
:102DC000DF90CF90BF90AF909F908F907F906F904B
:102DD0005F904F903F902F90089589808D8E9A80BC
:102DE0009E8E8B808F8E8C8190E0B0E0A0E01CE006
:102DF000880F991FAA1FBB1F1A95D1F74D8150E06C
:102E000070E060E004E0440F551F661F771F0A95CD
:102E1000D1F7842B952BA62BB72B2E8130E044E0E5
:102E2000359527954A95E1F7032E000C440B550B79
:102E3000822B932BA42BB52B4091D3045091D40417
:102E400070E060E06C017D01E4E0F594E794D794D4
:102E5000C794EA95D1F7C41AD50AE60AF70AF3E04F
:102E6000B595A79597958795FA95D1F7440F551F76
:102E7000661F771F4C015D01841A950AA60AB70ADE
:102E8000A5019401A091D104B091D2040E943330E5
:102E90004B015C010BE0B594A794979487940A9535
:102EA000D1F7A7019601C701B6010E9403339B0128
:102EB000AC018CE055954795379527958A95D1F7C4
:102EC000A091CF04B091D0040E9433306B017C01FB
:102ED0009EE0F594E794D794C7949A95D1F7C80CDF
:102EE000D91CEA1CFB1CA5E0B0E0A70196010E94DA
:102EF000283060587F4F8F4F9F4F672F782F892F33
:102F0000992787FD9A950E948E3120E030E048ECA9
:102F100052E40E94DE306093B9047093BA04809347
:102F2000BB049093BC0446015701BB0C8808982C45
:102F300054019601A701682D782D882D982D345FB6
:102F40004140510961097109810991092F8338872D
:102F500049875A876B877C878D879E8759016A01CD
:102F60007B018C010E9427332F87388B498B588F28
:102F7000698F7A8F8B8F9C8F3091C6042091C50406
:102F8000932F990F990B492F592F692F792F892F3B
:102F90000E9427330CE00E945634722E832E942E0A
:102FA000652E562E472E382E292E3091C80420919A
:102FB000C704932F990F990BAF84B888C988D88C10
:102FC000E98CFA8C0B8D1C8D492F592F692F792F85
:102FD000892F0E94273308E00E946F34A72CB82C59
:102FE000C92CD62CE52CF42C032D122D0E948C34E8
:102FF00070588F4F9F4F2090C3043090C4045101EC
:10300000C12CD12CE12CF12C00E010E00E942733E0
:1030100001E20E946F342B8B3C8B4D8B5E8B6F8B50
:10302000272E382E492EA0E00E949E3409F4BACEF5
:103030003091CE042091CD04932F990F990BAF843A
:10304000B888C988D88CE98CFA8C0B8D1C8D492FD7
:10305000592F692F792F892F0E9427332F87388B7B
:10306000498B552E3B014C013091CC042091CB046F
:10307000932F990F990BAF80B884C984DA84EB84BD
:10308000FC840D851E85492F592F692F792F892F93
:103090000E94273301E10E945634AF84B888C98862
:1030A000D52C730184010E948C3459016A017B0183
:1030B000582E192F9D8C492D50E070E060E08CE077
:1030C000440F551F661F771F8A95D1F78E8C882D68
:1030D00090E0B0E0A0E024E0880F991FAA1FBB1F7A
:1030E0002A95D1F7842B952BA62BB72B9F8C292DB6
:1030F00030E044E0359527954A95E1F7A901330F73
:10310000660B770B482B592B6A2B7B2B80E090E0CA
:10311000A0E1B0E0841B950BA60BB70B3C014D0161
:10312000990C6608762C43019C01AD01662D762D25
:10313000862D962D0FE10E94563439014A01B62F93
:10314000A72FF82FE92F3091CA042091C904932F9B
:10315000990F990B492F592F692F792F892F03E246
:103160000E945634052D0E948C3459016A017B015E
:103170008C019301A4016B2F7A2F8F2F9E2F0E9419
:103180009534E5E3AE2EFCE0BF2EC12CD12CE12C12
:10319000F12C00E010E00E942733AB88BC88CD887A
:1031A000DE88EF88F22C032D142D0E9481332F83AB
:1031B000388749875A876B877C878D879E870DE084
:1031C0000E946F34922E832E742E652E562E472E1B
:1031D000382E292E3091C2042091C104932F990FCB
:1031E000990BA92CB82CC72CD62CE52CF42C032D2C
:1031F000122D492F592F692F792F892F0E9427339C
:103200000E94273309E10E946F34AF80B884C984DB
:10321000DA84EB84FC840D851E850E948C341901B0
:103220002A013B014C013091C0042091BF04932F2F
:10323000990F990B492F592F692F792F892F0E94A8
:10324000273303E10E946F3459016A017B018C012D
:103250009101A201B301C4010E948C3408E00E94D4
:103260006F3459016A017B01E82F192F3091BE0498
:103270002091BD04932F990F990B492F592F692F36
:10328000792F892F04E00E9456340E2F0E948C342F
:103290000E94863120E030E040E85BE30E949132FA
:1032A00020E030E048EC52E40E94DE306093B50448
:1032B0007093B6048093B7049093B80474CDCF9301
:1032C000DF93D82FC62F0E94251680914001880FCA
:1032D0000E94E715811107C0C0E00E9418168C2FCC
:1032E000DF91CF9108958D2F0E94E7158823A1F3D8
:1032F0008C2F0E94E715C82FF0CF0F931F93CF9309
:10330000DF93CDB7DEB76B970FB6F894DEBF0FBE75
:10331000CDBF8BE00E94DA158DE00E94DA151B8E7E
:1033200086E7898F87E78A8F02E010E0E0E089E195
:1033300090E08C0F9D1F8E0F911DFC01808180936A
:10334000400141E0BE01655E7F4F80ED0E94351671
:10335000882319F08B8D8036A1F0E1E00130110552
:1033600069F410E0812F6B960FB6F894DEBF0FBEA4
:10337000CDBFDF91CF911F910F91089501E010E033
:10338000D6CF48E1BE016F5F7F4F88E80E943516B7
:10339000182F882331F389819A819093D4048093E4
:1033A000D3048B819C819093D2048093D1048D812E
:1033B0009E819093D0048093CF048F8198859093C1
:1033C000C4048093C30489859A859093C60480932E
:1033D000C5048B859C859093C8048093C7048D8514
:1033E0009E859093CA048093C9048F859889909391
:1033F000CC048093CB0489899A899093CE048093DE
:10340000CD048B899C899093BE048093BD048D89E3
:103410009E899093C0048093BF048F89988D909368
:10342000C2048093C10467E284EF0E945F1960EADE
:1034300085EF0E945F1996CF8F929F92AF92BF92B5
:10344000CF92DF92EF92FF92CF93DF93C82F6A0162
:103450007B010E9400084B015C01D0E083E10E94E7
:1034600058078C179D07B9F00E9400086819790960
:103470008A099B09C616D706E806F90678F780E0A0
:10348000DF91CF91FF90EF90DF90CF90BF90AF9002
:103490009F908F90089581E0F3CF4F925F926F924B
:1034A0007F928F929F92AF92BF92CF92DF92FF92C4
:1034B0000F931F93CF93DF9300D000D01F92CDB70F
:1034C000DEB7CE0101965C0185E0F50111928A9587
:1034D000E9F761E083E10E94AF0760E083E10E94C9
:1034E000810764E170E080E090E00E94250861E0DF
:1034F00083E10E94810783E790E00197F1F762E0A2
:1035000083E10E94AF0748E750E060E070E080E0B0
:103510000E941C1A882309F489C048E750E060E043
:1035200070E081E00E941C1A882309F47FC048E7FC
:1035300050E060E070E080E00E941C1A882309F4EB
:1035400075C000E044E650E060E070E081E00E9479
:103550001C1A882309F46AC00E9400082B013C0150
:1035600048E750E060E070E080E00E941C1AF82E0E
:10357000882309F45BC0C02EC694C694C694CA0CB6
:10358000DB2CD11CF6011081110F10830E94000862
:1035900064197509860997096932710581059105D4
:1035A00018F01160F60110830F5F083259F6198187
:1035B0006A81812F860F9B81890F9C81890F9D8154
:1035C000891334C070E090E080E00E948E312DECD1
:1035D0003CEC4CEC5DE30E9491324B015C01612FAD
:1035E00070E090E080E00E948E319B01AC01C5014B
:1035F000B4010E946D304B015C01809200019092F9
:103600000101A0920201B092030120E030E0A90183
:103610000E948C3287FD0AC020E030E048EC52E482
:10362000C501B4010E94D93018160CF4F12C8F2D6D
:103630000F900F900F900F900F90DF91CF911F91EF
:103640000F91FF90DF90CF90BF90AF909F908F90A1
:103650007F906F905F904F900895EF92FF920F933D
:103660001F93DC011A960D911C911B9718962D91B2
:103670003C911997ED91FC9100A0F1A1E02D7B0107
:1036800050E040E070E060E009951F910F91FF90DD
:10369000EF9008950F931F93CF93DF9370E060E056
:1036A00089EE94E00E942D1BC9EED4E080E098EFF3
:1036B0009B8B8A8B998B888B82E08C8B8D8B86E1A0
:1036C00090E09D878C8780E590E09F878E8788EFCC
:1036D00090E00E9447128FEF9FEF9B8B8A8B998B14
:1036E000888B81E08C8B8D8B0FE010E01D870C8721
:1036F0008DE790E09F878E8787EE90E00E944712CB
:103700001D870C8781E990E09F878E8784ED90E08C
:10371000DF91CF911F910F910C944712EF92FF927E
:103720000F931F93DC01ED91FC9100A0F1A1E02D1E
:10373000780101E010E009951F910F91FF90EF9043
:103740000895EF92FF920F931F93DC01ED91FC918E
:1037500000A0F1A1E02D7801890121E030E0099578
:103760001F910F91FF90EF900895FC0101900020B0
:10377000E9F73197AF01481B590BBC0189EE94E082
:103780000C9464088F929F92AF92BF920F931F93F5
:10379000CF93DF93CDB7DEB7A1970FB6F894DEBF16
:1037A0000FBECDBF19A2423008F44AE08E010F5D72
:1037B0001F4F842E912CB12CA12CA50194010E94A5
:1037C0003B30E62FB901CA01EA30F4F4E05DD801DC
:1037D000EE938D01232B242B252B79F790E080E0AD
:1037E000109719F0CD010E94B51BA1960FB6F89461
:1037F000DEBF0FBECDBFDF91CF911F910F91BF9064
:10380000AF909F908F900895E95CE1CF4F925F92C7
:103810006F927F928F929F92AF92BF92CF92DF92E0
:10382000EF92FF920F931F93CF936B017C01742E45
:10383000AC019B010E94FE32882399F083E391E062
:10384000CF911F910F91FF90EF90DF90CF90BF909D
:10385000AF909F908F907F906F905F904F900C945F
:10386000B51B46015701E894B7F82FEF3FEF4FE73C
:103870005FE7C501B4010E94FE3281110DC02FEF38
:103880003FEF4FE75FE7C501B4010E94D93018163A
:103890001CF487E391E0D4CF2FEF3FEF4FE75FE4D5
:1038A000C701B6010E948C3218161CF48BE391E01C
:1038B000C7CF2FEF3FEF4FE75FECC701B6010E9484
:1038C000D93087FDF3CF20E030E0A901C701B60170
:1038D0000E94D93010E000E087FF0AC06DE289EE57
:1038E00094E00E9475118C01F7FAF094F7F8F094C7
:1038F000C0E060E070E080E09FE37C1641F020E0F3
:1039000030E040E251E40E94DE30CF5FF6CFA70105
:1039100096010E946D302B013C010E9457314B01F2
:103920005C014AE00E94C21B7C01E00EF11ECC2328
:10393000C1F1C501B4010E948C319B01AC01C301EE
:10394000B2010E946C304B015C016EE289EE94E0A2
:103950000E947511E80EF91EC15018F120E030E008
:1039600040E251E4C501B4010E9491322B013C01B7
:103970000E9457314B01B12CA12C4AE0C501B40182
:103980000E94C21BE80EF91EC501B4010E948C31D1
:103990009B01AC01C301B2010E946C304B015C0180
:1039A000DBCFC701CF911F910F91FF90EF90DF9078
:1039B000CF90BF90AF909F908F907F906F905F90CF
:1039C0004F9008952F923F924F925F926F927F9205
:1039D0008F929F92AF92BF92CF92DF92EF92FF921F
:1039E0000F931F93CF93DF9300D000D0CDB7DEB7F6
:1039F000D82E1B0129013A011A83098347018091BE
:103A0000F3049091F4049C838B8397FF03C0019689
:103A10009C838B838B819C81959587959C838B83DD
:103A2000D89E5001D99EB00C11242091F104309100
:103A3000F204F12CE12C8C01A50170E060E089EE2C
:103A400094E00E941E0B2091F1043091F204EE24C8
:103A5000EA94FE2C0B811C81A50170E060E089EEE8
:103A600094E00E9462128FEF9FEF9093FC0480938A
:103A7000FB049093FA048093F90412E01093FD0480
:103A80001093FE0475019CE0E90EF11C88E090E0C3
:103A90009093F6048093F504F092F804E092F70412
:103AA000C1010E9447129092FC048092FB04909204
:103AB000FA048092F9041093FD041093FE0480919F
:103AC000F1049091F20420E330E0D11002C02EE125
:103AD00030E0821B930B9093F6048093F504F092F0
:103AE000F804E092F70489819A810E944712C092FB
:103AF000FD04C092FE0420E030E04AE754E4C30134
:103B0000B2010E948C3216E087FF16C020E030E040
:103B100048EC52E4C301B2010E948C3215E087FFE9
:103B20000BC020E030E040E251E4C301B2010E944A
:103B30008C3213E087FF14E020E030E0A901C301DC
:103B4000B2010E94D93087FD1F5F26E0129FC0019D
:103B50001124D12C8C9D90018D9D300D9C9D300D9C
:103B600011242090F1043090F204221A330A37FE17
:103B700003C08FEF281A380A359427948B819C81D3
:103B80008A9743E0CC0CDD1C4A95E1F78C199D091E
:103B90009A83898397FF03C001969A8389838981D9
:103BA0009A81959587959A8389839AE2A90EB11C8B
:103BB00089819A818A0D9B1D9A8389839092FC0446
:103BC0008092FB049092FA048092F9043092F604F9
:103BD0002092F5049093F8048093F70441E0C30128
:103BE000B2010E94061C9FEF291A390A3092F6048E
:103BF0002092F50489819A819093F8048093F704C8
:103C000041E0C301B2010F900F900F900F90DF9130
:103C1000CF911F910F91FF90EF90DF90CF90BF90C9
:103C2000AF909F908F907F906F905F904F903F905C
:103C30002F900C94061C2F923F924F925F926F929E
:103C40007F928F929F92AF92BF92CF92DF92EF922C
:103C5000FF920F931F93CF93DF93CDB7DEB7A69755
:103C60000FB6F894DEBF0FBECDBF7A83698319010A
:103C70002A011C870B87ED86F98AD88ACF866BAC20
:103C80007CAC7EA26DA2C090F304D090F404D7FE69
:103C900003C02FEFC21AD20AD594C7948C9D30016D
:103CA0008D9D700C11247C826B822AE2620E711C45
:103CB0004B815C814C0D5D1D5C8B4B8B49505109D8
:103CC0005E834D836091F1047091F2047A87698775
:103CD000F12CE12C86019B014B815C8170E060E05E
:103CE00089EE94E00E941E0B2091F1043091F204C1
:103CF000EE24EA94FE2C4B815C8170E060E089EE5A
:103D000094E00E94621281E08093FD048093FE049F
:103D10008FEF9FEF9093FC048093FB049093FA0441
:103D20008093F90488E090E09093F6048093F50482
:103D30008B819C810F969093F8048093F70489817E
:103D40009A810E94471282E08093FD048093FE04D2
:103D50008F8598899093FC048093FB049093FA04D8
:103D60008093F9048CE590E09093F6048093F50439
:103D70008B819C8109969093F8048093F70441E02D
:103D8000C201B1010E94061C8B859C850E944712CE
:103D90004D805E8046185708D12CC12C15E0F12EBD
:103DA00029843A849FE0291A3108A601D7FE02C06F
:103DB0004D5F5F4F5595479555954795460D571D56
:103DC00004E011E2910168E070E089EE94E00E9465
:103DD0008E1BFA94C40CD51CF110E7CFE984FA8449
:103DE000A0E1EA1AF108D12CC12C77E0972EBFEFA1
:103DF0004B1A5B0AE6E02E2E312CC601B1010E945F
:103E00001333685F7F4F04E011E29201A30189EE52
:103E100094E00E94A11B9A94CE0CDF1C9110EDCF70
:103E2000882009F48EC14D84498259885A82A9811B
:103E3000BA812D913D91BA83A983FD012901C90160
:103E4000CC24C394C81461F041915191481759078B
:103E50000CF4CA01441655060CF42A01C394F2CF9F
:103E60004201881A990A8A149B040CF0DFC0480E9C
:103E7000591E57FE03C0BFEF4B1A5B0A42019594CF
:103E80008794C501B7FC019695958795881A990A7C
:103E9000F501E80DF91D49855A85485051095E8B99
:103EA0004D8B0C2D10E0A801415051094E9DC001D1
:103EB0004F9D900D5E9D900D112465EC7FEF0E944B
:103EC00013334D885E88460E571E5C864B864D81A7
:103ED0005E81052E000C660B770B4D835E836F832E
:103EE0007887092C000CAA08BB08C301770CAA0B21
:103EF000BB0B2C013D01441A550A660A770A4F8A0A
:103F0000588E698E7A8E2F01FF0F66087708B301ED
:103F1000A201481959096A097B094B8F5C8F6D8F83
:103F20007E8F032E000C440B550B281939094A09C2
:103F30005B096F89788D898D9A8D0E9403332B8D53
:103F40003C8D4D8D5E8D0E9409306D817E818F810B
:103F50009885260F371F481F591F190180E190E0EF
:103F6000DC01E985FA85AE1BBF0BBCA3ABA30250F5
:103F700011090E9D90010F9D300D1E9D300D1124D5
:103F80003E872D87DD24D394CD1409F45FC08D8541
:103F90009E8565EC7FEF0E9413334D895E89460F45
:103FA000571F5A8B498BA981BA812D913D91BA83B4
:103FB000A983032E000C440B550B281939094A0913
:103FC0005B096F89788D898D9A8D0E9403332B8DC3
:103FD0003C8D4D8D5E8D0E9409306D817E818F817B
:103FE0009885620F731F841F951F6F8F78A389A315
:103FF0009AA3EF84F8880F8D18A129893A89A10125
:104000006B857C8589EE94E00E94C112D3948D85E6
:104010009E85ABA1BCA18A0F9B1F9E878D872F8C8D
:1040200038A0E989FA89FC87EB87AECF540143E0D9
:10403000B594A7944A95E1F7EFEFAE1ABE0A4C018A
:104040008A189B08F201EA0DFB1D25CFA101415002
:1040500051096B857C8561507109EF84F88803E014
:1040600010E023E030E089EE94E00E941E0B81E036
:104070008093FD048093FE048FEF9FEF9093FC04E8
:104080008093FB049093FA048093F9040AE010E013
:104090001093F6040093F5048B819C818C96909389
:1040A000F8048093F704C301B2010E948E3120E02E
:1040B00030E040E251E40E94DE3041E00E94061C04
:1040C000EB88FC88F2E1EF1AF1081093F6040093F4
:1040D000F504F092F804E092F704C501B4010E94DF
:1040E0008E3120E030E040E251E40E94DE3041E0D9
:1040F0000E94061C89859A85C5979093F604809343
:10410000F504F092F804E092F7048DA19EA1A69622
:104110000FB6F894DEBF0FBECDBFDF91CF911F91D8
:104120000F91FF90EF90DF90CF90BF90AF909F9056
:104130008F907F906F905F904F903F902F900C9456
:104140004712A6960FB6F894DEBF0FBECDBFDF9123
:10415000CF911F910F91FF90EF90DF90CF90BF9084
:10416000AF909F908F907F906F905F904F903F9017
:104170002F9008958F929F92AF92BF92CF92DF922D
:10418000EF92FF920F931F93CF93DF938091A70439
:104190002091B9043091BA044091BB045091BC0401
:1041A0008111C5C016E0C12E00EEE02EFF24FA9466
:1041B00006EC10E068EC70E00E94E21C8091A6041E
:1041C0002091B5043091B6044091B7045091B804E1
:1041D0008111D9C0A5E0CA2EEE24EA94B7E0FB2EE7
:1041E00005E910E069E970E081E00E94E21CC090FE
:1041F000F104D090F204D7FE03C08FEFC81AD80A9A
:10420000D594C794C091F304D091F404D7FD2196BE
:10421000D595C795AE0148505109B601685071094E
:10422000F12CE12C01E110E021E130E089EE94E095
:104230000E941E0B47E050E0BE01C6010E943C14E4
:1042400044E050E0BE01C6010E943C146091F104BC
:104250007091F2046E54710977FF02C06F5F7F4F57
:10426000EB01D595C795C090F304D090F4044601B6
:1042700082E1881A9108F12CE12C01E110E02EE492
:1042800030E0A401BE0189EE94E00E941E0B9FE184
:10429000E92E98EFF92E2EE430E0A401BE0189EE5C
:1042A00094E00E94621281E08093FD048093FE04FA
:1042B0008FE198EF9093FC048093FB049093FA04B1
:1042C0008093F9042696D093F604C093F5048DE00C
:1042D000C81AD108D092F804C092F7048DE690E095
:1042E0000E944712C0900001D0900101E0900201AD
:1042F000F0900301A7019601C701B6010E94FE32AA
:10430000882309F46CC08AE690E00E94471288E690
:1043100090E0DF91CF911F910F91FF90EF90DF9090
:10432000CF90BF90AF909F908F900C9447128130A8
:1043300019F18230D1F48090C00280EB90E069E303
:1043400073E09F938F93C4E1AC2EB12CD0EECD2EB1
:10435000DD24DA947B0102EA10E064EA70E080E098
:104360000E941B1E0F900F9029CF8090CF0187EBEA
:1043700090E068E472E0E5CF8090B1038FEB90E0CD
:104380006AE274E0DECF813019F18230D1F480909E
:10439000C0028FE790E061EC72E09F938F93E2E3BD
:1043A000AE2EB12CCC24CA94F7E0DF2E7B0102E7BD
:1043B00010E066E770E081E00E941B1E0F900F90F6
:1043C00016CF8090CF0186E890E060ED71E0E5CFF8
:1043D0008090B1038EE890E062EB73E0DECF40E0C6
:1043E000C701B6010E94061C92CF0E94C4341F93DD
:1043F000CF93DF9385ED8093BC0080914401909131
:104400004501A0914601B09147010796A11DB11D3C
:1044100023E0B695A795979587952A95D1F7209192
:10442000BC0024FD03C010928C0152C04091440195
:10443000509145016091460170914701452B462BF3
:10444000472B69F30097A105B10541F02AE22A95AF
:10445000F1F700C00197A109B109E1CF80914301B3
:10446000C1E0C0934201882399F1D091B800109126
:10447000BA008091BC008A7B8093BC0060E082E13E
:104480000E94810760E083E10E94810710928C0105
:10449000C0938E0110928D0161E082E10E9481073C
:1044A00061E083E10E9481078091B9008E7F809353
:1044B000B9008091B9008D7F8093B90088E4809322
:1044C000B80085E48093BC001093BA00D093B80084
:1044D000DF91CF911F910895CF92DF92EF92FF92DB
:1044E0000F931F93CF93DF93FA01690130813C331F
:1044F000E8F4E32EF12CEE0CFF1C8E0D9F1DDC0169
:10450000CD92DC92C081D0E0CC0FDD1FC60FD71F4B
:104510001983088380818F5F8083DF91CF911F9102
:104520000F91FF90EF90DF90CF900895EB017C0109
:10453000BC016E5F7F4F46E750E00E94C934BE0168
:104540006E5F7F4F46E750E0CE010E94C934F7010D
:10455000EA58FF4FD182C082CA58DF4F19830883BF
:10456000DCCF1F920F920FB60F9211242F933F931F
:104570008F939F93AF93BF938091AC049091AD04C0
:10458000A091AE04B091AF043091AB0423E0230FAF
:104590002D3758F50196A11DB11D2093AB048093D2
:1045A000AC049093AD04A093AE04B093AF0480919B
:1045B000B0049091B104A091B204B091B3040196FB
:1045C000A11DB11D8093B0049093B104A093B204D7
:1045D000B093B304BF91AF919F918F913F912F9171
:1045E0000F900FBE0F901F90189526E8230F02968C
:1045F000A11DB11DD2CF1F920F920FB60F921124A1
:104600002F933F934F935F936F937F938F939F93DA
:10461000AF93BF93EF93FF938091B900887F80366B
:1046200009F44AC0F0F5883209F4A5C018F58031C4
:1046300009F499C0B8F4882309F4F5C0883009F466
:1046400092C0FF91EF91BF91AF919F918F917F9118
:104650006F915F914F913F912F910F900FBE0F90EF
:104660001F901895883109F486C0803251F78093E5
:104670008B0114C0803409F49BC040F48033B9F33B
:104680008833F9F680938B0185ECAEC0803509F450
:1046900083C0883509F494C0883499F60E94F721C4
:1046A000D0CF883909F48AC038F5883729F050F41A
:1046B000883611F0803729F683E080938C011092C0
:1046C0008A0155C0883809F479C0803919F08038DA
:1046D00009F0B7CF80918A01803208F06FC0E09175
:1046E0008A0181E08E0F80938A018091BB00F0E007
:1046F000E659FE4F80833BC0803B39F0D0F4803ACE
:1047000009F477C0883A09F09CCF84E080938C014B
:104710001092690110926801F0E0E0E00995809143
:10472000680181110FC081E08093680110924801F7
:1047300009C0803C09F4A8CF883C09F4A5CF883B88
:1047400009F07FCFE091690181E08E0F80936901CC
:10475000F0E0E85BFE4F80818093BB00909169019F
:104760008091680129C08091B1018093BB0085ECE4
:104770008093BC0066CF9091B0018091AF019817F3
:1047800058F5E091B00181E08E0F8093B001F0E028
:10479000E157FE4F8081E9CFE091B00181E08E0FBB
:1047A0008093B0018091BB00F0E0E157FE4F808321
:1047B0009091B0018091AF019817C8F285E8D8CFE9
:1047C000E091B00181E08E0F8093B0018091BB0039
:1047D000F0E0E157FE4F808380918E0181115ECF22
:1047E00081E080938D0184EA8093BC0010928C015B
:1047F00028CF85EC8093BC0010928C0180918A01B7
:10480000803230F4E0918A01F0E0E659FE4F1082E8
:1048100060918A0170E08AE691E0F0E0E0E00995BD
:1048200010928A010ECF10928B0138CFE9EEF4E09E
:104830001382128220EF30E03583248380E491E0FC
:10484000978386833187208793878287168A158688
:1048500014861786168681E0858B848B2FEF3FEFB9
:10486000338B228B318B208B878B108E128E118E87
:104870008BE091E091838083A5EDB4E081E1129615
:104880008C93129780E114968C93149789E0139679
:104890008C93139788E015968C9315978CE291E092
:1048A00017969C938E931697EAEFFDE0E491F0E063
:1048B000EE0FFF1FE851F24F8591949119969C934A
:1048C0008E931897E3E0FEE0E491F0E0EE0FFF1F17
:1048D000E851F24F859194911B969C938E931A9771
:1048E000E2E0FEE0E491F0E0EE0FFF1FE851F24F4E
:1048F000859194911D969C938E931C97EBEFFDE010
:10490000E491F0E0EE0FFF1FE851F24F8591949192
:104910001F969C938E931E97ECEDFDE0E4915096CC
:10492000EC935097E5EEFDE0E4915296EC935297AC
:10493000E4EEFDE0E4915196EC935197EDEDFDE04E
:10494000E4915396EC9353978AE090E08D939C9377
:104950000895CF93DF93CDB7DEB767970FB6F8947E
:10496000DEBF0FBECDBF789484B5826084BD84B5B0
:10497000816084BD85B5826085BD85B5816085BD5A
:1049800080916E00816080936E0010928100809112
:10499000810082608093810080918100816080939A
:1049A0008100809180008160809380008091B100BF
:1049B00084608093B1008091B00081608093B000EA
:1049C00080917A00846080937A0080917A0082607E
:1049D00080937A0080917A00816080937A00809140
:1049E0007A00806880937A001092C10060E090E0C5
:1049F00080E00E9473098C01883024E5920751F110
:104A0000803234E5930731F18938994809F41CC1A3
:104A100060E087E690E00E94730907E413E88734BA
:104A20009744C1F08FEE90E00E94F0098B010732AD
:104A300083E9180779F081EA90E00E94D10903E642
:104A400019E1613091E6790729F06F3F760791F51A
:104A500006E215E10E94470910920505109204052F
:104A60001093090500930805013350E8150709F470
:104A70002BC708F0ACC1033590E2190709F47AC7D7
:104A800008F044C10131B5E11B0709F46FC208F019
:104A9000FEC00939110509F426C708F0E4C080E01A
:104AA00091E10130110509F4E9C01092EE04109271
:104AB000ED0459C26115BFEF7B0719F400E215E15F
:104AC000C9CF6115704F09F4C2C08FEB90E00E940E
:104AD000F0098B01673523E8720709F4BBCF613811
:104AE00034E9730709F4B6CF613145E1740709F47D
:104AF000B1CF6032754111F3063285E1180709F430
:104B0000A7CF013895E1190709F4A4CF0115144185
:104B100009F4A0C084ED90E00E94D1098B016031BE
:104B2000734509F497CF87ED90E00E94D1098B017E
:104B30006133704809F48ECF8EEF90E00E94D10966
:104B4000072F182F292F3327033530E2130709F4D5
:104B500081CF84E090E00E94D1098B01833E31F443
:104B6000672B09F054C000E013EE74CF81114FC0E1
:104B70006115704809F04BC08091040190910501C6
:104B8000A091060189839A83AB83AE014F5F5F4F8B
:104B900063E089EB90E00E94DD0860E080ED90E04A
:104BA0000E94730909E910E0893909F453CF00E93B
:104BB00010E9803909F44ECF83ED90E00E94D109CD
:104BC000072F182F292F33270336B1E91B0709F4C4
:104BD00041CF83ED90E00E94D1098B01693222E33D
:104BE000720709F437CF872F7359723040F1883933
:104BF00031F1873721F1863111F1033D110509F4B7
:104C000029CF033D134DA9F401E413E923CF063264
:104C100055E1150709F41CCF003F89E81807E9F0B2
:104C2000023595E81907E1F00131ACEA1A0721F6DF
:104C300011CF60E090E080E00E9473098C01033D99
:104C4000100709F007CFE0CF09E812E103CF01EA2E
:104C500015E000CF04E118E6FDCE05E317E7FACE34
:104C600009E817E7F7CE043531E0130709F46FC1FF
:104C70000530154109F019CF84E090E190930705C4
:104C80008093060568ED70E087EB9AE06AC1013811
:104C900055E1150709F47DC6A8F4003295E119071E
:104CA00009F4BFC50632154109F0FFCE83E194E057
:104CB00090930705809306052CE0E22EF12C06E682
:104CC00018E06BC10230B6E11B0709F447C6033692
:104CD000194109F0EACE81E08093B30183E59AE0BF
:104CE000909307058093060580EE91E09093F00481
:104CF0008093EF0480E293E09093EE048093ED04C0
:104D000093E5E92EF12C03E118E047C1093038E6BC
:104D1000130709F400C600F5053355E4150709F437
:104D20008CC580F40932124309F0BFCE83E096E0CF
:104D3000909307058093060580E4E82EF12C03ED9F
:104D400017E02BC10031A3E51A0709F481C508302B
:104D5000144509F491CFA9CE093827E7120709F4C1
:104D6000A7C5A0F4043148E6140709F489C503383F
:104D7000174709F09ACE82E091E19093070580935E
:104D8000060568E870E08FE89BE0EBC0033987E731
:104D9000180709F431C60639174709F086CE83E0B3
:104DA00094E0909307058093060580EE91E0909340
:104DB000F0048093EF0480E491E09093EE048093FC
:104DC000ED049DE0E92EF12C03E416E0E6C0083383
:104DD000A3E91A0709F4D7C508F04EC0053223E944
:104DE0001207E1F160F5003940E9140709F478C5CC
:104DF000E0F40735134809F058CE83E094E190932E
:104E000007058093060580EE91E09093F00480936F
:104E1000EF0480E491E09093EE048093ED04F2E0DF
:104E2000EF2EF12C09E717E0B8C0023093E919071B
:104E300009F4A6C50032134909F41ECF36CE093253
:104E4000B3E91B0709F4A2C560F4073233E913077D
:104E500009F46CC50832134909F027CE80E091E1CE
:104E60005CC5013353E9150721F00533134909F0F7
:104E70001CCE80E090E151C5093894E91907C8F5C6
:104E80000738A4E91A0708F09FC50138B4E91B07E1
:104E900009F497C590F4005413490230110508F045
:104EA00004CE83E194E0909307058093060545E6E0
:104EB000E42EF12C00ED16E070C00638144909F01C
:104EC000F4CD83E094E0909307058093060580EE8F
:104ED00091E09093F0048093EF0480E491E090934C
:104EE000EE048093ED042BE3E22EF12C00E516E0B6
:104EF00054C0093045EB140709F47EC5A0F4013114
:104F00008CEA180709F439C50530154B09F0CDCDE9
:104F100088E090E1909307058093060560EB70E0D0
:104F20008BE399E01EC00530A5EC1A0789F383E1F5
:104F30009EE00115134E09F0B8CD909307058093BC
:104F4000060553E0E52EF12C05E317E026C082E0CC
:104F500090E190930705809306056CE970E083EB80
:104F60009CE00E94240A10E000E017C083E090E07B
:104F7000909307058093060580EE91E09093F004EE
:104F80008093EF0480E491E09093EE048093ED042D
:104F900043E0E42EF12C08E718E020910705822F6A
:104FA00082958F7090E08170992790930B05809384
:104FB0000A050115110581F069E070E08FE096E0C7
:104FC0000E949108B701C8010E94910866E070E054
:104FD00089E096E00E94910860E089EE94E00E94EA
:104FE0009B0C60E089EE94E00E94460A80910805DF
:104FF000909109058838944909F016C11092B201C0
:1050000020EE3FEF50E040E070E060E089EE94E099
:105010000E94110CF0901405E09015058091060592
:1050200080FF03C00EE2F02EE12C809108059091E4
:1050300009058230964119F41EE2F12EE12C10E0B0
:1050400000E030E020E050E040E070E060E089EE19
:1050500094E00E94890A8091060580FD10C070E0EE
:1050600060E080911005909111050E940E0970E09A
:1050700060E080911205909113050E940E094398FB
:10508000429885B18C7F9E2D9370892B85B99BB1F9
:1050900093702E2D2C7FE22EE92AEBB84198419A8D
:1050A00085B18C7F9F2D9370892B85B99BB19370AF
:1050B0003F2D3C7FF32EF92AFBB84198419A429A42
:1050C00084B18C7F84B98AB183708AB92091060536
:1050D00030910705809108059091090526FD0EC0C5
:1050E000409A40984098409843B149B1409A20FD79
:1050F00005C0893842E1940709F091C48131954196
:1051000039F4409A40984098409883B189B1409AC8
:10511000B90164707727409A40984098409824FFDE
:105120009BC493B189B193708C7F982B409A409A1D
:1051300040984098409843B189B143708C7F482B88
:10514000409A409A40984098409883B1E9B0837063
:10515000AE2DAC7F8A2B409A50E0672B09F467C4D0
:10516000E82EF12CFE2CEE24EE24B8EFFB22B3E067
:10517000440F551FBA95E1F7407E5770E42AF52A8F
:10518000969596959695E92A8091B201882399F093
:10519000C70105E0969587950A95E1F780729927F2
:1051A000A701569547954F715527842B952B40ECB9
:1051B000E422E82AF92A409A439A84B1836084B9A8
:1051C0008AB18C6F8AB920FD14C00091F30410914C
:1051D000F404015011092091F1043091F20421509E
:1051E000310950E040E070E060E089EE94E00E9418
:1051F000890A5FE1E5165FEFF506B1F486E0898381
:10520000AE014F5F5F4F61E08AE390E00E94DD08EE
:1052100080910605909107058F7E909307058093F6
:10522000060581E08093B20160E089EE94E00E947F
:105230009B0C70E060E089EE94E00E942D1B70E012
:1052400060E089EE94E00E942D1BB4E0EB2EB1E209
:10525000FB2E08E211E020EE30E04CE050E068E088
:1052600070E089EE94E00E94621280EE9FEF9093CE
:10527000FC048093FB049093FA048093F90482E089
:105280008093FD048093FE0482E190E09093F60405
:105290008093F50488E490E09093F8048093F704F9
:1052A0008EE99DE00E94471216E4E12EF12CF09267
:1052B000F604E092F50484E690E09093F80480937D
:1052C000F70486E99DE00E9447120FEF17E024EBF8
:1052D00030E047E850E06EE170E089EE94E00E9433
:1052E0008E1B0FEF1FEF1093FC040093FB04109331
:1052F000FA040093F90481E08093FD048093FE0496
:105300008DE290E09093F6048093F5048EE990E0AE
:105310009093F8048093F7048CE79DE00E94471275
:105320008FEF97E09093FC048093FB049093FA0432
:105330008093F904F092F604E092F50486ED90E093
:105340009093F8048093F70489E69DE00E94471249
:105350001093FC040093FB041093FA040093F904E7
:105360008FE290E09093F6048093F5048AEF90E04A
:105370009093F8048093F7048FE49DE00E94471215
:1053800060E177E280E090E00E9425080E947D19AC
:105390008093AA0481118FC30E944A1B60E0809110
:1053A000D7040E94AF0760E08091D8040E94AF0745
:1053B00061E08091DA040E94AF0761E08091D90436
:1053C0000E94AF078091E504E091DD04F091DE04D6
:1053D0009081892B80838091E604E091E104F09133
:1053E000E20490818095892380838091D7040E9474
:1053F000EB078C018091D7040E94EB079801281BD2
:10540000390B2C5F3F4F912C2930310530F4800F40
:10541000911F95958795992493940FEF13E0081B9E
:10542000190B60E08091DA040E94AF0760E0809180
:10543000D9040E94AF0761E08091D7040E94AF07B2
:1054400061E08091D8040E94AF078091E804E09168
:10545000E304F091E4049081809589238083809116
:10546000E704E091DF04F091E0049081892B8083D0
:105470008091D9040E94EB077C018091D9040E949D
:10548000EB076C01C7018C199D090496099708F078
:10549000A7C3CE0CDF1CD594C79461E08091DA04D9
:1054A0000E94AF0760E08091D7040E94AF0780910F
:1054B000E504E091DD04F091DE049081809589237C
:1054C00080838091E804E091E304F091E40490810A
:1054D000892B80838091D9040E94EB077C01809105
:1054E000D7040E94EB07BC01A090DB04B090DC0461
:1054F000A114B10409F476C3072E000C880B990B94
:105500000E948E312B013C01B701FF0C880B990BD7
:105510000E948E319B01AC01C301B2010E94DE30BA
:1055200020E030E040E85FE30E946C302B013C015A
:10553000B801012E000C880B990B0E948E31A3013B
:1055400092010E9491322B013C01B50190E080E074
:105550000E948C31A30192010E94913220E030E040
:1055600040E85AE30E9491320E9450317B01911031
:1055700002C0F12CE12C61E081E10E94AF0761E003
:1055800080E10E94AF0761E081E10E94810761E054
:1055900080E10E94810789ECE81AF1089FE1E91691
:1055A00093E0F90608F088C33091A8046091F104F3
:1055B0007091F204072E000C880B990BAFEFB3E04B
:1055C000AC19BD096D010D2C000CEE08FF08809090
:1055D000F3049090F404092C000CAA08BB082801DD
:1055E000110F66087708311106C3A30192012D57E8
:1055F0003109410951090E9403332AE033E040E0B8
:1056000050E00E9409303B872A87A7019601215864
:10561000310941095109C501B4010E9403332DEE3E
:1056200032E040E050E00E9409303D832C8311E0DD
:105630008091AA04882309F43EC01123E1F18091EE
:10564000A904811138C02091F3043091F40437FF8C
:1056500002C02F5F3F4F359527958091F1049091BF
:10566000F20497FD0196959587954A845B84481AC4
:10567000590AC2014096819708F020C38C819D8110
:10568000821B930B4096819708F018C36091A80481
:1056900070E06F5F7F4F637077276093A80489EE97
:1056A00094E00E949B0C70E060E089EE94E00E9420
:1056B0002D1B0E94BA201093A904C090A204D09080
:1056C000A304E090A404F090A5048091AA048111A1
:1056D0000CC30E9458086C197D098E099F0968380F
:1056E00073418105910508F41DC30E945808609319
:1056F000A2047093A3048093A4049093A5040E9431
:105700007D198093AA04882309F40CC30E94AE1665
:10571000882309F407C30E944D1A20E030E040E2DC
:1057200051E46091B5047091B6048091B7049091F2
:10573000B8040E9491320E9450316B0120E030E0A9
:1057400040E251E46091B9047091BA048091BB04C5
:105750009091BC040E9491320E94503186019B01BD
:1057600041EB53E062EB73E08AE294E00E946C222A
:1057700020E030E040E251E46091B5047091B6045D
:105780008091B7049091B8040E9491320E945031E8
:105790006B0120E030E040E251E46091B904709187
:1057A000BA048091BB049091BC040E9491320E9483
:1057B000503186019B0140EC52E061EC72E089E3DC
:1057C00093E00E946C2220E030E040E251E46091DE
:1057D000B5047091B6048091B7049091B8040E940A
:1057E00091320E9450316B0120E030E040E251E400
:1057F0006091B9047091BA048091BB049091BC048B
:105800000E9491320E94503186019B014FEC51E081
:1058100060ED71E088E492E00E946C220E94BA2060
:1058200081C283E194E0909307058093060536E0FA
:10583000E32EF12C02E718E0B0CB80E090E19093EA
:105840000705809306056CE970E087E19CE089CB51
:1058500083E19EE0909307058093060580EE91E03A
:105860009093F0048093EF0480E491E09093EE0431
:105870008093ED0402E0E02EF12C01ED17E08DCBDA
:1058800083E094E0909307058093060580EE91E015
:105890009093F0048093EF0480E491E09093EE0401
:1058A0008093ED0413E0E12EF12C0EEC17E075CBA4
:1058B00083E194E09093070580930605B1E4EB2E15
:1058C000F12C0DE817E069CB83E194E19093070593
:1058D00080930605A2E1EA2EF12C0BE717E05DCBE1
:1058E00083E194E18CCA83E194E19093070580936E
:1058F000060580EE91E09093F0048093EF0480E43D
:1059000091E09093EE048093ED04EDE1EE2EF12C06
:105910000CE517E042CB82E091E19093070580937C
:1059200006056CEC70E08BEE99E01BCB83E094E015
:10593000909307058093060580E991E09093F00429
:105940008093EF0480EF90E09093EE048093ED0459
:105950007EE1E72EF12C0EE317E01FCB83E094E00D
:10596000909307058093060566E0E62EF12C08E388
:1059700017E013CB87E194E1E0CA83E194E1DDCA4B
:1059800083E094E0DACA83E194E0D7CA83E096E149
:10599000D4CA83E194E0909307058093060580EED6
:1059A00091E09093F0048093EF0480E491E0909371
:1059B000EE048093ED0435E4E32EF12C0BE816E0C1
:1059C000ECCA87E094E0E7CF83E194E09093070589
:1059D0008093060580EE91E09093F0048093EF04AD
:1059E00080E491E09093EE048093ED048BE2E82E46
:1059F000F12C08E116E0D1CA80E090E19093070510
:105A00008093060560EC70E08BE798E00E94240A22
:105A100080E991E09093F0048093EF04A4CA409A47
:105A200040984098409843B149B1409A67CBE92EDD
:105A3000F12CFE2CEE24EE2408EFF022F3E0440FCC
:105A4000551FFA95E1F7407E5770E42AF52A8695AE
:105A500086958695E82A98CBE3B099B1409A409A0A
:105A600040984098409883B149B183704C7F842B13
:105A7000409A1E2D1370E12E9C7FE92AFE2CE82E01
:105A800023FF03C0F826EF24FE24672B09F47CCB08
:105A9000C701807E9770A701452F552746954695EB
:105AA0004695842B952BFE2CEE24FF0CFF0CFF0C4F
:105AB000E82AF92A69CB0E94AE16882309F46CCC37
:105AC0000E944D1A20E030E040E251E46091B504BC
:105AD0007091B6048091B7049091B8040E949132FD
