:100000000C946F070C9497070C9497070C94970720
:100010000C9497070C9497070C9497070C949707E8
:100020000C9497070C9497070C9497070C949707D8
:100030000C9497070C9497070C9497070C949707C8
:100040000C94E8230C9497070C9497070C9497074B
:100050000C9497070C9497070C9497070C949707A8
:100060000C9432240C94970700407A10F35A00A0A5
:10007000724E18090010A5D4E80000E87648170071
:1000800000E40B54020000CA9A3B000000E1F505B1
:10009000000080969800000040420F000000A086FB
:1000A00001000000102700000000E803000000002D
:1000B0006400000000000A000000000001000000D1
:1000C00000002C76D888DC674F0823DFC1DFAE59EB
:1000D000E1B1B796E5E3E453C63AE651997696E87E
:1000E000E6C28426EB898C9B62ED407C6FFCEFBC02
:1000F0009C9F40F2BAA56FA5F490055A2AF75C932D
:100100006B6CF9676DC11BFCE0E40D47FEF520E662
:10011000B500D0ED902E0300943577050080841E45
:10012000080000204E0A000000C80C333333330FA0
:10013000986E12831141EF8D2114893BE65516CF3D
:10014000FEE6DB18D1844B381BF77C1D901DA4BB49
:10015000E424203284725E228100C9F124ECA1E5FE
:100160003D276C617374203168006C6173742032B8
:100170003468006850610050524553535552450051
:100180006850610050524553535552450043005446
:10019000454D504552415455524500430054454D3C
:1001A000504552415455524500436865636B2033B6
:1001B0002E335620616E6420474E44005344413D27
:1001C000443131202053434C3D44313300424D45AE
:1001D000323830206E6F7420666F756E64000000D8
:1001E0000000003E5B4F5B3E3E6B4F6B3E1C3E7C17
:1001F0003E1C183C7E3C181C577D571C1C5E7F5EC5
:100200001C00183C1800FFE7C3E7FF001824180083
:10021000FFE7DBE7FF30483A060E2629792926401A
:100220007F050507407F05253F5A3CE73C5A7F3E46
:100230001C1C08081C1C3E7F14227F22145F5F00D8
:100240005F5F06097F017F006689956A6060606074
:100250006094A2FFA29408047E040810207E20105F
:1002600008082A1C08081C2A08081E101010100C68
:100270001E0C1E0C30383E3830060E3E0E060000B6
:1002800000000000005F00000007000700147F145A
:100290007F14242A7F2A12231308646236495620C9
:1002A000500008070300001C2241000041221C00EE
:1002B0002A1C7F1C2A08083E0808008070300008AD
:1002C00008080808000060600020100804023E5181
:1002D00049453E00427F4000724949494621414913
:1002E0004D331814127F1027454545393C4A49497A
:1002F0003141211109073649494936464949291EE4
:1003000000001400000040340000000814224114D2
:1003100014141414004122140802015909063E4124
:100320005D594E7C1211127C7F494949363E41414C
:1003300041227F4141413E7F494949417F090909A5
:10034000013E414151737F0808087F00417F410011
:100350002040413F017F081422417F404040407FC0
:10036000021C027F7F0408107F3E4141413E7F090D
:100370000909063E4151215E7F091929462649494E
:10038000493203017F01033F4040403F1F2040208E
:100390001F3F4038403F631408146303047804038C
:1003A0006159494D43007F4141410204081020003A
:1003B0004141417F040201020440404040400003AB
:1003C00007080020545478407F2844443838444477
:1003D0004428384444287F385454541800087E096F
:1003E0000218A4A49C787F0804047800447D40008F
:1003F0002040403D007F1028440000417F40007CA9
:10040000047804787C080404783844444438FC18A0
:1004100024241818242418FC7C0804040848545484
:10042000542404043F44243C4040207C1C204020B1
:100430001C3C4030403C44281028444C9090907C18
:100440004464544C4400083641000000770000002A
:100450004136080002010204023C2623263C1EA16C
:10046000A161123A4040207A3854545559215555CB
:10047000794122545478422155547840205455797A
:10048000400C1E527212395555555939545454590D
:1004900039555454580000457C410002457D4200C6
:1004A00001457C407D1211127DF0282528F07C54F6
:1004B0005545002054547C547C0A097F49324949EF
:1004C00049323A4444443A324A4848303A41412158
:1004D0007A3A42402078009DA0A07D3D4242423DB4
:1004E0003D4040403D3C24FF2424487E4943662B48
:1004F0002FFC2F2BFF0929F620C0887E09032054EA
:100500005479410000447D413048484A32384040E7
:10051000227A007A0A0A727D0D19317D2629292F47
:1005200028262929292630484D402038080808085F
:1005300008080808382F10C8ACBA2F102834FA0061
:10054000007B000008142A142222142A14085500E3
:10055000550055AA55AA55AAFF55FF55FF000000A2
:10056000FF00101010FF00141414FF001010FF0003
:10057000FF1010F010F0141414FC001414F700FF16
:100580000000FF00FF1414F404FC141417101F10D3
:10059000101F101F1414141F00101010F000000082
:1005A000001F101010101F10101010F0100000008D
:1005B000FF101010101010101010FF10000000FF9E
:1005C000140000FF00FF00001F10170000FC04F4DF
:1005D00014141710171414F404F40000FF00F71497
:1005E000141414141414F700F7141414171410101E
:1005F0001F101F141414F4141010F010F000001F3A
:10060000101F0000001F14000000FC140000F01078
:10061000F01010FF10FF141414FF141010101F001E
:10062000000000F010FFFFFFFFFFF0F0F0F0F0FF20
:10063000FFFF0000000000FFFF0F0F0F0F0F3844F7
:10064000443844FC4A4A4A347E02020606027E02CC
:100650007E0263554941633844443C04407E201E79
:100660002006027E020299A5E7A5991C2A492A1CA8
:100670004C7201724C304A4D4D303048784830BC95
:10068000625A463D3E494949007E0101017E2A2ABF
:100690002A2A2A44445F444440514A444040444A40
:1006A00051400000FF0103E080FF000008086B6B71
:1006B000083612362436060F090F060000181800F7
:1006C00000001010003040FF0101001F01011E005A
:1006D000191D1712003C3C3C3C00000000001100BA
:1006E0007F96290001007F9628003A0155C002102C
:1006F00010C10141C50400228040360168B00100EC
:10070000B102B011B40102B60302023BB701C63A0E
:100710000155F704A9512C82B701C6E808408A00A8
:10072000002919A533C0020D0DC1024300C201000A
:10073000C50400480048B40100B60302023BE00FC4
:100740000F211C0B0E08499838091103141000E101
:100750000F0F2F2B0C0E06477637071104231E00B0
:10076000B00100B30402000000B40100D00307424E
:1007700018D103000710D2020102D3020102D402F1
:100780000102C005123B000211C103101088C5010F
:1007900003C60102C80C0032364506163775775479
:1007A0000C00CC0100F603010100CF03008130ED05
:1007B0000464031281E803851078CB05392C0034DA
:1007C00002F70120EA020000B00100B102001BB4F0
:1007D0000100C00121C10111C5023F3CC701B5366E
:1007E0000148F20100260101E00F0F26240B0E093B
:1007F00054A8460C17090F0700E10F00191B04103D
:10080000072A473903060630380F360100B80101C0
:10081000C0010EB00100C10410100202C006003574
:1008200000000102C50104D2020104CA0100EA016C
:1008300080B903FF83577F967F96B60125C0065087
:1008400050013C1E08B4070240002A2A0D787F019F
:10085000F20B1616030808080810041616FD0311FB
:100860000235B2050C0C003333B70135BB012BC088
:100870000104C20201FFC30111C40120C6010FD04F
:1008800002A4A1E00ED000050E150D37434709154F
:10089000121619E10ED000050D0C062D44400E1C59
:1008A0001816193A01557F0A06000700B102001216
:1008B000B40102B60400202700CA0101CB0103C025
:1008C00001137F14C501CCC60100C70104C8010390
:1008D000CC0106CD011CF9021515F3030A020AF634
:1008E00003011000FA00FB00E2031E0254E00101C4
:1008F0007F0AE001037F0A01007F64E60303FFFF34
:10090000B0072400031F01DF00B40803A0002E304D
:10091000000F00B607020D0010100008BA010FB852
:10092000020701F001007F01280011007F64290007
:10093000BE0606F001F00000D0010DB00103E20197
:100940003FC00122E20100B00100C0010AB0010075
:100950000000000000000000000000000000000097
:10096000FFFF0F0000040062080008080003000CED
:1009700001030B5A020306090303171004030023A3
:1009800005030017060309630703090C08030C108D
:1009900009033222100016001100010112000000AC
:1009A0001300010000013003010137020301000DB3
:1009B000800200610201B0C1FFFF320001000001AE
:1009C0000200000103003010090001000C000000CB
:1009D000900000800F000000100200001102EF00E4
:1009E0001202000013028F01000500000105000043
:1009F00002055F000104010004040000FFFF320053
:100A000007000001FFFF32000002000001020000A9
:100A100000000000000000000000000000000100D5
:100A2000A4000100FFFF0A0060000027080008087A
:100A30003000140231001537320004063300160E60
:100A400034001122350000153600078537000714E1
:100A50003800031439002000900015001000100425
:100A600011003702290046002A0046000700000056
:100A70001200890113000011FFFF96001200B90156
:100A80000100000102000002030030100900010013
:100A90000A0000000D0000000E003000610001009F
:100AA0006A000000800000008100000082005F00FA
:100AB0009200000193000107FFFF500007000001B2
:100AC000E500F07801000001020000020300301090
:100AD00004000000050000000800070209000000F3
:100AE0000A0000000C0000000D0000000F000000D4
:100AF00010000000110007001200000013000000A9
:100B000007000100FFFFC800100090161100270227
:100B1000FFFF320012000D00FFFF32001300001231
:100B200029000A002B000D00FFFF3200200000000A
:100B300021000000300000003100040432000300F6
:100B400035000504360008083700070438000303A1
:100B5000390007073C0004053D0008086000002735
:100B6000610001006A0000008000000081000000B8
:100B70008200000083000000840000008500000067
:100B8000900010009200000007003301E500008093
:100B90000000010001000001020000070300301006
:100BA0000400000008000202090000000A00000022
:100BB0000C0000000D0000000F00000010000000FD
:100BC000110007001200000013000000FFFF3200B8
:100BD0001000B01711000700FFFF0A0012003A01D1
:100BE000FFFF0A001300001A29000C00FFFF0A0093
:100BF0003000000031000505320004003500060019
:100C000036000707370005013800020039000707E2
:100C10003C0004073D000708600000A761000100D8
:100C20006A00000021000000200000008000000099
:100C300081000000820000008300000084000000AA
:100C40008500000090001000920000009300030057
:100C50009500100197000000980000000700730144
:100C6000FFFF320001000001020000070300301006
:100C700008000203090000000A000800100000003C
:100C8000110005001200000013000000FFFF6400C7
:100C90001000B012FFFF320011000700FFFF32000A
:100CA00012008C001300001729002000FFFF320003
:100CB000300000003100060132000101350006015C
:100CC000360003023700000038000707390004022D
:100CD0003C0006013D000301600000A76100010027
:100CE0009000300007003301FFFF32001500300094
:100CF0009A00100011002000100028341200020099
:100D000013003810FFFF280012001200FFFF280018
:100D10001000203413004530FFFF46003000000073
:100D200031000204320007033300040334000400DE
:100D300035000104360007073700050338001006A8
:100D4000390010060100000102000003030030100A
:100D5000080008080A000800600000276100010080
:100D600090003E019200000193000001A0000030BD
:100D7000A300100007000100070021000700230066
:100D8000070033000700330111001A00120021315F
:100D900013006C001400494210000008FFFF0A0015
:100DA00011001A01FFFF0A0011001A03FFFF0A00D9
:100DB00011001A07FFFF0A0011001A0FFFFF0A00B7
:100DC00011003A0FFFFF1E00010028010200000180
:100DD0000300301007001210080003030B0000117D
:100DE0000C0000000F000118150020005000010148
:100DF0005100030652000804530000005400050689
:100E00005500060456000303570003035800100062
:100E10005900001007001200FFFF28000700130010
:100E2000070017004275696C7420627920444A49B2
:100E300041207573696E6720436F64657800427561
:100E4000696C643A2053657020313120323032367B
:100E5000004C6F63616C20636C696D617465206127
:100E600074206120676C616E6365004D4F4E49547C
:100E70004F5200454E5649524F4E4D454E54414CEF
:100E80000000000000240027002A000000000023CA
:100E900000260029000000000800020100000304F1
:100EA00007000000000000000001020408102040BC
:100EB0008001020408102001020408102000000034
:100EC00000250028002B0004040404040404040288
:100ED0000202020202030303030303004D2511244F
:100EE0001FBECFEFD8E0DEBFCDBF11E0A0E0B1E084
:100EF000E6E9FFE602C005900D92AC33B107D9F7E1
:100F000024E0ACE3B1E001C01D92A032B207E1F7EA
:100F100017E0CFE6D7E004C02197FE010E94A33777
:100F2000CE36D107C9F70E94E0250C94C9370C943E
:100F300000000895833081F028F4813099F08230E8
:100F4000A9F008958730A9F08830C9F08430B1F451
:100F5000809180008F7D03C0809180008F77809387
:100F60008000089584B58F7784BD089584B58F7D02
:100F7000FBCF8091B0008F778093B000089580916F
:100F8000B0008F7DF9CFCF93DF93E0EAFEE084914C
:100F9000E4EBFEE0D491E2EDFEE0C491CC23A1F0BD
:100FA00081110E949A07EC2FF0E0EE0FFF1FE5572A
:100FB000F14FA591B491EC91ED2381E090E009F41B
:100FC00080E0DF91CF91089580E090E0FACF1F9309
:100FD000CF93DF93282F30E0F901EB56F14F849146
:100FE000F901E755F14FD491F901E953F14FC4915B
:100FF000CC23A9F0162F81110E949A07EC2FF0E064
:10100000EE0FFF1FE354F14FA591B4918FB7F89401
:10101000EC91111108C0D095DE23DC938FBFDF91D6
:10102000CF911F910895DE2BF8CFCF93DF9390E0FF
:10103000FC01E755F14F24918953914FFC018491B4
:101040008823C9F090E0880F991FFC01EF57F14FFA
:10105000A591B491FC01E354F14FC591D491611174
:101060000DC09FB7F8948C91209582238C93888132
:10107000282328839FBFDF91CF910895623051F4D8
:101080009FB7F8943C91822F809583238C93E881BD
:101090002E2BEFCF8FB7F894EC912E2B2C938FBF84
:1010A000EACF8E3008F08E508770806480937C0089
:1010B00080917A00806480937A0080917A0086FD26
:1010C000FCCF809178009091790008953FB7F89413
:1010D0008091B2039091B303A091B403B091B50392
:1010E00026B5A89B05C02F3F19F00196A11DB11D83
:1010F0003FBFBA2FA92F982F8827BC01CD01620FBF
:10110000711D811D911D42E0660F771F881F991F79
:101110004A95D1F708958F929F92AF92BF92CF9246
:10112000DF92EF92FF926B017C010E9466084B01F7
:101130005C01C114D104E104F104B9F00E94660815
:10114000681979098A099B09683E734081059105F0
:1011500080F321E0C21AD108E108F10888EE880E78
:1011600083E0981EA11CB11CE4CFFF90EF90DF90AC
:10117000CF90BF90AF909F908F9008952FB7F89425
:101180006091AE037091AF038091B0039091B10371
:101190002FBF0895AF92BF92CF92DF92EF92FF924E
:1011A0000F931F93CF93DF936C017B018B01040F8F
:1011B000151FEB015E01AE18BF08C017D10759F02B
:1011C0006991D601ED91FC910190F081E02DC6016D
:1011D0000995892B79F7C501DF91CF911F910F9167
:1011E000FF90EF90DF90CF90BF90AF9008950F9356
:1011F0001F93CF93DF93EC018B01FE019491319605
:10120000649122969F3799F470E090E080E00E940C
:101210008B0860E0E62FF0E032960E1B1F0B1016D5
:1012200011065CF3DF91CF911F910F9108954398C0
:10123000429885B18C7F292F2370822B85B98BB181
:1012400083709C7F892B8BB94198419A30E020E0D4
:101250002617A8F4FE01E20FF31FE491429A85B12C
:101260008C7F9E2F9370892B85B98BB18370EC7F17
:10127000E82BEBB94198419A2F5F3F4FE9CFC60F5A
:10128000D11D439AC7CF4398429825B12C7F392F5F
:101290003370232B25B92BB123709C7F922B9BB9E4
:1012A0004198419A95B19C7F282F2370922B95B934
:1012B0009BB193708C7F892B8BB94198419A429A4C
:1012C000FA01615078F0219195B19C7F822F837053
:1012D000982B95B98BB183702C7F822B8BB9419859
:1012E000419AEFCF439A08954398429825B12C7FB5
:1012F000392F3370232B25B92BB123709C7F922B70
:101300009BB94198419A95B19C7F282F2370922BCD
:1013100095B99BB193708C7F892B8BB94198419A79
:10132000429A85B18C7F972F9370892B85B98BB1A9
:1013300083707C7F782B7BB94198419A85B18C7FF3
:10134000962F9370892B85B98BB183706C7F682B36
:101350006BB94198419A439A089581E08093B6030E
:1013600084B1836084B98AB18C6F8AB9389A399A0A
:101370003A9A3B9A3C9A439A409A419A449A62E339
:1013800070E080E090E00E948B08449864E670E092
:1013900080E090E00E948B08449A64E670E080E070
:1013A00090E00E948B0870E060E080EB90E00C948D
:1013B00074091F93CF93DF93C82F162F8091B60324
:1013C000811102C00E94AD094398429885B18C7F7B
:1013D00085B98BB183708BB94198419A95B19C7F47
:1013E0008C2F8370982B95B98BB18370CC7F8C2B0D
:1013F0008BB94198419A429A84B18C7F84B98AB161
:1014000083708AB961E070E080E090E00E948B0810
:1014100061E070E080E090E00E948B08409A409884
:1014200040984098C3B1D9B1409A61E070E080E043
:1014300090E00E948B08409A40984098409883B171
:1014400099B1409A115020F7409A439A24B12360F1
:1014500024B92AB12C6F2AB9C370DC7FCD2B8370DD
:101460009C7F892B9C2FDF91CF911F9108950F9323
:101470001F93CF93DF938C0160E00E94D909EC01A8
:1014800061E0C8010E94D9098C01BE0190E080E0B2
:10149000CB017727662730E020E0602B712B822B71
:1014A000932BDF91CF911F910F910895FF920F938E
:1014B0001F93CF93DF938C0160E00E94D909EC0168
:1014C00061E0C8010E94D909F82E62E0C8010E94BB
:1014D000D909AE0170E060E0742F662755274427D4
:1014E00000E030E020E0402B5F29622B732B292F96
:1014F00030E0C901B0E0A0E08A019B01082B192B64
:101500002A2B3B2BC901B801DF91CF911F910F917D
:10151000FF9008950F931F93CF93DF93EC018B01FE
:10152000FE0185919491FE01329624966591749105
:101530008F3F980771F490E080E00E948B08045080
:1015400011091016110664F3DF91CF911F910F91CD
:1015500008950E947409F3CFFC01262F358D868DE6
:1015600082958170982F9627692F70E072A361A3EE
:1015700030FF0CC0821307C080E290E050E040E0F2
:1015800060E00C94430981E290E0F8CF878D90A150
:10159000833927E7920741F058F4843521E0920718
:1015A00091F080329445C1F4626081E094E012C011
:1015B000863223E99207C1F3893025EB9207A1F324
:1015C0008532924949F4660F771F660F771F636172
:1015D00087E090E00C94740981E690E0FBCF8F9255
:1015E0009F92AF92BF92CF92DF92EF92FF920F93B2
:1015F0001F93CF93DF9300D000D0CDB7DEB77C012F
:101600004B015A016901FC01878D90A186329541F9
:1016100051F4F701868980FF06C0C801841B950B31
:1016200081F50F5F1F4FF701858D80FF31C085A5C4
:1016300099828A82DB82CC82AE014F5F5F4F64E089
:1016400090E00E944309F70181A9B982AA821B8315
:101650000C83AE014F5F5F4F64E090E00E9443094E
:101660000F900F900F900F90DF91CF911F910F91DE
:10167000FF90EF90DF90CF90BF90AF909F908F90B2
:1016800008952617370779F6C80ED91E8A01CBCFE1
:10169000B40187A190A50E947409B501F70181A545
:1016A00092A50E947409C814D90419F40A151B05DF
:1016B000B9F2F701858D85FF08C0868980FF1EC0BD
:1016C000102F0027A02AB12A8501B401F70185A5B2
:1016D00096A50E947409B501F70181A992A90E94FB
:1016E0007409B601F70187A590A90E947409B80191
:1016F000F70183A994A90E947409B2CFDC2CCC24F1
:101700008C289D286401E1CFAF92BF92CF92DF92E7
:10171000EF92FF920F931F93CF93DF93EC01809191
:10172000AE01882349F0C701880F991F8E7399274E
:10173000E1ECEE22E82AF92A37FF05C0620F731F99
:10174000319521953109260F371F77FF02C070E0D0
:1017500060E088859985281739070CF4C9016C0168
:10176000C61AD70A17FF05C0400F511F11950195E2
:101770001109040F151F57FF02C050E040E02A85F1
:101780003B85021713070CF498015901A41AB50AF6
:101790008901015011099C0121503109CE010E949B
:1017A000EF0A439842983BA58CA525B12C7F982F32
:1017B0009370292B25B99BB193708C7F982B9BB983
:1017C0004198419A95B19C7F832F8370982B95B94E
:1017D0008BB183703C7F832B8BB94198419A429A9D
:1017E000CA14DB042CF09A2D8B2D5601C92ED82E4D
:1017F0008F2DA70193E0569547959A95E1F74C7F79
:101800005E2D550F550F550F6F2D63707F2D7C7F0B
:10181000EE2DE3702E2D2C7FE22E887F1C141D04EC
:101820000CF03FC09091AF019501992311F195B152
:101830009C7F95B99BB19370982B9BB94198419A25
:1018400095B19C7F95B99BB19370942B9BB94198AE
:10185000419A95B19C7F95B99BB19370952B9BB99B
:101860004198419A2150310911F791E0C91AD108E4
:10187000D5CF95B19C7F962B95B99BB19370972B43
:101880009BB94198419A95B19C7F9E2B95B99BB18C
:1018900093709E299BB94198419A2150310949F78B
:1018A000E4CF439A8D8D80FF08C08F8D98A186323A
:1018B000954191F48E8980FF0FC00A851B850150E8
:1018C0001109288539852150310950E040E070E048
:1018D00060E0CE010E94EF0ADF91CF911F910F913E
:1018E000FF90EF90DF90CF90BF90AF900895EF9270
:1018F000FF920F931F93CF93DF937C01E90177FD54
:101900006DC057FD6BC0FC01808591856817790714
:101910000CF064C082859385481759070CF05EC0AF
:101920008091AE01882341F0C901880F991F8E7301
:101930009927C17CC82BD92B8A019B01C7010E9422
:10194000EF0A8091AF01882309F44FC04398429871
:10195000F70133A584A525B12C7F982F9370292BEF
:1019600025B99BB193708C7F982B9BB94198419A74
:1019700095B19C7F832F8370982B95B98BB1837021
:101980003C7F832B8BB94198419A429A85B18C7FD9
:1019900085B99BB18D2F887F9370892B8BB9419826
:1019A000419A85B18C7F85B92BB1CE0133E09695F4
:1019B00087953A95E1F78C7F2370822B8BB94198FC
:1019C000419A85B18C7F85B98BB1CC0FCC0FCC0FF0
:1019D0008370C82BCBB94198419A439ADF91CF913C
:1019E0001F910F91FF90EF900895BE01F70183A51D
:1019F00094A5DF91CF911F910F91FF90EF900C94E0
:101A00007409EF92FF920F931F93CF93DF93CDB79B
:101A1000DEB72A970FB6F894DEBF0FBECDBF7C01AC
:101A2000862F8370F701868B962F917060FFE3C03D
:101A300026813781F70131872087992309F4DEC099
:101A400024813581F70133872287823009F4DBC096
:101A5000833009F4DAC0813009F4D3C088E48A877E
:101A6000F701858D968D90FF03C02A8520582A871F
:101A700091FF04C02A8530E423272A8793FF04C0FE
:101A80002A8538E023272A87F701278D30A180FF98
:101A900000C12431F8E63F0709F0B9C09A85892FC3
:101AA00088728A871F82892F85958074282F2260EB
:101AB000892F90E09595879580729927822B88874A
:101AC0008BE38987AE01495F5F4F63E086EB90E06F
:101AD0000E9443092AE230E0F70130A727A38BE2F6
:101AE00090E092A781A74CE250E054A743A736A705
:101AF00025A730AB27A792AB81AB94AB83ABAE01EC
:101B0000465F5F4F61E086E390E00E9443098A856B
:101B100090E0F70194A383A3F701868980FF1CC09E
:101B2000858D968D92FD18C087A190A521A532A51F
:101B300030A727A392A781A785A596A521A932A999
:101B400036A725A792AB81AB87A590A923A934A975
:101B500030AB27A794AB83ABF70102851385015007
:101B60001109208531852150310950E040E070E0B5
:101B700060E0C7010E94EF0AF70166817781878DD7
:101B800090A120E08732F3E99F0709F420E2F701F2
:101B9000358D30FF39C119821A827B836C831D8297
:101BA0002E83AE014F5F5F4F66E083E390E00E94BB
:101BB000430919821A82AE014F5F5F4F62E087E3EB
:101BC00090E00E944309F701858D80FF07C050E037
:101BD00040E060E083E190E00E9443092A960FB65E
:101BE000F894DEBF0FBECDBFDF91CF911F910F9153
:101BF000FF90EF900895248135811CCF2681378195
:101C000021CF88E22CCF88E92ACF88EF28CF27324E
:101C100043E9340789F41F8281E388878A858595A3
:101C200085958595859588708987AE01495F5F4F59
:101C300063E080EC90E04CCF233689E1380749F02F
:101C40002138E4E93E0729F02131F5E13F0709F0A9
:101C500041CF8A8587FF02C081608A878A8586FF97
:101C600002C082608A878A858F73233649E13407F0
:101C700031F0213884E9380721F48A858F728A8708
:101C800029CF2131354109F025CF8A858F7E806C9F
:101C9000F6CF6A85862F062E000C990B2339F7E7BD
:101CA0003F0751F0A8F52435E1E03E0709F45CC098
:101CB0002032F4E53F07A1F540E052E0F70150A7DC
:101CC00047A341E052E052A741A742E052E054A7A7
:101CD00043A740E152E056A745A741E152E050AB8F
:101CE00047A742E152E052AB41AB43E152E054AB73
:101CF00043AB882790782632F3E93F0721F0203262
:101D0000344509F071C067FD846060E071E36EC026
:101D1000263243E9340781F22930E5EB3E0761F2D0
:101D200020E230E0F70130A727A321E230E032A71C
:101D300021A722E230E034A723A720E530E036A730
:101D400025A721E530E030AB27A722E530E032AB14
:101D500021AB23E530E034AB23ABBC0166277078C0
:101D6000776280E690E046C027E330E0F70136A7CF
:101D700025A726E330E030AB27A729E330E032ABDC
:101D800021AB28E330E034AB23AB20E230E030A7D6
:101D900027A321E230E032A721A722E230E034A7D6
:101DA00023A7F4E06F9FB001112466277170882784
:101DB00092708862682B792B81E090E00E94740910
:101DC0008A85682F70E07595679575956795687039
:101DD000772783FD70616063F70174A363A383E0D9
:101DE00090E00E94740998CE60E072E6682B792B2F
:101DF00080E094E00E9474096A85F4E06F9FB0016E
:101E0000112466277170D8CF8339F7E79F07D9F17E
:101E1000F0F4803244E59407B1F18338E7E79E0798
:101E200031F184359140F1F46150710981E390E022
:101E30000E94740970E060E082E390E00E947409FF
:101E400070E060E083E390E00E947409C7CE8632C0
:101E500023E99207C1F0893045EB9407A1F0853260
:101E6000924911F3F70161A172A1626003C0F70109
:101E700061A172A181E690E00E94740970E060E0C7
:101E80008AE690E0E1CFF70161A172A1626081E092
:101E900094E00E94740970E060E084E094E0D4CFA4
:101EA00020916401260F3327331F21323105ECF4D2
:101EB00020918801FC0190E080E0243069F082E00C
:101EC0000895A09164012191AC014C5B5E4FA40F79
:101ED000B52FB11D2C930196861798F3809164015C
:101EE000680F6093640180E0089581E008958FEFAA
:101EF0009FEF08958FEF9FEF089580913D0190E04F
:101F00009195819591090895CF93DF93CB01EA01D3
:101F1000642F0E94500FCE01DF91CF910895CF938F
:101F2000DF931F92CDB7DEB7698361E0CE010196E2
:101F30000E94500F81E090E00F90DF91CF910895C3
:101F40000895FC016370668B8481958126813781B9
:101F5000613039F0633029F0918780873387228799
:101F60000895318720879387828708952F923F9223
:101F70004F925F926F927F928F929F92AF92BF9299
:101F8000CF92DF92EF92FF920F931F93CF93DF9345
:101F9000CDB7DEB76A970FB6F894DEBF0FBECDBFE0
:101FA0009A8F898F7A8369834A01D22E18870F838B
:101FB0003701BC2CDC0159962D913C915A97211583
:101FC000310509F015C118968D919C9119976817E4
:101FD00079070CF0D7C11A968D919C914817590733
:101FE0000CF0D0C14C2C512CB6E0CB9E600D711D75
:101FF00011247C876B87161617060CF0C3C1EA2DD7
:10200000F0E0FA87E98793E0EE0FFF1F9A95E1F77A
:10201000F88BEF87CF01840F951F181619060CF067
:10202000B1C1A98DBA8D58968C91811104C0BFEAB7
:10203000BD1508F4D394A98DBA8DED91FC9111973B
:102040000284F385E02DCD010995B5E0DB9EC0014A
:102050001124E981FA81FC83EB83312C212C9C0132
:1020600022523E4F388F2F8B4A2D50E05E8B4D8B86
:10207000EF89F88DE20DF31D44919E828D82D12C63
:10208000C12C69817A81620D731D7A8B698B842FD3
:1020900090E09C8B8B8BE98DFA8DA081B18140FF04
:1020A00082C0F1E0BF126FC0AF126DC01C96ED91FF
:1020B000FC912F813885A4014C0D5D1D69897A89B9
:1020C000898D9A8D0995EB89FC89F595E7954E2FB9
:1020D0005FEFC51AD50A6D817E818D899E89680F53
:1020E000791F7E836D8398E0C916D10481F6AFEF26
:1020F0002A1A3A0AEB81FC81E40DF51DFC83EB837F
:10210000F5E02F16310409F0B3CF2F81388526155D
:102110003705B9F0A98DBA8DED91FC91B1E0BB12F4
:1021200057C0AB1255C069817A816B5F7F4F0088C1
:10213000F189E02D830128E030E0A401898D9A8D9A
:102140000995A98DBA8DED91FC9111970688F789B3
:10215000E02DCD016A960FB6F894DEBF0FBECDBF5D
:10216000DF91CF911F910F91FF90EF90DF90CF9073
:10217000BF90AF909F908F907F906F905F904F90A7
:102180003F902F9009941E96ED91FC91EF80F8847A
:1021900009851A8592014D815E816B817C81898DD3
:1021A0009A8D099590CF2F8138852615370509F42A
:1021B0008ACF31E0B31207C0A31205C01C96ED917F
:1021C000FC91930178CF1E96ED91FC917301E0CFC5
:1021D0006B857C85641975090684F785E02D73018C
:1021E0000F8518899201A401898D9A8D0995A9CF2F
:1021F000F90134969491329745915491D91AB7E0E8
:10220000DB9E400D511D1124F901259134913C8B29
:102210002B8BFA0125903490FA0132967490319606
:102220003491398B329664903196449041E04C154C
:1022300018F04A1508F07FC0662D062C000C770BAD
:102240007C836B83842D042C000C990B9E838D83DF
:10225000A98DBA8DED91FC9111970284F385E02D43
:10226000CD010995512CD12CC12CEA2DF0E0FA8733
:10227000E9872B2D30E03C872B87A401440D511DAD
:1022800047FC5A95588F4F8B69817A81660D711D75
:1022900067FC7A957E876D877989C71608F051CFDC
:1022A0002C2D30E04D815E81420F531FA985BA85E8
:1022B0004A9FC0014B9F900D5A9F900D1124FC0125
:1022C000E80DF91DF88BEF87852D612C4F89588D0E
:1022D000420F531F5E8B4D8B671408F050C044248F
:1022E0004394480E877041F4C1010196EB89FC8943
:1022F000E20DF31DD4901C01D7FE19C0A98DBA8D33
:10230000ED91FC91662D70E0B1E0BB1219C0AB12EB
:1023100017C02D853E85620F731F0484F585E02D5F
:102320002F8138854D895E89898D9A8D0995DD0CBF
:102330006394842DD1CF1E821D821C821B8288CF84
:102340004B815C81640F751FAB85BC856A9FC001A2
:102350006B9F900D7A9F900D112469817A81680F8F
:10236000791F0684F785E02DEF80F88409851A85AA
:102370009D014F855889898D9A8D0995D8CF570C25
:10238000C3948ACF6A960FB6F894DEBF0FBECDBF56
:10239000DF91CF911F910F91FF90EF90DF90CF9041
:1023A000BF90AF909F908F907F906F905F904F9075
:1023B0003F902F9008958F929F92AF92CF92EF927D
:1023C000FF920F931F93CF93DF93EC01262F898DFC
:1023D0009A8D009709F051C06A30D1F41D861C8691
:1023E0008D8948E0849F900111248E859F85820FFE
:1023F000931F9F878E8781E090E0DF91CF911F919F
:102400000F91FF90EF90CF90AF909F908F90089595
:102410006D3089F3CC88AD888F898823C1F08C8595
:102420009D8536E0C39E800D911D112448855985F8
:102430004817590764F44E855F851D861C8638E071
:10244000A39EC0011124840F951F9F878E87EA8861
:10245000FB88088919894E855F856C857D85CE014D
:102460000E94B60F2C898C859D8546E0249F800DA7
:10247000911D11249D878C87BECF6A3069F41D861B
:102480001C86FC013896E4912D898E859F85E29FFC
:10249000800D911D1124ADCF6D3009F4ACCFFC013E
:1024A00034963491631708F4A6CF3296E491E61778
:1024B00008F4A1CFFC01329685909490462F431BDF
:1024C000342F47E0349F800C911C1124F401329684
:1024D00034913196E4913323A9F1EE2399F1CC881C
:1024E000F4013596E491AD884F89442301F10E2E15
:1024F000000CFF0BE30FF11DCE9EA001CF9E500DEF
:1025000011246C857D85460F571F68857985641772
:1025100075076CF44E855F851D861C86FC01389618
:10252000E491AE9E400D511D11245F874E87EA88CD
:10253000FB88088919894E855F856C857D85CE016C
:102540000E94B60FF4013496E4912C898C859D8508
:10255000E29F800D911D11248DCF0F931F93CF9378
:10256000DF938C01D0E0C0E0F801EC0FFD1F649117
:10257000662341F08BEE93E00E94DB11892B11F072
:102580002196F2CFCE01DF91CF911F910F91089547
:102590006F927F928F929F92AF92BF92CF92DF9273
:1025A000EF92FF920F931F93CF93DF93EC016B0198
:1025B0005A0139014801E881F9810284F385E02D4F
:1025C0000995E881F9810288F389E02D870193015B
:1025D000A501B601CE010995A501480D591D41502F
:1025E0005109E881F9810288F389E02D9301B60150
:1025F000CE010995E881F9810088F189E02D9401E7
:10260000A501B601CE010995C60CD71CB6016150D3
:102610007109E881F9810088F189E02D9401A50113
:10262000CE010995E881F9810688F789E02DCE0170
:10263000DF91CF911F910F91FF90EF90DF90CF909E
:10264000BF90AF909F908F907F906F9009946F9202
:102650007F928F929F92AF92BF92CF92DF92EF9232
:10266000FF920F931F93CF93DF935C01EB016A01FD
:10267000490138018701DC01ED91FC916217730774
:1026800019F5641675062CF0962D872D3A01C92E82
:10269000D82E9601261937092F5F3F4F048CF58DF0
:1026A000E02DA301BE01C5010995DF91CF911F91D6
:1026B0000F91FF90EF90DF90CF90BF90AF909F90E1
:1026C0008F907F906F9008954615570591F42617C7
:1026D000370724F0892D4B01C22FD82F9E012819CE
:1026E00039092F5F3F4F068CF78DE02DA601B4010D
:1026F000DACF0284F385E02D0995D501ED91FC91A7
:102700000488F589E02D83019401A601BE01C5016D
:102710000995D501ED91FC910688F789E02DC50159
:10272000DF91CF911F910F91FF90EF90DF90CF90AD
:10273000BF90AF909F908F907F906F900994EF9291
:10274000FF920F931F93DC011A960D911C911B971A
:1027500018962D913C911997ED91FC9100A0F1A153
:10276000E02D7B0150E040E070E060E009951F91B2
:102770000F91FF90EF9008954F925F926F927F922A
:102780008F929F92AF92BF92CF92DF92EF92FF9281
:102790000F931F93CF93DF936C012B015A013901E3
:1027A0004801DC01ED91FC910284F385E02D09954F
:1027B000E201640C751CD601ED91FC91C615D7059C
:1027C0005CF40088F189E02D87019401A501BE0128
:1027D000C60109952196EFCF0688F789E02DC6013D
:1027E000DF91CF911F910F91FF90EF90DF90CF90ED
:1027F000BF90AF909F908F907F906F905F904F9021
:1028000009948F929F92AF92BF92CF92DF92EF92F4
:10281000FF920F931F93CF93DF93EC015B014A016B
:102820006901E881F9810284F385E02D099595011C
:102830002C0D3D1D21503109E881F9810488F5896D
:10284000E02D78018401A401B501CE010995E8814C
:10285000F9810688F789E02DCE01DF91CF911F9194
:102860000F91FF90EF90DF90CF90BF90AF909F902F
:102870008F9009948F929F92AF92BF92CF92DF92E6
:10288000EF92FF920F931F93CF93DF93EC015B01C5
:102890004A0169017801E881F9810284F385E02D1C
:1028A0000995C80CD91C860101501109E881F981EC
:1028B0000488F589E02D9501A401B501CE010995A3
:1028C000E881F9810688F789E02DCE01DF91CF916B
:1028D0001F910F91FF90EF90DF90CF90BF90AF903E
:1028E0009F908F900994EF92FF920F931F93DC01BA
:1028F000ED91FC9100A0F1A1E02D09951F910F91A0
:10290000FF90EF9008950F931F93DC01ED91FC91E0
:10291000068CF78DE02D09951F910F9108950F9367
:102920001F93DC01ED91FC91048CF58DE02D099550
:102930001F910F9108952F923F924F925F926F9245
:102940007F928F929F92AF92BF92CF92DF92EF923F
:10295000FF920F931F93CF93DF93CDB7DEB72897E6
:102960000FB6F894DEBF0FBECDBF3C017E836D83F2
:1029700058874F8369019A01220F331F2F5F3F4F02
:10298000AB018F819885481B590B8601B3018BEEF3
:1029900093E00E948F1481E090E02C012F81388514
:1029A000421A530AC9019195819591099C01220F00
:1029B000331F3C832B832F80388481E090E09A83FF
:1029C0008983F12CE12C57FC0DC08F8198850197EC
:1029D00098878F832B813C812E5F3F4F3C832B83D5
:1029E000420E531E3FEFE31AF30A89819A81029641
:1029F0009A838983480E591E2F8138852E153F05ED
:102A00000CF466C04901880C991C3FEF831A930AA5
:102A100086019401AD80BE808F819885A81AB90A7D
:102A2000A501B3016E0D7F1D8BEE93E00E948F1404
:102A30009401A501B3016E197F098BEE93E00E940A
:102A40008F142F8138852215330519F1AA24A394F8
:102A5000B12CAE18BF088D819E81A80EB91EB3019E
:102A6000620D731D860189809A8092E0891A91080F
:102A70009401A5018BEE93E00E948F14B3016219BB
:102A800073099401A5018BEE93E00E948F142F80AF
:102A900038842F813885E216F3060CF494CF2896FB
:102AA0000FB6F894DEBF0FBECDBFDF91CF911F915F
:102AB0000F91FF90EF90DF90CF90BF90AF909F90DD
:102AC0008F907F906F905F904F903F902F900895E0
:102AD0002F8138852215330509F0B8CFE0CFDC010E
:102AE000ED91FC910084F185E02D09942F923F92A5
:102AF0004F925F926F927F928F929F92AF92BF920E
:102B0000CF92DF92EF92FF920F931F93CF93DF93B9
:102B10007C016B01EA0181E090E05C01A41AB50A36
:102B200066247724641A750A660C771C10E000E0AE
:102B300088248394912C822F8470582E822F827047
:102B4000482E822F8870382E2170222E0C171D07D8
:102B50000CF079C0B7FC06C0219782E0680E711CAA
:102B6000A60CB71C0F5F1F4F82E0880E911CA80CAB
:102B7000B91C5520C1F024E031E2AE014C0D5D1DC1
:102B8000B701600F711F8BEE93E00E946F1524E078
:102B900031E2A601400F511FBE016E0D7F1D8BEE6D
:102BA00093E00E946F154420C1F024E031E2A601B9
:102BB0004C1B5D0BB701600F711F8BEE93E00E9401
:102BC0006F1524E031E2A601401B510BBE016E0DD2
:102BD0007F1D8BEE93E00E946F153320C1F024E03F
:102BE00031E2A601400F511FB7016C1B7D0B8BEE2C
:102BF00093E00E946F1524E031E2AE014C0D5D1DA3
:102C0000B701601B710B8BEE93E00E946F152220C1
:102C100009F49CCF24E031E2A601401B510BB7011F
:102C20006C1B7D0B8BEE93E00E946F1524E031E26C
:102C3000A6014C1B5D0BB701601B710B8BEE93E083
:102C40000E946F1583CFDF91CF911F910F91FF905D
:102C5000EF90DF90CF90BF90AF909F908F907F903C
:102C60006F905F904F903F902F9008952F923F92DA
:102C70004F925F926F927F928F929F92AF92BF928C
:102C8000CF92DF92EF92FF920F931F93CF93DF9338
:102C900000D000D0CDB7DEB77C018B015C834B83C5
:102CA00081E090E05C01A41AB50A1A0131942194E4
:102CB0003108220C331C460F571F2FEF3FEFB7018F
:102CC0008BEE93E00E946F15A8012B813C81421B83
:102CD000530B2FEF3FEFB7018BEE93E00E946F1580
:102CE0006B817C816E0D7F1D2FEF3FEFA8018BEE76
:102CF00093E00E946F15B7018B819C81681B790B53
:102D00002FEF3FEFA8018BEE93E00E946F1521E0BB
:102D100030E03A832983D12CC12CB7FC0AC08B81C7
:102D20009C8101979C838B8392E0290E311CA20C1D
:102D3000B31C2FEFC21AD20A89819A8102969A8314
:102D40008983A80EB91E36016E0C7F1C2FEF3FEF52
:102D50008B809C80800E911EA401B3018BEE93E0CA
:102D60000E946F1527014C185D082FEF3FEFA4015B
:102D7000B2018BEE93E00E946F152FEF3FEF4801F9
:102D80008B819C81881A990AA401B3018BEE93E090
:102D90000E946F152FEF3FEFA401B2018BEE93E07D
:102DA0000E946F154601800E911E2FEF3FEFA40188
:102DB0006B807C806E0C7F1CB3018BEE93E00E94D5
:102DC0006F152FEF3FEFA40127018B819C81481ADB
:102DD000590AB2018BEE93E00E946F1548018C18DE
:102DE0009D082FEF3FEFA401B3018BEE93E00E940B
:102DF0006F152FEF3FEFA401B2018BEE93E00E941D
:102E00006F152B813C81C216D3060CF486CF0F9030
:102E10000F900F900F90DF91CF911F910F91FF9026
:102E2000EF90DF90CF90BF90AF909F908F907F906A
:102E30006F905F904F903F902F9008952F923F9208
:102E40004F925F926F927F928F929F92AF92BF92BA
:102E5000CF92DF92EF92FF920F931F93CF93DF9366
:102E600000D000D000D0CDB7DEB73C016A013E8370
:102E70002D83FC82EB825801A41AB50AB7FE03C069
:102E8000B194A194B1088D809E80861A970A97FE0E
:102E900003C09194819491088A149B045CF0902F54
:102EA000812F0D811E819D838E839C2D8D2D6B0125
:102EB000692F782F0C151D055CF09D818E817E8316
:102EC0006D83692F782F902F812F8601C92ED82EE0
:102ED0001601201A310A2B012D813E81421A530A14
:102EE00057FE03C0519441945108710137FE03C04D
:102EF0003FEFE31AF30AF594E7948D819E818617DC
:102F000097075CF5A1E0B0E0BA83A983C016D106AB
:102F10004CF1D301ED91FC910484F585E02D2B81DA
:102F20003C81A8016D817E818A149B041CF04D8137
:102F30005E81B801C3010995E418F508F7FE0AC0DF
:102F40002D813E8189819A81280F391F3E832D83EF
:102F5000E20CF31C0F5F1F4FD9CF2FEF3FEF3A83E7
:102F60002983D4CF26960FB6F894DEBF0FBECDBF0F
:102F7000DF91CF911F910F91FF90EF90DF90CF9055
:102F8000BF90AF909F908F907F906F905F904F9089
:102F90003F902F900895089590E080E008958FE08D
:102FA00090E00197F1F7089562E00C941508CF9333
:102FB000C82F61E00E94150860E08C2FCF910C941F
:102FC000E707CF93DF93D82FC8E08BE0D7FF26C069
:102FD0000E94D4170E94CF178DE00E94D4170E9440
:102FE000CF178DE00E94D717DD0FC15071F78BE02E
:102FF0000E94D4170E94CF178DE00E94D4170E9420
:10300000CF170E94C307EC018DE00E94D71781E023
:10301000CD2B09F080E0DF91CF9108950E94D71762
:10302000D9CF8BE00E94D7178DE00E94D4170E9461
:10303000CF178BE00E94D4170C94CF178BE00E941F
:10304000D4178DE00E94D4170E94CF178BE00E9406
:10305000D7170E94CF178DE00C94D7179F92AF928D
:10306000BF92CF92DF92EF92FF920F931F93CF9375
:10307000DF93D82F162FF72EC42E0E941E18C09152
:103080003C018C2F880F0E94E117882329F08D2F97
:103090000E94E117811110C00E94111800E0802FDA
:1030A000DF91CF911F910F91FF90EF90DF90CF9024
:1030B000BF90AF909F9008950E941E188C2F880F8C
:1030C00081600E94E117082F882331F3912EC12FD0
:1030D000DF2DEE24E394F12CAC2CB12C8BE00E947C
:1030E000D41788E0D82E10E0110F8DE00E94D4177D
:1030F0000E94CF170E94C307892B09F011608DE051
:103100000E94D7170E94CF17DA94D110EDCF8BE031
:10311000EA14FB04C4F40E94D7178DE00E94D41770
:103120000E94CF178DE00E94D7178BE00E94D41722
:1031300019938FEFE81AF80A8C2F89198C1570F201
:103140000E941118ACCF0E94D417E7CF2F923F9264
:103150004F925F926F927F928F929F92AF92BF92A7
:10316000CF92DF92EF92FF920F931F93CF93DF9353
:10317000CDB7DEB76F970FB6F894DEBF0FBECDBFE9
:1031800046E0BE016F5F7F4F87EF0E942E188A8B4B
:1031900081111BC01A8A8A896F960FB6F894DEBF18
:1031A0000FBECDBFDF91CF911F910F91FF90EF9098
:1031B000DF90CF90BF90AF909F908F907F906F9057
:1031C0005F904F903F902F90089589808D8E9A80C8
:1031D0009E8E8B808F8E8C8190E0B0E0A0E01CE012
:1031E000880F991FAA1FBB1F1A95D1F74D8150E078
:1031F00070E060E004E0440F551F661F771F0A95DA
:10320000D1F7842B952BA62BB72B2E8130E044E0F1
:10321000359527954A95E1F7032E000C440B550B85
:10322000822B932BA42BB52B4091D5035091D60321
:1032300070E060E06C017D01E4E0F594E794D794E0
:10324000C794EA95D1F7C41AD50AE60AF70AF3E05B
:10325000B595A79597958795FA95D1F7440F551F82
:10326000661F771F4C015D01841A950AA60AB70AEA
:10327000A5019401A091D303B091D4030E94183307
:103280004B015C010BE0B594A794979487940A9541
:10329000D1F7A7019601C701B6010E941F369B0115
:1032A000AC018CE055954795379527958A95D1F7D0
:1032B000A091D103B091D2030E9418336B017C011D
:1032C0009EE0F594E794D794C7949A95D1F7C80CEB
:1032D000D91CEA1CFB1CA5E0B0E0A70196010E94E6
:1032E0000D3360587F4F8F4F9F4F672F782F892F57
:1032F000992787FD9A950E94AA3420E030E048EC97
:1033000052E40E94FA336093BB037093BC03809332
:10331000BD039093BE0346015701BB0C8808982C4F
:1033200054019601A701682D782D882D982D345FC2
:103330004140510961097109810991092F83388739
:1033400049875A876B877C878D879E8759016A01D9
:103350007B018C010E9443362F87388B498B588F15
:10336000698F7A8F8B8F9C8F3091C8032091C70310
:10337000932F990F990B492F592F692F792F892F47
:103380000E9443360CE00E943B37722E832E942E0F
:10339000652E562E472E382E292E3091CA032091A5
:1033A000C903932F990F990BAF84B888C988D88C1B
:1033B000E98CFA8C0B8D1C8D492F592F692F792F91
:1033C000892F0E94433608E00E945437A72CB82C5E
:1033D000C92CD62CE52CF42C032D122D0E9471370C
:1033E00070588F4F9F4F2090C5033090C6035101F6
:1033F000C12CD12CE12CF12C00E010E00E944336CE
:1034000001E20E9454372B8B3C8B4D8B5E8B6F8B74
:10341000272E382E492EA0E00E94833709F4BACE19
:103420003091D0032091CF03932F990F990BAF8444
:10343000B888C988D88CE98CFA8C0B8D1C8D492FE3
:10344000592F692F792F892F0E9443362F87388B68
:10345000498B552E3B014C013091CE032091CD0379
:10346000932F990F990BAF80B884C984DA84EB84C9
:10347000FC840D851E85492F592F692F792F892F9F
:103480000E94433601E10E943B37AF84B888C98867
:10349000D52C730184010E94713759016A017B01A7
:1034A000582E192F9D8C492D50E070E060E08CE083
:1034B000440F551F661F771F8A95D1F78E8C882D74
:1034C00090E0B0E0A0E024E0880F991FAA1FBB1F86
:1034D0002A95D1F7842B952BA62BB72B9F8C292DC2
:1034E00030E044E0359527954A95E1F7A901330F7F
:1034F000660B770B482B592B6A2B7B2B80E090E0D7
:10350000A0E1B0E0841B950BA60BB70B3C014D016D
:10351000990C6608762C43019C01AD01662D762D31
:10352000862D962D0FE10E943B3739014A01B62FB7
:10353000A72FF82FE92F3091CC032091CB03932FA5
:10354000990F990B492F592F692F792F892F03E252
:103550000E943B37052D0E94713759016A017B019A
:103560008C019301A4016B2F7A2F8F2F9E2F0E9425
:103570007A37E5E3AE2EFCE0BF2EC12CD12CE12C36
:10358000F12C00E010E00E944336AB88BC88CD8867
:10359000DE88EF88F22C032D142D0E949D362F8398
:1035A000388749875A876B877C878D879E870DE090
:1035B0000E945437922E832E742E652E562E472E3F
:1035C000382E292E3091C4032091C303932F990FD5
:1035D000990BA92CB82CC72CD62CE52CF42C032D38
:1035E000122D492F592F692F792F892F0E94433689
:1035F0000E94433609E10E945437AF80B884C984E1
:10360000DA84EB84FC840D851E850E9471371901D4
:103610002A013B014C013091C2032091C103932F39
:10362000990F990B492F592F692F792F892F0E94B4
:10363000433603E10E94543759016A017B018C0132
:103640009101A201B301C4010E94713708E00E94F8
:10365000543759016A017B01E82F192F3091C003BB
:103660002091BF03932F990F990B492F592F692F41
:10367000792F892F04E00E943B370E2F0E9471376B
:103680000E94A23420E030E040E85BE30E94AD35C8
:1036900020E030E048EC52E40E94FA336093B70334
:1036A0007093B8038093B9039093BA0374CDCF930A
:1036B000DF93D82FC62F0E941E1880913C01880FDF
:1036C0000E94E117811107C0C0E00E9411188C2FE1
:1036D000DF91CF9108958D2F0E94E1178823A1F3E8
:1036E0008C2F0E94E117C82FF0CF0F931F93CF9319
:1036F000DF93CDB7DEB76B970FB6F894DEBF0FBE82
:10370000CDBF8BE00E94D4178DE00E94D4171B8E92
:1037100086E7898F87E78A8F02E010E0E0E089E1A1
:1037200090E08C0F9D1F8E0F911DFC018081809376
:103730003C0141E0BE01655E7F4F80ED0E942E1886
:10374000882319F08B8D8036A1F0E1E0013011055E
:1037500069F410E0812F6B960FB6F894DEBF0FBEB0
:10376000CDBFDF91CF911F910F91089501E010E03F
:10377000D6CF48E1BE016F5F7F4F88E80E942E18C8
:10378000182F882331F389819A819093D6038093EF
:10379000D5038B819C819093D4038093D3038D8137
:1037A0009E819093D2038093D1038F8198859093CB
:1037B000C6038093C50389859A859093C803809337
:1037C000C7038B859C859093CA038093C9038D851D
:1037D0009E859093CC038093CB038F85988990939B
:1037E000CE038093CD0389899A899093D0038093E7
:1037F000CF038B899C899093C0038093BF038D89ED
:103800009E899093C2038093C1038F89988D909372
:10381000C4038093C30367E284EF0E94571B60EAEE
:1038200085EF0E94571B96CFEF92FF920F931F9345
:10383000DC011A960D911C911B9718962D913C91C5
:103840001997ED91FC9100A0F1A1E02D7B0150E0D2
:1038500040E070E060E009951F910F91FF90EF90BC
:1038600008950F931F93CF93DF9370E060E08BEE8A
:1038700093E00E94141CCBEED3E080E098EF9B8B8A
:103880008A8B998B888B82E08C8B8D8B86E190E084
:103890009D878C8780E590E09F878E878DEC91E0F7
:1038A0000E94AD128FEF9FEF9B8B8A8B998B888B39
:1038B00081E08C8B8D8B0FE010E01D870C878DE7EE
:1038C00090E09F878E878CEB91E00E94AD121D8760
:1038D0000C8781E990E09F878E8789EA91E0DF91EC
:1038E000CF911F910F910C94AD12EF92FF920F9315
:1038F0001F93DC01ED91FC9100A0F1A1E02D780176
:1039000001E010E009951F910F91FF90EF9008954D
:10391000EF92FF920F931F93DC01ED91FC9100A0B9
:10392000F1A1E02D7801890121E030E009951F9196
:103930000F91FF90EF900895FC0101900020E9F7AE
:103940003197AF01481B590BBC018BEE93E00C94EF
:10395000CA088F929F92AF92BF920F931F93CF93FB
:10396000DF93CDB7DEB7A1970FB6F894DEBF0FBED9
:10397000CDBF19A2423008F44AE08E010F5D1F4FFF
:10398000842E912CB12CA12CA50194010E945733B7
:10399000E62FB901CA01EA30F4F4E05DD801EE93F4
:1039A0008D01232B242B252B79F790E080E01097B5
:1039B00019F0CD010E949C1CA1960FB6F894DEBFB1
:1039C0000FBECDBFDF91CF911F910F91BF90AF90F0
:1039D0009F908F900895E95CE1CF4F925F926F9234
:1039E0007F928F929F92AF92BF92CF92DF92EF928F
:1039F000FF920F931F93CF936B017C01742EAC0148
:103A00009B010E941A36882399F08FE291E0CF91B2
:103A10001F910F91FF90EF90DF90CF90BF90AF90EC
:103A20009F908F907F906F905F904F900C949C1C14
:103A300046015701E894B7F82FEF3FEF4FE75FE7F4
:103A4000C501B4010E941A3681110DC02FEF3FEF5E
:103A50004FE75FE7C501B4010E94F53318161CF467
:103A600083E391E0D4CF2FEF3FEF4FE75FE4C7014F
:103A7000B6010E94A83518161CF487E391E0C7CF61
:103A80002FEF3FEF4FE75FECC701B6010E94F53320
:103A900087FDF3CF20E030E0A901C701B6010E9405
:103AA000F53310E000E087FF0AC06DE28BEE93E093
:103AB0000E94DB118C01F7FAF094F7F8F094C0E063
:103AC00060E070E080E09FE37C1641F020E030E0B1
:103AD00040E251E40E94FA33CF5FF6CFA70196018E
:103AE0000E9489332B013C010E9473344B015C011D
:103AF0004AE00E94A91C7C01E00EF11ECC23C1F11A
:103B0000C501B4010E94A8349B01AC01C301B201FC
:103B10000E9488334B015C016EE28BEE93E00E94C1
:103B2000DB11E80EF91EC15018F120E030E040E250
:103B300051E4C501B4010E94AD352B013C010E9446
:103B400073344B01B12CA12C4AE0C501B4010E9491
:103B5000A91CE80EF91EC501B4010E94A8349B01FE
:103B6000AC01C301B2010E9488334B015C01DBCF81
:103B7000C701CF911F910F91FF90EF90DF90CF90F1
:103B8000BF90AF909F908F907F906F905F904F907D
:103B900008952F923F924F925F926F927F928F92F1
:103BA0009F92AF92BF92CF92DF92EF92FF920F93CC
:103BB0001F93CF93DF93CDB7DEB7A5970FB6F894D9
:103BC000DEBF0FBECDBF7A83698319012A011E8330
:103BD0000D83EF869F2CDE86CD86EAACEDA2C090E9
:103BE000F503D090F603D7FE03C00FEFC01AD00A3A
:103BF000D594C7948C9D30018D9D700C1124930138
:103C0000265D3F4F3C832B83A601460D571D5A8BE3
:103C1000498B4950510958874F836091F303709144
:103C2000F4037C876B87F12CE12C86019B01A301B7
:103C300070E060E08BEE93E00E94840B2091F30330
:103C40003091F403EE24EA94FE2CA30170E060E0CE
:103C50008BEE93E00E94C81281E08093FF03809373
:103C600000048FEF9FEF9093FE038093FD039093EA
:103C7000FC038093FB0388E090E09093F80380932B
:103C8000F703C3010F969093FA038093F903898198
:103C90009A810E94AD1282E08093FF03809300041A
:103CA0008D859E859093FE038093FD039093FC0386
:103CB0008093FB038CE590E09093F8038093F703E7
:103CC000C30109969093FA038093F90341E0C2017E
:103CD000B1010E94ED1C8D819E810E94AD124F802A
:103CE0005884AB81BC814A1A5B0AD12CC12C15E0E7
:103CF000F12E2B843C84BFE02B1A3108A601D7FE9D
:103D000002C04D5F5F4F5595479555954795EB819F
:103D1000FC814E0F5F1F04E011E2910168E070E04A
:103D20008BEE93E00E94751CFA94C40CD51CF11024
:103D3000E5CF0B851C85005111091E830D83D12C05
:103D4000C12C77E0F72E1FEF411A510AE6E02E2E24
:103D5000312CC601B1010E942F36685F7F4F04E00D
:103D600011E292014B815C818BEE93E00E94881CF2
:103D7000FA942D813E81C20ED31EF110EACF882025
:103D800009F494C13F8539839A82A981BA812D9122
:103D90003D91BA83A983FD012901C901DD24D39492
:103DA000D81461F041915191481759070CF4CA0198
:103DB000441655060CF42A01D394F2CF4201881A16
:103DC000990A8A149B040CF0E8C0480E591E57FE4D
:103DD00003C0BFEF4B1A5B0A420195948794C5015B
:103DE000B7FC019695958795881A990AF501E80D13
:103DF000F91D0B851C8508501109188B0F87ED2CB8
:103E0000F12CF8A2EF8EA70141505109ED80FE8000
:103E10004E9DC0014F9D900D5E9D900D112465EC4F
:103E20007FEF0E942F362801460E571E4F8158857E
:103E3000052E000C660B770B4F83588769877A87AE
:103E4000092C000CAA08BB086B817C81CB01770F81
:103E5000AA0BBB0B7C018D014F81588569857A8542
:103E6000E41AF50A060B170BEB8AFC8A0D8B1E8BE6
:103E7000BF01FF0F880B990B6B8F7C8F8D8F9E8FEF
:103E8000681979098A099B096F8B788F898F9A8FB6
:103E9000032E000C440B550B281939094A095B09FC
:103EA000C801B7010E941F362F89388D498D5A8D60
:103EB0000E94EE328F819885A985BA85280F391F17
:103EC0004A1F5B1F190180E190E0DC01EB85FC8556
:103ED000AE1BBF0BBCA3ABA3EF8CF8A0F2E0EF1AB4
:103EE000F1082D813E81E29E8001E39E100DF29E3D
:103EF000100D11241C830B83CC24C394DC1409F40F
:103F00005CC08B819C8165EC7FEF0E942F364F85D2
:103F10005889460F571F5E834D83A981BA812D9121
:103F20003D91BA83A983032E000C440B550B28192D
:103F300039094A095B096B897C898D899E890E94B0
:103F40001F362F89388D498D5A8D0E94EE32EF80B1
:103F5000F88409851A85E20EF31E041F151FEF8EE3
:103F6000F8A209A31AA3ED84FE840F8D18A12D8158
:103F70003E81A101B2018BEE93E00E942713C3940E
:103F80000B811C812BA13CA1020F131F1C830B83EF
:103F90002F8C38A04D805E80B1CF540143E0B594A2
:103FA000A7944A95E1F7EFEFAE1ABE0A4C018A18C2
:103FB0009B08F201EA0DFB1D1CCF2D853E8542E0DA
:103FC00050E0B101C2010E949B1481E08093FF0385
:103FD000809300048FEF9FEF9093FE038093FD0387
:103FE0009093FC038093FB030AE010E01093F80326
:103FF0000093F703C3018C969093FA038093F9031F
:104000006B8D7C8D8D8D9E8D0E94AA3420E030E0DA
:1040100040E251E40E94FA3341E00E94ED1CE9883D
:10402000FA8832E1E31AF1081093F8030093F703DA
:10403000F092FA03E092F903C501B4010E94AA3498
:1040400020E030E040E251E40E94FA3341E00E9477
:10405000ED1C8B859C85805491099093F803809387
:10406000F703F092FA03E092F9034DA182E691E0A2
:10407000442311F08AE691E0A5960FB6F894DEBFCE
:104080000FBECDBFDF91CF911F910F91FF90EF90A9
:10409000DF90CF90BF90AF909F908F907F906F9068
:1040A0005F904F903F902F900C94AD12A5960FB655
:1040B000F894DEBF0FBECDBFDF91CF911F910F915E
:1040C000FF90EF90DF90CF90BF90AF909F908F9038
:1040D0007F906F905F904F903F902F9008950E9437
:1040E000A9371F93CF93DF9385ED8093BC00809118
:1040F000400190914101A0914201B0914301079686
:10410000A11DB11D23E0B695A795979587952A9592
:10411000D1F72091BC0024FD03C01092880152C049
:1041200040914001509141016091420170914301E1
:10413000452B462B472B69F30097A105B10541F0AC
:104140002AE22A95F1F700C00197A109B109E1CF50
:1041500080913F01C1E0C0933E01882399F1D09145
:10416000B8001091BA008091BC008A7B8093BC009B
:1041700060E082E10E94E70760E083E10E94E707D8
:1041800010928801C0938A011092890161E082E156
:104190000E94E70761E083E10E94E7078091B90090
:1041A0008E7F8093B9008091B9008D7F8093B90094
:1041B00088E48093B80085E48093BC001093BA0033
:1041C000D093B800DF91CF911F9108952F923F9225
:1041D0004F925F926F927F928F929F92AF92BF9217
:1041E000CF92DF92EF92FF920F931F93CF93DF93C3
:1041F000CDB7DEB7A6970FB6F894DEBF0FBECDBF22
:10420000D82E4B0129013A01180157018091F5037D
:104210009091F60397FD01969C01359527953E8771
:104220002D87D29EC001D39E900D1124988B8F872D
:104230002091F3033091F403F12CE12C0D851E85C0
:10424000AC0170E060E08BEE93E00E94840B209163
:10425000F3033091F403EE24EA94FE2C0D851E85C1
:104260004F85588970E060E08BEE93E00E94C812A1
:104270008FEF9FEF9093FE038093FD039093FC03D9
:104280008093FB0312E01093FF0310930004EF846C
:10429000F8889CE0E90EF11C88E090E09093F80328
:1042A0008093F703F092FA03E092F903C4010E94AD
:1042B000AD12B092FE03A092FD03B092FC03A09257
:1042C000FB031093FF03109300048091F30390917C
:1042D000F4032EE130E0DD2011F020E330E0821B1A
:1042E000930B9093F8038093F703F092FA03E09214
:1042F000F903C1010E94AD128E010F5F1F4F21E033
:1043000040E0C301B2010E949930C092FF03C09205
:1043100000042090040430900504209102042F8BA7
:104320008C2D90E0998F888F86E0C89E9001112493
:104330003B8F2A8F2091F3033091F4033A8B298B22
:10434000888D998D23E0880F991F2A95E1F79C8B22
:104350008B8B91012C5F3F4F3F8F2E8FC1010696B3
:1043600099A388A3225031093DA32CA302969E8BCA
:104370008D8B1D8F0C8F50E040E070E060E0442496
:104380004A94542CAFEFBFEF0FEF1FE7EE24EA94EF
:10439000EFE7FE2EEC8DFD8D8191FD8FEC8F882354
:1043A00009F4C1C02114310409F484C08A3051F4E5
:1043B000ED89FE8984918C9D600D711D112450E062
:1043C00040E0E8CF8D3031F3EE8DFF8D9491E8A180
:1043D000F9A124918917F0F22817E0F2ECA1FDA1D0
:1043E00025913491891BF7E08F9F200D311D1124F9
:1043F000F9013296D490319684918AA331969491A2
:104400009BA3319684912A5F3F4FF901F491FEA35B
:104410002F892223F9F06D2C712C680E711C87FDF9
:104420007A94288D398D629E4001639E900C729E15
:10443000900C1124840E951E29893A892815390576
:104440004CF4ED89FE8994919C9D600D711D1124A1
:1044500050E040E02C2D382F3203C0011124840F8E
:10446000951F3EA13203F00111249F01260F371F33
:104470008E159F050CF47C01201731070CF489017F
:10448000DC9C800D911D11240197A817B9070CF42D
:10449000DC018AA18C9D200D311D11242150310990
:1044A000421653060CF429019BA19C9D400D511D01
:1044B000112470CF8A3029F42B893C89620F731F35
:1044C0007ECF8D3009F466CF3F89332379F08A8D12
:1044D0009B8D840F951F29893A892817390734F451
:1044E0008B899C89680F791F50E040E02A8D3B8DB5
:1044F000240F351FC9010197A817B9070CF4DC0177
:104500008B899C89860F971F0197481659060CF4D2
:104510002C014E155F050CF47A01601771070CF43D
:104520008B01A90137CFAE15BF050CF45BC0AE19E6
:10453000BF091196401651060CF457C0401A510A93
:104540009FEF491A590AE988FA88EA1AFB0AF69491
:10455000E7940D851E850A5211090419150916954F
:1045600007958F8598898A96080F191FB092FE03C8
:10457000A092FD03B092FC03A092FB03F092F8031B
:10458000E092F7031093FA030093F903CE0101962A
:104590000E949C1CEFEFEE1AFE0AF092F803E092E4
:1045A000F7031093FA030093F903CE0101960E94DA
:1045B0009C1CA6960FB6F894DEBF0FBECDBFDF9150
:1045C000CF911F910F91FF90EF90DF90CF90BF9010
:1045D000AF909F908F907F906F905F904F903F90A3
:1045E0002F900895B0E0A0E0A5CF512C412CABCF87
:1045F0008F92AF92BF92CF92DF92EF92FF920F9382
:104600001F93CF93DF938091A9032091BB03309137
:10461000BC034091BD035091BE03811156C0C6E05A
:10462000CC2ED0EEED2EFF24FA940BE911E06DE9CB
:1046300071E00E94E6208091A8032091B703309199
:10464000B8034091B9035091BA0381115DC0E5E010
:10465000CE2EEE24EA94F7E0FF2E00E811E064E8A5
:1046600071E081E00E94E620C091F303D091F40351
:10467000D7FD2196D595C7950091F5031091F603C6
:1046800017FF02C00F5F1F4F1595079530E020E020
:1046900048E050E0B801CE010E949B1447E050E092
:1046A000B801CE010E94361644E050E0B801CE01B8
:1046B000DF91CF911F910F91FF90EF90DF90CF90FE
:1046C000BF90AF908F900C94361661E08230B9F0B5
:1046D00060E08090B3028CE293E06F93A4E1AA2E95
:1046E000B12CB0EECB2EDD24DA947C010DE811E084
:1046F0006FE871E080E00E94C91D0F909CCF809010
:10470000C2018BE392E0E9CF61E08230B9F060E072
:104710008090B30284EB92E06F9362E3A62EB12CFB
:10472000CC24CA9477E0D72E7C0103E711E067E739
:1047300071E081E00E94C91D0F9096CF8090C20168
:1047400083EC91E0E9CFCF92DF92EF92FF920F934B
:104750001F93CF93DF93FA01690130813C33E8F472
:10476000E32EF12CEE0CFF1C8E0D9F1DDC01CD9273
:10477000DC92C081D0E0CC0FDD1FC60FD71F19839C
:10478000088380818F5F8083DF91CF911F910F918C
:10479000FF90EF90DF90CF900895EB017C01BC017A
:1047A0006E5F7F4F46E750E00E94AE37BE016E5FFE
:1047B0007F4F46E750E0CE010E94AE37F701EA583E
:1047C000FF4FD182C082CA58DF4F19830883DCCFE4
:1047D0001F920F920FB60F9211242F933F938F9336
:1047E0009F93AF93BF938091AE039091AF03A0913D
:1047F000B003B091B1033091AD0323E0230F2D3707
:1048000058F50196A11DB11D2093AD038093AE0311
:104810009093AF03A093B003B093B1038091B20320
:104820009091B303A091B403B091B5030196A11D7B
:10483000B11D8093B2039093B303A093B403B093DC
:10484000B503BF91AF919F918F913F912F910F90A1
:104850000FBE0F901F90189526E8230F0296A11DFA
:10486000B11DD2CF1F920F920FB60F9211242F932A
:104870003F934F935F936F937F938F939F93AF93E8
:10488000BF93EF93FF938091B900887F803609F43E
:104890004AC0F0F5883209F4A5C018F5803109F452
:1048A00099C0B8F4882309F4F5C0883009F492C09F
:1048B000FF91EF91BF91AF919F918F917F916F91F8
:1048C0005F914F913F912F910F900FBE0F901F90CE
:1048D0001895883109F486C0803251F7809387019A
:1048E00014C0803409F49BC040F48033B9F388339A
:1048F000F9F68093870185ECAEC0803509F483C05A
:10490000883509F494C0883499F60E947120D0CF7C
:10491000883909F48AC038F5883729F050F4883688
:1049200011F0803729F683E0809388011092860188
:1049300055C0883809F479C0803919F0803809F0F9
:10494000B7CF80918601803208F06FC0E091860178
:1049500081E08E0F809386018091BB00F0E0EA59E0
:10496000FE4F80833BC0803B39F0D0F4803A09F49D
:1049700077C0883A09F09CCF84E080938801109238
:10498000650110926401F0E0E0E009958091640116
:1049900081110FC081E0809364011092440109C02D
:1049A000803C09F4A8CF883C09F4A5CF883B09F0E6
:1049B0007FCFE091650181E08E0F80936501F0E08B
:1049C000EC5BFE4F80818093BB00909165018091EC
:1049D000640129C08091AD018093BB0085EC809378
:1049E000BC0066CF9091AC018091AB01981758F54F
:1049F000E091AC0181E08E0F8093AC01F0E0E557CF
:104A0000FE4F8081E9CFE091AC0181E08E0F809371
:104A1000AC018091BB00F0E0E557FE4F80839091A0
:104A2000AC018091AB019817C8F285E8D8CFE0912E
:104A3000AC0181E08E0F8093AC018091BB00F0E06F
:104A4000E557FE4F808380918A0181115ECF81E01E
:104A50008093890184EA8093BC001092880128CF5A
:104A600085EC8093BC001092880180918601803291
:104A700030F4E0918601F0E0EA59FE4F1082609137
:104A8000860170E086E691E0F0E0E0E009951092A2
:104A900086010ECF1092870138CFEBEEF3E0138240
:104AA000128220EF30E03583248380E491E0978305
:104AB00086833187208793878287168A1586148696
:104AC0001786168681E0858B848B2FEF3FEF338B23
:104AD000228B318B208B878B108E128E118E87E06C
:104AE00091E091838083A7EDB3E081E112968C93EE
:104AF000129780E114968C93149789E013968C9307
:104B0000139788E015968C9315978CE291E0179691
:104B10009C938E931697EFECFEE0E491F0E0EE0F9D
:104B2000FF1FE354F14F8591949119969C938E93B6
:104B30001897E8EDFEE0E491F0E0EE0FFF1FE3547C
:104B4000F14F859194911B969C938E931A97E7ED64
:104B5000FEE0E491F0E0EE0FFF1FE354F14F85918A
:104B600094911D969C938E931C97E0EDFEE0E4914A
:104B7000F0E0EE0FFF1FE354F14F859194911F96E3
:104B80009C938E931E97E1EBFEE0E4915096EC939C
:104B90005097EAEBFEE0E4915296EC935297E9EBE2
:104BA000FEE0E4915196EC935197E2EBFEE0E49144
:104BB0005396EC9353978AE090E08D939C930895DD
:104BC000CF93DF93CDB7DEB72A970FB6F894DEBF49
:104BD0000FBECDBF789484B5826084BD84B58160FA
:104BE00084BD85B5826085BD85B5816085BD8091B8
:104BF0006E00816080936E00109281008091810030
:104C00008260809381008091810081608093810027
:104C1000809180008160809380008091B1008460E9
:104C20008093B1008091B00081608093B00080914A
:104C30007A00846080937A0080917A008260809309
:104C40007A0080917A00816080937A0080917A0066
:104C5000806880937A001092C10060E090E080E06C
:104C60000E94D9098C01883024E5920749F18032ED
:104C700044E5940729F18938994809F41EC160E098
:104C800087E690E00E94D90907E413E88734974447
:104C9000B9F08FEE90E00E94560A8B01673273499B
:104CA00079F081EA90E00E94370A03E619E1613069
:104CB00051E6750729F06F3F760791F506E215E199
:104CC0000E94AD09109207041092060410930B0481
:104CD00000930A04013320E8120709F43CC708F0E6
:104CE000ACC1033550E2150709F48BC708F044C185
:104CF000013195E1190709F46FC208F0FEC00939C6
:104D0000110509F437C708F0E4C080E091E10130F3
:104D1000110509F4E9C01092F0031092EF0359C293
:104D200061159FEF790719F400E215E1C9CF01EA97
:104D300015E06115704F21F28FEB90E00E94560A4A
:104D40008B01673543E8740709F4BACF61387449B9
:104D500009F4B6CF013185E1180709F4B1CF00326B
:104D600095E1190709F3063225E1120709F4A6CFE8
:104D7000013845E1140709F4A3CF0115144109F4E2
:104D80009FC084ED90E00E94370A8B01003183E5DB
:104D9000180709F495CF87ED90E00E94370A8B0140
:104DA000013390E8190709F48BCF8EEF90E00E9451
:104DB000370A072F182F292F3327033520E2120730
:104DC00009F47ECF84E090E00E94370A8B01833E95
:104DD00031F4672B09F054C000E013EE71CF81115C
:104DE0004FC06115704809F04BC08091000190914F
:104DF0000101A091020189839A83AB83AE014F5FC9
:104E00005F4F63E089EB90E00E94430960E080ED32
:104E100090E00E94D90909E910E0893909F450CFDE
:104E200000E910E9803909F44BCF83ED90E00E944E
:104E3000370A072F182F292F3327033641E9140784
:104E400009F43ECF83ED90E00E94370A8B0169326E
:104E500052E3750709F434CF872F7359723040F14C
:104E6000883931F1873721F1863111F1033D110580
:104E700009F426CF033D134DA9F401E413E920CF33
:104E8000063255E1150709F419CF003F89E81807E4
:104E9000D1F0023595E81907C9F001312CEA120763
:104EA00021F60ECF60E090E080E00E94D9098C01ED
:104EB000033D100709F004CFE0CF09E812E100CF6D
:104EC00004E118E6FDCE05E317E7FACE09E817E797
:104ED000F7CE043541E0140709F46FC105301541E0
:104EE00009F019CF84E090E19093090480930804BD
:104EF00068ED70E08CE89BE06AC1013885E1180735
:104F000009F48EC6A8F4003225E1120709F4D0C5D1
:104F10000632154109F0FFCE83E194E09093090435
:104F2000809308043CE0E32EF12C0BE319E06BC105
:104F3000023056E1150709F458C60336194109F045
:104F4000EACE81E08093AF0183E59AE09093090473
:104F50008093080480EE91E09093F2038093F10334
:104F600080E293E09093F0038093EF0323E5E22E39
:104F7000F12C08EE18E047C1093098E6190709F44A
:104F800011C600F5053345E4140709F49DC580F406
:104F90000932124309F0BFCE83E096E090930904F2
:104FA0008093080490E4E92EF12C08EA18E02BC164
:104FB000003193E5190709F492C50830144509F446
:104FC00091CFA9CE093847E7140709F4B8C5A0F472
:104FD000043188E6180709F49AC50338174709F021
:104FE0009ACE82E091E1909309048093080468E8E6
:104FF00070E084E69CE0EBC0033927E7120709F470
:1050000042C60639174709F086CE83E094E09093B4
:1050100009048093080480EE91E09093F20380935A
:10502000F10380E491E09093F0038093EF032DE08F
:10503000E22EF12C08E117E0E6C0083353E915072A
:1050400009F4E8C508F04EC0053293E91907E1F10B
:1050500060F5003940E9140709F489C5E0F4073523
:10506000134809F058CE83E094E1909309048093AB
:10507000080480EE91E09093F2038093F10380E4C2
:1050800091E09093F0038093EF03A2E0EA2EF12CDD
:105090000EE418E0B8C0023093E9190709F4B7C567
:1050A0000032134909F41ECF36CE093243E9140702
:1050B00009F4B3C560F4073283E9180709F47DC524
:1050C0000832134909F027CE80E091E16DC5013324
:1050D00023E9120721F00533134909F01CCE80E0C3
:1050E00090E162C5093854E91507C8F5073884E925
:1050F000180708F0B0C5013894E9190709F4A8C5E4
:1051000090F4005413490230110508F004CE83E1F5
:1051100094E0909309048093080455E6E52EF12C61
:1051200005EA17E070C00638144909F0F4CD83E0B1
:1051300094E0909309048093080480EE91E09093AA
:10514000F2038093F10380E491E09093F003809365
:10515000EF033BE3E32EF12C05E217E054C00930E6
:1051600055EB150709F48FC5A0F401319CEA190726
:1051700009F44AC50530154B09F0CDCD88E090E122
:10518000909309048093080460EB70E080E19AE05A
:105190001EC0053045EC140789F383E19EE001153C
:1051A000134E09F0B8CD909309048093080463E08E
:1051B000E62EF12C0AE018E026C082E090E1909300
:1051C0000904809308046CE970E088E89DE00E947F
:1051D0008A0A10E000E017C083E090E09093090491
:1051E0008093080480EE91E09093F2038093F103A2
:1051F00080E491E09093F0038093EF0353E0E52E79
:10520000F12C0DE419E020910904822F82958F7012
:1052100090E08170992790930D0480930C04011500
:10522000110581F069E070E084EE96E00E94F708D5
:10523000B701C8010E94F70866E070E08EED96E0C5
:105240000E94F70860E08BEE93E00E94010D60E0A1
:105250008BEE93E00E94AC0A80910A0490910B04BB
:105260008838944909F016C11092AE0120EE3FEF44
:1052700050E040E070E060E08BEE93E00E94770C3D
:10528000F0901604E09017048091080480FF03C09A
:105290008EE2F82EE12C80910A0490910B0482306A
:1052A000964119F40EE2F02EE12C10E000E030E01F
:1052B00020E050E040E070E060E08BEE93E00E9480
:1052C000EF0A8091080480FD10C070E060E08091DA
:1052D0001204909113040E94740970E060E08091C0
:1052E0001404909115040E9474094398429885B162
:1052F0008C7F9E2D9370892B85B99BB193705E2D09
:105300005C7FE52EE92AEBB84198419A85B18C7F04
:105310009F2D9370892B85B99BB193708F2D8C7FB6
:10532000F82EF92AFBB84198419A429A84B18C7FB1
:1053300084B98AB183708AB9209108043091090434
:1053400080910A0490910B0426FD0EC0409A40986B
:105350004098409843B149B1409A20FD05C0893832
:1053600042E1940709F0A2C48131954139F4409A91
:1053700040984098409883B189B1409AB9016470CF
:105380007727409A40984098409824FFACC493B146
:1053900089B193708C7F982B409A409A409840989E
:1053A000409843B189B143708C7F482B409A409A12
:1053B00040984098409883B1E9B083705E2D5C7F3F
:1053C000852B409A50E0672B09F478C4E82EF12C25
:1053D000FE2CEE24EE2488EFF82213E0440F551F34
:1053E0001A95E1F7407E5770E42AF52A969596952E
:1053F0009695E92A8091AE01882399F0C70135E09E
:10540000969587953A95E1F780729927A701569569
:1054100047954F715527842B952B50ECE522E82AB0
:10542000F92A409A439A84B1836084B98AB18C6F17
:105430008AB920FD14C00091F5031091F6030150C4
:1054400011092091F3033091F4032150310950E008
:1054500040E070E060E08BEE93E00E94EF0A8FE1A5
:10546000E8168FEFF806B1F486E08983AE014F5F4E
:105470005F4F61E08AE390E00E9443098091080455
:10548000909109048F7E909309048093080481E031
:105490008093AE0160E08BEE93E00E94010D70E01E
:1054A00060E08BEE93E00E94141C70E060E08BEEF5
:1054B00093E00E94141C04E011E22CEC30E04CE07C
:1054C00050E062E170E08BEE93E00E9483142CECDC
:1054D00030E043E351E062E170E08BEE93E00E9444
:1054E000831424E131E046E150E068E070E08BEEA7
:1054F00093E00E948F1424E131E046E150E067EE32
:1055000070E08BEE93E00E948F1421E04AE050E0BF
:1055100066E170E082E190E00E94761522E04AE0C8
:1055200050E066E170E08DED90E00E94761524E099
:105530004AE050E069E271E08DED90E00E9476155E
:1055400028E04AE050E069E271E082E190E00E94E8
:10555000761580EE9FEF9093FE038093FD0390936A
:10556000FC038093FB0382E08093FF03809300049D
:1055700082E190E09093F8038093F70388E490E051
:105580009093FA038093F90383E79EE00E94AD12A3
:1055900006E4E02EF12CF092F803E092F70384E6A3
:1055A00090E09093FA038093F9038BE69EE00E94CB
:1055B000AD120FEF17E024EB30E047E850E06EE16A
:1055C00070E08BEE93E00E94751C0FEF1FEF1093BD
:1055D000FE030093FD031093FC030093FB0381E0A3
:1055E0008093FF03809300048DE290E09093F80392
:1055F0008093F7038EE990E09093FA038093F90388
:1056000081E59EE00E94AD128FEF97E09093FE033C
:105610008093FD039093FC038093FB03F092F803C7
:10562000E092F70386ED90E09093FA038093F903FC
:105630008EE39EE00E94AD121093FE030093FD03E3
:105640001093FC030093FB038FE290E09093F80328
:105650008093F7038AEF90E09093FA038093F90325
:1056600084E29EE00E94AD1260E177E280E090E08B
:105670000E948B080E94751B8093AC03811162C34A
:105680000E94311C60E08091D9030E94150860E0FF
:105690008091DA030E94150861E08091DC030E948A
:1056A000150861E08091DB030E9415088091E703F3
:1056B000E091DF03F091E0039081892B808380915A
:1056C000E803E091E303F091E4039081809589235E
:1056D00080838091D9030E9451088C018091D90365
:1056E0000E9451089801281B390B2C5F3F4F29302D
:1056F000310508F08FC3800F911F9595879511E0B4
:10570000EE24EA94B3E0FB2EE81AF90A60E08091F7
:10571000DC030E94150860E08091DB030E941508FD
:1057200061E08091D9030E94150861E08091DA035D
:105730000E9415088091EA03E091E503F091E603E9
:1057400090818095892380838091E903E091E10332
:10575000F091E2039081892B80838091DB030E948A
:1057600051086C018091DB030E9451085C01C60165
:105770008A199B090496099708F04EC3AC0CBD1C0E
:10578000B594A79461E08091DC030E94150860E065
:105790008091D9030E9415088091E703E091DF030F
:1057A000F091E00390818095892380838091EA03C2
:1057B000E091E503F091E6039081892B808380914D
:1057C000DB030E9451086C018091D9030E945108AB
:1057D000BC018090DD039090DE038114910409F4F4
:1057E0001DC3072E000C880B990B0E94AA342B01B5
:1057F0003C01B601DD0C880B990B0E94AA349B0179
:10580000AC01C301B2010E94FA3320E030E040E86D
:105810005FE30E9488332B013C01B7010F2C000C81
:10582000880B990B0E94AA34A30192010E94AD3506
:105830002B013C01B40190E080E00E94A834A30158
:1058400092010E94AD3520E030E040E85AE30E942A
:10585000AD350E946C346B01111102C0D12CC12CEA
:1058600061E081E10E94150861E080E10E94150875
:1058700061E081E10E94E70761E080E10E94E707C3
:1058800099ECC91AD10810E02FE1C21623E0D20624
:1058900008F044C03091AA036091F3037091F403BF
:1058A000072E000C880B990B88248A94E3E09E2E27
:1058B0008A189B08092C000CAA08BB084090F50325
:1058C0005090F603052C000C660877086701FF0C62
:1058D000EE08FF083111ABC2A70196012D5731091F
:1058E000410951090E941F362AE033E040E050E0B0
:1058F0000E94EE323D832C83A50194012158310989
:1059000041095109C301B2010E941F362DEE32E058
:1059100040E050E00E94EE32190111E08091AC03AA
:105920008823E9F11123D9F18091AB03811137C0AC
:105930002091F5033091F60337FF02C02F5F3F4FF0
:10594000359527958091F3039091F40397FD019687
:10595000959587954C815D81481B590BCA014096EE
:10596000819708F0C3C2C101821B930B40968197B7
:1059700008F0BCC26091AA0370E06F5F7F4F637054
:1059800077276093AA038BEE93E00E94010D70E0ED
:1059900060E08BEE93E00E94141C0E94F8221093AA
:1059A000AB03C090A403D090A503E090A603F090B1
:1059B000A7038091AC038111B2C20E94BE086C198A
:1059C0007D098E099F09683873418105910508F4A6
:1059D000C3C20E94BE086093A4037093A503809382
:1059E000A6039093A7030E94751B8093AC038823A2
:1059F00009F4B2C20E94A618882309F4ADC220E0BF
:105A000030E040E251E46091B7037091B8038091B7
:105A1000B9039091BA030E94AD350E946C346B01BA
:105A200020E030E040E251E46091BB037091BC03A0
:105A30008091BD039091BE030E94AD350E946C34ED
:105A400086019B0143EB52E064EB72E08CE293E051
:105A50000E94A32320E030E040E251E46091B703CC
:105A60007091B8038091B9039091BA030E94AD354B
:105A70000E946C346B0120E030E040E251E4609120
:105A8000BB037091BC038091BD039091BE030E9443
:105A9000AD350E946C3486019B0142EC51E063EC11
:105AA00071E08BE392E00E94A3230E94F82254C28B
:105AB00083E194E0909309048093080446E0E42E87
:105AC000F12C07E419E09FCB80E090E1909309046A
:105AD000809308046CE970E08CEE9CE078CB83E165
