:100000000C9425070C944D070C944D070C944D0748
:100010000C944D070C944D070C944D070C944D0710
:100020000C944D070C944D070C944D070C944D0700
:100030000C944D070C944D070C944D070C944D07F0
:100040000C941B230C944D070C944D070C944D07F6
:100050000C944D070C944D070C944D070C944D07D0
:100060000C9465230C944D072D2D002D2D0025009B
:1000700048554D4944495459003820484F5552007D
:10008000323420484F5552003120484F55520025F8
:100090000048554D49444954590068506100505238
:1000A000455353555245003820484F55520032347D
:1000B00020484F5552003120484F5552006850613A
:1000C00000505245535355524500430054454D503E
:1000D00045524154555245003820484F5552003240
:1000E0003420484F5552003120484F5552004300AC
:1000F00054454D504552415455524500436865633F
:100100006B20332E335620616E6420474E440053DB
:1001100044413D443131202053434C3D4431330070
:10012000424D45323830206E6F7420666F756E64B4
:100130000000000000003E5B4F5B3E3E6B4F6B3E9D
:100140001C3E7C3E1C183C7E3C181C577D571C1CDA
:100150005E7F5E1C00183C1800FFE7C3E7FF001835
:10016000241800FFE7DBE7FF30483A060E2629791E
:100170002926407F050507407F05253F5A3CE73C7F
:100180005A7F3E1C1C08081C1C3E7F14227F221430
:100190005F5F005F5F06097F017F006689956A6087
:1001A0006060606094A2FFA29408047E040810209E
:1001B0007E201008082A1C08081C2A08081E101097
:1001C00010100C1E0C1E0C30383E3830060E3E0E41
:1001D00006000000000000005F00000007000700AC
:1001E000147F147F14242A7F2A1223130864623692
:1001F000495620500008070300001C22410000411E
:10020000221C002A1C7F1C2A08083E080800807057
:10021000300008080808080000606000201008048A
:10022000023E5149453E00427F40007249494946DD
:100230002141494D331814127F1027454545393C5B
:100240004A49493141211109073649494936464948
:1002500049291E000014000000403400000008146A
:1002600022411414141414004122140802015909E3
:10027000063E415D594E7C1211127C7F4949493638
:100280003E414141227F4141413E7F494949417FB1
:10029000090909013E414151737F0808087F004167
:1002A0007F41002040413F017F081422417F4040B0
:1002B00040407F021C027F7F0408107F3E41414185
:1002C0003E7F090909063E4151215E7F09192946F1
:1002D000264949493203017F01033F4040403F1F07
:1002E0002040201F3F4038403F631408146303043C
:1002F0007804036159494D43007F4141410204089C
:100300001020004141417F0402010204404040406E
:1003100040000307080020545478407F28444438A4
:100320003844444428384444287F385454541800EE
:10033000087E090218A4A49C787F0804047800446D
:100340007D40002040403D007F1028440000417F58
:1003500040007C047804787C0804047838444444E1
:1003600038FC1824241818242418FC7C08040408D9
:10037000485454542404043F44243C4040207C1CF2
:100380002040201C3C4030403C44281028444C90E5
:1003900090907C4464544C4400083641000000773F
:1003A0000000004136080002010204023C26232618
:1003B0003C1EA1A161123A4040207A38545455594C
:1003C0002155557941225454784221555478402082
:1003D000545579400C1E527212395555555939549D
:1003E00054545939555454580000457C4100024535
:1003F0007D420001457C407D1211127DF0282528A8
:10040000F07C545545002054547C547C0A097F49A3
:1004100032494949323A4444443A324A4848303AE7
:100420004141217A3A42402078009DA0A07D3D4282
:1004300042423D3D4040403D3C24FF2424487E490B
:1004400043662B2FFC2F2BFF0929F620C0887E093D
:100450000320545479410000447D413048484A32D9
:10046000384040227A007A0A0A727D0D19317D26C1
:1004700029292F28262929292630484D40203808A7
:1004800008080808080808382F10C8ACBA2F102828
:1004900034FA00007B000008142A142222142A14C3
:1004A000085500550055AA55AA55AAFF55FF55FFF6
:1004B000000000FF00101010FF00141414FF0010C3
:1004C00010FF00FF1010F010F0141414FC001414AE
:1004D000F700FF0000FF00FF1414F404FC141417CD
:1004E000101F10101F101F1414141F00101010F0F4
:1004F000000000001F101010101F10101010F0103E
:10050000000000FF101010101010101010FF10004D
:100510000000FF140000FF00FF00001F1017000084
:10052000FC04F414141710171414F404F40000FF5E
:1005300000F714141414141414F700F714141417F7
:100540001410101F101F141414F4141010F010F0D5
:1005500000001F101F0000001F14000000FC14000A
:1005600000F010F01010FF10FF141414FF141010FE
:10057000101F00000000F010FFFFFFFFFFF0F0F081
:10058000F0F0FFFFFF0000000000FFFF0F0F0F0F54
:100590000F3844443844FC4A4A4A347E0202060674
:1005A000027E027E0263554941633844443C044064
:1005B0007E201E2006027E020299A5E7A5991C2A2C
:1005C000492A1C4C7201724C304A4D4D30304878EB
:1005D0004830BC625A463D3E494949007E0101010E
:1005E0007E2A2A2A2A2A44445F444440514A4440ED
:1005F00040444A51400000FF0103E080FF00000832
:10060000086B6B083612362436060F090F060000F9
:1006100018180000001010003040FF0101001F01F9
:10062000011E00191D1712003C3C3C3C000000005C
:100630000011007F96290001007F9628003A01559D
:10064000C0021010C10141C504002280403601687B
:10065000B00100B102B011B40102B60302023BB70F
:1006600001C63A0155F704A9512C82B701C6E80822
:10067000408A00002919A533C0020D0DC1024300B4
:10068000C20100C50400480048B40100B6030202DC
:100690003BE00F0F211C0B0E084998380911031479
:1006A0001000E10F0F2F2B0C0E06477637071104B1
:1006B000231E00B00100B30402000000B40100D00A
:1006C00003074218D103000710D2020102D302012E
:1006D00002D4020102C005123B000211C103101036
:1006E00088C50103C60102C80C003236450616371C
:1006F0007577540C00CC0100F603010100CF030014
:100700008130ED0464031281E803851078CB05394C
:100710002C003402F70120EA020000B00100B1020F
:10072000001BB40100C00121C10111C5023F3CC73B
:1007300001B5360148F20100260101E00F0F262421
:100740000B0E0954A8460C17090F0700E10F0019FA
:100750001B0410072A473903060630380F360100FC
:10076000B80101C0010EB00100C10410100202C0A6
:1007700006003500000102C50104D2020104CA01CD
:1007800000EA0180B903FF83577F967F96B6012563
:10079000C0065050013C1E08B4070240002A2A0D32
:1007A000787F01F20B1616030808080810041616C5
:1007B000FD03110235B2050C0C003333B70135BB14
:1007C000012BC00104C20201FFC30111C40120C6F4
:1007D000010FD002A4A1E00ED000050E150D374385
:1007E000470915121619E10ED000050D0C062D440F
:1007F000400E1C1816193A01557F0A06000700B171
:10080000020012B40102B60400202700CA0101CB85
:100810000103C001137F14C501CCC60100C7010448
:10082000C80103CC0106CD011CF9021515F3030A1A
:10083000020AF603011000FA00FB00E2031E025454
:10084000E001017F0AE001037F0A01007F64E60303
:1008500003FFFFB0072400031F01DF00B40803A05B
:10086000002E30000F00B607020D0010100008BA6D
:10087000010FB8020701F001007F01280011007F7D
:10088000642900BE0606F001F00000D0010DB001A1
:1008900003E2013FC00122E20100B00100C0010AF1
:1008A000B001000000000000000000000000000097
:1008B000000000FFFF0F00000400620800080800AD
:1008C00003000C01030B5A0203060903031710046B
:1008D00003002305030017060309630703090C0837
:1008E000030C10090332221000160011000101123E
:1008F0000000001300010000013003010137020372
:1009000001000D800200610201B0C1FFFF32000151
:100910000000010200000103003010090001000C7A
:10092000000000900000800F000000100200001185
:1009300002EF001202000013028F01000500000107
:1009400005000002055F000104010004040000FF2F
:10095000FF320007000001FFFF320000020000012B
:100960000200000000000000000000000000000085
:10097000000100A4000100FFFF0A0060000027083A
:100980000008083000140231001537320004063325
:1009900000160E3400112235000015360007853789
:1009A00000071438000314390020009000150010CF
:1009B00000100411003702290046002A00460007F3
:1009C0000000001200890113000011FFFF960012C1
:1009D00000B901010000010200000203003010090B
:1009E0000001000A0000000D0000000E0030006150
:1009F0000001006A00000080000000810000008209
:100A0000005F009200000193000107FFFF50000704
:100A1000000001E500F0780100000102000002037F
:100A20000030100400000005000000080007020963
:100A30000000000A0000000C0000000D0000000F84
:100A40000000001000000011000700120000001359
:100A500000000007000100FFFFC800100090161101
:100A6000002702FFFF320012000D00FFFF320013CB
:100A700000001229000A002B000D00FFFF320020A9
:100A800000000021000000300000003100040432AA
:100A90000003003500050436000808370007043855
:100AA000000303390007073C0004053D0008086007
:100AB000000027610001006A000000800000008142
:100AC0000000008200000083000000840000008518
:100AD000000000900010009200000007003301E5C4
:100AE0000000800000010001000001020000070377
:100AF0000030100400000008000202090000000A93
:100B00000000000C0000000D0000000F00000010AD
:100B1000000000110007001200000013000000FF99
:100B2000FF32001000B01711000700FFFF0A00128B
:100B3000003A01FFFF0A001300001A29000C00FF11
:100B4000FF0A0030000000310005053200040035C6
:100B5000000600360007073700050138000200399B
:100B60000007073C0004073D000708600000A7617C
:100B70000001006A00000021000000200000008049
:100B8000000000810000008200000083000000845B
:100B9000000000850000009000100092000000930B
:100BA0000003009500100197000000980000000766
:100BB000007301FFFF320001000001020000070383
:100BC00000301008000203090000000A00080010AD
:100BD000000000110005001200000013000000FFDB
:100BE000FF64001000B012FFFF320011000700FF89
:100BF000FF320012008C001300001729002000FFB4
:100C0000FF320030000000310006013200010135E2
:100C100000060136000302370000003800070739DC
:100C20000004023C0006013D000301600000A761D2
:100C30000001009000300007003301FFFF32001573
:100C40000030009A0010001100200010002834121B
:100C500000020013003810FFFF280012001200FFEE
:100C6000FF28001000203413004530FFFF460030FD
:100C70000000003100020432000703330004033493
:100C8000000400350001043600070737000503386B
:100C900000100639001006010000010200000303E5
:100CA000003010080008080A0008006000002761F2
:100CB00000010090003E019200000193000001A09D
:100CC000000030A30010000700010007002100070A
:100CD000002300070033000700330111001A00123F
:100CE00000213113006C001400494210000008FF7D
:100CF000FF0A0011001A01FFFF0A0011001A03FF8A
:100D0000FF0A0011001A07FFFF0A0011001A0FFF67
:100D1000FF0A0011003A0FFFFF1E00010028010228
:100D20000000010300301007001210080003030B3D
:100D30000000110C0000000F0001181500200050E9
:100D40000001015100030652000804530000005442
:100D50000005065500060456000303570003035818
:100D60000010005900001007001200FFFF280007C4
:100D7000001300070017004255494C442320004A45
:100D8000616E4665624D61724170724D61794A755E
:100D90006E4A756C4175675365704F63744E6F761C
:100DA000446563007573696E6720436F64657800FE
:100DB0004275696C7420627920444A49410061742B
:100DC000206120676C616E6365004C6F63616C200D
:100DD000636C696D617465004D4F4E49544F52000C
:100DE000454E5649524F4E4D454E54414C00000021
:100DF0000000240027002A00000000002300260035
:100E000029000000000800020100000304070000A0
:100E100000000000000001020408102040800102D0
:100E20000408102001020408102000000000250022
:100E300028002B0004040404040404040202020237
:100E40000202030303030303802411241FBECFEF18
:100E5000D8E0DEBFCDBF11E0A0E0B1E0E2E9FDE601
:100E600002C005900D92AC34B107D9F726E0ACE48E
:100E7000B1E001C01D92A53AB207E1F717E0C5E263
:100E8000D7E004C02197FE010E94A136C432D107E9
:100E9000C9F70E9413250C94C7360C9400000895DE
:100EA000833081F028F4813099F08230A9F00895E0
:100EB0008730A9F08830C9F08430B1F48091800087
:100EC0008F7D03C0809180008F778093800008958C
:100ED00084B58F7784BD089584B58F7DFBCF8091D5
:100EE000B0008F778093B00008958091B0008F7D1F
:100EF000F9CFCF93DF93282F30E0F901EE5FF14F68
:100F00008491F901EA5EF14FD491F901EC5CF14F63
:100F1000C491CC23A1F081110E945007EC2FF0E086
:100F2000EE0FFF1FE850F24FA591B491EC91ED2325
:100F300081E090E009F480E0DF91CF91089580E0B6
:100F400090E0FACF1F93CF93DF93282F30E0F90181
:100F5000EE5FF14F8491F901EA5EF14FD491F9010E
:100F6000EC5CF14FC491CC23A9F0162F81110E94A3
:100F70005007EC2FF0E0EE0FFF1FE65DF14FA5915B
:100F8000B4918FB7F894EC91111108C0D095DE237D
:100F9000DC938FBFDF91CF911F910895DE2BF8CFA7
:100FA000CF93DF9390E0FC01EA5EF14F24918C5CDB
:100FB000914FFC0184918823C9F090E0880F991F1C
:100FC000FC01E251F24FA591B491FC01E65DF14FB5
:100FD000C591D49161110DC09FB7F8948C91209563
:100FE00082238C938881282328839FBFDF91CF9110
:100FF0000895623051F49FB7F8943C91822F809508
:1010000083238C93E8812E2BEFCF8FB7F894EC914C
:101010002E2B2C938FBFEACF8E3008F08E50877026
:10102000806480937C0080917A00806480937A0051
:1010300080917A0086FDFCCF8091780090917900B4
:1010400008953FB7F8948091370690913806A091A3
:101050003906B0913A0626B5A89B05C02F3F19F076
:101060000196A11DB11D3FBFBA2FA92F982F882728
:10107000BC01CD01620F711D811D911D42E0660F03
:10108000771F881F991F4A95D1F708958F929F92D5
:10109000AF92BF92CF92DF92EF92FF926B017C01F1
:1010A0000E9421084B015C01C114D104E104F10448
:1010B000B9F00E942108681979098A099B09683EDC
:1010C00073408105910580F321E0C21AD108E1083F
:1010D000F10888EE880E83E0981EA11CB11CE4CFB5
:1010E000FF90EF90DF90CF90BF90AF909F908F9048
:1010F00008952FB7F894609133067091340680916B
:101100003506909136062FBF0895AF92BF92CF92C9
:10111000DF92EF92FF920F931F93CF93DF936C01B7
:101120007B018B01040F151FEB015E01AE18BF0898
:10113000C017D10759F06991D601ED91FC9101904A
:10114000F081E02DC6010995892B79F7C501DF9162
:10115000CF911F910F91FF90EF90DF90CF90BF90B4
:10116000AF9008950F931F93CF93DF93EC018B0102
:10117000FE0194913196649122969F3799F470E024
:1011800090E080E00E94460860E0E62FF0E03296B2
:101190000E1B1F0B101611065CF3DF91CF911F91F0
:1011A0000F9108954398429885B18C7F292F237021
:1011B000822B85B98BB183709C7F892B8BB9419829
:1011C000419A30E020E02617A8F4FE01E20FF31F59
:1011D000E491429A85B18C7F9E2F9370892B85B9BB
:1011E0008BB18370EC7FE82BEBB94198419A2F5F6C
:1011F0003F4FE9CFC60FD11D439AC7CF43984298BE
:1012000025B12C7F392F3370232B25B92BB12370B7
:101210009C7F922B9BB94198419A95B19C7F282F36
:101220002370922B95B99BB193708C7F892B8BB9CE
:101230004198419A429AFA01615078F0219195B112
:101240009C7F822F8370982B95B98BB183702C7FF4
:10125000822B8BB94198419AEFCF439A08954398D6
:10126000429825B12C7F392F3370232B25B92BB110
:1012700023709C7F922B9BB94198419A95B19C7F9A
:10128000282F2370922B95B99BB193708C7F892B5B
:101290008BB94198419A429A85B18C7F972F937070
:1012A000892B85B98BB183707C7F782B7BB9419872
:1012B000419A85B18C7F962F9370892B85B98BB11C
:1012C00083706C7F682B6BB94198419A439A08955B
:1012D00081E080933B0684B1836084B98AB18C6FCE
:1012E0008AB9389A399A3A9A3B9A3C9A439A409AE0
:1012F000419A449A62E370E080E090E00E944608E0
:10130000449864E670E080E090E00E944608449AC9
:1013100064E670E080E090E00E94460870E060E0E3
:1013200080EB90E00C942F091F93CF93DF93C82F8D
:10133000162F80913B06811102C00E9468094398D4
:10134000429885B18C7F85B98BB183708BB94198F8
:10135000419A95B19C7F8C2F8370982B95B98BB156
:101360008370CC7F8C2B8BB94198419A429A84B17F
:101370008C7F84B98AB183708AB961E070E080E0C3
:1013800090E00E94460861E070E080E090E00E94FA
:101390004608409A409840984098C3B1D9B1409AC5
:1013A00061E070E080E090E00E944608409A40983A
:1013B0004098409883B199B1409A115020F7409AD3
:1013C000439A24B1236024B92AB12C6F2AB9C3707F
:1013D000DC7FCD2B83709C7F892B9C2FDF91CF915D
:1013E0001F9108950F931F93CF93DF938C0160E0BB
:1013F0000E949409EC0161E0C8010E9494098C01EB
:10140000BE0190E080E0CB017727662730E020E046
:10141000602B712B822B932BDF91CF911F910F911A
:101420000895FF920F931F93CF93DF938C0160E099
:101430000E949409EC0161E0C8010E949409F82E11
:1014400062E0C8010E949409AE0170E060E0742F70
:1014500066275527442700E030E020E0402B5F2935
:10146000622B732B292F30E0C901B0E0A0E08A0184
:101470009B01082B192B2A2B3B2BC901B801DF91AB
:10148000CF911F910F91FF9008950F931F93CF93CA
:10149000DF93EC018B01FE0185919491FE01329660
:1014A0002496659174918F3F980771F490E080E0E5
:1014B0000E944608045011091016110664F3DF91CA
:1014C000CF911F910F9108950E942F09F3CFFC0136
:1014D000262F358D868D82958170982F9627692FBE
:1014E00070E072A361A330FF0CC0821307C080E2DA
:1014F00090E050E040E060E00C94FE0881E290E073
:10150000F8CF878D90A1833927E7920741F058F4EF
:10151000843521E0920791F080329445C1F46260F5
:1015200081E094E012C0863223E99207C1F389304A
:1015300025EB9207A1F38532924949F4660F771F94
:10154000660F771F636187E090E00C942F0981E6B6
:1015500090E0FBCF8F929F92AF92BF92CF92DF929B
:10156000EF92FF920F931F93CF93DF9300D000D0A1
:10157000CDB7DEB77C014B015A016901FC01878DB3
:1015800090A18632954151F4F701868980FF06C00B
:10159000C801841B950B81F50F5F1F4FF701858DE7
:1015A00080FF31C085A599828A82DB82CC82AE0120
:1015B0004F5F5F4F64E090E00E94FE08F70181A951
:1015C000B982AA821B830C83AE014F5F5F4F64E038
:1015D00090E00E94FE080F900F900F900F90DF9107
:1015E000CF911F910F91FF90EF90DF90CF90BF9020
:1015F000AF909F908F9008952617370779F6C80E01
:10160000D91E8A01CBCFB40187A190A50E942F09D2
:10161000B501F70181A592A50E942F09C814D9042C
:1016200019F40A151B05B9F2F701858D85FF08C06D
:10163000868980FF1EC0102F0027A02AB12A8501AD
:10164000B401F70185A596A50E942F09B501F70100
:1016500081A992A90E942F09B601F70187A590A937
:101660000E942F09B801F70183A994A90E942F09AC
:10167000B2CFDC2CCC248C289D286401E1CFAF9222
:10168000BF92CF92DF92EF92FF920F931F93CF936F
:10169000DF93EC018091BE01882349F0C701880FD8
:1016A000991F8E739927E1ECEE22E82AF92A37FF79
:1016B00005C0620F731F319521953109260F371F21
:1016C00077FF02C070E060E08885998528173907A8
:1016D0000CF4C9016C01C61AD70A17FF05C0400FE8
:1016E000511F119501951109040F151F57FF02C0D5
:1016F00050E040E02A853B85021713070CF498015F
:101700005901A41AB50A8901015011099C012150FF
:101710003109CE010E94AA0A439842983BA58CA5A4
:1017200025B12C7F982F9370292B25B99BB19370ED
:101730008C7F982B9BB94198419A95B19C7F832FC0
:101740008370982B95B98BB183703C7F832B8BB9B9
:101750004198419A429ACA14DB042CF09A2D8B2DA1
:101760005601C92ED82E8F2DA70193E05695479587
:101770009A95E1F74C7F5E2D550F550F550F6F2D44
:1017800063707F2D7C7FEE2DE3702E2D2C7FE22E5B
:10179000887F1C141D040CF03FC09091BF0195017F
:1017A000992311F195B19C7F95B99BB19370982BBA
:1017B0009BB94198419A95B19C7F95B99BB1937023
:1017C000942B9BB94198419A95B19C7F95B99BB157
:1017D0009370952B9BB94198419A2150310911F78B
:1017E00091E0C91AD108D5CF95B19C7F962B95B9B8
:1017F0009BB19370972B9BB94198419A95B19C7F6F
:101800009E2B95B99BB193709E299BB94198419AA3
:101810002150310949F7E4CF439A8D8D80FF08C0EC
:101820008F8D98A18632954191F48E8980FF0FC0EB
:101830000A851B85015011092885398521503109F8
:1018400050E040E070E060E0CE010E94AA0ADF9123
:10185000CF911F910F91FF90EF90DF90CF90BF90AD
:10186000AF900895EF92FF920F931F93CF93DF9362
:101870007C01E90177FD6DC057FD6BC0FC018085DF
:101880009185681779070CF064C0828593854817A5
:1018900059070CF05EC08091BE01882341F0C90158
:1018A000880F991F8E739927C17CC82BD92B8A0169
:1018B0009B01C7010E94AA0A8091BF01882309F4F5
:1018C0004FC043984298F70133A584A525B12C7FDA
:1018D000982F9370292B25B99BB193708C7F982BEF
:1018E0009BB94198419A95B19C7F832F8370982B27
:1018F00095B98BB183703C7F832B8BB94198419A0A
:10190000429A85B18C7F85B99BB18D2F887F93706A
:10191000892B8BB94198419A85B18C7F85B92BB1C0
:10192000CE0133E0969587953A95E1F78C7F237049
:10193000822B8BB94198419A85B18C7F85B98BB147
:10194000CC0FCC0FCC0F8370C82BCBB94198419AE8
:10195000439ADF91CF911F910F91FF90EF900895DF
:10196000BE01F70183A594A5DF91CF911F910F913F
:10197000FF90EF900C942F09EF92FF920F931F931B
:10198000CF93DF93CDB7DEB72A970FB6F894DEBFBB
:101990000FBECDBF7C01862F8370F701868B962FFB
:1019A000917060FFE3C026813781F701318720877E
:1019B000992309F4DEC024813581F701338722871A
:1019C000823009F4DBC0833009F4DAC0813009F4D5
:1019D000D3C088E48A87F701858D968D90FF03C078
:1019E0002A8520582A8791FF04C02A8530E42327BE
:1019F0002A8793FF04C02A8538E023272A87F70126
:101A0000278D30A180FF00C12431F8E63F0709F09F
:101A1000B9C09A85892F88728A871F82892F8595F8
:101A20008074282F2260892F90E095958795807289
:101A30009927822B88878BE38987AE01495F5F4FA7
:101A400063E086EB90E00E94FE082AE230E0F701B6
:101A500030A727A38BE290E092A781A74CE250E049
:101A600054A743A736A725A730AB27A792AB81ABD6
:101A700094AB83ABAE01465F5F4F61E086E390E0DD
:101A80000E94FE088A8590E0F70194A383A3F701E2
:101A9000868980FF1CC0858D968D92FD18C087A118
:101AA00090A521A532A530A727A392A781A785A538
:101AB00096A521A932A936A725A792AB81AB87A508
:101AC00090A923A934A930AB27A794AB83ABF70126
:101AD0000285138501501109208531852150310976
:101AE00050E040E070E060E0C7010E94AA0AF70100
:101AF00066817781878D90A120E08732F3E99F0787
:101B000009F420E2F701358D30FF39C119821A82BC
:101B10007B836C831D822E83AE014F5F5F4F66E037
:101B200083E390E00E94FE0819821A82AE014F5FA3
:101B30005F4F62E087E390E00E94FE08F701858D29
:101B400080FF07C050E040E060E083E190E00E9449
:101B5000FE082A960FB6F894DEBF0FBECDBFDF9108
:101B6000CF911F910F91FF90EF90089524813581BF
:101B70001CCF2681378121CF88E22CCF88E92ACF5C
:101B800088EF28CF273243E9340789F41F8281E3A5
:101B900088878A85859585958595859588708987B7
:101BA000AE01495F5F4F63E080EC90E04CCF23369D
:101BB00089E1380749F02138E4E93E0729F021316D
:101BC000F5E13F0709F041CF8A8587FF02C08160B8
:101BD0008A878A8586FF02C082608A878A858F739A
:101BE000233649E1340731F0213884E9380721F4FC
:101BF0008A858F728A8729CF2131354109F025CF17
:101C00008A858F7E806CF6CF6A85862F062E000C23
:101C1000990B2339F7E73F0751F0A8F52435E1E0A8
:101C20003E0709F45CC02032F4E53F07A1F540E02F
:101C300052E0F70150A747A341E052E052A741A765
:101C400042E052E054A743A740E152E056A745A71F
:101C500041E152E050AB47A742E152E052AB41AB09
:101C600043E152E054AB43AB882790782632F3E946
:101C70003F0721F02032344509F071C067FD8460D0
:101C800060E071E36EC0263243E9340781F2293007
:101C9000E5EB3E0761F220E230E0F70130A727A331
:101CA00021E230E032A721A722E230E034A723A7C7
:101CB00020E530E036A725A721E530E030AB27A7A7
:101CC00022E530E032AB21AB23E530E034AB23AB8F
:101CD000BC0166277078776280E690E046C027E313
:101CE00030E0F70136A725A726E330E030AB27A781
:101CF00029E330E032AB21AB28E330E034AB23AB57
:101D000020E230E030A727A321E230E032A721A76C
:101D100022E230E034A723A7F4E06F9FB001112442
:101D200066277170882792708862682B792B81E012
:101D300090E00E942F098A85682F70E0759567955D
:101D4000759567956870772783FD70616063F7010B
:101D500074A363A383E090E00E942F0998CE60E013
:101D600072E6682B792B80E094E00E942F096A8547
:101D7000F4E06F9FB001112466277170D8CF8339CA
:101D8000F7E79F07D9F1F0F4803244E59407B1F109
:101D90008338E7E79E0731F184359140F1F46150D3
:101DA000710981E390E00E942F0970E060E082E316
:101DB00090E00E942F0970E060E083E390E00E94D1
:101DC0002F09C7CE863223E99207C1F0893045EB4F
:101DD0009407A1F08532924911F3F70161A172A134
:101DE000626003C0F70161A172A181E690E00E94E8
:101DF0002F0970E060E08AE690E0E1CFF70161A191
:101E000072A1626081E094E00E942F0970E060E0BE
:101E100084E094E0D4CF20917401260F3327331F40
:101E200021323105ECF420919801FC0190E080E032
:101E3000243069F082E00895A09174012191AC01F1
:101E40004C5A5E4FA40FB52FB11D2C9301968617E7
:101E500098F380917401680F6093740180E0089595
:101E600081E008958FEF9FEF08958FEF9FEF089522
:101E700080914D0190E09195819591090895CF93BE
:101E8000DF93CB01EA01642F0E940B0FCE01DF919B
:101E9000CF910895CF93DF931F92CDB7DEB76983BB
:101EA00061E0CE0101960E940B0F81E090E00F905F
:101EB000DF91CF9108950895FC016370668B848152
:101EC000958126813781613039F0633029F091871F
:101ED0008087338722870895318720879387828779
:101EE00008952F923F924F925F926F927F928F92BE
:101EF0009F92AF92BF92CF92DF92EF92FF920F9399
:101F00001F93CF93DF93CDB7DEB76A970FB6F894E0
:101F1000DEBF0FBECDBF9A8F898F7A8369834A0156
:101F2000D22E18870F833701BC2CDC0159962D91D6
:101F30003C915A972115310509F015C118968D91DC
:101F40009C911997681779070CF0D7C11A968D9153
:101F50009C91481759070CF0D0C14C2C512CB6E07D
:101F6000CB9E600D711D11247C876B87161617069A
:101F70000CF0C3C1EA2DF0E0FA87E98793E0EE0F99
:101F8000FF1F9A95E1F7F88BEF87CF01840F951F1C
:101F9000181619060CF0B1C1A98DBA8D58968C91FE
:101FA000811104C0BFEABD1508F4D394A98DBA8D80
:101FB000ED91FC9111970284F385E02DCD010995F7
:101FC000B5E0DB9EC0011124E981FA81FC83EB833B
:101FD000312C212C9C012F5C3E4F388F2F8B4A2DAA
:101FE00050E05E8B4D8BEF89F88DE20DF31D44912F
:101FF0009E828D82D12CC12C69817A81620D731DE4
:102000007A8B698B842F90E09C8B8B8BE98DFA8D7A
:10201000A081B18140FF82C0F1E0BF126FC0AF125A
:102020006DC01C96ED91FC912F813885A4014C0D5B
:102030005D1D69897A89898D9A8D0995EB89FC895D
:10204000F595E7954E2F5FEFC51AD50A6D817E8114
:102050008D899E89680F791F7E836D8398E0C916EC
:10206000D10481F6AFEF2A1A3A0AEB81FC81E40D24
:10207000F51DFC83EB83F5E02F16310409F0B3CF97
:102080002F81388526153705B9F0A98DBA8DED91C8
:10209000FC91B1E0BB1257C0AB1255C069817A8187
:1020A0006B5F7F4F0088F189E02D830128E030E0ED
:1020B000A401898D9A8D0995A98DBA8DED91FC9118
:1020C00011970688F789E02DCD016A960FB6F8942E
:1020D000DEBF0FBECDBFDF91CF911F910F91FF905B
:1020E000EF90DF90CF90BF90AF909F908F907F90B8
:1020F0006F905F904F903F902F9009941E96ED91B6
:10210000FC91EF80F88409851A8592014D815E81EA
:102110006B817C81898D9A8D099590CF2F8138852F
:102120002615370509F48ACF31E0B31207C0A31290
:1021300005C01C96ED91FC91930178CF1E96ED9110
:10214000FC917301E0CF6B857C8564197509068469
:10215000F785E02D73010F8518899201A401898DFF
:102160009A8D0995A9CFF9013496949132974591AA
:102170005491D91AB7E0DB9E400D511D1124F9018D
:10218000259134913C8B2B8BFA0125903490FA01E8
:102190003296749031963491398B329664903196A0
:1021A000449041E04C1518F04A1508F07FC0662DA8
:1021B000062C000C770B7C836B83842D042C000C85
:1021C000990B9E838D83A98DBA8DED91FC9111970A
:1021D0000284F385E02DCD010995512CD12CC12C21
:1021E000EA2DF0E0FA87E9872B2D30E03C872B873A
:1021F000A401440D511D47FC5A95588F4F8B69819E
:102200007A81660D711D67FC7A957E876D87798965
:10221000C71608F051CF2C2D30E04D815E81420F62
:10222000531FA985BA854A9FC0014B9F900D5A9FA5
:10223000900D1124FC01E80DF91DF88BEF87852D19
:10224000612C4F89588D420F531F5E8B4D8B671445
:1022500008F050C044244394480E877041F4C101F3
:102260000196EB89FC89E20DF31DD4901C01D7FE89
:1022700019C0A98DBA8DED91FC91662D70E0B1E089
:10228000BB1219C0AB1217C02D853E85620F731F9C
:102290000484F585E02D2F8138854D895E89898DEF
:1022A0009A8D0995DD0C6394842DD1CF1E821D82F9
:1022B0001C821B8288CF4B815C81640F751FAB85AC
:1022C000BC856A9FC0016B9F900D7A9F900D112471
:1022D00069817A81680F791F0684F785E02DEF8088
:1022E000F88409851A859D014F855889898D9A8DB5
:1022F0000995D8CF570CC3948ACF6A960FB6F89435
:10230000DEBF0FBECDBFDF91CF911F910F91FF9028
:10231000EF90DF90CF90BF90AF909F908F907F9085
:102320006F905F904F903F902F9008958F929F9263
:10233000AF92CF92EF92FF920F931F93CF93DF93C1
:10234000EC01262F898D9A8D009709F051C06A30D3
:10235000D1F41D861C868D8948E0849F900111244C
:102360008E859F85820F931F9F878E8781E090E0E7
:10237000DF91CF911F910F91FF90EF90CF90AF9091
:102380009F908F9008956D3089F3CC88AD888F89A8
:102390008823C1F08C859D8536E0C39E800D911DFC
:1023A0001124488559854817590764F44E855F857F
:1023B0001D861C8638E0A39EC0011124840F951F42
:1023C0009F878E87EA88FB88088919894E855F85F3
:1023D0006C857D85CE010E94710F2C898C859D8531
:1023E00046E0249F800D911D11249D878C87BECFD0
:1023F0006A3069F41D861C86FC013896E4912D89AB
:102400008E859F85E29F800D911D1124ADCF6D308B
:1024100009F4ACCFFC0134963491631708F4A6CFCD
:102420003296E491E61708F4A1CFFC01329685902C
:102430009490462F431B342F47E0349F800C911C0F
:102440001124F401329634913196E4913323A9F1A9
:10245000EE2399F1CC88F4013596E491AD884F894B
:10246000442301F10E2E000CFF0BE30FF11DCE9E55
:10247000A001CF9E500D11246C857D85460F571FFE
:1024800068857985641775076CF44E855F851D86B0
:102490001C86FC013896E491AE9E400D511D11241E
:1024A0005F874E87EA88FB88088919894E855F8592
:1024B0006C857D85CE010E94710FF4013496E49104
:1024C0002C898C859D85E29F800D911D11248DCFD7
:1024D0000F931F93CF93DF938C01D0E0C0E0F801FE
:1024E000EC0FFD1F6491662341F080E796E00E94A7
:1024F0009611892B11F02196F2CFCE01DF91CF9169
:102500001F910F9108956F927F928F929F92AF9239
:10251000BF92CF92DF92EF92FF920F931F93CF93D0
:10252000DF93EC016B015A0139014801E881F9811F
:102530000284F385E02D0995E881F9810288F38909
:10254000E02D87019301A501B601CE010995A501F2
:10255000480D591D41505109E881F9810288F389DC
:10256000E02D9301B601CE010995E881F98100883B
:10257000F189E02D9401A501B601CE010995C60CA3
:10258000D71CB60161507109E881F9810088F18991
:10259000E02D9401A501CE010995E881F981068815
:1025A000F789E02DCE01DF91CF911F910F91FF9020
:1025B000EF90DF90CF90BF90AF909F908F907F90E3
:1025C0006F9009946F927F928F929F92AF92BF9279
:1025D000CF92DF92EF92FF920F931F93CF93DF93EF
:1025E0005C01EB016A01490138018701DC01ED91D1
:1025F000FC916217730719F5641675062CF0962D79
:10260000872D3A01C92ED82E9601261937092F5F3A
:102610003F4F048CF58DE02DA301BE01C501099546
:10262000DF91CF911F910F91FF90EF90DF90CF90AE
:10263000BF90AF909F908F907F906F9008954615B8
:10264000570591F42617370724F0892D4B01C22F27
:10265000D82F9E01281939092F5F3F4F068CF78D1F
:10266000E02DA601B401DACF0284F385E02D0995AF
:10267000D501ED91FC910488F589E02D8301940149
:10268000A601BE01C5010995D501ED91FC91068811
:10269000F789E02DC501DF91CF911F910F91FF9038
:1026A000EF90DF90CF90BF90AF909F908F907F90F2
:1026B0006F900994EF92FF920F931F93DC011A968B
:1026C0000D911C911B9718962D913C911997ED91A6
:1026D000FC9100A0F1A1E02D7B0150E040E070E012
:1026E00060E009951F910F91FF90EF9008954F9230
:1026F0005F926F927F928F929F92AF92BF92CF9292
:10270000DF92EF92FF920F931F93CF93DF936C01B1
:102710002B015A0139014801DC01ED91FC91028441
:10272000F385E02D0995E201640C751CD601ED914D
:10273000FC91C615D7055CF40088F189E02D87016E
:102740009401A501BE01C60109952196EFCF068827
:10275000F789E02DC601DF91CF911F910F91FF9076
:10276000EF90DF90CF90BF90AF909F908F907F9031
:102770006F905F904F9009948F929F92AF92BF920B
:10278000CF92DF92EF92FF920F931F93CF93DF933D
:10279000EC015B014A016901E881F9810284F3855A
:1027A000E02D099595012C0D3D1D21503109E88141
:1027B000F9810488F589E02D78018401A401B5012F
:1027C000CE010995E881F9810688F789E02DCE01CF
:1027D000DF91CF911F910F91FF90EF90DF90CF90FD
:1027E000BF90AF909F908F9009948F929F92AF92DD
:1027F000BF92CF92DF92EF92FF920F931F93CF93EE
:10280000DF93EC015B014A0169017801E881F981FC
:102810000284F385E02D0995C80CD91C860101506E
:102820001109E881F9810488F589E02D9501A40159
:10283000B501CE010995E881F9810688F789E02D77
:10284000CE01DF91CF911F910F91FF90EF90DF901C
:10285000CF90BF90AF909F908F900994EF92FF928E
:102860000F931F93DC01ED91FC9100A0F1A1E02DED
:1028700009951F910F91FF90EF9008950F931F936B
:10288000DC01ED91FC91068CF78DE02D09951F91EF
:102890000F9108950F931F93DC01ED91FC91048C2F
:1028A000F58DE02D09951F910F910895DC01ED91B3
:1028B000FC910084F185E02D09942F923F924F9274
:1028C0005F926F927F928F929F92AF92BF92CF92C0
:1028D000DF92EF92FF920F931F93CF93DF9300D07D
:1028E00000D0CDB7DEB77C018B015C834B8381E0E8
:1028F00090E05C01A41AB50A1A01319421943108C0
:10290000220C331C460F571F2FEF3FEFB70180E714
:1029100096E00E945614A8012B813C81421B530B68
:102920002FEF3FEFB70180E796E00E9456146B81CE
:102930007C816E0D7F1D2FEF3FEFA80180E796E0B1
:102940000E945614B7018B819C81681B790B2FEF75
:102950003FEFA80180E796E00E94561421E030E0A6
:102960003A832983D12CC12CB7FC0AC08B819C816E
:1029700001979C838B8392E0290E311CA20CB31C1F
:102980002FEFC21AD20A89819A8102969A8389838B
:10299000A80EB91E36016E0C7F1C2FEF3FEF8B8007
:1029A0009C80800E911EA401B30180E796E00E94F6
:1029B000561427014C185D082FEF3FEFA401B20118
:1029C00080E796E00E9456142FEF3FEF48018B817D
:1029D0009C81881A990AA401B30180E796E00E94BD
:1029E00056142FEF3FEFA401B20180E796E00E945A
:1029F00056144601800E911E2FEF3FEFA4016B800D
:102A00007C806E0C7F1CB30180E796E00E94561418
:102A10002FEF3FEFA40127018B819C81481A590AAF
:102A2000B20180E796E00E94561448018C189D0878
:102A30002FEF3FEFA401B30180E796E00E94561408
:102A40002FEF3FEFA401B20180E796E00E945614F9
:102A50002B813C81C216D3060CF486CF0F900F90C9
:102A60000F900F90DF91CF911F910F91FF90EF90FA
:102A7000DF90CF90BF90AF909F908F907F906F909E
:102A80005F904F903F902F9008952F923F924F92DA
:102A90005F926F927F928F929F92AF92BF92CF92EE
:102AA000DF92EF92FF920F931F93CF93DF9300D0AB
:102AB00000D000D0CDB7DEB73C016A013E832D8344
:102AC000FC82EB825801A41AB50AB7FE03C0B19488
:102AD000A194B1088D809E80861A970A97FE03C044
:102AE0009194819491088A149B045CF0902F812F1B
:102AF0000D811E819D838E839C2D8D2D6B01692FF1
:102B0000782F0C151D055CF09D818E817E836D8371
:102B1000692F782F902F812F8601C92ED82E16016C
:102B2000201A310A2B012D813E81421A530A57FE89
:102B300003C0519441945108710137FE03C03FEF27
:102B4000E31AF30AF594E7948D819E81861797071F
:102B50005CF5A1E0B0E0BA83A983C016D1064CF1C0
:102B6000D301ED91FC910484F585E02D2B813C810E
:102B7000A8016D817E818A149B041CF04D815E81C9
:102B8000B801C3010995E418F508F7FE0AC02D81C4
:102B90003E8189819A81280F391F3E832D83E20C63
:102BA000F31C0F5F1F4FD9CF2FEF3FEF3A832983DD
:102BB000D4CF26960FB6F894DEBF0FBECDBFDF91FF
:102BC000CF911F910F91FF90EF90DF90CF90BF902A
:102BD000AF909F908F907F906F905F904F903F90BD
:102BE0002F900895089590E080E008958FE090E0A0
:102BF0000197F1F7089562E00C94D007CF93C82FA6
:102C000061E00E94D00760E08C2FCF910C94A20766
:102C1000CF93DF93D82FC8E08BE0D7FF27C00E9467
:102C2000FB150E94F6158DE00E94FB150E94F6151B
:102C30008DE00E94FE15DD0FC15071F78BE00E9400
:102C4000FB150E94F6158DE00E94FB150E94F615FB
:102C50008BE00E947907EC018DE00E94FE1581E077
:102C6000CD2B09F080E0DF91CF9108950E94FE15F1
:102C7000D8CF8BE00E94FE158DE00E94FB150E94CC
:102C8000F6158BE00E94FB150C94F6158BE00E9464
:102C9000FB158DE00E94FB150E94F6158BE00E944B
:102CA000FE150E94F6158DE00C94FE159F92AF92D2
:102CB000BF92CF92DF92EF92FF920F931F93CF9329
:102CC000DF93D82F162FF72EC42E0E944616C091E0
:102CD0004C018C2F880F0E940816882329F08D2F15
:102CE0000E940816811110C00E94391600E0802F42
:102CF000DF91CF911F910F91FF90EF90DF90CF90D8
:102D0000BF90AF909F9008950E9446168C2F880F19
:102D100081600E940816082F882331F3912EC12F5D
:102D2000DF2DEE24E394F12CAC2CB12C8BE00E942F
:102D3000FB1588E0D82E10E0110F8DE00E94FB15E6
:102D40000E94F6158BE00E947907892B09F011602B
:102D50008DE00E94FE150E94F615DA94D110ECCF9A
:102D60008BE0EA14FB04C4F40E94FE158DE00E947F
:102D7000FB150E94F6158DE00E94FE158BE00E9467
:102D8000FB1519938FEFE81AF80A8C2F89198C1507
:102D900068F20E943916ABCF0E94FB15E7CF2F9245
:102DA0003F924F925F926F927F928F929F92AF92DB
:102DB000BF92CF92DF92EF92FF920F931F93CF9328
:102DC000DF93CDB7DEB76F970FB6F894DEBF0FBEB7
:102DD000CDBF46E0BE016F5F7F4F87EF0E94561662
:102DE0008A8B81111BC01A8A8A896F960FB6F89454
:102DF000DEBF0FBECDBFDF91CF911F910F91FF902E
:102E0000EF90DF90CF90BF90AF909F908F907F908A
:102E10006F905F904F903F902F90089589808D8E96
:102E20009A809E8E8B808F8E8C8190E0B0E0A0E0A7
:102E30001CE0880F991FAA1FBB1F1A95D1F74D815F
:102E400050E070E060E004E0440F551F661F771FFC
:102E50000A95D1F7842B952BA62BB72B2E8130E02A
:102E600044E0359527954A95E1F7032E000C440B75
:102E7000550B822B932BA42BB52B40915A065091C6
:102E80005B0670E060E06C017D01E4E0F594E7949E
:102E9000D794C794EA95D1F7C41AD50AE60AF70A77
:102EA000F3E0B595A79597958795FA95D1F7440FD7
:102EB000551F661F771F4C015D01841A950AA60AEB
:102EC000B70AA5019401A0915806B09159060E9435
:102ED00016324B015C010BE0B594A794979487944C
:102EE0000A95D1F7A7019601C701B6010E94E63401
:102EF0009B01AC018CE055954795379527958A95B0
:102F0000D1F7A0915606B09157060E9416326B0178
:102F10007C019EE0F594E794D794C7949A95D1F7F5
:102F2000C80CD91CEA1CFB1CA5E0B0E0A701960167
:102F30000E940B3260587F4F8F4F9F4F672F782F23
:102F4000892F992787FD9A950E94713320E030E000
:102F500048EC52E40E94C1326093400670934106EF
:102F6000809342069093430646015701BB0C8808A4
:102F7000982C54019601A701682D782D882D982D45
:102F8000345F4140510961097109810991092F8319
:102F9000388749875A876B877C878D879E87590139
:102FA0006A017B018C010E940A352F87388B498B7F
:102FB000588F698F7A8F8B8F9C8F30914D0620911F
:102FC0004C06932F990F990B492F592F692F792F61
:102FD000892F0E940A350CE00E943936722E832E0A
:102FE000942E652E562E472E382E292E30914F06C0
:102FF00020914E06932F990F990BAF84B888C988FA
:10300000D88CE98CFA8C0B8D1C8D492F592F692F88
:10301000792F892F0E940A3508E00E945236A72C8A
:10302000B82CC92CD62CE52CF42C032D122D0E9483
:103030006F3670588F4F9F4F20904A0630904B0646
:103040005101C12CD12CE12CF12C00E010E00E94A8
:103050000A3501E20E9452362B8B3C8B4D8B5E8BE6
:103060006F8B272E382E492EA0E00E94813609F45E
:10307000BACE3091550620915406932F990F990B93
:10308000AF84B888C988D88CE98CFA8C0B8D1C8DDC
:10309000492F592F692F792F892F0E940A352F87A1
:1030A000388B498B552E3B014C01309153062091B2
:1030B0005206932F990F990BAF80B884C984DA8494
:1030C000EB84FC840D851E85492F592F692F792F9C
:1030D000892F0E940A3501E10E943936AF84B888F1
:1030E000C988D52C730184010E946F3659016A0189
:1030F0007B01582E192F9D8C492D50E070E060E027
:103100008CE0440F551F661F771F8A95D1F78E8C70
:10311000882D90E0B0E0A0E024E0880F991FAA1F5E
:10312000BB1F2A95D1F7842B952BA62BB72B9F8CF1
:10313000292D30E044E0359527954A95E1F7A9011E
:10314000330F660B770B482B592B6A2B7B2B80E0B8
:1031500090E0A0E1B0E0841B950BA60BB70B3C01FF
:103160004D01990C6608762C43019C01AD01662D3A
:10317000762D862D962D0FE10E94393639014A01B0
:10318000B62FA72FF82FE92F309151062091500626
:10319000932F990F990B492F592F692F792F892F29
:1031A00003E20E943936052D0E946F3659016A01EB
:1031B0007B018C019301A4016B2F7A2F8F2F9E2FFF
:1031C0000E947836E5E3AE2EFCE0BF2EC12CD12C58
:1031D000E12CF12C00E010E00E940A35AB88BC889D
:1031E000CD88DE88EF88F22C032D142D0E946435E3
:1031F0002F83388749875A876B877C878D879E877F
:103200000DE00E945236922E832E742E652E562E7D
:10321000472E382E292E3091490620914806932FAB
:10322000990F990BA92CB82CC72CD62CE52CF42C73
:10323000032D122D492F592F692F792F892F0E9485
:103240000A350E940A3509E10E945236AF80B884DF
:10325000C984DA84EB84FC840D851E850E946F3658
:1032600019012A013B014C01309147062091460685
:10327000932F990F990B492F592F692F792F892F48
:103280000E940A3503E10E94523659016A017B010E
:103290008C019101A201B301C4010E946F3608E0C4
:1032A0000E94523659016A017B01E82F192F309193
:1032B000450620914406932F990F990B492F592FBA
:1032C000692F792F892F04E00E9439360E2F0E9432
:1032D0006F360E94693320E030E040E85BE30E94F3
:1032E000743420E030E048EC52E40E94C132609334
:1032F0003C0670933D0680933E0690933F0674CD46
:10330000CF93DF93D82FC62F0E94461680914C0191
:10331000880F0E940816811107C0C0E00E9439166C
:103320008C2FDF91CF9108958D2F0E94081688234E
:10333000A1F38C2F0E940816C82FF0CF0F931F9374
:10334000CF93DF93CDB7DEB76B970FB6F894DEBFA0
:103350000FBECDBF8BE00E94FB158DE00E94FB15D8
:103360001B8E86E7898F87E78A8F02E010E0E0E016
:1033700089E190E08C0F9D1F8E0F911DFC018081D3
:1033800080934C0141E0BE01655E7F4F80ED0E945D
:103390005616882319F08B8D8036A1F0E1E00130BC
:1033A000110569F410E0812F6B960FB6F894DEBF1B
:1033B0000FBECDBFDF91CF911F910F91089501E016
:1033C00010E0D6CF48E1BE016F5F7F4F88E80E94D2
:1033D0005616182F882331F389819A8190935B06C2
:1033E00080935A068B819C8190935906809358064E
:1033F0008D819E8190935706809356068F81988584
:1034000090934B0680934A0689859A8590934D0642
:1034100080934C068B859C8590934F0680934E0637
:103420008D859E8590935106809350068F8598894F
:10343000909353068093520689899A8990935506F2
:10344000809354068B899C8990934506809344060B
:103450008D899E8990934706809346068F89988D23
:10346000909349068093480667E284EF0E94801992
:1034700060EA85EF0E94801996CF8F929F92AF925B
:10348000BF92CF92DF92EF92FF92CF93DF93C82F3C
:103490006A017B010E9421084B015C01D0E083E1BD
:1034A0000E9479078C179D07B9F00E9421086819BE
:1034B00079098A099B09C616D706E806F90678F73E
:1034C00080E0DF91CF91FF90EF90DF90CF90BF90A1
:1034D000AF909F908F90089581E0F3CF4F925F92CD
:1034E0006F927F928F929F92AF92BF92CF92DF9214
:1034F000FF920F931F93CF93DF9300D000D01F92C2
:10350000CDB7DEB7CE0101965C0185E0F5011192E1
:103510008A95E9F761E083E10E94D00760E083E1EA
:103520000E94A20764E170E080E090E00E944608FB
:1035300061E083E10E94A20783E790E00197F1F741
:1035400062E083E10E94D00748E750E060E070E06D
:1035500080E00E943D1A882309F489C048E750E0C2
:1035600060E070E081E00E943D1A882309F47FC08A
:1035700048E750E060E070E080E00E943D1A882358
:1035800009F475C000E044E650E060E070E081E0DE
:103590000E943D1A882309F46AC00E9421082B0169
:1035A0003C0148E750E060E070E080E00E943D1A96
:1035B000F82E882309F45BC0C02EC694C694C69426
:1035C000CA0CDB2CD11CF6011081110F10830E9454
:1035D0002108641975098609970969327105810501
:1035E000910518F01160F60110830F5F083259F64B
:1035F00019816A81812F860F9B81890F9C81890F98
:103600009D81891334C070E090E080E00E947133A6
:103610002DEC3CEC4CEC5DE30E9474344B015C01FE
:10362000612F70E090E080E00E9471339B01AC015B
:10363000C501B4010E9450324B015C01809200012F
:1036400090920101A0920201B092030120E030E0CB
:10365000A9010E946F3487FD0AC020E030E048ECE9
:1036600052E4C501B4010E94BC3218160CF4F12CCE
:103670008F2D0F900F900F900F900F90DF91CF91A3
:103680001F910F91FF90DF90CF90BF90AF909F90D0
:103690008F907F906F905F904F900895EF92FF9280
:1036A0000F931F93DC011A960D911C911B9718968E
:1036B0002D913C911997ED91FC9100A0F1A1E02D85
:1036C0007B0150E040E070E060E009951F910F91B0
:1036D000FF90EF9008950F931F93CF93DF9370E0C7
:1036E00060E080E796E00E944E1BC0E7D6E080E0F5
:1036F00098EF9B8B8A8B998B888B82E08C8B8D8B40
:1037000086E190E09D878C8780E590E09F878E879B
:1037100080E291E00E9468128FEF9FEF9B8B8A8B73
:10372000998B888B81E08C8B8D8B0FE010E01D874F
:103730000C878DE790E09F878E878FE091E00E9455
:1037400068121D870C8781E990E09F878E878CEF38
:1037500090E0DF91CF911F910F910C946812EF923E
:10376000FF920F931F93DC01ED91FC9100A0F1A15A
:10377000E02D780101E010E009951F910F91FF9075
:10378000EF900895EF92FF920F931F93DC01ED915C
:10379000FC9100A0F1A1E02D7801890121E030E049
:1037A00009951F910F91FF90EF900895FC010190F2
:1037B0000020E9F73197AF01481B590BBC0180E7A6
:1037C00096E00C9485088F929F92AF92BF920F93D0
:1037D0001F93CF93DF93CDB7DEB7A1970FB6F894C1
:1037E000DEBF0FBECDBF19A2423008F44AE08E0101
:1037F0000F5D1F4F842E912CB12CA12CA50194019B
:103800000E941E32E62FB901CA01EA30F4F4E05DED
:10381000D801EE938D01232B242B252B79F790E0F3
:1038200080E0109719F0CD010E94D61BA1960FB62B
:10383000F894DEBF0FBECDBFDF91CF911F910F91E6
:10384000BF90AF909F908F900895E95CE1CF4F9229
:103850005F926F927F928F929F92AF92BF92CF9220
:10386000DF92EF92FF920F931F93CF936B017C0136
:10387000742EAC019B010E94E134882399F083E30C
:1038800091E0CF911F910F91FF90EF90DF90CF903B
:10389000BF90AF909F908F907F906F905F904F9070
:1038A0000C94D61B46015701E894B7F82FEF3FEF71
:1038B0004FE75FE7C501B4010E94E13481110DC0FB
:1038C0002FEF3FEF4FE75FE7C501B4010E94BC3225
:1038D00018161CF487E391E0D4CF2FEF3FEF4FE7AA
:1038E0005FE4C701B6010E946F3418161CF48BE325
:1038F00091E0C7CF2FEF3FEF4FE75FECC701B60175
:103900000E94BC3287FDF3CF20E030E0A901C7015F
:10391000B6010E94BC3210E000E087FF0AC06DE2F1
:1039200080E796E00E9496118C01F7FAF094F7F880
:10393000F094C0E060E070E080E09FE37C1641F02E
:1039400020E030E040E251E40E94C132CF5FF6CF88
:10395000A70196010E9450322B013C010E943A338C
:103960004B015C014AE00E94E31B7C01E00EF11E6A
:10397000CC23C1F1C501B4010E946F339B01AC019E
:10398000C301B2010E944F324B015C016EE280E73D
:1039900096E00E949611E80EF91EC15018F120E041
:1039A00030E040E251E4C501B4010E9474342B01BF
:1039B0003C010E943A334B01B12CA12C4AE0C501D5
:1039C000B4010E94E31BE80EF91EC501B4010E9478
:1039D0006F339B01AC01C301B2010E944F324B0116
:1039E0005C01DBCFC701CF911F910F91FF90EF904A
:1039F000DF90CF90BF90AF909F908F907F906F900F
:103A00005F904F9008952F923F924F925F926F92E6
:103A10007F928F929F92AF92BF92CF92DF92EF925E
:103A2000FF920F931F93CF93DF9300D01F92CDB7D8
:103A3000DEB789834B0129013A0118015701209112
:103A40007A0630917B06C90163E070E00E94F6348B
:103A50007B836A834981469F6001479FD00C112474
:103A6000423029F4C9018C199D099B838A832091D6
:103A7000780630917906F12CE12C0A811B81A60190
:103A800070E060E080E796E00E943F0B20917806AE
:103A900030917906EE24EA94FE2C0A811B81A6015E
:103AA00070E060E080E796E00E9483128FEF9FEF66
:103AB000909383068093820690938106809380067C
:103AC00012E0109384061093850676019CE0E90EBF
:103AD000F11C88E090E090937D0680937C06F09244
:103AE0007F06E0927E06C4010E946812B0928306AF
:103AF000A0928206B0928106A0928006109384065E
:103B0000109385068091780690917906298121305D
:103B100009F4D3C02EE130E0821B930B90937D0615
:103B200080937C06F0927F06E0927E06C1010E949F
:103B300068128A819B8104E0843691050CF005E0CF
:103B40000093840600938506A3019201C301B2018C
:103B50000E94E13412E081112AC020E030E04AE7FF
:103B600054E4C301B2010E946F3416E087FF16C00F
:103B700020E030E048EC52E4C301B2010E946F340F
:103B800015E087FF0BC020E030E040E251E4C301C4
:103B9000B2010E946F3413E087FF14E020E030E0B0
:103BA000A901C301B2010E94BC3287FD1F5F26E05C
:103BB000129FC0011124202F30E0829FA001839F1B
:103BC000500D929F500D11248090780690907906A8
:103BD000841A950A97FE03C04FEF841A940A9594AD
:103BE00087948A819B81849753E0220F331F5A95D3
:103BF000E1F7821B930B9B838A8397FF03C0019697
:103C00009B838A838A819B81959587959B838A83F1
:103C100094E2C90ED11C8A819B818C0D9D1D9B83D2
:103C20008A83B0928306A0928206B0928106A09207
:103C3000800690927D0680927C0690937F0680930A
:103C40007E06A3019201C301B2010E94E1348111F9
:103C500037C041E0C301B2010E94271C9FEF891ABF
:103C6000990A90927D0680927C068A819B8190932E
:103C70007F0680937E06A3019201C301B2010E94D8
:103C8000E134811122C041E0C301B2010F900F90D5
:103C90000F90DF91CF911F910F91FF90EF90DF90E8
:103CA000CF90BF90AF909F908F907F906F905F90DC
:103CB0004F903F902F900C94271C20E330E02CCFA6
:103CC0008BE690E00E946812C9CF88E690E00F90E2
:103CD0000F900F90DF91CF911F910F91FF90EF9078
:103CE000DF90CF90BF90AF909F908F907F906F901C
:103CF0005F904F903F902F900C9468122F923F92BC
:103D00004F925F926F927F928F929F92AF92BF92EB
:103D1000CF92DF92EF92FF920F931F93CF93DF9397
:103D2000CDB7DEB7A8970FB6F894DEBF0FBECDBFF4
:103D3000E82F7A8369832B873C874D875E8728012C
:103D4000EF86F98ADC8ACB8AEDACFEACF8A6EFA24E
:103D500020917A0630917B06C90163E070E00E94F1
:103D6000F6346B01E69F1001E79F300C1124E2301E
:103D700019F46901C218D30831010EE1600E711CFB
:103D80009601220D331D3E8B2D8B275031093E832A
:103D90002D8340917806509179065A874987F12CF6
:103DA000E12C86019A01A10170E060E080E796E0D5
:103DB0000E943F0B2091780630917906EE24EA9418
:103DC000FE2CA10170E060E080E796E00E94831283
:103DD000FF24F394F0928406F09285068FEF9FEF14
:103DE0009093830680938206909381068093800649
:103DF00088E090E090937D0680937C068101055FCA
:103E00001F4F10937F0600937E0689819A810E943E
:103E10006812F0928406F09285066B897C89709313
:103E200083066093820670938106609380068CE51A
:103E300090E090937D0680937C0610937F0600931C
:103E40007E0641E06B857C858D859E850E94271CC2
:103E5000C2010E946812CD80DE80C618D708F12CFE
:103E6000E12CB5E09B2E49845A847FE0471A510823
:103E7000A701F7FE02C04D5F5F4F559547955595D9
:103E80004795460D571D04E011E2920168E070E08D
:103E900080E796E00E94AF1B9A94EC0CFD1C9110F9
:103EA000E7CF89859A8540979C838B83F12CE12C01
:103EB00077E0972E9FEFC91AD90AE6E04E2E512CD3
:103EC000C701B2010E94F634685F7F4F04E011E23F
:103ED0009601A30180E796E00E94C21B9A94AB81F1
:103EE000BC81EA0EFB1E9110EBCF882009F496C12D
:103EF000BF85B983E989EA83A981BA812D913D9172
:103F0000BA83A983FD012901C901CC24C394C81433
:103F100061F041915191481759070CF4CA014416B8
:103F200055060CF42A01C394F2CF4201881A990A6B
:103F30008A149B040CF0E8C0480E591E57FE03C0BB
:103F4000BFEF4B1A5B0A420195948794C501B7FCF9
:103F5000019695958795881A990A2501480C591C50
:103F600009851A8508501109188F0F8BEC2CF12C3C
:103F7000FA8AE98AA70141505109EB80FC804E9DE5
:103F8000C0014F9D900D5E9D900D112465EC7FEF5B
:103F90000E94F634060F171F1C870B874D815E8128
:103FA000052E000C660B770B4D835E836F8378873D
:103FB000092C000CAA08BB08C301770CAA0BBB0B89
:103FC0007C018D01E41AF50A060B170BE98EFA8EB7
:103FD0000B8F1C8F052C000C66087708B301A2011B
:103FE000481959096A097B094D8F5E8F6F8F78A335
:103FF000032E000C440B550B281939094A095B099B
:10400000C801B7010E94E6342D8D3E8D4F8D58A119
:104010000E94EC316D817E818F819885260F371F3C
:10402000481F591F388B2F8780E190E0DC01E9851C
:10403000FA85AE1BBF0BBEA3ADA3E988FA88F2E0F8
:10404000EF1AF1082B813C81E29E8001E39E100D66
:10405000F29E100D11241A8B098BDD24D394CD14FC
:1040600009F461C089899A8965EC7FEF0E94F63472
:104070004F89588D460F571F5C834B83A981BA81A6
:104080002D913D91BA83A983032E000C440B550B4F
:10409000281939094A095B09698D7A8D8B8D9C8DA8
:1040A0000E94E6342D8D3E8D4F8D58A10E94EC313B
:1040B000ED80FE800F811885E20EF31E041F151F90
:1040C000E9A2FAA20BA31CA3EB88FC8809A11AA100
:1040D0002B813C814F8558896B857C8580E796E0F4
:1040E0000E94E212D39409891A892DA13EA1020FE0
:1040F000131F1A8B098B49A15AA1588B4F876B81CB
:104100007C817C876B87ABCF540143E0B594A79447
:104110004A95E1F7EFEFAE1ABE0A4C018A189B08E8
:104120004A0C5B1C1DCF4F855889415051096B8546
:104130007C8561507109EB88FC8803E010E023E086
:1041400030E080E796E00E943F0B81E08093840698
:10415000809385068FEF9FEF90938306809382066E
:1041600090938106809380060AE010E010937D060C
:1041700000937C06C101809690937F0680937E0613
:10418000C301B2010E94713320E030E040E251E40B
:104190000E94C13241E00E94271CED88FE8870E138
:1041A000E71AF10810937D0600937C06F0927F06D3
:1041B000E0927E06C501B4010E94713320E030E038
:1041C00040E251E40E94C13241E00E94271C8985EF
:1041D0009A85C59790937D0680937C06F0927F0622
:1041E000E0927E068FA198A5A8960FB6F894DEBF40
:1041F0000FBECDBFDF91CF911F910F91FF90EF9038
:10420000DF90CF90BF90AF909F908F907F906F90F6
:104210005F904F903F902F900C946812A8960FB625
:10422000F894DEBF0FBECDBFDF91CF911F910F91EC
:10423000FF90EF90DF90CF90BF90AF909F908F90C6
:104240007F906F905F904F903F902F9008958F9246
:10425000AF92BF92CF92DF92EF92FF920F931F9394
:10426000CF93DF9380912E06209140063091410636
:104270004091420650914306811178C066E0C62EF7
:1042800070EEE72EFF24FA940EEE10E060EF70E07F
:104290000E94031D80912D0620913C0630913D0621
:1042A00040913E0650913F0681118CC015E0C12E11
:1042B000EE24EA9407E0F02E0DEB10E061EC70E0E4
:1042C00081E00E94031D80912C0620910001309115
:1042D0000101409102015091030181119FC0A5E0AD
:1042E000CA2EB0EFEB2EB7E8FB2E0FE810E061E925
:1042F00070E082E00E94031DC0907806D09079069D
:10430000D7FE03C08FEFC81AD80AD594C794C091BE
:104310007A06D0917B06D7FD2196D595C795AE013B
:1043200048505109B60168507109F12CE12C01E1A6
:1043300010E021E130E080E796E00E943F0B47E08B
:1043400050E0BE01C6010E945D1444E050E0BE0191
:10435000C601DF91CF911F910F91FF90EF90DF90F9
:10436000CF90BF90AF908F900C945D14813019F175
:104370008230D1F48090DB0288ED90E064E573E058
:104380009F938F9384E1A82EB12C90EEC92EDD244B
:10439000DA947B010AEC10E06CEC70E080E00E94A3
:1043A0007E1E0F900F9076CF8090EA018FED90E007
:1043B00063E672E0E5CF8090CC0387EE90E065E4A1
:1043C00074E0DECF813019F18230D1F48090DB02CD
:1043D00087EA90E06CED72E09F938F93C2E3AC2E7E
:1043E000B12CCC24CA94D7E0DD2E7B010AE910E081
:1043F0006EE970E081E00E947E1E0F900F9063CF07
:104400008090EA018EEA90E06BEE71E0E5CF80905B
:10441000CC0386EB90E06DEC73E0DECF813019F1D8
:104420008230D1F48090360589E790E067E375E04B
:104430009F938F93E4E6AE2EB12CF0EFCF2EF7E8EA
:10444000DF2E7B010EE610E060E770E082E00E9464
:104450007E1E0F900F9050CF8090BD0480E890E0BA
:104460006EEB74E0E5CF8090AF0588E890E060EBFC
:1044700075E0DECF0E94A7361F93CF93DF9385EDC3
:104480008093BC008091500190915101A091520104
:10449000B09153010796A11DB11D23E0B695A795D4
:1044A000979587952A95D1F72091BC0024FD03C0EC
:1044B0001092980152C04091500150915101609169
:1044C000520170915301452B462B472B69F30097FE
:1044D000A105B10541F02AE22A95F1F700C0019744
:1044E000A109B109E1CF80914F01C1E0C0934E0114
:1044F000882399F1D091B8001091BA008091BC0046
:104500008A7B8093BC0060E082E10E94A20760E0A9
:1045100083E10E94A20710929801C0939A01109221
:10452000990161E082E10E94A20761E083E10E94BB
:10453000A2078091B9008E7F8093B9008091B90065
:104540008D7F8093B90088E48093B80085E48093E0
:10455000BC001093BA00D093B800DF91CF911F91A7
:1045600008950F931F93CF93DF93FB01C081CC334A
:1045700078F421E02C0F2083D0E0CC0FDD1FC80F92
:10458000D91F59834883DF91CF911F910F910895CF
:104590008A01EC01BC016E5F7F4F46E750E00E944C
:1045A000AC36CA58DF4F19830883EDCFCF92DF9224
:1045B000EF92FF920F931F93CF93DF93FA0169015C
:1045C00030813C33E8F4E32EF12CEE0CFF1C8E0D11
:1045D0009F1DDC01CD92DC92C081D0E0CC0FDD1FAD
:1045E000C60FD71F1983088380818F5F8083DF9177
:1045F000CF911F910F91FF90EF90DF90CF90089592
:10460000EB017C01BC016E5F7F4F46E750E00E94EA
:10461000AC36BE016E5F7F4F46E750E0CE010E9490
:10462000AC36F701EA58FF4FD182C082CA58DF4F3B
:1046300019830883DCCF1F920F920FB60F921124BB
:104640002F933F938F939F93AF93BF9380913306A4
:1046500090913406A0913506B0913606309132061D
:1046600023E0230F2D3758F50196A11DB11D20938E
:1046700032068093330690933406A0933506B093A8
:1046800036068091370690913806A0913906B09190
:104690003A060196A11DB11D809337069093380606
:1046A000A0933906B0933A06BF91AF919F918F9135
:1046B0003F912F910F900FBE0F901F90189526E8F5
:1046C000230F0296A11DB11DD2CF1F920F920FB6DC
:1046D0000F9211242F933F934F935F936F937F9388
:1046E0008F939F93AF93BF93EF93FF938091B90004
:1046F000887F803609F44AC0F0F5883209F4A5C0F5
:1047000018F5803109F499C0B8F4882309F4F5C08C
:10471000883009F492C0FF91EF91BF91AF919F91C2
:104720008F917F916F915F914F913F912F910F905A
:104730000FBE0F901F901895883109F486C0803203
:1047400051F78093970114C0803409F49BC040F462
:104750008033B9F38833F9F68093970185ECAEC0C6
:10476000803509F483C0883509F494C0883499F6FB
:104770000E943C22D0CF883909F48AC038F58837A6
:1047800029F050F4883611F0803729F683E08093C1
:1047900098011092960155C0883809F479C0803983
:1047A00019F0803809F0B7CF80919601803208F077
:1047B0006FC0E091960181E08E0F80939601809109
:1047C000BB00F0E0EA58FE4F80833BC0803B39F0ED
:1047D000D0F4803A09F477C0883A09F09CCF84E09D
:1047E000809398011092750110927401F0E0E0E05E
:1047F00009958091740181110FC081E0809374014B
:104800001092540109C0803C09F4A8CF883C09F4F7
:10481000A5CF883B09F07FCFE091750181E08E0F35
:1048200080937501F0E0EC5AFE4F80818093BB00CD
:10483000909175018091740129C08091BD01809390
:10484000BB0085EC8093BC0066CF9091BC01809149
:10485000BB01981758F5E091BC0181E08E0F809361
:10486000BC01F0E0E556FE4F8081E9CFE091BC014C
:1048700081E08E0F8093BC018091BB00F0E0E55693
:10488000FE4F80839091BC018091BB019817C8F2C4
:1048900085E8D8CFE091BC0181E08E0F8093BC0108
:1048A0008091BB00F0E0E556FE4F808380919A0135
:1048B00081115ECF81E08093990184EA8093BC00EE
:1048C0001092980128CF85EC8093BC00109298013B
:1048D00080919601803230F4E0919601F0E0EA5840
:1048E000FE4F10826091960170E086E791E0F0E063
:1048F000E0E00995109296010ECF1092970138CF03
:10490000E0E7F6E01382128220EF30E03583248363
:1049100080E491E09783868331872087938782871D
:10492000168A158614861786168681E0858B848BF9
:104930002FEF3FEF338B228B318B208B878B108EA9
:10494000128E118E8BE091E091838083ACE5B6E00E
:1049500081E112968C93129780E114968C931497B0
:1049600089E013968C93139788E015968C9315978E
:104970008CE291E017969C938E931697ECE3FEE001
:10498000E491F0E0EE0FFF1FE65DF14F8591949109
:1049900019969C938E931897E5E4FEE0E491F0E07D
:1049A000EE0FFF1FE65DF14F859194911B969C934E
:1049B0008E931A97E4E4FEE0E491F0E0EE0FFF1F1F
:1049C000E65DF14F859194911D969C938E931C9773
:1049D000EDE3FEE0E491F0E0EE0FFF1FE65DF14F46
:1049E000859194911F969C938E931E97EEE1FEE025
:1049F000E4915096EC935097E7E2FEE0E4915296F2
:104A0000EC935297E6E2FEE0E4915196EC935197D5
:104A1000EFE1FEE0E4915396EC9353978AE090E047
:104A20008D939C930895CF93DF93CDB7DEB76697B0
:104A30000FB6F894DEBF0FBECDBF789484B5826008
:104A400084BD84B5816084BD85B5826085BD85B532
:104A5000816085BD80916E00816080936E001092B0
:104A6000810080918100826080938100809181002B
:104A700081608093810080918000816080938000BC
:104A80008091B10084608093B1008091B00081601A
:104A90008093B00080917A00846080937A00809146
:104AA0007A00826080937A0080917A00816080939E
:104AB0007A0080917A00806880937A001092C10019
:104AC00060E090E080E00E9494098C01883024E549
:104AD000920751F1803234E5930731F189389948D2
:104AE00009F41EC160E087E690E00E94940907E4A3
:104AF00013E887349744C1F08FEE90E00E94110ACA
:104B00008B01073283E9180779F081EA90E00E946F
:104B1000F20903E619E1613091E6790729F06F3F68
:104B2000760799F506E215E10E94680910928C0655
:104B300010928B061093900600938F060133E0E8E5
:104B40001E0709F4B8C708F0ABC1033520E212070D
:104B500011F40C94B12D08F042C1013145E1140764
:104B600009F470C208F0FCC00939110509F4B2C794
:104B700008F0E2C080E091E10130110509F4E7C0DE
:104B800010927506109274065AC26115BFEF7B072A
:104B900019F400E215E1C8CF01EA15E06115704F84
:104BA00019F28FEB90E00E94110A8B016735F3E850
:104BB0007F0709F4B9CF613824E9720709F4B4CF4B
:104BC000613135E1730709F4AFCF603245E1740715
:104BD00001F36632754109F4A5CF013885E1180764
:104BE00009F4A2CF0115144109F49DC084ED90E0B1
:104BF0000E94F2098B016031734509F495CF87ED6E
:104C000090E00E94F2098B016133704809F48CCF67
:104C10008EEF90E00E94F209072F182F292F3327DB
:104C20000335E0E21E0709F47FCF84E090E00E94A4
:104C3000F2098B01833E31F4672B09F054C000E088
:104C400013EE72CF81114FC06115704809F04BC04F
:104C50008091040190910501A091060189839A83B6
:104C6000AB83AE014F5F5F4F63E089EB90E00E9442
:104C7000FE0860E080ED90E00E94940909E910E0F0
:104C8000893909F451CF00E910E9803909F44CCF92
:104C900083ED90E00E94F209072F182F292F332768
:104CA000033681E9180709F43FCF83ED90E00E94B5
:104CB000F2098B01093292E3190709F435CF872FE6
:104CC0007359723040F1883931F1873721F18631DB
:104CD00011F1033D110509F427CF033D134DA9F44C
:104CE00001E413E921CF063225E1120709F41ACFB6
:104CF000003F39E81307D1F0023545E81407C9F041
:104D000001315CEA150721F60FCF60E090E080E00A
:104D10000E9494098C01033D100709F005CFE0CFF4
:104D200009E812E101CF04E118E6FECE05E317E73A
:104D3000FBCE09E817E7F8CE043581E0180709F43F
:104D400072C10530154109F01BCF84E090E19093CA
:104D50008E0680938D0668ED70E08FED9AE06DC150
:104D60000138A5E11A0709F405C7A8F40032E5E106
:104D70001E0709F44DC60632154109F001CF83E143
:104D800094E090938E0680938D063CE0E32EF12C08
:104D90000EE818E06EC1023026E1120709F4D5C60C
:104DA0000336194109F0ECCE81E08093BF0183E521
:104DB0009AE090938E0680938D0680EE91E090931A
:104DC00077068093760680E293E090937506809351
:104DD000740623E5E22EF12C0BE318E04AC10930FA
:104DE00048E6140709F48EC600F5053385E4180774
:104DF00009F41AC680F40932124309F0C1CE83E0E7
:104E000096E090938E0680938D0690E4E92EF12C27
:104E10000BEF17E02EC10031B3E51B0709F40FC6F5
:104E20000830144509F491CFABCE0938F7E71F07D6
:104E300009F435C6A0F4043138E6130709F417C69F
:104E40000338174709F09CCE82E091E190938E06DB
:104E500080938D0668E870E087EB9BE0EEC0033935
:104E600057E7150709F4B9C60639174709F088CE80
:104E700083E094E090938E0680938D0680EE91E01F
:104E8000909377068093760680E491E09093750680
:104E9000809374062DE0E22EF12C0BE616E0E9C0BB
:104EA000083393E9190709F45FC608F050C00532CA
:104EB000B3E91B07F1F170F50039F0E91F0709F4B8
:104EC00006C6E0F483E094E10735134809F058CEB4
:104ED00090938E0680938D0680EE91E090937706F6
:104EE0008093760680E491E0909375068093740633
:104EF000A2E0EA2EF12C01EA17E0BBC083E094E0C7
:104F0000023043E9140709F484C00032134909F45C
:104F10001CCF36CE093283E9180709F428C660F49D
:104F20000732A3E91A0709F4F8C50832134909F052
:104F300027CE80E091E1E8C50133E3E91E0721F0C7
:104F40000533134909F01CCE80E090E1DDC5093836
:104F500024E91207C8F5073834E9130708F025C615
:104F6000013844E9140709F41DC690F400541349AC
:104F70000230110508F004CE83E194E090938E0690
:104F800080938D0655E6E52EF12C08EF16E071C0F2
:104F90000638144909F0F4CD83E094E090938E062E
:104FA00080938D0680EE91E090937706809376064D
:104FB00080E491E090937506809374063BE3E32EC2
:104FC000F12C08E716E055C0093095EB190709F4F4
:104FD00004C6A8F483E194E10131BCEA1B07C9F0DF
:104FE0000530154B09F0CCCD88E090E190938E060A
:104FF00080938D0660EB70E083E699E01EC005307B
:10500000F5EC1F0789F383E19EE00115134E09F0CB
:10501000B7CD90938E0680938D0663E0E62EF12C3B
:105020000DE517E026C082E090E190938E06809314
:105030008D066CE970E08BED9CE00E94450A10E063
:1050400000E017C083E090E090938E0680938D0679
:1050500080EE91E0909377068093760680E491E06D
:10506000909375068093740653E0E52EF12C00EAC8
:1050700018E020918E06822F82958F7090E08170CB
:10508000992790939206809391060115110581F05E
:1050900069E070E087E396E00E94B208B701C801BA
:1050A0000E94B20866E070E081E396E00E94B208D8
:1050B00060E080E796E00E94BC0C60E080E796E04C
:1050C0000E94670A80918F069091900688389449D3
:1050D00009F016C11092BE0120EE3FEF50E040E013
:1050E00070E060E080E796E00E94320CF0909B0652
:1050F000E0909C0680918D0680FF03C08EE2F82E22
:10510000E12C80918F06909190068230964119F49F
:105110000EE2F02EE12C10E000E030E020E050E064
:1051200040E070E060E080E796E00E94AA0A80918B
:105130008D0680FD10C070E060E080919706909130
:1051400098060E942F0970E060E080919906909186
:105150009A060E942F094398429885B18C7F9E2D14
:105160009370892B85B99BB193705E2D5C7FE52E82
:10517000E92AEBB84198419A85B18C7F9F2D9370B5
:10518000892B85B99BB193708F2D8C7FF82EF92ACE
:10519000FBB84198419A429A84B18C7F84B98AB114
:1051A00083708AB920918D0630918E0680918F068A
:1051B0009091900626FD0EC0409A409840984098E5
:1051C00043B149B1409A20FD05C08938A2E19A0750
:1051D00009F016C58131954139F4409A40984098BC
:1051E000409883B189B1409AB90164707727409A99
:1051F00040984098409824FF20C593B189B193709E
:105200008C7F982B409A409A40984098409843B1A0
:1052100089B143708C7F482B409A409A40984098BF
:10522000409883B1E9B08370EE2DEC7F8E2B409ACD
:1052300050E0672B09F4ECC4E82EF12CFE2CEE2490
:10524000EE24F8EFFF2213E0440F551F1A95E1F703
:10525000407E5770E42AF52A969596959695E92A08
:105260008091BE01882399F0C70135E09695879516
:105270003A95E1F780729927A701569547954F71A6
:105280005527842B952B40ECE422E82AF92A409AF2
:10529000439A84B1836084B98AB18C6F8AB920FD46
:1052A00014C000917A0610917B06015011092091DB
:1052B0007806309179062150310950E040E070E0E5
:1052C00060E080E796E00E94AA0A5FE1E5165FEFE2
:1052D000F506B1F486E08983AE014F5F5F4F61E070
:1052E0008AE390E00E94FE0880918D0690918E06E0
:1052F0008F7E90938E0680938D0681E08093BE0111
:1053000060E080E796E00E94BC0C70E060E080E71F
:1053100096E00E944E1B70E060E080E796E00E94FD
:105320004E1BB4E0EB2EB1E2FB2E08E211E020EEC2
:1053300030E04CE050E068E070E080E796E00E94EA
:10534000831280EE9FEF9093830680938206909362
:1053500081068093800612E0F12EF0928406F0928E
:1053600085060AE2C02ED12CD0927D06C0927C0622
:105370008DE290E090937F0680937E0680EE9DE024
:105380000E9468128EE490E090937D0680937C06E4
:1053900088E490E090937F0680937E0688ED9DE000
:1053A0000E9468120FEF17E024EB30E046E650E071
:1053B0006EE170E080E796E00E94AF1B8FEF9FEFF9
:1053C0009093830680938206909381068093800653
:1053D000F0928406F0928506D0927D06C0927C06FB
:1053E0008AE790E090937F0680937E068AEC9DE0AA
:1053F0000E94681286E390E090937D0680937C067D
:1054000084E990E090937F0680937E068EEB9DE08A
:105410000E9468128FEF97E0909383068093820634
:105420009093810680938006F0928406F092850620
:105430008EE190E090937D0680937C068EEB90E069
:1054400090937F0680937E068FE79DE060E0FC01ED
:1054500024916F5F233509F01FC43196E491E5363E
:1054600009F01AC4FC013296E491E03709F014C443
:10547000162F87E79DE00E94681286E491E00E9463
:10548000D61B1A3028F460E380E796E00E9496115C
:10549000612F70E090E080E04AE00E94E31B62E34D
:1054A00080E796E00E94961161E380E796E00E9413
:1054B00096118FEF9FEF90938306809382069093CF
:1054C00081068093800682E080938406809385061F
:1054D0008AE290E090937D0680937C0688EE90E0CF
:1054E00090937F0680937E0680EB9DE00E94681279
:1054F00086E390E090937D0680937C0682E091E0C5
:1055000090937F0680937E0684EA9DE00E94681255
:1055100060E177E280E090E00E9446080E949E19D8
:10552000809331068111BEC30E946B1B60E08091A5
:105530005E060E94D00760E080915F060E94D0075F
:1055400061E0809161060E94D00761E08091600671
:105550000E94D00780916C06E0916406F091650688
:105560009081892B808380916D06E0916806F0918F
:105570006906908180958923808380915E060E94D0
:105580000C088C0180915E060E940C089801281B73
:10559000390B2C5F3F4F912C2930310530F4800FAF
:1055A000911F95958795992493940FEF13E0081B0D
:1055B000190B60E0809161060E94D00760E0809145
:1055C00060060E94D00761E080915E060E94D007CD
:1055D00061E080915F060E94D00780916F06E091A4
:1055E0006A06F0916B069081809589238083809173
:1055F0006E06E0916606F09167069081892B8083A4
:10560000809160060E940C087C01809160060E94D7
:105610000C086C01C7018C199D090496099708F0C4
:10562000FEC3CE0CDF1CD594C79461E08091610667
:105630000E94D00760E080915E060E94D0078091B2
:105640006C06E0916406F09165069081809589234F
:10565000808380916F06E0916A06F0916B069081DD
:10566000892B8083809160060E940C087C018091C8
:105670005E060E940C08BC01A0906206B090630612
:10568000A114B10409F4CDC3072E000C880B990BAB
:105690000E9471332B013C01B701FF0C880B990B61
:1056A0000E9471339B01AC01C301B2010E94C1325F
:1056B00020E030E040E85FE30E944F322B013C01E4
:1056C000B801012E000C880B990B0E947133A301C5
:1056D00092010E9474342B013C01B50190E080E0FE
:1056E0000E946F33A30192010E94743420E030E0E5
:1056F00040E85AE30E9474340E9433337B019110D6
:1057000002C0F12CE12C61E081E10E94D00761E050
:1057100080E10E94D00761E081E10E94A20761E080
:1057200080E10E94A207F9ECEF1AF1082FE1E216DE
:1057300023E0F20608F0DFC330912F06609178066F
:1057400070917906072E000C880B990B4FEF53E0F0
:105750004C195D096A010D2C000CEE08FF088090C1
:105760007A0690907B06092C000CAA08BB08280139
:10577000110F6608770831115DC3A30192012D57FF
:105780003109410951090E94E6342AE033E040E042
:1057900050E00E94EC3139872887A70196012158F3
:1057A000310941095109C501B4010E94E6342DEEC9
:1057B00032E040E050E00E94EC31190111E08091AC
:1057C0003106882309F446C0112309F443C08091AF
:1057D000300681113FC080917A0690917B0620911E
:1057E00078063091790637FF02C02F5F3F4F35951D
:1057F000279548845984421A530A9201205F3F4FEB
:105800002132310508F079C39C0197FF02C02F5F58
:105810003F4F359527953101621A730A9301205F36
:105820003F4F2132310508F068C360912F0670E0C8
:105830006F5F7F4F6370772760932F0680E796E056
:105840000E94BC0C70E060E080E796E00E944E1B76
:105850000E94272110933006C0902806D090290678
:10586000E0902A06F0902B068091310681116CC3DE
:105870000E9479086C197D098E099F096838734167
:105880008105910508F47DC30E947908609328067C
:105890007093290680932A0690932B060E949E19E6
:1058A00080933106882309F46CC30E94CF168823A5
:1058B00009F467C30E946E1A882331F120E030E0BA
:1058C00040E251E460910001709101018091020178
:1058D000909103010E9474340E9433336B01AB0139
:1058E0006FEA75E080EB95E00E94B122A60166E3C5
:1058F00075E087E395E00E94B122A6016DEB74E0AC
:105900008EEB94E00E94B12220E030E040E251E4CE
:1059100060913C0670913D0680913E0690913F0655
:105920000E9474340E9433336B0120E030E040E287
:1059300051E4609140067091410680914206909139
:1059400043060E9474340E94333386019B014CEC61
:1059500053E06DEC73E085E494E00E94D62220E0F1
:1059600030E040E251E460913C0670913D06809148
:105970003E0690913F060E9474340E9433336B01BF
:1059800020E030E040E251E4609140067091410631
:1059900080914206909143060E9474340E943333F2
:1059A00086019B014BED52E06CED72E084E593E0E3
:1059B0000E94D62220E030E040E251E460913C06B3
:1059C00070913D0680913E0690913F060E9474348E
:1059D0000E9433336B0120E030E040E251E46091FB
:1059E00040067091410680914206909143060E94C4
:1059F00074340E94333386019B014AEE51E06BEE12
:105A000071E083E692E00E94D6220E942721B9C26B
:105A100083E194E090938E0680938D0646E0E42E19
:105A2000F12C0AE918E025CB80E090E190938E06F6
:105A300080938D066CE970E08FE39CE0FECA83E101
:105A40009EE090938E0680938D0680EE91E0909379
:105A500077068093760680E491E0909375068093B4
:105A6000740682E0E82EF12C09EF17E002CB83E008
:105A700094E090938E0680938D0680EE91E0909353
:105A800077068093760680E491E090937506809384
:105A9000740603E0E02EF12C06EF17E0EACA83E17A
:105AA00094E090938E0680938D0611E4E12EF12C04
:105AB00005EB17E0DECA83E194E190938E068093B4
:105AC0008D06B2E1EB2EF12C03EA17E0D2CA83E196
:105AD00094E1FEC983E194E190938E0680938D0654
