:100000000C947C070C94A4070C94A4070C94A407EC
:100010000C94A4070C94A4070C94A4070C94A407B4
:100020000C94A4070C94A4070C94A4070C94A407A4
:100030000C94A4070C94A4070C94A4070C94A40794
:100040000C9440230C94A4070C94A4070C94A407CC
:100050000C94A4070C94A4070C94A4070C94A40774
:100060000C948A230C94A40700407A10F35A00A041
:10007000724E18090010A5D4E80000E87648170071
:1000800000E40B54020000CA9A3B000000E1F505B1
:10009000000080969800000040420F000000A086FB
:1000A00001000000102700000000E803000000002D
:1000B0006400000000000A000000000001000000D1
:1000C00000002C76D888DC674F0823DFC1DFAE59EB
:1000D000E1B1B796E5E3E453C63AE651997696E87E
:1000E000E6C28426EB898C9B62ED407C6FFCEFBC02
:1000F0009C9F40F2BAA56FA5F490055A2AF75C932D
:100100006B6CF9676DC11BFCE0E40D47FEF520E662
:10011000B500D0ED902E0300943577050080841E45
:10012000080000204E0A000000C80C333333330FA0
:10013000986E12831141EF8D2114893BE65516CF3D
:10014000FEE6DB18D1844B381BF77C1D901DA4BB49
:10015000E424203284725E228100C9F124ECA1E5FE
:100160003D27685061005052455353555245003861
:1001700020484F555200323420484F55520031200C
:10018000484F5552006850610050524553535552E4
:100190004500430054454D50455241545552450089
:1001A0003820484F555200323420484F55520031C4
:1001B00020484F555200430054454D50455241543C
:1001C00055524500436865636B20332E33562061DA
:1001D0006E6420474E44005344413D443131202059
:1001E00053434C3D44313300424D45323830206E4C
:1001F0006F7420666F756E640000000000003E5B47
:100200004F5B3E3E6B4F6B3E1C3E7C3E1C183C7E63
:100210003C181C577D571C1C5E7F5E1C00183C1848
:1002200000FFE7C3E7FF0018241800FFE7DBE7FF44
:1002300030483A060E2629792926407F05050740D1
:100240007F05253F5A3CE73C5A7F3E1C1C08081C92
:100250001C3E7F14227F22145F5F005F5F06097FD0
:10026000017F006689956A606060606094A2FFA269
:100270009408047E040810207E201008082A1C0818
:10028000081C2A08081E101010100C1E0C1E0C3022
:10029000383E3830060E3E0E06000000000000001A
:1002A0005F00000007000700147F147F14242A7FDA
:1002B0002A122313086462364956205000080703A7
:1002C00000001C2241000041221C002A1C7F1C2A25
:1002D00008083E0808008070300008080808080078
:1002E0000060600020100804023E5149453E004273
:1002F0007F400072494949462141494D3318141243
:100300007F1027454545393C4A494931412111096A
:10031000073649494936464949291E00001400005C
:100320000040340000000814224114141414140076
:100330004122140802015909063E415D594E7C12C2
:1003400011127C7F494949363E414141227F41415A
:10035000413E7F494949417F090909013E414151D7
:10036000737F0808087F00417F41002040413F0122
:100370007F081422417F404040407F021C027F7F63
:100380000408107F3E4141413E7F090909063E4174
:1003900051215E7F09192946264949493203017FC7
:1003A00001033F4040403F1F2040201F3F40384056
:1003B0003F631408146303047804036159494D43EF
:1003C000007F4141410204081020004141417F0467
:1003D000020102044040404040000307080020544E
:1003E0005478407F284444383844444428384444AE
:1003F000287F385454541800087E090218A4A49C7D
:10040000787F0804047800447D40002040403D008F
:100410007F1028440000417F40007C047804787CF1
:10042000080404783844444438FC18242418182458
:100430002418FC7C08040408485454542404043F41
:1004400044243C4040207C1C2040201C3C40304048
:100450003C44281028444C9090907C4464544C4474
:100460000008364100000077000000413608000215
:10047000010204023C2623263C1EA1A161123A403F
:1004800040207A38545455592155557941225454B5
:100490007842215554784020545579400C1E5272B0
:1004A000123955555559395454545939555454588D
:1004B0000000457C410002457D420001457C407DB5
:1004C0001211127DF0282528F07C54554500205447
:1004D000547C547C0A097F4932494949323A4444A0
:1004E000443A324A4848303A4141217A3A4240201F
:1004F00078009DA0A07D3D4242423D3D4040403DB0
:100500003C24FF2424487E4943662B2FFC2F2BFFDD
:100510000929F620C0887E0903205454794100003F
:10052000447D413048484A32384040227A007A0AB5
:100530000A727D0D19317D2629292F28262929297E
:100540002630484D402038080808080808080838B0
:100550002F10C8ACBA2F102834FA00007B00000816
:10056000142A142222142A14085500550055AA559D
:10057000AA55AAFF55FF55FF000000FF00101010FC
:10058000FF00141414FF001010FF00FF1010F010F3
:10059000F0141414FC001414F700FF0000FF00FF17
:1005A0001414F404FC141417101F10101F101F143F
:1005B00014141F00101010F0000000001F10101085
:1005C000101F10101010F010000000FF101010107D
:1005D0001010101010FF10000000FF140000FF00AA
:1005E000FF00001F10170000FC04F414141710176C
:1005F0001414F404F40000FF00F714141414141479
:1006000014F700F7141414171410101F101F1414EB
:1006100014F4141010F010F000001F101F00000060
:100620001F14000000FC140000F010F01010FF1068
:10063000FF141414FF141010101F00000000F0101D
:10064000FFFFFFFFFFF0F0F0F0F0FFFFFF00000002
:100650000000FFFF0F0F0F0F0F3844443844FC4ACF
:100660004A4A347E02020606027E027E0263554931
:1006700041633844443C04407E201E2006027E0232
:100680000299A5E7A5991C2A492A1C4C7201724CB3
:10069000304A4D4D303048784830BC625A463D3E75
:1006A000494949007E0101017E2A2A2A2A2A444416
:1006B0005F444440514A444040444A51400000FF96
:1006C0000103E080FF000008086B6B083612362437
:1006D00036060F090F060000181800000010100061
:1006E0003040FF0101001F01011E00191D171200FB
:1006F0003C3C3C3C000000000011007F96290001BA
:10070000007F9628003A0155C0021010C10141C572
:100710000400228040360168B00100B102B011B47B
:100720000102B60302023BB701C63A0155F704A91C
:10073000512C82B701C6E808408A00002919A53368
:10074000C0020D0DC1024300C20100C504004800F3
:1007500048B40100B60302023BE00F0F211C0B0E50
:1007600008499838091103141000E10F0F2F2B0CC2
:100770000E06477637071104231E00B00100B304AC
:1007800002000000B40100D003074218D1030007A3
:1007900010D2020102D3020102D4020102C00512EA
:1007A0003B000211C103101088C50103C60102C835
:1007B0000C003236450616377577540C00CC010014
:1007C000F603010100CF03008130ED0464031281C0
:1007D000E803851078CB05392C003402F70120EAB4
:1007E000020000B00100B102001BB40100C00121F1
:1007F000C10111C5023F3CC701B5360148F20100F5
:10080000260101E00F0F26240B0E0954A8460C17F1
:10081000090F0700E10F00191B0410072A473903CD
:10082000060630380F360100B80101C0010EB001D4
:1008300000C10410100202C006003500000102C50C
:100840000104D2020104CA0100EA0180B903FF8356
:10085000577F967F96B60125C0065050013C1E0872
:10086000B4070240002A2A0D787F01F20B16160306
:100870000808080810041616FD03110235B2050C0D
:100880000C003333B70135BB012BC00104C2020198
:10089000FFC30111C40120C6010FD002A4A1E00EC4
:1008A000D000050E150D3743470915121619E10E34
:1008B000D000050D0C062D44400E1C1816193A01E7
:1008C000557F0A06000700B1020012B40102B60407
:1008D00000202700CA0101CB0103C001137F14C50A
:1008E00001CCC60100C70104C80103CC0106CD013B
:1008F0001CF9021515F3030A020AF603011000FAA7
:1009000000FB00E2031E0254E001017F0AE0010344
:100910007F0A01007F64E60303FFFFB007240003A2
:100920001F01DF00B40803A0002E30000F00B6073F
:10093000020D0010100008BA010FB8020701F00103
:10094000007F01280011007F642900BE0606F00127
:10095000F00000D0010DB00103E2013FC00122E22E
:100960000100B00100C0010AB00100000000000059
:100970000000000000000000000000FFFF0F00006A
:10098000040062080008080003000C01030B5A026F
:1009900003060903031710040300230503001706C9
:1009A0000309630703090C08030C10090332221022
:1009B00000160011000101120000001300010000E8
:1009C000013003010137020301000D8002006102C2
:1009D00001B0C1FFFF32000100000102000001036D
:1009E000003010090001000C000000900000800F92
:1009F000000000100200001102EF001202000013BC
:100A0000028F01000500000105000002055F0001E2
:100A100004010004040000FFFF320007000001FF92
:100A2000FF32000002000001020000000000000090
:100A30000000000000000000000100A4000100FF11
:100A4000FF0A006000002708000808300014023187
:100A5000001537320004063300160E34001122351B
:100A600000001536000785370007143800031439D5
:100A7000002000900015001000100411003702291A
:100A80000046002A004600070000001200890113FA
:100A9000000011FFFF96001200B9010100000102E1
:100AA00000000203003010090001000A0000000DE0
:100AB0000000000E003000610001006A00000080AC
:100AC0000000008100000082005F0092000001939E
:100AD000000107FFFF500007000001E500F078016A
:100AE00000000102000002030030100400000005B5
:100AF00000000008000702090000000A0000000CC6
:100B00000000000D0000000F0000001000000011A8
:100B1000000700120000001300000007000100FFA2
:100B2000FFC8001000901611002702FFFF320012CC
:100B3000000D00FFFF32001300001229000A002BF5
:100B4000000D00FFFF3200200000002100000030F7
:100B500000000031000404320003003500050436B3
:100B60000008083700070438000303390007073C72
:100B70000004053D00080860000027610001006ACC
:100B8000000000800000008100000082000000835F
:100B9000000000840000008500000090001000921A
:100BA00000000007003301E50000800000010001A3
:100BB00000000102000007030030100400000008DC
:100BC000000202090000000A0000000C0000000DF5
:100BD0000000000F000000100000001100070012CC
:100BE00000000013000000FFFF32001000B01711DA
:100BF000000700FFFF0A0012003A01FFFF0A00137E
:100C000000001A29000C00FFFF0A0030000000312C
:100C100000050532000400350006003600070737DE
:100C200000050138000200390007073C0004073DB9
:100C3000000708600000A7610001006A00000021B1
:100C40000000002000000080000000810000008201
:100C50000000008300000084000000850000009078
:100C6000001000920000009300030095001001970F
:100C70000000009800000007007301FFFF32000130
:100C80000000010200000703003010080002030901
:100C90000000000A0008001000000011000500120A
:100CA00000000013000000FFFF64001000B012FFFE
:100CB000FF320011000700FFFF320012008C00130A
:100CC00000001729002000FFFF3200300000003133
:100CD000000601320001013500060136000302372B
:100CE00000000038000707390004023C0006013DFF
:100CF000000301600000A7610001009000300007C0
:100D0000003301FFFF3200150030009A001000117F
:100D1000002000100028341200020013003810FFD9
:100D2000FF280012001200FFFF28001000203413DB
:100D3000004530FFFF460030000000310002043261
:100D400000070333000403340004003500010436B7
:100D500000070737000503380010063900100601A8
:100D60000000010200000303003010080008080A18
:100D7000000800600000276100010090003E019221
:100D800000000193000001A0000030A30010000744
:100D900000010007002100070023000700330007BF
:100DA00000330111001A001200213113006C0014ED
:100DB00000494210000008FFFF0A0011001A01FF5D
:100DC000FF0A0011001A03FFFF0A0011001A07FFB3
:100DD000FF0A0011001A0FFFFF0A0011003A0FFF6F
:100DE000FF1E00010028010200000103003010076F
:100DF000001210080003030B0000110C0000000F8C
:100E00000001181500200050000101510003065296
:100E1000000804530000005400050655000604565F
:100E20000003035700030358001000590000100787
:100E3000001200FFFF280007001300070017004200
:100E400075696C7420627920444A49412075736940
:100E50006E6720436F646578004275696C643A2060
:100E60005365702031312032303236004C6F63616F
:100E70006C20636C696D617465206174206120670A
:100E80006C616E6365004D4F4E49544F5200454EA4
:100E90005649524F4E4D454E54414C000000000003
:100EA000240027002A00000000002300260029005B
:100EB0000000000800020100000304070000000019
:100EC0000000000001020408102040800102040814
:100ED0001020010204081020000000002500280056
:100EE0002B000404040404040404020202020202AB
:100EF000030303030303A52411241FBECFEFD8E08F
:100F0000DEBFCDBF11E0A0E0B1E0E8E8FFE602C03F
:100F100005900D92AC33B107D9F725E0ACE3B1E011
:100F200001C01D92AA31B207E1F717E0CCE7D7E084
:100F300004C02197FE010E949C37CB37D107C9F727
:100F40000E9438250C94C2370C9400000895833019
:100F500081F028F4813099F08230A9F0089587302B
:100F6000A9F08830C9F08430B1F4809180008F7D81
:100F700003C0809180008F7780938000089584B5AE
:100F80008F7784BD089584B58F7DFBCF8091B000AD
:100F90008F778093B00008958091B0008F7DF9CF56
:100FA000CF93DF93EBEBFEE08491EFECFEE0D49186
:100FB000EDEEFEE0C491CC23A1F081110E94A707C1
:100FC000EC2FF0E0EE0FFF1FEA55F14FA591B49121
:100FD000EC91ED2381E090E009F480E0DF91CF9186
:100FE000089580E090E0FACF1F93CF93DF93282FEE
:100FF00030E0F901E055F14F8491F901EC53F14FE4
:10100000D491F901EE51F14FC491CC23A9F0162FE0
:1010100081110E94A707EC2FF0E0EE0FFF1FE852AE
:10102000F14FA591B4918FB7F894EC91111108C0CC
:10103000D095DE23DC938FBFDF91CF911F91089570
:10104000DE2BF8CFCF93DF9390E0FC01EC53F14F10
:1010500024918E51914FFC0184918823C9F090E036
:10106000880F991FFC01E456F14FA591B491FC0142
:10107000E852F14FC591D49161110DC09FB7F8941A
:101080008C91209582238C938881282328839FBF6D
:10109000DF91CF910895623051F49FB7F8943C915D
:1010A000822F809583238C93E8812E2BEFCF8FB7EF
:1010B000F894EC912E2B2C938FBFEACF8E3008F052
:1010C0008E508770806480937C0080917A00806469
:1010D00080937A0080917A0086FDFCCF8091780021
:1010E0009091790008953FB7F8948091AC04909165
:1010F000AD04A091AE04B091AF0426B5A89B05C085
:101100002F3F19F00196A11DB11D3FBFBA2FA92F86
:10111000982F8827BC01CD01620F711D811D911D83
:1011200042E0660F771F881F991F4A95D1F70895EF
:101130008F929F92AF92BF92CF92DF92EF92FF92E7
:101140006B017C010E9473084B015C01C114D10446
:10115000E104F104B9F00E947308681979098A0959
:101160009B09683E73408105910580F321E0C21A16
:10117000D108E108F10888EE880E83E0981EA11CD2
:10118000B11CE4CFFF90EF90DF90CF90BF90AF9075
:101190009F908F9008952FB7F8946091A804709154
:1011A000A9048091AA049091AB042FBF0895AF9237
:1011B000BF92CF92DF92EF92FF920F931F93CF9344
:1011C000DF936C017B018B01040F151FEB015E01A6
:1011D000AE18BF08C017D10759F06991D601ED913B
:1011E000FC910190F081E02DC6010995892B79F7DA
:1011F000C501DF91CF911F910F91FF90EF90DF908C
:10120000CF90BF90AF9008950F931F93CF93DF932C
:10121000EC018B01FE0194913196649122969F37E7
:1012200099F470E090E080E00E94980860E0E62F7A
:10123000F0E032960E1B1F0B101611065CF3DF91C7
:10124000CF911F910F9108954398429885B18C7F5B
:10125000292F2370822B85B98BB183709C7F892BBA
:101260008BB94198419A30E020E02617A8F4FE019E
:10127000E20FF31FE491429A85B18C7F9E2F937009
:10128000892B85B98BB18370EC7FE82BEBB9419842
:10129000419A2F5F3F4FE9CFC60FD11D439AC7CF69
:1012A0004398429825B12C7F392F3370232B25B9D1
:1012B0002BB123709C7F922B9BB94198419A95B199
:1012C0009C7F282F2370922B95B99BB193708C7FB4
:1012D000892B8BB94198419A429AFA01615078F072
:1012E000219195B19C7F822F8370982B95B98BB1FA
:1012F00083702C7F822B8BB94198419AEFCF439A10
:1013000008954398429825B12C7F392F3370232BB1
:1013100025B92BB123709C7F922B9BB94198419AA0
:1013200095B19C7F282F2370922B95B99BB1937018
:101330008C7F892B8BB94198419A429A85B18C7FD9
:10134000972F9370892B85B98BB183707C7F782B15
:101350007BB94198419A85B18C7F962F9370892BE8
:1013600085B98BB183706C7F682B6BB94198419ABA
:10137000439A089581E08093B00484B1836084B976
:101380008AB18C6F8AB9389A399A3A9A3B9A3C9AC0
:10139000439A409A419A449A62E370E080E090E078
:1013A0000E949808449864E670E080E090E00E9413
:1013B0009808449A64E670E080E090E00E94980803
:1013C00070E060E080EB90E00C9481091F93CF9374
:1013D000DF93C82F162F8091B004811102C00E94A4
:1013E000BA094398429885B18C7F85B98BB18370D7
:1013F0008BB94198419A95B19C7F8C2F8370982B23
:1014000095B98BB18370CC7F8C2B8BB94198419A65
:10141000429A84B18C7F84B98AB183708AB961E0C1
:1014200070E080E090E00E94980861E070E080E069
:1014300090E00E949808409A409840984098C3B124
:10144000D9B1409A61E070E080E090E00E94980895
:10145000409A40984098409883B199B1409A115071
:1014600020F7409A439A24B1236024B92AB12C6F03
:101470002AB9C370DC7FCD2B83709C7F892B9C2F76
:10148000DF91CF911F9108950F931F93CF93DF9317
:101490008C0160E00E94E609EC0161E0C8010E9455
:1014A000E6098C01BE0190E080E0CB01772766273A
:1014B00030E020E0602B712B822B932BDF91CF91BA
:1014C0001F910F910895FF920F931F93CF93DF9376
:1014D0008C0160E00E94E609EC0161E0C8010E9415
:1014E000E609F82E62E0C8010E94E609AE0170E04C
:1014F00060E0742F66275527442700E030E020E0A5
:10150000402B5F29622B732B292F30E0C901B0E0FB
:10151000A0E08A019B01082B192B2A2B3B2BC90128
:10152000B801DF91CF911F910F91FF9008950F9314
:101530001F93CF93DF93EC018B01FE018591949172
:10154000FE0132962496659174918F3F980771F44D
:1015500090E080E00E9498080450110910161106CE
:1015600064F3DF91CF911F910F9108950E9481093B
:10157000F3CFFC01262F358D868D82958170982FB3
:101580009627692F70E072A361A330FF0CC082130D
:1015900007C080E290E050E040E060E00C94500929
:1015A00081E290E0F8CF878D90A1833927E79207F9
:1015B00041F058F4843521E0920791F0803294454F
:1015C000C1F4626081E094E012C0863223E99207A0
:1015D000C1F3893025EB9207A1F38532924949F492
:1015E000660F771F660F771F636187E090E00C94AA
:1015F000810981E690E0FBCF8F929F92AF92BF92DC
:10160000CF92DF92EF92FF920F931F93CF93DF93CE
:1016100000D000D0CDB7DEB77C014B015A01690183
:10162000FC01878D90A18632954151F4F70186899E
:1016300080FF06C0C801841B950B81F50F5F1F4F0B
:10164000F701858D80FF31C085A599828A82DB8272
:10165000CC82AE014F5F5F4F64E090E00E94500982
:10166000F70181A9B982AA821B830C83AE014F5F67
:101670005F4F64E090E00E9450090F900F900F9030
:101680000F90DF91CF911F910F91FF90EF90DF901E
:10169000CF90BF90AF909F908F90089526173707F7
:1016A00079F6C80ED91E8A01CBCFB40187A190A5C7
:1016B0000E948109B501F70181A592A50E948109C7
:1016C000C814D90419F40A151B05B9F2F701858D60
:1016D00085FF08C0868980FF1EC0102F0027A02A22
:1016E000B12A8501B401F70185A596A50E9481095B
:1016F000B501F70181A992A90E948109B601F701FC
:1017000087A590A90E948109B801F70183A994A92E
:101710000E948109B2CFDC2CCC248C289D28640146
:10172000E1CFAF92BF92CF92DF92EF92FF920F93F1
:101730001F93CF93DF93EC018091AE01882349F092
:10174000C701880F991F8E739927E1ECEE22E82AD2
:10175000F92A37FF05C0620F731F319521953109B2
:10176000260F371F77FF02C070E060E088859985FB
:10177000281739070CF4C9016C01C61AD70A17FFDC
:1017800005C0400F511F119501951109040F151F38
:1017900057FF02C050E040E02A853B85021713073F
:1017A0000CF498015901A41AB50A890101501109D4
:1017B0009C0121503109CE010E94FC0A43984298B5
:1017C0003BA58CA525B12C7F982F9370292B25B98B
:1017D0009BB193708C7F982B9BB94198419A95B19E
:1017E0009C7F832F8370982B95B98BB183703C7F3E
:1017F000832B8BB94198419A429ACA14DB042CF08E
:101800009A2D8B2D5601C92ED82E8F2DA70193E02E
:10181000569547959A95E1F74C7F5E2D550F550FDC
:10182000550F6F2D63707F2D7C7FEE2DE3702E2D75
:101830002C7FE22E887F1C141D040CF03FC0909179
:10184000AF019501992311F195B19C7F95B99BB199
:101850009370982B9BB94198419A95B19C7F95B90B
:101860009BB19370942B9BB94198419A95B19C7F01
:1018700095B99BB19370952B9BB94198419A215092
:10188000310911F791E0C91AD108D5CF95B19C7FE4
:10189000962B95B99BB19370972B9BB94198419A20
:1018A00095B19C7F9E2B95B99BB193709E299BB956
:1018B0004198419A2150310949F7E4CF439A8D8DDF
:1018C00080FF08C08F8D98A18632954191F48E8952
:1018D00080FF0FC00A851B850150110928853985B5
:1018E0002150310950E040E070E060E0CE010E94FC
:1018F000FC0ADF91CF911F910F91FF90EF90DF9045
:10190000CF90BF90AF900895EF92FF920F931F93E7
:10191000CF93DF937C01E90177FD6DC057FD6BC06C
:10192000FC0180859185681779070CF064C0828579
:101930009385481759070CF05EC08091AE0188234B
:1019400041F0C901880F991F8E739927C17CC82B5C
:10195000D92B8A019B01C7010E94FC0A8091AF012B
:10196000882309F44FC043984298F70133A584A512
:1019700025B12C7F982F9370292B25B99BB193709B
:101980008C7F982B9BB94198419A95B19C7F832F6E
:101990008370982B95B98BB183703C7F832B8BB967
:1019A0004198419A429A85B18C7F85B99BB18D2F20
:1019B000887F9370892B8BB94198419A85B18C7F30
:1019C00085B92BB1CE0133E0969587953A95E1F72D
:1019D0008C7F2370822B8BB94198419A85B18C7F83
:1019E00085B98BB1CC0FCC0FCC0F8370C82BCBB982
:1019F0004198419A439ADF91CF911F910F91FF90A7
:101A0000EF900895BE01F70183A594A5DF91CF91D2
:101A10001F910F91FF90EF900C948109EF92FF922C
:101A20000F931F93CF93DF93CDB7DEB72A970FB6EF
:101A3000F894DEBF0FBECDBF7C01862F8370F70107
:101A4000868B962F917060FFE3C026813781F70166
:101A500031872087992309F4DEC024813581F7017D
:101A600033872287823009F4DBC0833009F4DAC07F
:101A7000813009F4D3C088E48A87F701858D968D7B
:101A800090FF03C02A8520582A8791FF04C02A8529
:101A900030E423272A8793FF04C02A8538E02327D0
:101AA0002A87F701278D30A180FF00C12431F8E695
:101AB0003F0709F0B9C09A85892F88728A871F82EB
:101AC000892F85958074282F2260892F90E0959525
:101AD000879580729927822B88878BE38987AE014F
:101AE000495F5F4F63E086EB90E00E9450092AE275
:101AF00030E0F70130A727A38BE290E092A781A7FF
:101B00004CE250E054A743A736A725A730AB27A740
:101B100092AB81AB94AB83ABAE01465F5F4F61E0AC
:101B200086E390E00E9450098A8590E0F70194A333
:101B300083A3F701868980FF1CC0858D968D92FD59
:101B400018C087A190A521A532A530A727A392A7E9
:101B500081A785A596A521A932A936A725A792AB6D
:101B600081AB87A590A923A934A930AB27A794AB53
:101B700083ABF7010285138501501109208531855A
:101B80002150310950E040E070E060E0C7010E9460
:101B9000FC0AF70166817781878D90A120E087326A
:101BA000F3E99F0709F420E2F701358D30FF39C1D1
:101BB00019821A827B836C831D822E83AE014F5F54
:101BC0005F4F66E083E390E00E94500919821A8219
:101BD000AE014F5F5F4F62E087E390E00E945009E3
:101BE000F701858D80FF07C050E040E060E083E1B1
:101BF00090E00E9450092A960FB6F894DEBF0FBEFF
:101C0000CDBFDF91CF911F910F91FF90EF9008957D
:101C1000248135811CCF2681378121CF88E22CCFCA
:101C200088E92ACF88EF28CF273243E9340789F49F
:101C30001F8281E388878A85859585958595859519
:101C400088708987AE01495F5F4F63E080EC90E068
:101C50004CCF233689E1380749F02138E4E93E07C3
:101C600029F02131F5E13F0709F041CF8A8587FF4F
:101C700002C081608A878A8586FF02C082608A8767
:101C80008A858F73233649E1340731F0213884E99E
:101C9000380721F48A858F728A8729CF213135410F
:101CA00009F025CF8A858F7E806CF6CF6A85862FD6
:101CB000062E000C990B2339F7E73F0751F0A8F5E2
:101CC0002435E1E03E0709F45CC02032F4E53F072B
:101CD000A1F540E052E0F70150A747A341E052E0F0
:101CE00052A741A742E052E054A743A740E152E087
:101CF00056A745A741E152E050AB47A742E152E069
:101D000052AB41AB43E152E054AB43AB88279078F0
:101D10002632F3E93F0721F02032344509F071C043
:101D200067FD846060E071E36EC0263243E93407EA
:101D300081F22930E5EB3E0761F220E230E0F70165
:101D400030A727A321E230E032A721A722E230E02A
:101D500034A723A720E530E036A725A721E530E00A
:101D600030AB27A722E530E032AB21AB23E530E0F2
:101D700034AB23ABBC0166277078776280E690E0D5
:101D800046C027E330E0F70136A725A726E330E079
:101D900030AB27A729E330E032AB21AB28E330E0BA
:101DA00034AB23AB20E230E030A727A321E230E0C0
:101DB00032A721A722E230E034A723A7F4E06F9FE7
:101DC000B001112466277170882792708862682B91
:101DD000792B81E090E00E9481098A85682F70E06C
:101DE00075956795759567956870772783FD706120
:101DF0006063F70174A363A383E090E00E9481090C
:101E000098CE60E072E6682B792B80E094E00E9427
:101E100081096A85F4E06F9FB00111246627717013
:101E2000D8CF8339F7E79F07D9F1F0F4803244E542
:101E30009407B1F18338E7E79E0731F1843591408B
:101E4000F1F46150710981E390E00E94810970E032
:101E500060E082E390E00E94810970E060E083E34B
:101E600090E00E948109C7CE863223E99207C1F033
:101E7000893045EB9407A1F08532924911F3F701BF
:101E800061A172A1626003C0F70161A172A181E644
:101E900090E00E94810970E060E08AE690E0E1CF86
:101EA000F70161A172A1626081E094E00E94810962
:101EB00070E060E084E094E0D4CF20916401260FCC
:101EC0003327331F21323105ECF420918801FC01C6
:101ED00090E080E0243069F082E00895A0916401F0
:101EE0002191AC014C5B5E4FA40FB52FB11D2C931B
:101EF0000196861798F380916401680F60936401DE
:101F000080E0089581E008958FEF9FEF08958FEFAF
:101F10009FEF089580913D0190E091958195910901
:101F20000895CF93DF93CB01EA01642F0E945D0FE8
:101F3000CE01DF91CF910895CF93DF931F92CDB75C
:101F4000DEB7698361E0CE0101960E945D0F81E0FA
:101F500090E00F90DF91CF9108950895FC01637098
:101F6000668B8481958126813781613039F06330B9
:101F700029F09187808733872287089531872087CA
:101F80009387828708952F923F924F925F926F922C
:101F90007F928F929F92AF92BF92CF92DF92EF92F9
:101FA000FF920F931F93CF93DF93CDB7DEB76A975E
:101FB0000FB6F894DEBF0FBECDBF9A8F898F7A839C
:101FC00069834A01D22E18870F833701BC2CDC01AC
:101FD00059962D913C915A972115310509F015C15B
:101FE00018968D919C911997681779070CF0D7C1B5
:101FF0001A968D919C91481759070CF0D0C14C2C22
:10200000512CB6E0CB9E600D711D11247C876B872F
:10201000161617060CF0C3C1EA2DF0E0FA87E9871F
:1020200093E0EE0FFF1F9A95E1F7F88BEF87CF0152
:10203000840F951F181619060CF0B1C1A98DBA8D21
:1020400058968C91811104C0BFEABD1508F4D39451
:10205000A98DBA8DED91FC9111970284F385E02D45
:10206000CD010995B5E0DB9EC0011124E981FA811B
:10207000FC83EB83312C212C9C0127503E4F388F61
:102080002F8B4A2D50E05E8B4D8BEF89F88DE20D42
:10209000F31D44919E828D82D12CC12C69817A815D
:1020A000620D731D7A8B698B842F90E09C8B8B8BD8
:1020B000E98DFA8DA081B18140FF82C0F1E0BF12AD
:1020C0006FC0AF126DC01C96ED91FC912F813885C9
:1020D000A4014C0D5D1D69897A89898D9A8D0995B8
:1020E000EB89FC89F595E7954E2F5FEFC51AD50A68
:1020F0006D817E818D899E89680F791F7E836D83B6
:1021000098E0C916D10481F6AFEF2A1A3A0AEB819A
:10211000FC81E40DF51DFC83EB83F5E02F16310403
:1021200009F0B3CF2F81388526153705B9F0A98D71
:10213000BA8DED91FC91B1E0BB1257C0AB1255C006
:1021400069817A816B5F7F4F0088F189E02D83017F
:1021500028E030E0A401898D9A8D0995A98DBA8D6A
:10216000ED91FC9111970688F789E02DCD016A96D3
:102170000FB6F894DEBF0FBECDBFDF91CF911F9198
:102180000F91FF90EF90DF90CF90BF90AF909F9016
:102190008F907F906F905F904F903F902F90099419
:1021A0001E96ED91FC91EF80F88409851A859201C5
:1021B0004D815E816B817C81898D9A8D099590CF4F
:1021C0002F8138852615370509F48ACF31E0B312FF
:1021D00007C0A31205C01C96ED91FC91930178CF26
:1021E0001E96ED91FC917301E0CF6B857C8564199F
:1021F00075090684F785E02D73010F851889920112
:10220000A401898D9A8D0995A9CFF90134969491ED
:10221000329745915491D91AB7E0DB9E400D511D7C
:102220001124F901259134913C8B2B8BFA012590D7
:102230003490FA013296749031963491398B3296FB
:1022400064903196449041E04C1518F04A1508F01E
:102250007FC0662D062C000C770B7C836B83842D4E
:10226000042C000C990B9E838D83A98DBA8DED9162
:10227000FC9111970284F385E02DCD010995512C35
:10228000D12CC12CEA2DF0E0FA87E9872B2D30E024
:102290003C872B87A401440D511D47FC5A95588F4C
:1022A0004F8B69817A81660D711D67FC7A957E87F7
:1022B0006D877989C71608F051CF2C2D30E04D81FC
:1022C0005E81420F531FA985BA854A9FC0014B9F6B
:1022D000900D5A9F900D1124FC01E80DF91DF88B0B
:1022E000EF87852D612C4F89588D420F531F5E8BD0
:1022F0004D8B671408F050C044244394480E8770F7
:1023000041F4C1010196EB89FC89E20DF31DD490E3
:102310001C01D7FE19C0A98DBA8DED91FC91662DD7
:1023200070E0B1E0BB1219C0AB1217C02D853E851D
:10233000620F731F0484F585E02D2F8138854D8948
:102340005E89898D9A8D0995DD0C6394842DD1CF9A
:102350001E821D821C821B8288CF4B815C81640F90
:10236000751FAB85BC856A9FC0016B9F900D7A9FDE
:10237000900D112469817A81680F791F0684F78591
:10238000E02DEF80F88409851A859D014F855889D5
:10239000898D9A8D0995D8CF570CC3948ACF6A96A8
:1023A0000FB6F894DEBF0FBECDBFDF91CF911F9166
:1023B0000F91FF90EF90DF90CF90BF90AF909F90E4
:1023C0008F907F906F905F904F903F902F900895E7
:1023D0008F929F92AF92CF92EF92FF920F931F93A3
:1023E000CF93DF93EC01262F898D9A8D009709F00A
:1023F00051C06A30D1F41D861C868D8948E0849FC7
:10240000900111248E859F85820F931F9F878E8751
:1024100081E090E0DF91CF911F910F91FF90EF90BD
:10242000CF90AF909F908F9008956D3089F3CC88B6
:10243000AD888F898823C1F08C859D8536E0C39E49
:10244000800D911D1124488559854817590764F45A
:102450004E855F851D861C8638E0A39EC001112431
:10246000840F951F9F878E87EA88FB8808891989C2
:102470004E855F856C857D85CE010E94C30F2C89BA
:102480008C859D8546E0249F800D911D11249D879C
:102490008C87BECF6A3069F41D861C86FC01389695
:1024A000E4912D898E859F85E29F800D911D1124D9
:1024B000ADCF6D3009F4ACCFFC0134963491631785
:1024C00008F4A6CF3296E491E61708F4A1CFFC01F8
:1024D000329685909490462F431B342F47E0349FCB
:1024E000800C911C1124F401329634913196E491C0
:1024F0003323A9F1EE2399F1CC88F4013596E491C8
:10250000AD884F89442301F10E2E000CFF0BE30F21
:10251000F11DCE9EA001CF9E500D11246C857D85AE
:10252000460F571F68857985641775076CF44E85CB
:102530005F851D861C86FC013896E491AE9E400D99
:10254000511D11245F874E87EA88FB880889198905
:102550004E855F856C857D85CE010E94C30FF40199
:102560003496E4912C898C859D85E29F800D911D88
:1025700011248DCF0F931F93CF93DF938C01D0E065
:10258000C0E0F801EC0FFD1F6491662341F085EE79
:1025900094E00E94E811892B11F02196F2CFCE0130
:1025A000DF91CF911F910F9108956F927F928F923B
:1025B0009F92AF92BF92CF92DF92EF92FF920F93D2
:1025C0001F93CF93DF93EC016B015A01390148014E
:1025D000E881F9810284F385E02D0995E881F9818C
:1025E0000288F389E02D87019301A501B601CE0190
:1025F0000995A501480D591D41505109E881F981FE
:102600000288F389E02D9301B601CE010995E88196
:10261000F9810088F189E02D9401A501B601CE0170
:102620000995C60CD71CB60161507109E881F98182
:102630000088F189E02D9401A501CE010995E8817A
:10264000F9810688F789E02DCE01DF91CF911F91A6
:102650000F91FF90EF90DF90CF90BF90AF909F9041
:102660008F907F906F9009946F927F928F929F923C
:10267000AF92BF92CF92DF92EF92FF920F931F9390
:10268000CF93DF935C01EB016A01490138018701B7
:10269000DC01ED91FC916217730719F5641675065C
:1026A0002CF0962D872D3A01C92ED82E9601261989
:1026B00037092F5F3F4F048CF58DE02DA301BE013C
:1026C000C5010995DF91CF911F910F91FF90EF9078
:1026D000DF90CF90BF90AF909F908F907F906F9042
:1026E00008954615570591F42617370724F0892DCC
:1026F0004B01C22FD82F9E01281939092F5F3F4F58
:10270000068CF78DE02DA601B401DACF0284F385A3
:10271000E02D0995D501ED91FC910488F589E02D16
:1027200083019401A601BE01C5010995D501ED9172
:10273000FC910688F789E02DC501DF91CF911F91AB
:102740000F91FF90EF90DF90CF90BF90AF909F9050
:102750008F907F906F900994EF92FF920F931F9349
:10276000DC011A960D911C911B9718962D913C91A6
:102770001997ED91FC9100A0F1A1E02D7B0150E0B3
:1027800040E070E060E009951F910F91FF90EF909D
:1027900008954F925F926F927F928F929F92AF9225
:1027A000BF92CF92DF92EF92FF920F931F93CF933E
:1027B000DF936C012B015A0139014801DC01ED91D5
:1027C000FC910284F385E02D0995E201640C751CEF
:1027D000D601ED91FC91C615D7055CF40088F1890E
:1027E000E02D87019401A501BE01C601099521963E
:1027F000EFCF0688F789E02DC601DF91CF911F91B9
:102800000F91FF90EF90DF90CF90BF90AF909F908F
:102810008F907F906F905F904F9009948F929F92CE
:10282000AF92BF92CF92DF92EF92FF920F931F93DE
:10283000CF93DF93EC015B014A016901E881F981E3
:102840000284F385E02D099595012C0D3D1D215045
:102850003109E881F9810488F589E02D7801840146
:10286000A401B501CE010995E881F9810688F789AF
:10287000E02DCE01DF91CF911F910F91FF90EF904E
:10288000DF90CF90BF90AF909F908F9009948F92E0
:102890009F92AF92BF92CF92DF92EF92FF920F93EF
:1028A0001F93CF93DF93EC015B014A01690178012B
:1028B000E881F9810284F385E02D0995C80CD91CC3
:1028C000860101501109E881F9810488F589E02D1C
:1028D0009501A401B501CE010995E881F981068829
:1028E000F789E02DCE01DF91CF911F910F91FF90DD
:1028F000EF90DF90CF90BF90AF909F908F90099412
:10290000EF92FF920F931F93DC01ED91FC9100A0D9
:10291000F1A1E02D09951F910F91FF90EF9008957F
:102920000F931F93DC01ED91FC91068CF78DE02D48
:1029300009951F910F9108950F931F93DC01ED915D
:10294000FC91048CF58DE02D09951F910F91089550
:102950002F923F924F925F926F927F928F929F92AF
:10296000AF92BF92CF92DF92EF92FF920F931F939D
:10297000CF93DF93CDB7DEB728970FB6F894DEBFBD
:102980000FBECDBF3C017E836D8358874F836901A5
:102990009A01220F331F2F5F3F4FAB018F81988524
:1029A000481B590B8601B30185EE94E00E949C14EC
:1029B00081E090E02C012F813885421A530AC90129
:1029C0009195819591099C01220F331F3C832B83A4
:1029D0002F80388481E090E09A838983F12CE12C68
:1029E00057FC0DC08F819885019798878F832B8125
:1029F0003C812E5F3F4F3C832B83420E531E3FEFA3
:102A0000E31AF30A89819A8102969A838983480E90
:102A1000591E2F8138852E153F050CF466C04901DB
:102A2000880C991C3FEF831A930A86019401AD80AC
:102A3000BE808F819885A81AB90AA501B3016E0DD1
:102A40007F1D85EE94E00E949C149401A501B301C2
:102A50006E197F0985EE94E00E949C142F813885C1
:102A60002215330519F1AA24A394B12CAE18BF087E
:102A70008D819E81A80EB91EB301620D731D860162
:102A800089809A8092E0891A91089401A50185EEC7
:102A900094E00E949C14B301621973099401A5018A
:102AA00085EE94E00E949C142F8038842F81388515
:102AB000E216F3060CF494CF28960FB6F894DEBF16
:102AC0000FBECDBFDF91CF911F910F91FF90EF907F
:102AD000DF90CF90BF90AF909F908F907F906F903E
:102AE0005F904F903F902F9008952F813885221549
:102AF000330509F0B8CFE0CFDC01ED91FC91008403
:102B0000F185E02D09942F923F924F925F926F9240
:102B10007F928F929F92AF92BF92CF92DF92EF926D
:102B2000FF920F931F93CF93DF9300D000D0CDB7C8
:102B3000DEB77C018B015C834B8381E090E05C011C
:102B4000A41AB50A1A01319421943108220C331CBD
:102B5000460F571F2FEF3FEFB70185EE94E00E941D
:102B60007C15A8012B813C81421B530B2FEF3FEFBB
:102B7000B70185EE94E00E947C156B817C816E0D1F
:102B80007F1D2FEF3FEFA80185EE94E00E947C159A
:102B9000B7018B819C81681B790B2FEF3FEFA80158
:102BA00085EE94E00E947C1521E030E03A83298391
:102BB000D12CC12CB7FC0AC08B819C8101979C83CE
:102BC0008B8392E0290E311CA20CB31C2FEFC21A8A
:102BD000D20A89819A8102969A838983A80EB91EA6
:102BE00036016E0C7F1C2FEF3FEF8B809C80800E98
:102BF000911EA401B30185EE94E00E947C1527018B
:102C00004C185D082FEF3FEFA401B20185EE94E070
:102C10000E947C152FEF3FEF48018B819C81881A21
:102C2000990AA401B30185EE94E00E947C152FEF70
:102C30003FEFA401B20185EE94E00E947C154601AD
:102C4000800E911E2FEF3FEFA4016B807C806E0CF5
:102C50007F1CB30185EE94E00E947C152FEF3FEFBF
:102C6000A40127018B819C81481A590AB20185EE83
:102C700094E00E947C1548018C189D082FEF3FEFCF
:102C8000A401B30185EE94E00E947C152FEF3FEF85
:102C9000A401B20185EE94E00E947C152B813C8159
:102CA000C216D3060CF486CF0F900F900F900F90A2
:102CB000DF91CF911F910F91FF90EF90DF90CF9018
:102CC000BF90AF909F908F907F906F905F904F904C
:102CD0003F902F9008952F923F924F925F926F9264
:102CE0007F928F929F92AF92BF92CF92DF92EF929C
:102CF000FF920F931F93CF93DF9300D000D000D0AB
:102D0000CDB7DEB73C016A013E832D83FC82EB82A6
:102D10005801A41AB50AB7FE03C0B194A194B10832
:102D20008D809E80861A970A97FE03C091948194A5
:102D300091088A149B045CF0902F812F0D811E81D5
:102D40009D838E839C2D8D2D6B01692F782F0C1503
:102D50001D055CF09D818E817E836D83692F782FA8
:102D6000902F812F8601C92ED82E1601201A310AE4
:102D70002B012D813E81421A530A57FE03C0519404
:102D800041945108710137FE03C03FEFE31AF30A83
:102D9000F594E7948D819E81861797075CF5A1E0F5
:102DA000B0E0BA83A983C016D1064CF1D301ED91EE
:102DB000FC910484F585E02D2B813C81A8016D8177
:102DC0007E818A149B041CF04D815E81B801C30191
:102DD0000995E418F508F7FE0AC02D813E81898126
:102DE0009A81280F391F3E832D83E20CF31C0F5F5D
:102DF0001F4FD9CF2FEF3FEF3A832983D4CF2696A9
:102E00000FB6F894DEBF0FBECDBFDF91CF911F91FB
:102E10000F91FF90EF90DF90CF90BF90AF909F9079
:102E20008F907F906F905F904F903F902F9008957C
:102E3000089590E080E008958FE090E00197F1F729
:102E4000089562E00C942208CF93C82F61E00E949D
:102E5000220860E08C2FCF910C94F407CF93DF937E
:102E6000D82FC8E08BE0D7FF26C00E9421170E9410
:102E70001C178DE00E9421170E941C178DE00E94F4
:102E80002417DD0FC15071F78BE00E9421170E94BB
:102E90001C178DE00E9421170E941C170E94D0076A
:102EA000EC018DE00E94241781E0CD2B09F080E039
:102EB000DF91CF9108950E942417D9CF8BE00E9413
:102EC00024178DE00E9421170E941C178BE00E949E
:102ED00021170C941C178BE00E9421178DE00E9493
:102EE00021170E941C178BE00E9424170E941C17B8
:102EF0008DE00C9424179F92AF92BF92CF92DF92F5
:102F0000EF92FF920F931F93CF93DF93D82F162F3B
:102F1000F72EC42E0E946B17C0913C018C2F880F96
:102F20000E942E17882329F08D2F0E942E178111C1
:102F300010C00E945E1700E0802FDF91CF911F919B
:102F40000F91FF90EF90DF90CF90BF90AF909F9048
:102F500008950E946B178C2F880F81600E942E1796
:102F6000082F882331F3912EC12FDF2DEE24E39417
:102F7000F12CAC2CB12C8BE00E94211788E0D82ECC
:102F800010E0110F8DE00E9421170E941C170E9473
:102F9000D007892B09F011608DE00E9424170E9450
:102FA0001C17DA94D110EDCF8BE0EA14FB04C4F4C3
:102FB0000E9424178DE00E9421170E941C178DE0AB
:102FC0000E9424178BE00E94211719938FEFE81AB3
:102FD000F80A8C2F89198C1570F20E945E17ACCFFD
:102FE0000E942117E7CF2F923F924F925F926F92EC
:102FF0007F928F929F92AF92BF92CF92DF92EF9289
:10300000FF920F931F93CF93DF93CDB7DEB76F97E8
:103010000FB6F894DEBF0FBECDBF46E0BE016F5FB6
:103020007F4F87EF0E947B178A8B81111BC01A8A02
:103030008A896F960FB6F894DEBF0FBECDBFDF91C1
:10304000CF911F910F91FF90EF90DF90CF90BF90A5
:10305000AF909F908F907F906F905F904F903F9038
:103060002F90089589808D8E9A809E8E8B808F8E72
:103070008C8190E0B0E0A0E01CE0880F991FAA1FAF
:10308000BB1F1A95D1F74D8150E070E060E004E07D
:10309000440F551F661F771F0A95D1F7842B952B78
:1030A000A62BB72B2E8130E044E0359527954A9525
:1030B000E1F7032E000C440B550B822B932BA42B12
:1030C000B52B4091CF045091D00470E060E06C01CA
:1030D0007D01E4E0F594E794D794C794EA95D1F79D
:1030E000C41AD50AE60AF70AF3E0B595A7959795AD
:1030F0008795FA95D1F7440F551F661F771F4C012E
:103100005D01841A950AA60AB70AA5019401A09147
:10311000CD04B091CE040E9411334B015C010BE051
:10312000B594A794979487940A95D1F7A70196012F
:10313000C701B6010E9418369B01AC018CE0559581
:103140004795379527958A95D1F7A091CB04B091F3
:10315000CC040E9411336B017C019EE0F594E7944E
:10316000D794C7949A95D1F7C80CD91CEA1CFB1CBC
:10317000A5E0B0E0A70196010E94063360587F4F9A
:103180008F4F9F4F672F782F892F992787FD9A950B
:103190000E94A33420E030E048EC52E40E94F33374
:1031A0006093B5047093B6048093B7049093B80409
:1031B00046015701BB0C8808982C54019601A701C1
:1031C000682D782D882D982D345F41405109610973
:1031D0007109810991092F83388749875A876B873D
:1031E0007C878D879E8759016A017B018C010E9433
:1031F0003C362F87388B498B588F698F7A8F8B8F0E
:103200009C8F3091C2042091C104932F990F990B88
:10321000492F592F692F792F892F0E943C360CE0B6
:103220000E943437722E832E942E652E562E472EF2
:10323000382E292E3091C4042091C304932F990F66
:10324000990BAF84B888C988D88CE98CFA8C0B8D1F
:103250001C8D492F592F692F792F892F0E943C36B9
:1032600008E00E944D37A72CB82CC92CD62CE52C91
:10327000F42C032D122D0E946A3770588F4F9F4FE8
:103280002090BF043090C0045101C12CD12CE12CFE
:10329000F12C00E010E00E943C3601E20E944D3724
:1032A0002B8B3C8B4D8B5E8B6F8B272E382E492EB4
:1032B000A0E00E947C3709F4BACE3091CA04209174
:1032C000C904932F990F990BAF84B888C988D88CFB
:1032D000E98CFA8C0B8D1C8D492F592F692F792F72
:1032E000892F0E943C362F87388B498B552E3B0106
:1032F0004C013091C8042091C704932F990F990B6A
:10330000AF80B884C984DA84EB84FC840D851E8583
:10331000492F592F692F792F892F0E943C3601E1BF
:103320000E943437AF84B888C988D52C73018401D2
:103330000E946A3759016A017B01582E192F9D8C12
:10334000492D50E070E060E08CE0440F551F661F8F
:10335000771F8A95D1F78E8C882D90E0B0E0A0E0A1
:1033600024E0880F991FAA1FBB1F2A95D1F7842B31
:10337000952BA62BB72B9F8C292D30E044E035955B
:1033800027954A95E1F7A901330F660B770B482B78
:10339000592B6A2B7B2B80E090E0A0E1B0E0841BEE
:1033A000950BA60BB70B3C014D01990C6608762CCA
:1033B00043019C01AD01662D762D862D962D0FE1E2
:1033C0000E94343739014A01B62FA72FF82FE92F71
:1033D0003091C6042091C504932F990F990B492F62
:1033E000592F692F792F892F03E20E943437052D39
:1033F0000E946A3759016A017B018C019301A40183
:103400006B2F7A2F8F2F9E2F0E947337E5E3AE2EFE
:10341000FCE0BF2EC12CD12CE12CF12C00E010E0FF
:103420000E943C36AB88BC88CD88DE88EF88F22CC1
:10343000032D142D0E9496362F83388749875A878B
:103440006B877C878D879E870DE00E944D37922E7B
:10345000832E742E652E562E472E382E292E30910F
:10346000BE042091BD04932F990F990BA92CB82C61
:10347000C72CD62CE52CF42C032D122D492F592FB7
:10348000692F792F892F0E943C360E943C3609E132
:103490000E944D37AF80B884C984DA84EB84FC8401
:1034A0000D851E850E946A3719012A013B014C01D6
:1034B0003091BC042091BB04932F990F990B492F95
:1034C000592F692F792F892F0E943C3603E10E94E2
:1034D0004D3759016A017B018C019101A201B301B1
:1034E000C4010E946A3708E00E944D3759016A0101
:1034F0007B01E82F192F3091BA042091B904932F42
:10350000990F990B492F592F692F792F892F04E093
:103510000E9434370E2F0E946A370E949B3420E0AD
:1035200030E040E85BE30E94A63520E030E048EC64
:1035300052E40E94F3336093B1047093B204809319
:10354000B3049093B40474CDCF93DF93D82FC62FD8
:103550000E946B1780913C01880F0E942E178111E9
:1035600007C0C0E00E945E178C2FDF91CF910895B5
:103570008D2F0E942E178823A1F38C2F0E942E17C7
:10358000C82FF0CF0F931F93CF93DF93CDB7DEB744
:103590006B970FB6F894DEBF0FBECDBF8BE00E94D5
:1035A00021178DE00E9421171B8E86E7898F87E700
:1035B0008A8F02E010E0E0E089E190E08C0F9D1F2F
:1035C0008E0F911DFC01808180933C0141E0BE0182
:1035D000655E7F4F80ED0E947B17882319F08B8DED
:1035E0008036A1F0E1E00130110569F410E0812F8F
:1035F0006B960FB6F894DEBF0FBECDBFDF91CF91B3
:103600001F910F91089501E010E0D6CF48E1BE016F
:103610006F5F7F4F88E80E947B17182F882331F354
:1036200089819A819093D0048093CF048B819C816F
:103630009093CE048093CD048D819E819093CC0491
:103640008093CB048F8198859093C0048093BF04AE
:1036500089859A859093C2048093C1048B859C854B
:103660009093C4048093C3048D859E859093C60473
:103670008093C5048F8598899093C8048093C7046C
:1036800089899A899093CA048093C9048B899C89FB
:103690009093BA048093B9048D899E899093BC0459
:1036A0008093BB048F89988D9093BE048093BD0452
:1036B00067E284EF0E94A41A60EA85EF0E94A41AD0
:1036C00096CFEF92FF920F931F93DC011A960D9104
:1036D0001C911B9718962D913C911997ED91FC9197
:1036E00000A0F1A1E02D7B0150E040E070E060E03F
:1036F00009951F910F91FF90EF9008950F931F93DD
:10370000CF93DF9370E060E085EE94E00E94611B50
:10371000C5EED4E080E098EF9B8B8A8B998B888BE9
:1037200082E08C8B8D8B86E190E09D878C8780E595
:1037300090E09F878E8788EE91E00E94BA128FEF0B
:103740009FEF9B8B8A8B998B888B81E08C8B8D8BE9
:103750000FE010E01D870C878DE790E09F878E8734
:1037600087ED91E00E94BA121D870C8781E990E0F5
:103770009F878E8784EC91E0DF91CF911F910F910D
:103780000C94BA12EF92FF920F931F93DC01ED910C
:10379000FC9100A0F1A1E02D780101E010E0099575
:1037A0001F910F91FF90EF900895EF92FF920F936A
:1037B0001F93DC01ED91FC9100A0F1A1E02D7801B7
:1037C000890121E030E009951F910F91FF90EF9062
:1037D0000895FC0101900020E9F73197AF01481BE3
:1037E000590BBC0185EE94E00C94D7088F929F9200
:1037F000AF92BF920F931F93CF93DF93CDB7DEB7F6
:10380000A1970FB6F894DEBF0FBECDBF19A242300C
:1038100008F44AE08E010F5D1F4F842E912CB12CCD
:10382000A12CA50194010E945033E62FB901CA01D1
:10383000EA30F4F4E05DD801EE938D01232B242BC4
:10384000252B79F790E080E0109719F0CD010E94C8
:10385000E91BA1960FB6F894DEBF0FBECDBFDF9176
:10386000CF911F910F91BF90AF909F908F9008952F
:10387000E95CE1CF4F925F926F927F928F929F921D
:10388000AF92BF92CF92DF92EF92FF920F931F936E
:10389000CF936B017C01742EAC019B010E94133607
:1038A000882399F08FE291E0CF911F910F91FF90C3
:1038B000EF90DF90CF90BF90AF909F908F907F90D0
:1038C0006F905F904F900C94E91B46015701E8946C
:1038D000B7F82FEF3FEF4FE75FE7C501B4010E9454
:1038E000133681110DC02FEF3FEF4FE75FE7C501A2
:1038F000B4010E94EE3318161CF483E391E0D4CF98
:103900002FEF3FEF4FE75FE4C701B6010E94A135FB
:1039100018161CF487E391E0C7CF2FEF3FEF4FE776
:103920005FECC701B6010E94EE3387FDF3CF20E0C4
:1039300030E0A901C701B6010E94EE3310E000E0BB
:1039400087FF0AC06DE285EE94E00E94E8118C01C9
:10395000F7FAF094F7F8F094C0E060E070E080E0EF
:103960009FE37C1641F020E030E040E251E40E9409
:10397000F333CF5FF6CFA70196010E9482332B016C
:103980003C010E946C344B015C014AE00E94F61B32
:103990007C01E00EF11ECC23C1F1C501B4010E94EF
:1039A000A1349B01AC01C301B2010E9481334B01E0
:1039B0005C016EE285EE94E00E94E811E80EF91ECB
:1039C000C15018F120E030E040E251E4C501B401FB
:1039D0000E94A6352B013C010E946C344B01B12C96
:1039E000A12C4AE0C501B4010E94F61BE80EF91EA5
:1039F000C501B4010E94A1349B01AC01C301B20115
:103A00000E9481334B015C01DBCFC701CF911F9135
:103A10000F91FF90EF90DF90CF90BF90AF909F906D
:103A20008F907F906F905F904F9008952F923F926C
:103A30004F925F926F927F928F929F92AF92BF92BE
:103A4000CF92DF92EF92FF920F931F93CF93DF936A
:103A5000CDB7DEB7A6970FB6F894DEBF0FBECDBFC9
:103A60007A83698319012A011C870B87ED86F98AFD
:103A7000D88ACF866BAC7CAC7EA26DA2C090EF04DE
:103A8000D090F004D7FE03C02FEFC21AD20AD5940B
:103A9000C7948C9D30018D9D700C11247C826B82AB
:103AA0002AE2620E711C4B815C814C0D5D1D5C8BAA
:103AB0004B8B495051095E834D836091ED047091A9
:103AC000EE047A876987F12CE12C86019B014B81FA
:103AD0005C8170E060E085EE94E00E94910B2091A3
:103AE000ED043091EE04EE24EA94FE2C4B815C81CF
:103AF00070E060E085EE94E00E94D51281E0809352
:103B0000F9048093FA048FEF9FEF9093F804809369
:103B1000F7049093F6048093F50488E090E0909386
:103B2000F2048093F1048B819C810F969093F404AE
:103B30008093F30489819A810E94BA1282E0809373
:103B4000F9048093FA048F8598899093F804809300
:103B5000F7049093F6048093F5048CE590E090933D
:103B6000F2048093F1048B819C8109969093F40474
:103B70008093F30441E0C201B1010E943A1C8B859D
:103B80009C850E94BA124D805E8046185708D12C41
:103B9000C12C15E0F12E29843A849FE0291A3108BE
:103BA000A601D7FE02C04D5F5F4F559547955595CD
:103BB0004795460D571D04E011E2910168E070E061
:103BC00085EE94E00E94C21BFA94C40CD51CF1103F
:103BD000E7CFE984FA84A0E1EA1AF108D12CC12CDC
:103BE00077E0972EBFEF4B1A5B0AE6E02E2E312CC2
:103BF000C601B1010E942836685F7F4F04E011E2E0
:103C00009201A30185EE94E00E94D51B9A94CE0CFC
:103C1000DF1C9110EDCF882009F486C14D844982C4
:103C200059885A82A981BA812D913D91BA83A9837D
:103C3000FD012901C901CC24C394C81461F041914C
:103C40005191481759070CF4CA01441655060CF453
:103C50002A01C394F2CF4201881A990A8A149B045C
:103C60000CF0DFC0480E591E57FE03C0BFEF4B1AC1
:103C70005B0A420195948794C501B7FC019695951E
:103C80008795881A990AF501E80DF91D49855A8525
:103C9000485051095A8B498B0C2D10E0A801415016
:103CA00051094E9DC0014F9D900D5E9D900D1124B8
:103CB00065EC7FEF0E94283649885A88460E571EC9
:103CC0005C864B864D815E81052E000C660B770B62
:103CD0004D835E836F837887092C000CAA08BB088C
:103CE000C301770CAA0BBB0B2C013D01441A550AEA
:103CF000660A770A4F8A588E698E7A8E2F01FF0FD7
:103D000066087708B301A201481959096A097B09B5
:103D10004B8F5C8F6D8F7E8F032E000C440B550BE9
:103D2000281939094A095B096F89788D898D9A8D1F
:103D30000E9418362B8D3C8D4D8D5E8D0E94E73292
:103D40006D817E818F819885260F371F481F591FEF
:103D5000190180E190E0DC01E985FA85AE1BBF0B1B
:103D6000BCA3ABA3025011090E9D90010F9D300D15
:103D70001E9D300D11243E872D87DD24D394CD1454
:103D800009F45FC08D859E8565EC7FEF0E94283623
:103D900049895A89460F571F5E8B4D8BA981BA817D
:103DA0002D913D91BA83A983032E000C440B550B32
:103DB000281939094A095B096F89788D898D9A8D8F
:103DC0000E9418362B8D3C8D4D8D5E8D0E94E73202
:103DD0006D817E818F819885620F731F841F951F6F
:103DE0006F8F78A389A39AA3EF84F8880F8D18A109
:103DF0002D893E89A1016B857C8585EE94E00E942A
:103E00003413D3948D859E85ABA1BCA18A0F9B1FD3
:103E10009E878D872F8C38A0ED89FE89FC87EB87E4
:103E2000AECF540143E0B594A7944A95E1F7EFEF84
:103E3000AE1ABE0A4C018A189B08F201EA0DFB1D5E
:103E400025CF2F85388942E050E0B1018B859C85D4
:103E50000E94A81481E08093F9048093FA048FEF04
:103E60009FEF9093F8048093F7049093F604809367
:103E7000F5040AE010E01093F2040093F1048B8142
:103E80009C818C969093F4048093F304C301B20157
:103E90000E94A33420E030E040E251E40E94F3337A
:103EA00041E00E943A1CEB88FC88F2E1EF1AF1082D
:103EB0001093F2040093F104F092F404E092F304FE
:103EC000C501B4010E94A33420E030E040E251E497
:103ED0000E94F33341E00E943A1C89859A85C59778
:103EE0009093F2048093F104F092F404E092F304CE
:103EF0008DA19EA1A6960FB6F894DEBF0FBECDBFD2
:103F0000DF91CF911F910F91FF90EF90DF90CF90B5
:103F1000BF90AF909F908F907F906F905F904F90E9
:103F20003F902F900C94BA12A6960FB6F894DEBF6D
:103F30000FBECDBFDF91CF911F910F91FF90EF90FA
:103F4000DF90CF90BF90AF909F908F907F906F90B9
:103F50005F904F903F902F9008950E94A2371F933B
:103F6000CF93DF9385ED8093BC00809140019091C9
:103F70004101A0914201B09143010796A11DB11DDD
:103F800023E0B695A795979587952A95D1F7209127
:103F9000BC0024FD03C01092880152C04091400132
:103FA000509141016091420170914301452B462B94
:103FB000472B69F30097A105B10541F02AE22A9544
:103FC000F1F700C00197A109B109E1CF80913F014C
:103FD000C1E0C0933E01882399F1D091B8001091BF
:103FE000BA008091BC008A7B8093BC0060E082E1D3
:103FF0000E94F40760E083E10E94F40710928801B8
:10400000C0938A011092890161E082E10E94F40765
:1040100061E083E10E94F4078091B9008E7F809374
:10402000B9008091B9008D7F8093B90088E48093B6
:10403000B80085E48093BC001093BA00D093B80018
:10404000DF91CF911F9108952F923F924F925F92EF
:104050006F927F928F929F92AF92BF92CF92DF9298
:10406000EF92FF920F931F93CF93DF93CDB7DEB7FD
:10407000A6970FB6F894DEBF0FBECDBFD82E4B016A
:1040800029013A01180157018091EF049091F00441
:1040900097FD01969C01359527953E872D87D29EE9
:1040A000C001D39E900D1124988B8F872091ED0431
:1040B0003091EE04F12CE12C0D851E85AC0170E0F1
:1040C00060E085EE94E00E94910B2091ED04309128
:1040D000EE04EE24EA94FE2C0D851E854F8558894A
:1040E00070E060E085EE94E00E94D5128FEF9FEFC4
:1040F0009093F8048093F7049093F6048093F5046A
:1041000012E01093F9041093FA04EF84F8889CE00D
:10411000E90EF11C88E090E09093F2048093F104A2
:10412000F092F404E092F304C4010E94BA12B09237
:10413000F804A092F704B092F604A092F50410934C
:10414000F9041093FA048091ED049091EE042EE1AD
:1041500030E0DD2011F020E330E0821B930B9093E0
:10416000F2048093F104F092F404E092F304C101AC
:104170000E94BA128E010F5F1F4F21E040E0C30181
:10418000B2010E949230C092F904C092FA042090C9
:10419000FE043090FF042091FC042F8B8C2D90E0C6
:1041A000998F888F86E0C89E900111243B8F2A8FBB
:1041B0002091ED043091EE043A8B298B888D998DF6
:1041C00023E0880F991F2A95E1F79C8B8B8B910137
:1041D0002C5F3F4F3F8F2E8FC101069699A388A376
:1041E000225031093DA32CA302969E8B8D8B1D8FEF
:1041F0000C8F50E040E070E060E044244A94542C7E
:10420000AFEFBFEF0FEF1FE7EE24EA94EFE7FE2ECC
:10421000EC8DFD8D8191FD8FEC8F882309F4C1C059
:104220002114310409F484C08A3051F4ED89FE89E7
:1042300084918C9D600D711D112450E040E0E8CF09
:104240008D3031F3EE8DFF8D9491E8A1F9A1249189
:104250008917F0F22817E0F2ECA1FDA12591349125
:10426000891BF7E08F9F200D311D1124F901329633
:10427000D490319684918AA3319694919BA33196E0
:1042800084912A5F3F4FF901F491FEA32F892223E5
:10429000F9F06D2C712C680E711C87FD7A94288DB5
:1042A000398D629E4001639E900C729E900C112489
:1042B000840E951E29893A89281539054CF4ED8913
:1042C000FE8994919C9D600D711D112450E040E089
:1042D0002C2D382F3203C0011124840F951F3EA1CD
:1042E0003203F00111249F01260F371F8E159F0501
:1042F0000CF47C01201731070CF48901DC9C800D43
:10430000911D11240197A817B9070CF4DC018AA1AB
:104310008C9D200D311D1124215031094216530668
:104320000CF429019BA19C9D400D511D112470CFBF
:104330008A3029F42B893C89620F731F7ECF8D3020
:1043400009F466CF3F89332379F08A8D9B8D840FE2
:10435000951F29893A892817390734F48B899C8954
:10436000680F791F50E040E02A8D3B8D240F351FE8
:10437000C9010197A817B9070CF4DC018B899C8946
:10438000860F971F0197481659060CF42C014E15FD
:104390005F050CF47A01601771070CF48B01A90119
:1043A00037CFAE15BF050CF45BC0AE19BF0911962F
:1043B000401651060CF457C0401A510A9FEF491A93
:1043C000590AE988FA88EA1AFB0AF694E7940D85F7
:1043D0001E850A52110904191509169507958F852E
:1043E00098898A96080F191FB092F804A092F704D2
:1043F000B092F604A092F504F092F204E092F10477
:104400001093F4040093F304CE0101960E94E91B7B
:10441000EFEFEE1AFE0AF092F204E092F10410932C
:10442000F4040093F304CE0101960E94E91BA696C2
:104430000FB6F894DEBF0FBECDBFDF91CF911F91B5
:104440000F91FF90EF90DF90CF90BF90AF909F9033
:104450008F907F906F905F904F903F902F90089536
:10446000B0E0A0E0A5CF512C412CABCF8F92AF9202
:10447000BF92CF92DF92EF92FF920F931F93CF9351
:10448000DF938091A3042091B5043091B60440914C
:10449000B7045091B804811156C016E0C12E00EE49
:1044A000E02EFF24FA9406EB11E068EB71E00E9425
:1044B00024208091A2042091B1043091B204409153
:1044C000B3045091B40481116AC0A5E0CA2EEE2451
:1044D000EA94B7E0FB2E05E811E069E871E081E0BD
:1044E0000E942420C091ED04D091EE04D7FD2196C6
:1044F000D595C7950091EF041091F00417FF02C005
:104500000F5F1F4F1595079530E020E048E050E021
:10451000B801CE010E94A81447E050E0B801CE01D6
:104520000E94831544E050E0B801CE01DF91CF91A5
:104530001F910F91FF90EF90DF90CF90BF90AF90C1
:104540008F900C948315813019F18230D1F48090D2
:10455000BC0280EA91E065E373E09F938F93C4E12E
:10456000AC2EB12CD0EECD2EDD24DA947B0102E905
:1045700011E064E971E080E00E94161D0F900F9039
:1045800098CF8090CB0187EA91E064E472E0E5CFB8
:104590008090AD038FEA91E066E274E0DECF813077
:1045A00019F18230D1F48090BC028FE691E06DEB7E
:1045B00072E09F938F93E2E3AE2EB12CCC24CA9489
:1045C000F7E0DF2E7B0102E611E066E671E081E0B4
:1045D0000E94161D0F900F9085CF8090CB0186E72B
:1045E00091E06CEC71E0E5CF8090AD038EE791E057
:1045F0006EEA73E0DECFCF92DF92EF92FF920F93DD
:104600001F93CF93DF93FA01690130813C33E8F4C3
:10461000E32EF12CEE0CFF1C8E0D9F1DDC01CD92C4
:10462000DC92C081D0E0CC0FDD1FC60FD71F1983ED
:10463000088380818F5F8083DF91CF911F910F91DD
:10464000FF90EF90DF90CF900895EB017C01BC01CB
:104650006E5F7F4F46E750E00E94A737BE016E5F56
:104660007F4F46E750E0CE010E94A737F701EA5896
:10467000FF4FD182C082CA58DF4F19830883DCCF35
:104680001F920F920FB60F9211242F933F938F9387
:104690009F93AF93BF938091A8049091A904A09198
:1046A000AA04B091AB043091A70423E0230F2D3767
:1046B00058F50196A11DB11D2093A7048093A8046D
:1046C0009093A904A093AA04B093AB048091AC0486
:1046D0009091AD04A091AE04B091AF040196A11DDC
:1046E000B11D8093AC049093AD04A093AE04B0933D
:1046F000AF04BF91AF919F918F913F912F910F90F8
:104700000FBE0F901F90189526E8230F0296A11D4B
:10471000B11DD2CF1F920F920FB60F9211242F937B
:104720003F934F935F936F937F938F939F93AF9339
:10473000BF93EF93FF938091B900887F803609F48F
:104740004AC0F0F5883209F4A5C018F5803109F4A3
:1047500099C0B8F4882309F4F5C0883009F492C0F0
:10476000FF91EF91BF91AF919F918F917F916F9149
:104770005F914F913F912F910F900FBE0F901F901F
:104780001895883109F486C0803251F780938701EB
:1047900014C0803409F49BC040F48033B9F38833EB
:1047A000F9F68093870185ECAEC0803509F483C0AB
:1047B000883509F494C0883499F60E94AF1FD0CF91
:1047C000883909F48AC038F5883729F050F48836DA
:1047D00011F0803729F683E08093880110928601DA
:1047E00055C0883809F479C0803919F0803809F04B
:1047F000B7CF80918601803208F06FC0E0918601CA
:1048000081E08E0F809386018091BB00F0E0EA5931
:10481000FE4F80833BC0803B39F0D0F4803A09F4EE
:1048200077C0883A09F09CCF84E080938801109289
:10483000650110926401F0E0E0E009958091640167
:1048400081110FC081E0809364011092440109C07E
:10485000803C09F4A8CF883C09F4A5CF883B09F037
:104860007FCFE091650181E08E0F80936501F0E0DC
:10487000EC5BFE4F80818093BB009091650180913D
:10488000640129C08091AD018093BB0085EC8093C9
:10489000BC0066CF9091AC018091AB01981758F5A0
:1048A000E091AC0181E08E0F8093AC01F0E0E55720
:1048B000FE4F8081E9CFE091AC0181E08E0F8093C3
:1048C000AC018091BB00F0E0E557FE4F80839091F2
:1048D000AC018091AB019817C8F285E8D8CFE09180
:1048E000AC0181E08E0F8093AC018091BB00F0E0C1
:1048F000E557FE4F808380918A0181115ECF81E070
:104900008093890184EA8093BC001092880128CFAB
:1049100085EC8093BC0010928801809186018032E2
:1049200030F4E0918601F0E0EA59FE4F1082609188
:10493000860170E086E691E0F0E0E0E009951092F3
:1049400086010ECF1092870138CFE5EEF4E0138296
:10495000128220EF30E03583248380E491E0978356
:1049600086833187208793878287168A15861486E7
:104970001786168681E0858B848B2FEF3FEF338B74
:10498000228B318B208B878B108E128E118E87E0BD
:1049900091E091838083A1EDB4E081E112968C9344
:1049A000129780E114968C93149789E013968C9358
:1049B000139788E015968C9315978CE291E01796E3
:1049C0009C938E931697EAEEFEE0E491F0E0EE0FF2
:1049D000FF1FE852F14F8591949119969C938E9305
:1049E0001897E3EFFEE0E491F0E0EE0FFF1FE852CE
:1049F000F14F859194911B969C938E931A97E2EFB9
:104A0000FEE0E491F0E0EE0FFF1FE852F14F8591D8
:104A100094911D969C938E931C97EBEEFEE0E4918F
:104A2000F0E0EE0FFF1FE852F14F859194911F9631
:104A30009C938E931E97ECECFEE0E4915096EC93E1
:104A40005097E5EDFEE0E4915296EC935297E4ED39
:104A5000FEE0E4915196EC935197EDECFEE0E49189
:104A60005396EC9353978AE090E08D939C9308952E
:104A7000CF93DF93CDB7DEB767970FB6F894DEBF5D
:104A80000FBECDBF789484B5826084BD84B581604B
:104A900084BD85B5826085BD85B5816085BD809109
:104AA0006E00816080936E00109281008091810081
:104AB0008260809381008091810081608093810079
:104AC000809180008160809380008091B10084603B
:104AD0008093B1008091B00081608093B00080919C
:104AE0007A00846080937A0080917A00826080935B
:104AF0007A0080917A00816080937A0080917A00B8
:104B0000806880937A001092C10060E090E080E0BD
:104B10000E94E6098C01883024E5920751F1803229
:104B200034E5930731F18938994809F41CC160E0F4
:104B300087E690E00E94E60907E413E8873497448B
:104B4000C1F08FEE90E00E94630A8B01073283E987
:104B5000180779F081EA90E00E94440A03E619E11F
:104B6000613091E6790729F06F3F760791F506E20B
:104B700015E10E94BA0910920105109200051093E8
:104B8000050500930405013350E8150709F429C70A
:104B900008F0ACC1033590E2190709F478C708F0B2
:104BA00044C10131B5E11B0709F46FC208F0FEC032
:104BB0000939110509F424C708F0E4C080E091E147
:104BC0000130110509F4E9C01092EA041092E904D9
:104BD00059C26115BFEF7B0719F400E215E1C9CF97
:104BE0006115704F09F4C2C08FEB90E00E94630A18
:104BF0008B01673523E8720709F4BBCF613834E9CC
:104C0000730709F4B6CF613145E1740709F4B1CFF8
:104C10006032754111F3063285E1180709F4A7CF18
:104C2000013895E1190709F4A4CF0115144109F4DD
:104C3000A0C084ED90E00E94440A8B01603173456E
:104C400009F497CF87ED90E00E94440A8B0161330D
:104C5000704809F48ECF8EEF90E00E94440A072F2F
:104C6000182F292F3327033530E2130709F481CF9A
:104C700084E090E00E94440A8B01833E31F4672B6C
:104C800009F054C000E013EE74CF81114FC06115DC
:104C9000704809F04BC08091000190910101A091F2
:104CA000020189839A83AB83AE014F5F5F4F63E05C
:104CB00089EB90E00E94500960E080ED90E00E9456
:104CC000E60909E910E0893909F453CF00E910E950
:104CD000803909F44ECF83ED90E00E94440A072FFB
:104CE000182F292F33270336B1E91B0709F441CFC9
:104CF00083ED90E00E94440A8B01693222E372073F
:104D000009F437CF872F7359723040F1883931F168
:104D1000873721F1863111F1033D110509F429CFBF
:104D2000033D134DA9F401E413E923CF063255E105
:104D3000150709F41CCF003F89E81807E9F0023590
:104D400095E81907E1F00131ACEA1A0721F611CF15
:104D500060E090E080E00E94E6098C01033D1007CE
:104D600009F007CFE0CF09E812E103CF01EA15E02F
:104D700000CF04E118E6FDCE05E317E7FACE09E817
:104D800017E7F7CE043531E0130709F46FC105309A
:104D9000154109F019CF84E090E1909303058093C9
:104DA000020568ED70E087EA9BE06AC1013855E1D1
:104DB000150709F47BC6A8F4003295E1190709F438
:104DC000BDC50632154109F0FFCE83E194E0909312
:104DD0000305809302052CE0E22EF12C06E519E094
:104DE0006BC10230B6E11B0709F445C60336194111
:104DF00009F0EACE81E08093AF0183E59AE09093D9
:104E000003058093020580EE91E09093EC0480937B
:104E1000EB0480E293E09093EA048093E90493E545
:104E2000E92EF12C03E019E047C1093038E61307F9
:104E300009F4FEC500F5053355E4150709F48AC5E4
:104E400080F40932124309F0BFCE83E096E09093DC
:104E500003058093020580E4E82EF12C03EC18E0B2
:104E60002BC10031A3E51A0709F47FC508301445AA
:104E700009F491CFA9CE093827E7120709F4A5C58F
:104E8000A0F4043148E6140709F487C5033817472E
:104E900009F09ACE82E091E1909303058093020598
:104EA00068E870E08FE79CE0EBC0033987E71807FC
:104EB00009F42FC60639174709F086CE83E094E03F
:104EC000909303058093020580EE91E09093EC04AB
:104ED0008093EB0480E491E09093EA048093E904EA
:104EE0009DE0E92EF12C03E317E0E6C00833A3E9C7
:104EF0001A0709F4D5C508F04EC0053223E9120798
:104F0000E1F160F5003940E9140709F476C5E0F4F1
:104F10000735134809F058CE83E094E190930305D8
:104F20008093020580EE91E09093EC048093EB0473
:104F300080E491E09093EA048093E904F2E0EF2E9C
:104F4000F12C09E618E0B8C0023093E9190709F41A
:104F5000A4C50032134909F41ECF36CE0932B3E995
:104F60001B0709F4A0C560F4073233E9130709F4FD
:104F70006AC50832134909F027CE80E091E15AC58D
:104F8000013353E9150721F00533134909F01CCE0D
:104F900080E090E14FC5093894E91907C8F5073852
:104FA000A4E91A0708F09DC50138B4E91B0709F404
:104FB00095C590F4005413490230110508F004CE51
:104FC00083E194E0909303058093020545E6E42E87
:104FD000F12C00EC17E070C00638144909F0F4CD4C
:104FE00083E094E0909303058093020580EE91E0C6
:104FF0009093EC048093EB0480E491E09093EA04B6
:105000008093E9042BE3E22EF12C00E417E054C076
:10501000093045EB140709F47CC5A0F401318CEA92
:10502000180709F437C50530154B09F0CDCD88E0D8
:1050300090E1909303058093020560EB70E08BE2B2
:105040009AE01EC00530A5EC1A0789F383E19EE0C3
:105050000115134E09F0B8CD909303058093020516
:1050600053E0E52EF12C05E218E026C082E090E145
:1050700090930305809302056CE970E083EA9DE05C
:105080000E94970A10E000E017C083E090E0909340
:1050900003058093020580EE91E09093EC048093E9
:1050A000EB0480E491E09093EA048093E90443E008
:1050B000E42EF12C08E619E020910305822F829559
:1050C0008F7090E081709927909307058093060573
:1050D0000115110581F069E070E08FEF96E00E9404
:1050E0000409B701C8010E94040966E070E089EF75
:1050F00096E00E94040960E085EE94E00E940E0DA7
:1051000060E085EE94E00E94B90A809104059091D8
:1051100005058838944909F016C11092AE0120EEB9
:105120003FEF50E040E070E060E085EE94E00E94E8
:10513000840CF0901005E09011058091020580FF2D
:1051400003C00EE2F02EE12C80910405909105053C
:105150008230964119F41EE2F12EE12C10E000E0BD
:1051600030E020E050E040E070E060E085EE94E068
:105170000E94FC0A8091020580FD10C070E060E092
:1051800080910C0590910D050E94810970E060E00E
:1051900080910E0590910F050E94810943984298D5
:1051A00085B18C7F9E2D9370892B85B99BB19370AF
:1051B0002E2D2C7FE22EE92AEBB84198419A85B139
:1051C0008C7F9F2D9370892B85B99BB193703F2D58
:1051D0003C7FF32EF92AFBB84198419A429A84B158
:1051E0008C7F84B98AB183708AB92091020530918D
:1051F0000305809104059091050526FD0EC0409A97
:1052000040984098409843B149B1409A20FD05C06C
:10521000893842E1940709F08FC48131954139F40E
:10522000409A40984098409883B189B1409AB9011A
:1052300064707727409A40984098409824FF99C41A
:1052400093B189B193708C7F982B409A409A409883
:105250004098409843B189B143708C7F482B409A65
:10526000409A40984098409883B1E9B08370AE2D41
:10527000AC7F8A2B409A50E0672B09F465C4E82E76
:10528000F12CFE2CEE24EE24B8EFFB22B3E0440F09
:10529000551FBA95E1F7407E5770E42AF52A969596
:1052A00096959695E92A8091AE01882399F0C701D9
:1052B00005E0969587950A95E1F780729927A701F1
:1052C000569547954F715527842B952B40ECE4223A
:1052D000E82AF92A409A439A84B1836084B98AB152
:1052E0008C6F8AB920FD14C00091EF041091F00476
:1052F000015011092091ED043091EE042150310943
:1053000050E040E070E060E085EE94E00E94FC0A2E
:105310005FE1E5165FEFF506B1F486E08983AE0143
:105320004F5F5F4F61E08AE390E00E9450098091F7
:105330000205909103058F7E9093030580930205EB
:1053400081E08093AE0160E085EE94E00E940E0D56
:1053500070E060E085EE94E00E94611B70E060E028
:1053600085EE94E00E94611BB4E0EB2EB1E2FB2ECF
:1053700008E211E020EE30E04CE050E068E070E040
:1053800085EE94E00E94D51280EE9FEF9093F80492
:105390008093F7049093F6048093F50482E0809361
:1053A000F9048093FA0482E190E09093F2048093F0
:1053B000F10488E490E09093F4048093F3048EE881
:1053C0009EE00E94BA1216E4E12EF12CF092F20453
:1053D000E092F10484E690E09093F4048093F30467
:1053E00086E89EE00E94BA120FEF17E024EB30E04F
:1053F00047E850E06EE170E085EE94E00E94C21B49
:105400000FEF1FEF1093F8040093F7041093F604C6
:105410000093F50481E08093F9048093FA048DE20F
:1054200090E09093F2048093F1048EE990E09093E1
:10543000F4048093F3048CE69EE00E94BA128FEF8E
:1054400097E09093F8048093F7049093F604809388
:10545000F504F092F204E092F10486ED90E090936E
:10546000F4048093F30489E59EE00E94BA1210933D
:10547000F8040093F7041093F6040093F5048FE208
:1054800090E09093F2048093F1048AEF90E090937F
:10549000F4048093F3048FE39EE00E94BA1260E16B
:1054A00077E280E090E00E9498080E94C21A809300
:1054B000A60481118DC30E947E1B60E08091D304FD
:1054C0000E94220860E08091D4040E94220861E0DA
:1054D0008091D6040E94220861E08091D5040E9448
:1054E00022088091E104E091D904F091DA049081DE
:1054F000892B80838091E204E091DD04F091DE0449
:1055000090818095892380838091D3040E945E08D6
:105510008C018091D3040E945E089801281B390BEE
:105520002C5F3F4F912C2930310530F4800F911FB3
:1055300095958795992493940FEF13E0081B190B09
:1055400060E08091D6040E94220860E08091D5043A
:105550000E94220861E08091D3040E94220861E049
:105560008091D4040E9422088091E404E091DF0439
:10557000F091E00490818095892380838091E304F9
:10558000E091DB04F091DC049081892B8083809191
:10559000D5040E945E087C018091D5040E945E08BB
:1055A0006C01C7018C199D090496099708F0A3C3E3
:1055B000CE0CDF1CD594C79461E08091D6040E9484
:1055C000220860E08091D3040E9422088091E104C7
:1055D000E091D904F091DA04908180958923808349
:1055E0008091E404E091DF04F091E0049081892B44
:1055F00080838091D5040E945E087C018091D30451
:105600000E945E08BC01A090D704B090D804A114F9
:10561000B10409F472C3072E000C880B990B0E9489
:10562000A3342B013C01B701FF0C880B990B0E949E
:10563000A3349B01AC01C301B2010E94F33320E00B
:1056400030E040E85FE30E9481332B013C01B80168
:10565000012E000C880B990B0E94A334A301920128
:105660000E94A6352B013C01B50190E080E00E942C
:10567000A134A30192010E94A63520E030E040E869
:105680005AE30E94A6350E9465347B01911002C046
:10569000F12CE12C61E081E10E94220861E080E1CF
:1056A0000E94220861E081E10E94F40761E080E14C
:1056B0000E94F40789ECE81AF1089FE1E91693E0EB
:1056C000F90608F084C33091A4046091ED04709150
:1056D000EE04072E000C880B990BAFEFB3E0AC196A
:1056E000BD096D010D2C000CEE08FF088090EF0441
:1056F0009090F004092C000CAA08BB082801110F97
:1057000066087708311102C3A30192012D573109B0
:10571000410951090E9418362AE033E040E050E088
:105720000E94E7323B872A87A70196012158310959
:1057300041095109C501B4010E9418362DEE32E02D
:1057400040E050E00E94E7323D832C8311E08091DD
:10575000A604882309F43EC01123E1F18091A50439
:10576000811138C02091EF043091F00437FF02C05E
:105770002F5F3F4F359527958091ED049091EE0472
:1057800097FD0196959587954A845B84481A590A36
:10579000C2014096819708F01CC38C819D81821BB9
:1057A000930B4096819708F014C36091A40470E0B5
:1057B0006F5F7F4F637077276093A40485EE94E05A
:1057C0000E940E0D70E060E085EE94E00E94611B87
:1057D0000E9436221093A504C0909E04D0909F048E
:1057E000E090A004F090A1048091A604811108C368
:1057F0000E94CB086C197D098E099F096838734196
:105800008105910508F419C30E94CB0860939E049A
:1058100070939F048093A0049093A1040E94C21AE5
:105820008093A604882309F408C30E94F3178823F1
:1058300009F403C320E030E040E251E46091B10498
:105840007091B2048091B3049091B4040E94A63583
:105850000E9465346B0120E030E040E251E4609149
:10586000B5047091B6048091B7049091B8040E9479
:10587000A6350E94653486019B014DEA53E06EEA2D
:1058800073E086E294E00E94FB2220E030E040E2F8
:1058900051E46091B1047091B2048091B30490918D
:1058A000B4040E94A6350E9465346B0120E030E00C
:1058B00040E251E46091B5047091B6048091B70460
:1058C0009091B8040E94A6350E94653486019B0120
:1058D0004CEB52E06DEB72E085E393E00E94FB221B
:1058E00020E030E040E251E46091B1047091B204F4
:1058F0008091B3049091B4040E94A6350E9465344F
:105900006B0120E030E040E251E46091B504709119
:10591000B6048091B7049091B8040E94A6350E9405
:10592000653486019B014BEC51E06CEC71E084E442
:1059300092E00E94FB220E9436227FC283E194E023
:10594000909303058093020536E0E32EF12C02E6E6
:1059500019E0B2CB80E090E19093030580930205BB
:105960006CE970E087E09DE08BCB83E19EE0909353
:1059700003058093020580EE91E09093EC04809300
:10598000EB0480E491E09093EA048093E90402E060
:10599000E02EF12C01EC18E08FCB83E094E09093A3
:1059A00003058093020580EE91E09093EC048093D0
:1059B000EB0480E491E09093EA048093E90413E01F
:1059C000E12EF12C0EEB18E077CB83E194E090937D
:1059D000030580930205B1E4EB2EF12C0DE718E0EE
:1059E0006BCB83E194E19093030580930205A2E1E0
:1059F000EA2EF12C0BE618E05FCB83E194E18ECA2E
:105A000083E194E1909303058093020580EE91E099
:105A10009093EC048093EB0480E491E09093EA048B
:105A20008093E904EDE1EE2EF12C0CE418E044CB78
:105A300082E091E190930305809302056CEC70E0A5
:105A40008BED9AE01DCB83E094E090930305809367
:105A5000020580E991E09093EC048093EB0480EFE1
:105A600090E09093EA048093E9047EE1E72EF12C24
:105A70000EE218E021CB83E094E09093030580933D
:105A8000020566E0E62EF12C08E218E015CB87E16E
:105A900094E1E2CA83E194E1DFCA83E094E0DCCAE6
:105AA00083E194E0D9CA83E096E1D6CA83E194E029
:105AB000909303058093020580EE91E09093EC04AF
:105AC0008093EB0480E491E09093EA048093E904EE
:105AD00035E4E32EF12C0BE717E0EECA87E094E003
