:100000000C9415070C943D070C943D070C943D0788
:100010000C943D070C943D070C943D070C943D0750
:100020000C943D070C943D070C943D070C943D0740
:100030000C943D070C943D070C943D070C943D0730
:100040000C94AF220C943D070C943D070C943D0793
:100050000C943D070C943D070C943D070C943D0710
:100060000C94F9220C943D072D2D002D2D00250018
:1000700048554D4944495459006850610050524513
:100080005353555245003820484F555200323420C2
:10009000484F5552003120484F555200685061007A
:1000A000505245535355524500430054454D504519
:1000B000524154555245003820484F555200323471
:1000C00020484F5552003120484F555200430054AC
:1000D000454D504552415455524500436865636B48
:1000E00020332E335620616E6420474E4400534423
:1000F000413D443131202053434C3D443133004293
:100100004D45323830206E6F7420666F756E640016
:1001100000000000003E5B4F5B3E3E6B4F6B3E1CA1
:100120003E7C3E1C183C7E3C181C577D571C1C5EB8
:100130007F5E1C00183C1800FFE7C3E7FF0018248F
:100140001800FFE7DBE7FF30483A060E2629792939
:1001500026407F050507407F05253F5A3CE73C5A6E
:100160007F3E1C1C08081C1C3E7F14227F22145F4B
:100170005F005F5F06097F017F006689956A6060A6
:1001800060606094A2FFA29408047E040810207EA0
:10019000201008082A1C08081C2A08081E10101025
:1001A000100C1E0C1E0C30383E3830060E3E0E066B
:1001B000000000000000005F0000000700070014BE
:1001C0007F147F14242A7F2A12231308646236497D
:1001D0005620500008070300001C22410000412265
:1001E0001C002A1C7F1C2A08083E0808008070306A
:1001F00000080808080800006060002010080402D9
:100200003E5149453E00427F4000724949494621DE
:1002100041494D331814127F1027454545393C4A52
:100220004949314121110907364949493646494969
:10023000291E0000140000004034000000081422B1
:10024000411414141414004122140802015909061F
:100250003E415D594E7C1211127C7F494949363E20
:10026000414141227F4141413E7F494949417F0906
:100270000909013E414151737F0808087F00417F11
:1002800041002040413F017F081422417F4040400F
:10029000407F021C027F7F0408107F3E4141413EA7
:1002A0007F090909063E4151215E7F091929462629
:1002B0004949493203017F01033F4040403F1F202D
:1002C00040201F3F4038403F631408146303047804
:1002D00004036159494D43007F4141410204081024
:1002E00020004141417F040201020440404040405F
:1002F000000307080020545478407F2844443838CD
:1003000044444428384444287F385454541800083E
:100310007E090218A4A49C787F0804047800447D18
:1003200040002040403D007F1028440000417F40B5
:10033000007C047804787C08040478384444443809
:10034000FC1824241818242418FC7C0804040848E9
:100350005454542404043F44243C4040207C1C203A
:1003600040201C3C4030403C44281028444C909095
:10037000907C4464544C44000836410000007700EF
:1003800000004136080002010204023C2623263CFC
:100390001EA1A161123A4040207A38545455592187
:1003A000555579412254547842215554784020546F
:1003B0005579400C1E5272123955555559395454BD
:1003C000545939555454580000457C410002457D2C
:1003D000420001457C407D1211127DF0282528F055
:1003E0007C545545002054547C547C0A097F493282
:1003F000494949323A4444443A324A4848303A41F9
:1004000041217A3A42402078009DA0A07D3D4242A1
:10041000423D3D4040403D3C24FF2424487E49432A
:10042000662B2FFC2F2BFF0929F620C0887E09039D
:1004300020545479410000447D413048484A3238C4
:100440004040227A007A0A0A727D0D19317D2629F0
:10045000292F28262929292630484D4020380808E8
:10046000080808080808382F10C8ACBA2F1028341C
:10047000FA00007B000008142A142222142A14080F
:100480005500550055AA55AA55AAFF55FF55FF001E
:100490000000FF00101010FF00141414FF001010D3
:1004A000FF00FF1010F010F0141414FC001414F7E7
:1004B00000FF0000FF00FF1414F404FC14141710D4
:1004C0001F10101F101F1414141F00101010F00024
:1004D0000000001F101010101F10101010F010005E
:1004E0000000FF101010101010101010FF1000006E
:1004F00000FF140000FF00FF00001F10170000FCA9
:1005000004F414141710171414F404F40000FF007A
:10051000F714141414141414F700F7141414171403
:1005200010101F101F141414F4141010F010F00009
:10053000001F101F0000001F14000000FC1400002A
:10054000F010F01010FF10FF141414FF141010100E
:100550001F00000000F010FFFFFFFFFFF0F0F0F0C1
:10056000F0FFFFFF0000000000FFFF0F0F0F0F0F55
:100570003844443844FC4A4A4A347E0202060602A1
:100580007E027E0263554941633844443C04407E08
:10059000201E2006027E020299A5E7A5991C2A4981
:1005A0002A1C4C7201724C304A4D4D30304878480C
:1005B00030BC625A463D3E494949007E0101017EF8
:1005C0002A2A2A2A2A44445F444440514A4440404B
:1005D000444A51400000FF0103E080FF000008088A
:1005E0006B6B083612362436060F090F060000180A
:1005F000180000001010003040FF0101001F010131
:100600001E00191D1712003C3C3C3C00000000007D
:1006100011007F96290001007F9628003A0155C0FD
:10062000021010C10141C50400228040360168B0AB
:100630000100B102B011B40102B60302023BB701DE
:10064000C63A0155F704A9512C82B701C6E8084003
:100650008A00002919A533C0020D0DC1024300C252
:100660000100C50400480048B40100B60302023B83
:10067000E00F0F211C0B0E084998380911031410C4
:1006800000E10F0F2F2B0C0E0647763707110423BE
:100690001E00B00100B30402000000B40100D0034A
:1006A000074218D103000710D2020102D30201024F
:1006B000D4020102C005123B000211C103101088D0
:1006C000C50103C60102C80C00323645061637754F
:1006D00077540C00CC0100F603010100CF03008128
:1006E00030ED0464031281E803851078CB05392CC2
:1006F000003402F70120EA020000B00100B102005C
:100700001BB40100C00121C10111C5023F3CC7015A
:10071000B5360148F20100260101E00F0F26240B37
:100720000E0954A8460C17090F0700E10F00191B0A
:100730000410072A473903060630380F360100B87F
:100740000101C0010EB00100C10410100202C00678
:10075000003500000102C50104D2020104CA0100F3
:10076000EA0180B903FF83577F967F96B60125C0C3
:10077000065050013C1E08B4070240002A2A0D789A
:100780007F01F20B1616030808080810041616FD60
:1007900003110235B2050C0C003333B70135BB0130
:1007A0002BC00104C20201FFC30111C40120C60114
:1007B0000FD002A4A1E00ED000050E150D3743475F
:1007C0000915121619E10ED000050D0C062D444036
:1007D0000E1C1816193A01557F0A06000700B102CF
:1007E0000012B40102B60400202700CA0101CB01A7
:1007F00003C001137F14C501CCC60100C70104C8A2
:100800000103CC0106CD011CF9021515F3030A0200
:100810000AF603011000FA00FB00E2031E0254E096
:1008200001017F0AE001037F0A01007F64E6030300
:10083000FFFFB0072400031F01DF00B40803A0007E
:100840002E30000F00B607020D0010100008BA018C
:100850000FB8020701F001007F01280011007F643A
:100860002900BE0606F001F00000D0010DB0010322
:10087000E2013FC00122E20100B00100C0010AB064
:100880000100000000000000000000000000000067
:100890000000FFFF0F0000040062080008080003CA
:1008A000000C01030B5A020306090303171004038B
:1008B000002305030017060309630703090C080357
:1008C0000C10090332221000160011000101120061
:1008D0000000130001000001300301013702030191
:1008E000000D800200610201B0C1FFFF3200010073
:1008F00000010200000103003010090001000C009B
:100900000000900000800F000000100200001102A3
:10091000EF001202000013028F0100050000010524
:10092000000002055F000104010004040000FFFF55
:10093000320007000001FFFF320000020000010248
:1009400000000000000000000000000000000000A7
:100950000100A4000100FFFF0A006000002708005A
:100960000808300014023100153732000406330045
:10097000160E3400112235000015360007853700A9
:1009800007143800031439002000900015001000EF
:10099000100411003702290046002A004600070013
:1009A00000001200890113000011FFFF96001200E1
:1009B000B90101000001020000020300301009002B
:1009C00001000A0000000D0000000E003000610070
:1009D00001006A0000008000000081000000820029
:1009E0005F009200000193000107FFFF5000070025
:1009F0000001E500F07801000001020000020300A0
:100A00003010040000000500000008000702090083
:100A100000000A0000000C0000000D0000000F00A4
:100A20000000100000001100070012000000130079
:100A3000000007000100FFFFC80010009016110021
:100A40002702FFFF320012000D00FFFF32001300EB
:100A5000001229000A002B000D00FFFF32002000C9
:100A600000002100000030000000310004043200CA
:100A70000300350005043600080837000704380075
:100A80000303390007073C0004053D000808600027
:100A90000027610001006A00000080000000810062
:100AA0000000820000008300000084000000850038
:100AB0000000900010009200000007003301E500E4
:100AC0000080000001000100000102000007030097
:100AD00030100400000008000202090000000A00B3
:100AE00000000C0000000D0000000F0000001000CE
:100AF0000000110007001200000013000000FFFFBB
:100B000032001000B01711000700FFFF0A001200AA
:100B10003A01FFFF0A001300001A29000C00FFFF32
:100B20000A003000000031000505320004003500E5
:100B300006003600070737000501380002003900BB
:100B400007073C0004073D000708600000A761009C
:100B500001006A0000002100000020000000800069
:100B6000000081000000820000008300000084007B
:100B7000000085000000900010009200000093002B
:100B80000300950010019700000098000000070086
:100B90007301FFFF320001000001020000070300A3
:100BA000301008000203090000000A0008001000CD
:100BB0000000110005001200000013000000FFFFFC
:100BC00064001000B012FFFF320011000700FFFFA9
:100BD000320012008C001300001729002000FFFFD4
:100BE0003200300000003100060132000101350002
:100BF00006013600030237000000380007073900FD
:100C000004023C0006013D000301600000A76100F2
:100C100001009000300007003301FFFF3200150093
:100C200030009A001000110020001000283412003B
:100C3000020013003810FFFF280012001200FFFF0F
:100C400028001000203413004530FFFF460030001C
:100C500000003100020432000703330004033400B3
:100C6000040035000104360007073700050338008B
:100C70001006390010060100000102000003030005
:100C80003010080008080A00080060000027610012
:100C9000010090003E019200000193000001A000BD
:100CA0000030A3001000070001000700210007002A
:100CB0002300070033000700330111001A0012005F
:100CC000213113006C001400494210000008FFFF9E
:100CD0000A0011001A01FFFF0A0011001A03FFFFAA
:100CE0000A0011001A07FFFF0A0011001A0FFFFF88
:100CF0000A0011003A0FFFFF1E0001002801020048
:100D000000010300301007001210080003030B005D
:100D100000110C0000000F00011815002000500009
:100D20000101510003065200080453000000540062
:100D30000506550006045600030357000303580038
:100D400010005900001007001200FFFF28000700E4
:100D50001300070017004255494C442320004A6104
:100D60006E4665624D61724170724D61794A756E71
:100D70004A756C4175675365704F63744E6F764466
:100D80006563004275696C7420627920444A494168
:100D9000207573696E6720436F646578004C6F63DC
:100DA000616C20636C696D617465206174206120E1
:100DB000676C616E6365004D4F4E49544F5200455C
:100DC0004E5649524F4E4D454E54414C0000000086
:100DD00000240027002A000000000023002600292C
:100DE00000000000080002010000030407000000EA
:100DF00000000000000102040810204080010204ED
:100E0000081020010204081020000000002500281E
:100E1000002B00040404040404040402020202027D
:100E20000203030303030300142411241FBECFEFA6
:100E3000D8E0DEBFCDBF11E0A0E0B1E0E4E5FAE626
:100E400002C005900D92AC34B107D9F725E0ACE4AF
:100E5000B1E001C01D92AA32B207E1F717E0C5E187
:100E6000D7E004C02197FE010E940235C431D107AA
:100E7000C9F70E94A7240C9428350C94000008950B
:100E8000833081F028F4813099F08230A9F0089500
:100E90008730A9F08830C9F08430B1F480918000A7
:100EA0008F7D03C0809180008F77809380000895AC
:100EB00084B58F7784BD089584B58F7DFBCF8091F5
:100EC000B0008F778093B00008958091B0008F7D3F
:100ED000F9CFCF93DF93282F30E0F901EF51F24F94
:100EE0008491F901EB50F24FD491F901ED5EF14F8D
:100EF000C491CC23A1F081110E944007EC2FF0E0B7
:100F0000EE0FFF1FE952F24FA591B491EC91ED2342
:100F100081E090E009F480E0DF91CF91089580E0D6
:100F200090E0FACF1F93CF93DF93282F30E0F901A1
:100F3000EF51F24F8491F901EB50F24FD491F90146
:100F4000ED5EF14FC491CC23A9F0162F81110E94C0
:100F50004007EC2FF0E0EE0FFF1FE75FF14FA59188
:100F6000B4918FB7F894EC91111108C0D095DE239D
:100F7000DC938FBFDF91CF911F910895DE2BF8CFC7
:100F8000CF93DF9390E0FC01EB50F24F24918D5E04
:100F9000914FFC0184918823C9F090E0880F991F3C
:100FA000FC01E353F24FA591B491FC01E75FF14FCF
:100FB000C591D49161110DC09FB7F8948C91209583
:100FC00082238C938881282328839FBFDF91CF9130
:100FD0000895623051F49FB7F8943C91822F809528
:100FE00083238C93E8812E2BEFCF8FB7F894EC916D
:100FF0002E2B2C938FBFEACF8E3008F08E50877047
:10100000806480937C0080917A00806480937A0071
:1010100080917A0086FDFCCF8091780090917900D4
:1010200008953FB7F8948091BC049091BD04A091BD
:10103000BE04B091BF0426B5A89B05C02F3F19F090
:101040000196A11DB11D3FBFBA2FA92F982F882748
:10105000BC01CD01620F711D811D911D42E0660F23
:10106000771F881F991F4A95D1F708958F929F92F5
:10107000AF92BF92CF92DF92EF92FF926B017C0111
:101080000E9411084B015C01C114D104E104F10478
:10109000B9F00E941108681979098A099B09683E0C
:1010A00073408105910580F321E0C21AD108E1085F
:1010B000F10888EE880E83E0981EA11CB11CE4CFD5
:1010C000FF90EF90DF90CF90BF90AF909F908F9068
:1010D00008952FB7F8946091B8047091B904809185
:1010E000BA049091BB042FBF0895AF92BF92CF92E4
:1010F000DF92EF92FF920F931F93CF93DF936C01D8
:101100007B018B01040F151FEB015E01AE18BF08B8
:10111000C017D10759F06991D601ED91FC9101906A
:10112000F081E02DC6010995892B79F7C501DF9182
:10113000CF911F910F91FF90EF90DF90CF90BF90D4
:10114000AF9008950F931F93CF93DF93EC018B0122
:10115000FE0194913196649122969F3799F470E044
:1011600090E080E00E94360860E0E62FF0E03296E2
:101170000E1B1F0B101611065CF3DF91CF911F9110
:101180000F9108954398429885B18C7F292F237041
:10119000822B85B98BB183709C7F892B8BB9419849
:1011A000419A30E020E02617A8F4FE01E20FF31F79
:1011B000E491429A85B18C7F9E2F9370892B85B9DB
:1011C0008BB18370EC7FE82BEBB94198419A2F5F8C
:1011D0003F4FE9CFC60FD11D439AC7CF43984298DE
:1011E00025B12C7F392F3370232B25B92BB12370D8
:1011F0009C7F922B9BB94198419A95B19C7F282F57
:101200002370922B95B99BB193708C7F892B8BB9EE
:101210004198419A429AFA01615078F0219195B132
:101220009C7F822F8370982B95B98BB183702C7F14
:10123000822B8BB94198419AEFCF439A08954398F6
:10124000429825B12C7F392F3370232B25B92BB130
:1012500023709C7F922B9BB94198419A95B19C7FBA
:10126000282F2370922B95B99BB193708C7F892B7B
:101270008BB94198419A429A85B18C7F972F937090
:10128000892B85B98BB183707C7F782B7BB9419892
:10129000419A85B18C7F962F9370892B85B98BB13C
:1012A00083706C7F682B6BB94198419A439A08957B
:1012B00081E08093C00484B1836084B98AB18C6F6B
:1012C0008AB9389A399A3A9A3B9A3C9A439A409A00
:1012D000419A449A62E370E080E090E00E94360810
:1012E000449864E670E080E090E00E943608449AFA
:1012F00064E670E080E090E00E94360870E060E014
:1013000080EB90E00C941F091F93CF93DF93C82FBD
:10131000162F8091C004811102C00E945809439881
:10132000429885B18C7F85B98BB183708BB9419818
:10133000419A95B19C7F8C2F8370982B95B98BB176
:101340008370CC7F8C2B8BB94198419A429A84B19F
:101350008C7F84B98AB183708AB961E070E080E0E3
:1013600090E00E94360861E070E080E090E00E942A
:101370003608409A409840984098C3B1D9B1409AF5
:1013800061E070E080E090E00E943608409A40986A
:101390004098409883B199B1409A115020F7409AF3
:1013A000439A24B1236024B92AB12C6F2AB9C3709F
:1013B000DC7FCD2B83709C7F892B9C2FDF91CF917D
:1013C0001F9108950F931F93CF93DF938C0160E0DB
:1013D0000E948409EC0161E0C8010E9484098C012B
:1013E000BE0190E080E0CB017727662730E020E067
:1013F000602B712B822B932BDF91CF911F910F913B
:101400000895FF920F931F93CF93DF938C0160E0B9
:101410000E948409EC0161E0C8010E948409F82E51
:1014200062E0C8010E948409AE0170E060E0742FA0
:1014300066275527442700E030E020E0402B5F2955
:10144000622B732B292F30E0C901B0E0A0E08A01A4
:101450009B01082B192B2A2B3B2BC901B801DF91CB
:10146000CF911F910F91FF9008950F931F93CF93EA
:10147000DF93EC018B01FE0185919491FE01329680
:101480002496659174918F3F980771F490E080E005
:101490000E943608045011091016110664F3DF91FA
:1014A000CF911F910F9108950E941F09F3CFFC0166
:1014B000262F358D868D82958170982F9627692FDE
:1014C00070E072A361A330FF0CC0821307C080E2FA
:1014D00090E050E040E060E00C94EE0881E290E0A3
:1014E000F8CF878D90A1833927E7920741F058F410
:1014F000843521E0920791F080329445C1F4626016
:1015000081E094E012C0863223E99207C1F389306A
:1015100025EB9207A1F38532924949F4660F771FB4
:10152000660F771F636187E090E00C941F0981E6E6
:1015300090E0FBCF8F929F92AF92BF92CF92DF92BB
:10154000EF92FF920F931F93CF93DF9300D000D0C1
:10155000CDB7DEB77C014B015A016901FC01878DD3
:1015600090A18632954151F4F701868980FF06C02B
:10157000C801841B950B81F50F5F1F4FF701858D07
:1015800080FF31C085A599828A82DB82CC82AE0140
:101590004F5F5F4F64E090E00E94EE08F70181A981
:1015A000B982AA821B830C83AE014F5F5F4F64E058
:1015B00090E00E94EE080F900F900F900F90DF9137
:1015C000CF911F910F91FF90EF90DF90CF90BF9040
:1015D000AF909F908F9008952617370779F6C80E21
:1015E000D91E8A01CBCFB40187A190A50E941F0903
:1015F000B501F70181A592A50E941F09C814D9045D
:1016000019F40A151B05B9F2F701858D85FF08C08D
:10161000868980FF1EC0102F0027A02AB12A8501CD
:10162000B401F70185A596A50E941F09B501F70130
:1016300081A992A90E941F09B601F70187A590A967
:101640000E941F09B801F70183A994A90E941F09EC
:10165000B2CFDC2CCC248C289D286401E1CFAF9242
:10166000BF92CF92DF92EF92FF920F931F93CF938F
:10167000DF93EC018091BE01882349F0C701880FF8
:10168000991F8E739927E1ECEE22E82AF92A37FF99
:1016900005C0620F731F319521953109260F371F41
:1016A00077FF02C070E060E08885998528173907C8
:1016B0000CF4C9016C01C61AD70A17FF05C0400F08
:1016C000511F119501951109040F151F57FF02C0F5
:1016D00050E040E02A853B85021713070CF498017F
:1016E0005901A41AB50A8901015011099C01215020
:1016F0003109CE010E949A0A439842983BA58CA5D5
:1017000025B12C7F982F9370292B25B99BB193700D
:101710008C7F982B9BB94198419A95B19C7F832FE0
:101720008370982B95B98BB183703C7F832B8BB9D9
:101730004198419A429ACA14DB042CF09A2D8B2DC1
:101740005601C92ED82E8F2DA70193E056954795A7
:101750009A95E1F74C7F5E2D550F550F550F6F2D64
:1017600063707F2D7C7FEE2DE3702E2D2C7FE22E7B
:10177000887F1C141D040CF03FC09091BF0195019F
:10178000992311F195B19C7F95B99BB19370982BDA
:101790009BB94198419A95B19C7F95B99BB1937043
:1017A000942B9BB94198419A95B19C7F95B99BB177
:1017B0009370952B9BB94198419A2150310911F7AB
:1017C00091E0C91AD108D5CF95B19C7F962B95B9D8
:1017D0009BB19370972B9BB94198419A95B19C7F8F
:1017E0009E2B95B99BB193709E299BB94198419AC4
:1017F0002150310949F7E4CF439A8D8D80FF08C00D
:101800008F8D98A18632954191F48E8980FF0FC00B
:101810000A851B8501501109288539852150310918
:1018200050E040E070E060E0CE010E949A0ADF9153
:10183000CF911F910F91FF90EF90DF90CF90BF90CD
:10184000AF900895EF92FF920F931F93CF93DF9382
:101850007C01E90177FD6DC057FD6BC0FC018085FF
:101860009185681779070CF064C0828593854817C5
:1018700059070CF05EC08091BE01882341F0C90178
:10188000880F991F8E739927C17CC82BD92B8A0189
:101890009B01C7010E949A0A8091BF01882309F425
:1018A0004FC043984298F70133A584A525B12C7FFA
:1018B000982F9370292B25B99BB193708C7F982B0F
:1018C0009BB94198419A95B19C7F832F8370982B47
:1018D00095B98BB183703C7F832B8BB94198419A2A
:1018E000429A85B18C7F85B99BB18D2F887F93708B
:1018F000892B8BB94198419A85B18C7F85B92BB1E1
:10190000CE0133E0969587953A95E1F78C7F237069
:10191000822B8BB94198419A85B18C7F85B98BB167
:10192000CC0FCC0FCC0F8370C82BCBB94198419A08
:10193000439ADF91CF911F910F91FF90EF900895FF
:10194000BE01F70183A594A5DF91CF911F910F915F
:10195000FF90EF900C941F09EF92FF920F931F934B
:10196000CF93DF93CDB7DEB72A970FB6F894DEBFDB
:101970000FBECDBF7C01862F8370F701868B962F1B
:10198000917060FFE3C026813781F701318720879E
:10199000992309F4DEC024813581F701338722873A
:1019A000823009F4DBC0833009F4DAC0813009F4F5
:1019B000D3C088E48A87F701858D968D90FF03C098
:1019C0002A8520582A8791FF04C02A8530E42327DE
:1019D0002A8793FF04C02A8538E023272A87F70146
:1019E000278D30A180FF00C12431F8E63F0709F0C0
:1019F000B9C09A85892F88728A871F82892F859519
:101A00008074282F2260892F90E0959587958072A9
:101A10009927822B88878BE38987AE01495F5F4FC7
:101A200063E086EB90E00E94EE082AE230E0F701E6
:101A300030A727A38BE290E092A781A74CE250E069
:101A400054A743A736A725A730AB27A792AB81ABF6
:101A500094AB83ABAE01465F5F4F61E086E390E0FD
:101A60000E94EE088A8590E0F70194A383A3F70112
:101A7000868980FF1CC0858D968D92FD18C087A138
:101A800090A521A532A530A727A392A781A785A558
:101A900096A521A932A936A725A792AB81AB87A528
:101AA00090A923A934A930AB27A794AB83ABF70146
:101AB0000285138501501109208531852150310996
:101AC00050E040E070E060E0C7010E949A0AF70130
:101AD00066817781878D90A120E08732F3E99F07A7
:101AE00009F420E2F701358D30FF39C119821A82DD
:101AF0007B836C831D822E83AE014F5F5F4F66E058
:101B000083E390E00E94EE0819821A82AE014F5FD3
:101B10005F4F62E087E390E00E94EE08F701858D59
:101B200080FF07C050E040E060E083E190E00E9469
:101B3000EE082A960FB6F894DEBF0FBECDBFDF9138
:101B4000CF911F910F91FF90EF90089524813581DF
:101B50001CCF2681378121CF88E22CCF88E92ACF7C
:101B600088EF28CF273243E9340789F41F8281E3C5
:101B700088878A85859585958595859588708987D7
:101B8000AE01495F5F4F63E080EC90E04CCF2336BD
:101B900089E1380749F02138E4E93E0729F021318D
:101BA000F5E13F0709F041CF8A8587FF02C08160D8
:101BB0008A878A8586FF02C082608A878A858F73BA
:101BC000233649E1340731F0213884E9380721F41C
:101BD0008A858F728A8729CF2131354109F025CF37
:101BE0008A858F7E806CF6CF6A85862F062E000C44
:101BF000990B2339F7E73F0751F0A8F52435E1E0C9
:101C00003E0709F45CC02032F4E53F07A1F540E04F
:101C100052E0F70150A747A341E052E052A741A785
:101C200042E052E054A743A740E152E056A745A73F
:101C300041E152E050AB47A742E152E052AB41AB29
:101C400043E152E054AB43AB882790782632F3E966
:101C50003F0721F02032344509F071C067FD8460F0
:101C600060E071E36EC0263243E9340781F2293027
:101C7000E5EB3E0761F220E230E0F70130A727A351
:101C800021E230E032A721A722E230E034A723A7E7
:101C900020E530E036A725A721E530E030AB27A7C7
:101CA00022E530E032AB21AB23E530E034AB23ABAF
:101CB000BC0166277078776280E690E046C027E333
:101CC00030E0F70136A725A726E330E030AB27A7A1
:101CD00029E330E032AB21AB28E330E034AB23AB77
:101CE00020E230E030A727A321E230E032A721A78D
:101CF00022E230E034A723A7F4E06F9FB001112463
:101D000066277170882792708862682B792B81E032
:101D100090E00E941F098A85682F70E0759567958D
:101D2000759567956870772783FD70616063F7012B
:101D300074A363A383E090E00E941F0998CE60E043
:101D400072E6682B792B80E094E00E941F096A8577
:101D5000F4E06F9FB001112466277170D8CF8339EA
:101D6000F7E79F07D9F1F0F4803244E59407B1F129
:101D70008338E7E79E0731F184359140F1F46150F3
:101D8000710981E390E00E941F0970E060E082E346
:101D900090E00E941F0970E060E083E390E00E9401
:101DA0001F09C7CE863223E99207C1F0893045EB7F
:101DB0009407A1F08532924911F3F70161A172A154
:101DC000626003C0F70161A172A181E690E00E9408
:101DD0001F0970E060E08AE690E0E1CFF70161A1C1
:101DE00072A1626081E094E00E941F0970E060E0EF
:101DF00084E094E0D4CF20917401260F3327331F61
:101E000021323105ECF420919801FC0190E080E052
:101E1000243069F082E00895A09174012191AC0111
:101E20004C5A5E4FA40FB52FB11D2C930196861707
:101E300098F380917401680F6093740180E00895B5
:101E400081E008958FEF9FEF08958FEF9FEF089542
:101E500080914D0190E09195819591090895CF93DE
:101E6000DF93CB01EA01642F0E94FB0ECE01DF91CC
:101E7000CF910895CF93DF931F92CDB7DEB76983DB
:101E800061E0CE0101960E94FB0E81E090E00F9090
:101E9000DF91CF9108950895FC016370668B848172
:101EA000958126813781613039F0633029F091873F
:101EB0008087338722870895318720879387828799
:101EC00008952F923F924F925F926F927F928F92DE
:101ED0009F92AF92BF92CF92DF92EF92FF920F93B9
:101EE0001F93CF93DF93CDB7DEB76A970FB6F89401
:101EF000DEBF0FBECDBF9A8F898F7A8369834A0177
:101F0000D22E18870F833701BC2CDC0159962D91F6
:101F10003C915A972115310509F015C118968D91FC
:101F20009C911997681779070CF0D7C11A968D9173
:101F30009C91481759070CF0D0C14C2C512CB6E09D
:101F4000CB9E600D711D11247C876B8716161706BA
:101F50000CF0C3C1EA2DF0E0FA87E98793E0EE0FB9
:101F6000FF1F9A95E1F7F88BEF87CF01840F951F3C
:101F7000181619060CF0B1C1A98DBA8D58968C911E
:101F8000811104C0BFEABD1508F4D394A98DBA8DA0
:101F9000ED91FC9111970284F385E02DCD01099517
:101FA000B5E0DB9EC0011124E981FA81FC83EB835B
:101FB000312C212C9C01205F3E4F388F2F8B4A2DD6
:101FC00050E05E8B4D8BEF89F88DE20DF31D44914F
:101FD0009E828D82D12CC12C69817A81620D731D04
:101FE0007A8B698B842F90E09C8B8B8BE98DFA8D9B
:101FF000A081B18140FF82C0F1E0BF126FC0AF127B
:102000006DC01C96ED91FC912F813885A4014C0D7B
:102010005D1D69897A89898D9A8D0995EB89FC897D
:10202000F595E7954E2F5FEFC51AD50A6D817E8134
:102030008D899E89680F791F7E836D8398E0C9160C
:10204000D10481F6AFEF2A1A3A0AEB81FC81E40D44
:10205000F51DFC83EB83F5E02F16310409F0B3CFB7
:102060002F81388526153705B9F0A98DBA8DED91E8
:10207000FC91B1E0BB1257C0AB1255C069817A81A7
:102080006B5F7F4F0088F189E02D830128E030E00D
:10209000A401898D9A8D0995A98DBA8DED91FC9138
:1020A00011970688F789E02DCD016A960FB6F8944E
:1020B000DEBF0FBECDBFDF91CF911F910F91FF907B
:1020C000EF90DF90CF90BF90AF909F908F907F90D8
:1020D0006F905F904F903F902F9009941E96ED91D6
:1020E000FC91EF80F88409851A8592014D815E810B
:1020F0006B817C81898D9A8D099590CF2F81388550
:102100002615370509F48ACF31E0B31207C0A312B0
:1021100005C01C96ED91FC91930178CF1E96ED9130
:10212000FC917301E0CF6B857C8564197509068489
:10213000F785E02D73010F8518899201A401898D1F
:102140009A8D0995A9CFF9013496949132974591CA
:102150005491D91AB7E0DB9E400D511D1124F901AD
:10216000259134913C8B2B8BFA0125903490FA0108
:102170003296749031963491398B329664903196C0
:10218000449041E04C1518F04A1508F07FC0662DC8
:10219000062C000C770B7C836B83842D042C000CA5
:1021A000990B9E838D83A98DBA8DED91FC9111972A
:1021B0000284F385E02DCD010995512CD12CC12C41
:1021C000EA2DF0E0FA87E9872B2D30E03C872B875A
:1021D000A401440D511D47FC5A95588F4F8B6981BE
:1021E0007A81660D711D67FC7A957E876D87798986
:1021F000C71608F051CF2C2D30E04D815E81420F83
:10220000531FA985BA854A9FC0014B9F900D5A9FC5
:10221000900D1124FC01E80DF91DF88BEF87852D39
:10222000612C4F89588D420F531F5E8B4D8B671465
:1022300008F050C044244394480E877041F4C10113
:102240000196EB89FC89E20DF31DD4901C01D7FEA9
:1022500019C0A98DBA8DED91FC91662D70E0B1E0A9
:10226000BB1219C0AB1217C02D853E85620F731FBC
:102270000484F585E02D2F8138854D895E89898D0F
:102280009A8D0995DD0C6394842DD1CF1E821D8219
:102290001C821B8288CF4B815C81640F751FAB85CC
:1022A000BC856A9FC0016B9F900D7A9F900D112491
:1022B00069817A81680F791F0684F785E02DEF80A8
:1022C000F88409851A859D014F855889898D9A8DD5
:1022D0000995D8CF570CC3948ACF6A960FB6F89455
:1022E000DEBF0FBECDBFDF91CF911F910F91FF9049
:1022F000EF90DF90CF90BF90AF909F908F907F90A6
:102300006F905F904F903F902F9008958F929F9283
:10231000AF92CF92EF92FF920F931F93CF93DF93E1
:10232000EC01262F898D9A8D009709F051C06A30F3
:10233000D1F41D861C868D8948E0849F900111246C
:102340008E859F85820F931F9F878E8781E090E007
:10235000DF91CF911F910F91FF90EF90CF90AF90B1
:102360009F908F9008956D3089F3CC88AD888F89C8
:102370008823C1F08C859D8536E0C39E800D911D1C
:102380001124488559854817590764F44E855F859F
:102390001D861C8638E0A39EC0011124840F951F62
:1023A0009F878E87EA88FB88088919894E855F8513
:1023B0006C857D85CE010E94610F2C898C859D8561
:1023C00046E0249F800D911D11249D878C87BECFF0
:1023D0006A3069F41D861C86FC013896E4912D89CB
:1023E0008E859F85E29F800D911D1124ADCF6D30AC
:1023F00009F4ACCFFC0134963491631708F4A6CFEE
:102400003296E491E61708F4A1CFFC01329685904C
:102410009490462F431B342F47E0349F800C911C2F
:102420001124F401329634913196E4913323A9F1C9
:10243000EE2399F1CC88F4013596E491AD884F896B
:10244000442301F10E2E000CFF0BE30FF11DCE9E75
:10245000A001CF9E500D11246C857D85460F571F1E
:1024600068857985641775076CF44E855F851D86D0
:102470001C86FC013896E491AE9E400D511D11243E
:102480005F874E87EA88FB88088919894E855F85B2
:102490006C857D85CE010E94610FF4013496E49134
:1024A0002C898C859D85E29F800D911D11248DCFF7
:1024B0000F931F93CF93DF938C01D0E0C0E0F8011E
:1024C000EC0FFD1F6491662341F085EF94E00E94BC
:1024D0008611892B11F02196F2CFCE01DF91CF9199
:1024E0001F910F9108956F927F928F929F92AF925A
:1024F000BF92CF92DF92EF92FF920F931F93CF93F1
:10250000DF93EC016B015A0139014801E881F9813F
:102510000284F385E02D0995E881F9810288F38929
:10252000E02D87019301A501B601CE010995A50112
:10253000480D591D41505109E881F9810288F389FC
:10254000E02D9301B601CE010995E881F98100885B
:10255000F189E02D9401A501B601CE010995C60CC3
:10256000D71CB60161507109E881F9810088F189B1
:10257000E02D9401A501CE010995E881F981068835
:10258000F789E02DCE01DF91CF911F910F91FF9040
:10259000EF90DF90CF90BF90AF909F908F907F9003
:1025A0006F9009946F927F928F929F92AF92BF9299
:1025B000CF92DF92EF92FF920F931F93CF93DF930F
:1025C0005C01EB016A01490138018701DC01ED91F1
:1025D000FC916217730719F5641675062CF0962D99
:1025E000872D3A01C92ED82E9601261937092F5F5B
:1025F0003F4F048CF58DE02DA301BE01C501099567
:10260000DF91CF911F910F91FF90EF90DF90CF90CE
:10261000BF90AF909F908F907F906F9008954615D8
:10262000570591F42617370724F0892D4B01C22F47
:10263000D82F9E01281939092F5F3F4F068CF78D3F
:10264000E02DA601B401DACF0284F385E02D0995CF
:10265000D501ED91FC910488F589E02D8301940169
:10266000A601BE01C5010995D501ED91FC91068831
:10267000F789E02DC501DF91CF911F910F91FF9058
:10268000EF90DF90CF90BF90AF909F908F907F9012
:102690006F900994EF92FF920F931F93DC011A96AB
:1026A0000D911C911B9718962D913C911997ED91C6
:1026B000FC9100A0F1A1E02D7B0150E040E070E032
:1026C00060E009951F910F91FF90EF9008954F9250
:1026D0005F926F927F928F929F92AF92BF92CF92B2
:1026E000DF92EF92FF920F931F93CF93DF936C01D2
:1026F0002B015A0139014801DC01ED91FC91028462
:10270000F385E02D0995E201640C751CD601ED916D
:10271000FC91C615D7055CF40088F189E02D87018E
:102720009401A501BE01C60109952196EFCF068847
:10273000F789E02DC601DF91CF911F910F91FF9096
:10274000EF90DF90CF90BF90AF909F908F907F9051
:102750006F905F904F9009948F929F92AF92BF922B
:10276000CF92DF92EF92FF920F931F93CF93DF935D
:10277000EC015B014A016901E881F9810284F3857A
:10278000E02D099595012C0D3D1D21503109E88161
:10279000F9810488F589E02D78018401A401B5014F
:1027A000CE010995E881F9810688F789E02DCE01EF
:1027B000DF91CF911F910F91FF90EF90DF90CF901D
:1027C000BF90AF909F908F9009948F929F92AF92FD
:1027D000BF92CF92DF92EF92FF920F931F93CF930E
:1027E000DF93EC015B014A0169017801E881F9811D
:1027F0000284F385E02D0995C80CD91C860101508F
:102800001109E881F9810488F589E02D9501A40179
:10281000B501CE010995E881F9810688F789E02D97
:10282000CE01DF91CF911F910F91FF90EF90DF903C
:10283000CF90BF90AF909F908F900994EF92FF92AE
:102840000F931F93DC01ED91FC9100A0F1A1E02D0D
:1028500009951F910F91FF90EF9008950F931F938B
:10286000DC01ED91FC91068CF78DE02D09951F910F
:102870000F9108950F931F93DC01ED91FC91048C4F
:10288000F58DE02D09951F910F910895DC01ED91D3
:10289000FC910084F185E02D09942F923F924F9294
:1028A0005F926F927F928F929F92AF92BF92CF92E0
:1028B000DF92EF92FF920F931F93CF93DF9300D09D
:1028C00000D0CDB7DEB77C018B015C834B8381E008
:1028D00090E05C01A41AB50A1A01319421943108E0
:1028E000220C331C460F571F2FEF3FEFB70185EF28
:1028F00094E00E944614A8012B813C81421B530B9B
:102900002FEF3FEFB70185EF94E00E9446146B81F3
:102910007C816E0D7F1D2FEF3FEFA80185EF94E0C6
:102920000E944614B7018B819C81681B790B2FEFA5
:102930003FEFA80185EF94E00E94461421E030E0CB
:102940003A832983D12CC12CB7FC0AC08B819C818E
:1029500001979C838B8392E0290E311CA20CB31C3F
:102960002FEFC21AD20A89819A8102969A838983AB
:10297000A80EB91E36016E0C7F1C2FEF3FEF8B8027
:102980009C80800E911EA401B30185EF94E00E940B
:10299000461427014C185D082FEF3FEFA401B20148
:1029A00085EF94E00E9446142FEF3FEF48018B81A2
:1029B0009C81881A990AA401B30185EF94E00E94D2
:1029C00046142FEF3FEFA401B20185EF94E00E947F
:1029D00046144601800E911E2FEF3FEFA4016B803D
:1029E0007C806E0C7F1CB30185EF94E00E9446143E
:1029F0002FEF3FEFA40127018B819C81481A590AD0
:102A0000B20185EF94E00E94461448018C189D089D
:102A10002FEF3FEFA401B30185EF94E00E9446142D
:102A20002FEF3FEFA401B20185EF94E00E9446141E
:102A30002B813C81C216D3060CF486CF0F900F90E9
:102A40000F900F90DF91CF911F910F91FF90EF901A
:102A5000DF90CF90BF90AF909F908F907F906F90BE
:102A60005F904F903F902F9008952F923F924F92FA
:102A70005F926F927F928F929F92AF92BF92CF920E
:102A8000DF92EF92FF920F931F93CF93DF9300D0CB
:102A900000D000D0CDB7DEB73C016A013E832D8364
:102AA000FC82EB825801A41AB50AB7FE03C0B194A8
:102AB000A194B1088D809E80861A970A97FE03C064
:102AC0009194819491088A149B045CF0902F812F3B
:102AD0000D811E819D838E839C2D8D2D6B01692F11
:102AE000782F0C151D055CF09D818E817E836D8392
:102AF000692F782F902F812F8601C92ED82E16018D
:102B0000201A310A2B012D813E81421A530A57FEA9
:102B100003C0519441945108710137FE03C03FEF47
:102B2000E31AF30AF594E7948D819E81861797073F
:102B30005CF5A1E0B0E0BA83A983C016D1064CF1E0
:102B4000D301ED91FC910484F585E02D2B813C812E
:102B5000A8016D817E818A149B041CF04D815E81E9
:102B6000B801C3010995E418F508F7FE0AC02D81E4
:102B70003E8189819A81280F391F3E832D83E20C83
:102B8000F31C0F5F1F4FD9CF2FEF3FEF3A832983FD
:102B9000D4CF26960FB6F894DEBF0FBECDBFDF911F
:102BA000CF911F910F91FF90EF90DF90CF90BF904A
:102BB000AF909F908F907F906F905F904F903F90DD
:102BC0002F900895089590E080E008958FE090E0C0
:102BD0000197F1F7089562E00C94C007CF93C82FD6
:102BE00061E00E94C00760E08C2FCF910C949207A7
:102BF000CF93DF93D82FC8E08BE0D7FF27C00E9488
:102C0000EB150E94E6158DE00E94EB150E94E6157B
:102C10008DE00E94EE15DD0FC15071F78BE00E9430
:102C2000EB150E94E6158DE00E94EB150E94E6155B
:102C30008BE00E946907EC018DE00E94EE1581E0B7
:102C4000CD2B09F080E0DF91CF9108950E94EE1521
:102C5000D8CF8BE00E94EE158DE00E94EB150E940C
:102C6000E6158BE00E94EB150C94E6158BE00E94B4
:102C7000EB158DE00E94EB150E94E6158BE00E949B
:102C8000EE150E94E6158DE00C94EE159F92AF9222
:102C9000BF92CF92DF92EF92FF920F931F93CF9349
:102CA000DF93D82F162FF72EC42E0E943616C09110
:102CB0004C018C2F880F0E94F815882329F08D2F46
:102CC0000E94F815811110C00E94291600E0802F83
:102CD000DF91CF911F910F91FF90EF90DF90CF90F8
:102CE000BF90AF909F9008950E9436168C2F880F4A
:102CF00081600E94F815082F882331F3912EC12F8F
:102D0000DF2DEE24E394F12CAC2CB12C8BE00E944F
:102D1000EB1588E0D82E10E0110F8DE00E94EB1526
:102D20000E94E6158BE00E946907892B09F011606B
:102D30008DE00E94EE150E94E615DA94D110ECCFDA
:102D40008BE0EA14FB04C4F40E94EE158DE00E94AF
:102D5000EB150E94E6158DE00E94EE158BE00E94B7
:102D6000EB1519938FEFE81AF80A8C2F89198C1537
:102D700068F20E942916ABCF0E94EB15E7CF2F9285
:102D80003F924F925F926F927F928F929F92AF92FB
:102D9000BF92CF92DF92EF92FF920F931F93CF9348
:102DA000DF93CDB7DEB76F970FB6F894DEBF0FBED7
:102DB000CDBF46E0BE016F5F7F4F87EF0E94461692
:102DC0008A8B81111BC01A8A8A896F960FB6F89474
:102DD000DEBF0FBECDBFDF91CF911F910F91FF904E
:102DE000EF90DF90CF90BF90AF909F908F907F90AB
:102DF0006F905F904F903F902F90089589808D8EB7
:102E00009A809E8E8B808F8E8C8190E0B0E0A0E0C7
:102E10001CE0880F991FAA1FBB1F1A95D1F74D817F
:102E200050E070E060E004E0440F551F661F771F1C
:102E30000A95D1F7842B952BA62BB72B2E8130E04A
:102E400044E0359527954A95E1F7032E000C440B95
:102E5000550B822B932BA42BB52B4091DF04509163
:102E6000E00470E060E06C017D01E4E0F594E7943B
:102E7000D794C794EA95D1F7C41AD50AE60AF70A97
:102E8000F3E0B595A79597958795FA95D1F7440FF7
:102E9000551F661F771F4C015D01841A950AA60A0B
:102EA000B70AA5019401A091DD04B091DE040E944F
:102EB00077304B015C010BE0B594A794979487940D
:102EC0000A95D1F7A7019601C701B6010E944733C1
:102ED0009B01AC018CE055954795379527958A95D0
:102EE000D1F7A091DB04B091DC040E9477306B0134
:102EF0007C019EE0F594E794D794C7949A95D1F716
:102F0000C80CD91CEA1CFB1CA5E0B0E0A701960187
:102F10000E946C3060587F4F8F4F9F4F672F782FE4
:102F2000892F992787FD9A950E94D23120E030E0C1
:102F300048EC52E40E9422316093C5047093C604A9
:102F40008093C7049093C80446015701BB0C8808BE
:102F5000982C54019601A701682D782D882D982D65
:102F6000345F4140510961097109810991092F8339
:102F7000388749875A876B877C878D879E87590159
:102F80006A017B018C010E946B332F87388B498B40
:102F9000588F698F7A8F8B8F9C8F3091D2042091BC
:102FA000D104932F990F990B492F592F692F792FFE
:102FB000892F0E946B330CE00E949A34722E832E6C
:102FC000942E652E562E472E382E292E3091D4045D
:102FD0002091D304932F990F990BAF84B888C98897
:102FE000D88CE98CFA8C0B8D1C8D492F592F692FA9
:102FF000792F892F0E946B3308E00E94B334A72CED
:10300000B82CC92CD62CE52CF42C032D122D0E94A3
:10301000D03470588F4F9F4F2090CF043090D00401
:103020005101C12CD12CE12CF12C00E010E00E94C8
:103030006B3301E20E94B3342B8B3C8B4D8B5E8B48
:103040006F8B272E382E492EA0E00E94E23409F41F
:10305000BACE3091DA042091D904932F990F990BAD
:10306000AF84B888C988D88CE98CFA8C0B8D1C8DFC
:10307000492F592F692F792F892F0E946B332F8762
:10308000388B498B552E3B014C013091D80420914F
:10309000D704932F990F990BAF80B884C984DA8431
:1030A000EB84FC840D851E85492F592F692F792FBC
:1030B000892F0E946B3301E10E949A34AF84B88853
:1030C000C988D52C730184010E94D03459016A014A
:1030D0007B01582E192F9D8C492D50E070E060E047
:1030E0008CE0440F551F661F771F8A95D1F78E8C91
:1030F000882D90E0B0E0A0E024E0880F991FAA1F7F
:10310000BB1F2A95D1F7842B952BA62BB72B9F8C11
:10311000292D30E044E0359527954A95E1F7A9013E
:10312000330F660B770B482B592B6A2B7B2B80E0D8
:1031300090E0A0E1B0E0841B950BA60BB70B3C011F
:103140004D01990C6608762C43019C01AD01662D5A
:10315000762D862D962D0FE10E949A3439014A0171
:10316000B62FA72FF82FE92F3091D6042091D50440
:10317000932F990F990B492F592F692F792F892F49
:1031800003E20E949A34052D0E94D03459016A014D
:103190007B018C019301A4016B2F7A2F8F2F9E2F1F
:1031A0000E94D934E5E3AE2EFCE0BF2EC12CD12C19
:1031B000E12CF12C00E010E00E946B33AB88BC885E
:1031C000CD88DE88EF88F22C032D142D0E94C533A4
:1031D0002F83388749875A876B877C878D879E879F
:1031E0000DE00E94B334922E832E742E652E562E3F
:1031F000472E382E292E3091CE042091CD04932FC6
:10320000990F990BA92CB82CC72CD62CE52CF42C93
:10321000032D122D492F592F692F792F892F0E94A5
:103220006B330E946B3309E10E94B334AF80B884E2
:10323000C984DA84EB84FC840D851E850E94D03419
:1032400019012A013B014C013091CC042091CB049F
:10325000932F990F990B492F592F692F792F892F68
:103260000E946B3303E10E94B33459016A017B0170
:103270008C019101A201B301C4010E94D03408E085
:103280000E94B33459016A017B01E82F192F309154
:10329000CA042091C904932F990F990B492F592FD4
:1032A000692F792F892F04E00E949A340E2F0E94F3
:1032B000D0340E94CA3120E030E040E85BE30E9455
:1032C000D53220E030E048EC52E40E942231609395
:1032D000C1047093C2048093C3049093C40474CD5A
:1032E000CF93DF93D82FC62F0E94361680914C01C2
:1032F000880F0E94F815811107C0C0E00E942916AE
:103300008C2FDF91CF9108958D2F0E94F81588237F
:10331000A1F38C2F0E94F815C82FF0CF0F931F93A5
:10332000CF93DF93CDB7DEB76B970FB6F894DEBFC0
:103330000FBECDBF8BE00E94EB158DE00E94EB1518
:103340001B8E86E7898F87E78A8F02E010E0E0E036
:1033500089E190E08C0F9D1F8E0F911DFC018081F3
:1033600080934C0141E0BE01655E7F4F80ED0E947D
:103370004616882319F08B8D8036A1F0E1E00130EC
:10338000110569F410E0812F6B960FB6F894DEBF3B
:103390000FBECDBFDF91CF911F910F91089501E036
:1033A00010E0D6CF48E1BE016F5F7F4F88E80E94F2
:1033B0004616182F882331F389819A819093E0046F
:1033C0008093DF048B819C819093DE048093DD04E5
:1033D0008D819E819093DC048093DB048F8198859E
:1033E0009093D0048093CF0489859A859093D204DA
:1033F0008093D1048B859C859093D4048093D304CF
:103400008D859E859093D6048093D5048F85988969
:103410009093D8048093D70489899A899093DA0489
:103420008093D9048B899C899093CA048093C904A2
:103430008D899E899093CC048093CB048F89988D3D
:103440009093CE048093CD0467E284EF0E947019BC
:1034500060EA85EF0E94701996CF8F929F92AF928B
:10346000BF92CF92DF92EF92FF92CF93DF93C82F5C
:103470006A017B010E9411084B015C01D0E083E1ED
:103480000E9469078C179D07B9F00E9411086819FE
:1034900079098A099B09C616D706E806F90678F75E
:1034A00080E0DF91CF91FF90EF90DF90CF90BF90C1
:1034B000AF909F908F90089581E0F3CF4F925F92ED
:1034C0006F927F928F929F92AF92BF92CF92DF9234
:1034D000FF920F931F93CF93DF9300D000D01F92E2
:1034E000CDB7DEB7CE0101965C0185E0F501119202
:1034F0008A95E9F761E083E10E94C00760E083E11B
:103500000E94920764E170E080E090E00E9436083B
:1035100061E083E10E94920783E790E00197F1F771
:1035200062E083E10E94C00748E750E060E070E09D
:1035300080E00E942D1A882309F489C048E750E0F2
:1035400060E070E081E00E942D1A882309F47FC0BA
:1035500048E750E060E070E080E00E942D1A882388
:1035600009F475C000E044E650E060E070E081E0FE
:103570000E942D1A882309F46AC00E9411082B01A9
:103580003C0148E750E060E070E080E00E942D1AC6
:10359000F82E882309F45BC0C02EC694C694C69446
:1035A000CA0CDB2CD11CF6011081110F10830E9474
:1035B0001108641975098609970969327105810531
:1035C000910518F01160F60110830F5F083259F66B
:1035D00019816A81812F860F9B81890F9C81890FB8
:1035E0009D81891334C070E090E080E00E94D23168
:1035F0002DEC3CEC4CEC5DE30E94D5324B015C01C0
:10360000612F70E090E080E00E94D2319B01AC011C
:10361000C501B4010E94B1304B015C0180920001F0
:1036200090920101A0920201B092030120E030E0EB
:10363000A9010E94D03287FD0AC020E030E048ECAA
:1036400052E4C501B4010E941D3118160CF4F12C8E
:103650008F2D0F900F900F900F900F90DF91CF91C3
:103660001F910F91FF90DF90CF90BF90AF909F90F0
:103670008F907F906F905F904F900895EF92FF92A0
:103680000F931F93DC011A960D911C911B971896AE
:103690002D913C911997ED91FC9100A0F1A1E02DA5
:1036A0007B0150E040E070E060E009951F910F91D0
:1036B000FF90EF9008950F931F93CF93DF9370E0E7
:1036C00060E085EF94E00E943E1BC5EFD4E080E00F
:1036D00098EF9B8B8A8B998B888B82E08C8B8D8B60
:1036E00086E190E09D878C8780E590E09F878E87BC
:1036F0008FEF90E00E9458128FEF9FEF9B8B8A8B89
:10370000998B888B81E08C8B8D8B0FE010E01D876F
:103710000C878DE790E09F878E878EEE90E00E9469
:1037200058121D870C8781E990E09F878E878BED6B
:1037300090E0DF91CF911F910F910C945812EF926E
:10374000FF920F931F93DC01ED91FC9100A0F1A17A
:10375000E02D780101E010E009951F910F91FF9095
:10376000EF900895EF92FF920F931F93DC01ED917C
:10377000FC9100A0F1A1E02D7801890121E030E069
:1037800009951F910F91FF90EF900895FC01019012
:103790000020E9F73197AF01481B590BBC0185EFB9
:1037A00094E00C9475088F929F92AF92BF920F9302
:1037B0001F93CF93DF93CDB7DEB7A1970FB6F894E1
:1037C000DEBF0FBECDBF19A2423008F44AE08E0121
:1037D0000F5D1F4F842E912CB12CA12CA5019401BB
:1037E0000E947F30E62FB901CA01EA30F4F4E05DAF
:1037F000D801EE938D01232B242B252B79F790E014
:1038000080E0109719F0CD010E94C61BA1960FB65B
:10381000F894DEBF0FBECDBFDF91CF911F910F9106
:10382000BF90AF909F908F900895E95CE1CF4F9249
:103830005F926F927F928F929F92AF92BF92CF9240
:10384000DF92EF92FF920F931F93CF936B017C0156
:10385000742EAC019B010E944233882399F083E3CC
:1038600091E0CF911F910F91FF90EF90DF90CF905B
:10387000BF90AF909F908F907F906F905F904F9090
:103880000C94C61B46015701E894B7F82FEF3FEFA1
:103890004FE75FE7C501B4010E94423381110DC0BB
:1038A0002FEF3FEF4FE75FE7C501B4010E941D31E5
:1038B00018161CF487E391E0D4CF2FEF3FEF4FE7CA
:1038C0005FE4C701B6010E94D03218161CF48BE3E6
:1038D00091E0C7CF2FEF3FEF4FE75FECC701B60195
:1038E0000E941D3187FDF3CF20E030E0A901C70120
:1038F000B6010E941D3110E000E087FF0AC06DE2B2
:1039000085EF94E00E9486118C01F7FAF094F7F8A5
:10391000F094C0E060E070E080E09FE37C1641F04E
:1039200020E030E040E251E40E942231CF5FF6CF48
:10393000A70196010E94B1302B013C010E949B31EE
:103940004B015C014AE00E94D31B7C01E00EF11E9A
:10395000CC23C1F1C501B4010E94D0319B01AC015F
:10396000C301B2010E94B0304B015C016EE285EFF1
:1039700094E00E948611E80EF91EC15018F120E073
:1039800030E040E251E4C501B4010E94D5322B0180
:103990003C010E949B314B01B12CA12C4AE0C50196
:1039A000B4010E94D31BE80EF91EC501B4010E94A8
:1039B000D0319B01AC01C301B2010E94B0304B0178
:1039C0005C01DBCFC701CF911F910F91FF90EF906A
:1039D000DF90CF90BF90AF909F908F907F906F902F
:1039E0005F904F9008952F923F924F925F926F9207
:1039F0007F928F929F92AF92BF92CF92DF92EF927F
:103A0000FF920F931F93CF93DF9300D01F92CDB7F8
:103A1000DEB789834B0129013A0118015701209132
:103A2000FF0430910005C90163E070E00E94573344
:103A30007B836A834981469F6001479FD00C112494
:103A4000423029F4C9018C199D099B838A832091F6
:103A5000FD043091FE04F12CE12C0A811B81A601AA
:103A600070E060E085EF94E00E942F0B2091FD0450
:103A70003091FE04EE24EA94FE2C0A811B81A601FB
:103A800070E060E085EF94E00E9473128FEF9FEF8B
:103A9000909308058093070590930605809305058C
:103AA00012E01093090510930A0576019CE0E90ED7
:103AB000F11C88E090E09093020580930105F0925C
:103AC0000405E0920305C4010E945812B092080553
:103AD000A0920705B0920605A0920505109309056E
:103AE00010930A058091FD049091FE0429812130F4
:103AF00009F4D3C02EE130E0821B930B90930205B2
:103B000080930105F0920405E0920305C1010E9433
:103B100058128A819B8104E0843691050CF005E0FF
:103B20000093090500930A05A3019201C301B201A4
:103B30000E94423312E081112AC020E030E04AE7BF
:103B400054E4C301B2010E94D03216E087FF16C0D0
:103B500020E030E048EC52E4C301B2010E94D032D0
:103B600015E087FF0BC020E030E040E251E4C301E4
:103B7000B2010E94D03213E087FF14E020E030E071
:103B8000A901C301B2010E941D3187FD1F5F26E01C
:103B9000129FC0011124202F30E0829FA001839F3B
:103BA000500D929F500D11248090FD049090FE04C2
:103BB000841A950A97FE03C04FEF841A940A9594CD
:103BC00087948A819B81849753E0220F331F5A95F3
:103BD000E1F7821B930B9B838A8397FF03C00196B7
:103BE0009B838A838A819B81959587959B838A8312
:103BF00094E2C90ED11C8A819B818C0D9D1D9B83F3
:103C00008A83B0920805A0920705B0920605A0929B
:103C1000050590920205809201059093040580931A
:103C20000305A3019201C301B2010E944233811135
:103C300037C041E0C301B2010E94171C9FEF891AEF
:103C4000990A90920205809201058A819B81909346
:103C5000040580930305A3019201C301B2010E94F0
:103C60004233811122C041E0C301B2010F900F9095
:103C70000F90DF91CF911F910F91FF90EF90DF9008
:103C8000CF90BF90AF909F908F907F906F905F90FC
:103C90004F903F902F900C94171C20E330E02CCFD6
:103CA0008BE690E00E945812C9CF88E690E00F9012
:103CB0000F900F90DF91CF911F910F91FF90EF9098
:103CC000DF90CF90BF90AF909F908F907F906F903C
:103CD0005F904F903F902F900C9458122F923F92EC
:103CE0004F925F926F927F928F929F92AF92BF920C
:103CF000CF92DF92EF92FF920F931F93CF93DF93B8
:103D0000CDB7DEB7A6970FB6F894DEBF0FBECDBF16
:103D1000E82F7A83698329013A011E870D87EF8690
:103D20009F2CDA8AC98AEBACFCACFEA2EDA2809192
:103D3000FF049091000563E070E00E945733E69F16
:103D40008001E79F100D112418870F8318011EE1D1
:103D5000210E311C2F813885260F371F3C8B2B8B72
:103D6000275031093C832B834091FD045091FE0480
:103D70005A874987F12CE12C8B019A014F81588594
:103D800070E060E085EF94E00E942F0B2091FD042D
:103D90003091FE04EE24EA94FE2C4F81588570E0A9
:103DA00060E085EF94E00E94731211E01093090522
:103DB00010930A058FEF9FEF9093080580930705F6
:103DC0009093060580930505EF80F8845BE0E50E8F
:103DD000F11C88E090E09093020580930105F09239
:103DE0000405E092030589819A810E94581210937C
:103DF000090510930A0569897A897093080560930B
:103E0000070570930605609305058CE590E0909397
:103E1000020580930105F0920405E092030541E05C
:103E2000C301B2010E94171C8D859E850E94581205
:103E3000CB80DC80C218D308F12CE12CB5E06B2ECE
:103E400049845A847FE0471A5108A701F7FE02C04F
:103E50004D5F5F4F5595479555954795420D531DBD
:103E600004E011E2920168E070E085EF94E00E94C6
:103E70009F1B6A94EC0CFD1C6110E7CF89859A8525
:103E800040979C878B87F12CE12C77E0672E9FEF82
:103E9000C91AD90AE6E04E2E512CC701B2010E9480
:103EA0005733685F7F4F04E011E29601A10185EF6F
:103EB00094E00E94B21B6A94AB85BC85EA0EFB1E9F
:103EC0006110EBCF882009F492C1BF85B9839A8233
:103ED000E981FA8121913191FA83E9832901C901AC
:103EE000CC24C394C81461F04191519148175907EB
:103EF0000CF4CA01441655060CF42A01C394F2CFFF
:103F00004201881A990A8A149B040CF0E6C0480EF4
:103F1000591E57FE03C0FFEF4F1A5F0A42019594E6
:103F20008794C501B7FC019695958795881A990ADB
:103F30002501480C591C49855A85485051095E8B0A
:103F40004D8BEC2CF12CF88AEF86A70141505109DA
:103F5000EB84FC844E9DC0014F9D900D5E9D900DA5
:103F6000112465EC7FEF0E9457330D891E89060FDF
:103F7000171F1E870D874B815C81052E000C660B79
:103F8000770B4B835C836D837E83092C000CAA081E
:103F9000BB08C101330CAA0BBB0B7C018D01E41AD9
:103FA000F50A060B170BEF8AF88E098F1A8F052C6E
:103FB000000C66087708B301A201481959096A097B
:103FC0007B094B8F5C8F6D8F7E8F032E000C440B13
:103FD000550B281939094A095B09C801B7010E9424
:103FE00047332B8D3C8D4D8D5E8D0E944D306B8106
:103FF0007C818D819E81260F371F481F591F190113
:1040000080E190E0DC01E985FA85AE1BBF0BBCA323
:10401000ABA3EF84F888F2E0EF1AF1082B853C851A
:10402000E29E8001E39E100DF29E100D1124188B6C
:104030000F87DD24D394CD1409F45EC08F85988951
:1040400065EC7FEF0E9457334D895E89460F571FFD
:104050005C874B87A981BA812D913D91BA83A98351
:10406000032E000C440B550B281939094A095B092A
:104070006F89788D898D9A8D0E9447332B8D3C8D69
:104080004D8D5E8D0E944D30EB80FC800D811E8138
:10409000E20EF31E041F151FEF8EF8A209A31AA348
:1040A000E988FA880F8D18A12B853C85A1016D85C3
:1040B0007E8585EF94E00E94D212D3940F851889F3
:1040C0002BA13CA1020F131F188B0F872F8C38A038
:1040D0004B855C855E874D87AECF540143E0B59438
:1040E000A7944A95E1F70FEFA01AB00A4C018A187D
:1040F0009B084A0C5B1C1FCFA101415051096D85E3
:104100007E8561507109E988FA8803E010E023E0B8
:1041100030E085EF94E00E942F0B81E08093090549
:1041200080930A058FEF9FEF909308058093070512
:1041300090930605809305050AE010E010930205B0
:10414000009301058F819885809690930405809354
:104150000305C301B2010E94D23120E030E040E209
:1041600051E40E94223141E00E94171CEB88FC8838
:1041700050E1E51AF1081093020500930105F09251
:104180000405E0920305C501B4010E94D23120E08C
:1041900030E040E251E40E94223141E00E94171CCD
:1041A00089859A85C5979093020580930105F092C1
:1041B0000405E09203058DA19EA1A6960FB6F89482
:1041C000DEBF0FBECDBFDF91CF911F910F91FF904A
:1041D000EF90DF90CF90BF90AF909F908F907F90A7
:1041E0006F905F904F903F902F900C945812A6962E
:1041F0000FB6F894DEBF0FBECDBFDF91CF911F91F8
:104200000F91FF90EF90DF90CF90BF90AF909F9075
:104210008F907F906F905F904F903F902F90089578
:104220008F92AF92BF92CF92DF92EF92FF920F9355
:104230001F93CF93DF938091B3042091C5043091F5
:10424000C6044091C7045091C804811174C016E09F
:10425000C12E00EEE02EFF24FA940DEC10E06FEC7E
:1042600070E00E94F31C8091B2042091C10430914F
:10427000C2044091C3045091C404811188C0A5E0D8
:10428000CA2EEE24EA94B7E0FB2E0CE910E060EAB7
:1042900070E081E00E94F31C209100013091010147
:1042A000409102015091030165E0C62E70EFE72EA8
:1042B00077E8F72E0EE610E060E770E082E00E94FB
:1042C000F31CC090FD04D090FE04D7FE03C08FEF16
:1042D000C81AD80AD594C794C091FF04D09100059C
:1042E000D7FD2196D595C795AE0148505109B60125
:1042F00068507109F12CE12C01E110E021E130E07E
:1043000085EF94E00E942F0B47E050E0BE01C6010C
:104310000E944D1444E050E0BE01C601DF91CF91F0
:104320001F910F91FF90EF90DF90CF90BF90AF90D3
:104330008F900C944D14813019F18230D1F480901B
:10434000CC0287EB90E065E473E09F938F93C4E128
:10435000AC2EB12CD0EECD2EDD24DA947B0109EA0F
:1043600010E06BEA70E080E00E946E1E0F900F90EC
:104370007ACF8090DB018EEB90E064E572E0E5CFD0
:104380008090BD0386EC90E066E374E0DECF813080
:1043900019F18230D1F48090CC0286E890E06DEC87
:1043A00072E09F938F93E2E3AE2EB12CCC24CA949B
:1043B000F7E0DF2E7B0109E710E06DE770E081E0B8
:1043C0000E946E1E0F900F9067CF8090DB018DE8EA
:1043D00090E06CED71E0E5CF8090BD0385E990E061
:1043E0006EEB73E0DECF0E9408351F93CF93DF930F
:1043F00085ED8093BC008091500190915101A09176
:104400005201B09153010796A11DB11D23E0B6954D
:10441000A795979587952A95D1F72091BC0024FD03
:1044200003C01092980152C0409150015091510127
:104430006091520170915301452B462B472B69F334
:104440000097A105B10541F02AE22A95F1F700C0D5
:104450000197A109B109E1CF80914F01C1E0C0935B
:104460004E01882399F1D091B8001091BA00809143
:10447000BC008A7B8093BC0060E082E10E949207CE
:1044800060E083E10E94920710929801C0939A0124
:104490001092990161E082E10E94920761E083E15C
:1044A0000E9492078091B9008E7F8093B90080911D
:1044B000B9008D7F8093B90088E48093B80085E4CB
:1044C0008093BC001093BA00D093B800DF91CF91D5
:1044D0001F910895CF92DF92EF92FF920F931F9357
:1044E000CF93DF93FA01690130813C33E8F4E32E86
:1044F000F12CEE0CFF1C8E0D9F1DDC01CD92DC9289
:10450000C081D0E0CC0FDD1FC60FD71F19830883F1
:1045100080818F5F8083DF91CF911F910F91FF90FA
:10452000EF90DF90CF900895EB017C01BC016E5FAE
:104530007F4F46E750E00E940D35BE016E5F7F4F12
:1045400046E750E0CE010E940D35F701EA58FF4FD3
:10455000D182C082CA58DF4F19830883DCCF1F92F3
:104560000F920FB60F9211242F933F938F939F9327
:10457000AF93BF938091B8049091B904A091BA040D
:10458000B091BB043091B70423E0230F2D3758F5C9
:104590000196A11DB11D2093B7048093B804909398
:1045A000B904A093BA04B093BB048091BC04909169
:1045B000BD04A091BE04B091BF040196A11DB11D20
:1045C0008093BC049093BD04A093BE04B093BF0439
:1045D000BF91AF919F918F913F912F910F900FBEFF
:1045E0000F901F90189526E8230F0296A11DB11D6C
:1045F000D2CF1F920F920FB60F9211242F933F9399
:104600004F935F936F937F938F939F93AF93BF93DA
:10461000EF93FF938091B900887F803609F44AC0F8
:10462000F0F5883209F4A5C018F5803109F499C075
:10463000B8F4882309F4F5C0883009F492C0FF91DA
:10464000EF91BF91AF919F918F917F916F915F910A
:104650004F913F912F910F900FBE0F901F90189583
:10466000883109F486C0803251F78093970114C0D5
:10467000803409F49BC040F48033B9F38833F9F6F1
:104680008093970185ECAEC0803509F483C08835EE
:1046900009F494C0883499F60E94F521D0CF883966
:1046A00009F48AC038F5883729F050F4883611F0BB
:1046B000803729F683E0809398011092960155C0C7
:1046C000883809F479C0803919F0803809F0B7CFFB
:1046D00080919601803208F06FC0E091960181E0F0
:1046E0008E0F809396018091BB00F0E0EA58FE4F58
:1046F00080833BC0803B39F0D0F4803A09F477C026
:10470000883A09F09CCF84E080939801109275015B
:1047100010927401F0E0E0E009958091740181113C
:104720000FC081E0809374011092540109C0803C55
:1047300009F4A8CF883C09F4A5CF883B09F07FCFC6
:10474000E091750181E08E0F80937501F0E0EC5AE5
:10475000FE4F80818093BB00909175018091740120
:1047600029C08091BD018093BB0085EC8093BC0083
:1047700066CF9091BC018091BB01981758F5E091EC
:10478000BC0181E08E0F8093BC01F0E0E556FE4F46
:104790008081E9CFE091BC0181E08E0F8093BC0164
:1047A0008091BB00F0E0E556FE4F80839091BC0104
:1047B0008091BB019817C8F285E8D8CFE091BC0181
:1047C00081E08E0F8093BC018091BB00F0E0E55644
:1047D000FE4F808380919A0181115ECF81E08093AA
:1047E000990184EA8093BC001092980128CF85EC4F
:1047F0008093BC001092980180919601803230F431
:10480000E0919601F0E0EA58FE4F10826091960127
:1048100070E086E791E0F0E0E0E009951092960103
:104820000ECF1092970138CFE5EFF4E01382128299
:1048300020EF30E03583248380E491E09783868302
:104840003187208793878287168A15861486178674
:10485000168681E0858B848B2FEF3FEF338B228B85
:10486000318B208B878B108E128E118E8BE091E016
:1048700091838083A1EEB4E081E112968C9312972C
:1048800080E114968C93149789E013968C93139778
:1048900088E015968C9315978CE291E017969C937F
:1048A0008E931697EBE1FEE0E491F0E0EE0FFF1F30
:1048B000E75FF14F8591949119969C938E93189789
:1048C000E4E2FEE0E491F0E0EE0FFF1FE75FF14F5E
:1048D000859194911B969C938E931A97E3E2FEE048
:1048E000E491F0E0EE0FFF1FE75FF14F85919491A7
:1048F0001D969C938E931C97ECE1FEE0E491F0E012
:10490000EE0FFF1FE75FF14F859194911F969C93E7
:104910008E931E97EDEFFDE0E4915096EC93509747
:10492000E6E0FEE0E4915296EC935297E5E0FEE07B
:10493000E4915196EC935197EEEFFDE0E49153969C
:10494000EC9353978AE090E08D939C930895CF93D6
:10495000DF93CDB7DEB766970FB6F894DEBF0FBE14
:10496000CDBF789484B5826084BD84B5816084BDF8
:1049700085B5826085BD85B5816085BD80916E00FD
:10498000816080936E00109281008091810082602E
:10499000809381008091810081608093810080916B
:1049A00080008160809380008091B100846080935A
:1049B000B1008091B00081608093B00080917A0056
:1049C000846080937A0080917A00826080937A007C
:1049D00080917A00816080937A0080917A0080686B
:1049E00080937A001092C10060E090E080E00E9425
:1049F00084098C01883024E5920751F1803234E536
:104A0000930731F18938994809F41DC160E087E6C0
:104A100090E00E94840907E413E887349744C1F0CA
:104A20008FEE90E00E94010A8B01073283E918079C
:104A300079F081EA90E00E94E20903E619E1613031
:104A400091E6790729F06F3F760791F506E215E1C7
:104A50000E94580910921105109210051093150527
:104A6000009314050133E0E81E0709F466C708F057
:104A7000AAC1033520E2120709F4B5C708F042C104
:104A8000013145E1140709F470C208F0FCC009398E
:104A9000110509F461C708F0E2C080E091E101303E
:104AA000110509F4E7C01092FA041092F9045AC2F1
:104AB0006115BFEF7B0719F400E215E1C9CF01EAE8
:104AC00015E06115704F21F28FEB90E00E94010A12
:104AD0008B016735F3E87F0709F4BACF613824E921
:104AE000720709F4B5CF613135E1730709F4B0CF2E
:104AF000603245E1740701F36632754109F4A6CFCF
:104B0000013885E1180709F4A3CF0115144109F410
:104B10009DC084ED90E00E94E2098B0160317345F5
:104B200009F496CF87ED90E00E94E2098B01613392
:104B3000704809F48DCF8EEF90E00E94E209072FB4
:104B4000182F292F33270335E0E21E0709F480CF01
:104B500084E090E00E94E2098B01833E31F4672BF0
:104B600009F054C000E013EE73CF81114FC06115FE
:104B7000704809F04BC08091040190910501A0910B
:104B8000060189839A83AB83AE014F5F5F4F63E079
:104B900089EB90E00E94EE0860E080ED90E00E94DA
:104BA000840909E910E0893909F452CF00E910E9D4
:104BB000803909F44DCF83ED90E00E94E209072F80
:104BC000182F292F3327033681E9180709F440CF1E
:104BD00083ED90E00E94E2098B01093292E319070C
:104BE00009F436CF872F7359723040F1883931F18B
:104BF000873721F1863111F1033D110509F428CFE2
:104C0000033D134DA9F401E413E922CF063225E157
:104C1000120709F41BCF003F39E81307D1F0023522
:104C200045E81407C9F001315CEA150721F610CFF9
:104C300060E090E080E00E9484098C01033D100751
:104C400009F006CFE0CF09E812E102CF04E118E64F
:104C5000FFCE05E317E7FCCE09E817E7F9CE0435E8
:104C600081E0180709F472C10530154109F01BCF26
:104C700084E090E1909313058093120568ED70E055
:104C80008EEB9AE06DC10138A5E11A0709F4B4C6AC
:104C9000A8F40032E5E11E0709F4FCC5063215410F
:104CA00009F001CF83E194E09093130580931205FE
:104CB0002CE0E22EF12C0DE618E06EC1023026E168
:104CC000120709F484C60336194109F0ECCE81E0DD
:104CD0008093BF0183E59AE09093130580931205BA
:104CE00080EE91E09093FC048093FB0480E293E0DB
:104CF0009093FA048093F90493E5E92EF12C0AE1EC
:104D000018E04AC1093048E6140709F43DC600F529
:104D1000053385E4180709F4C9C580F40932124344
:104D200009F0C1CE83E096E09093130580931205BD
:104D300080E4E82EF12C0AED17E02EC10031B3E536
:104D40001B0709F4BEC50830144509F491CFABCE5A
:104D50000938F7E71F0709F4E4C5A0F4043138E681
:104D6000130709F4C6C50338174709F09CCE82E043
:104D700091E1909313058093120568E870E086E94D
:104D80009BE0EEC0033957E7150709F468C60639FA
:104D9000174709F088CE83E094E090931305809341
:104DA000120580EE91E09093FC048093FB0480E474
:104DB00091E09093FA048093F9049DE0E92EF12CA0
:104DC0000AE416E0E9C0083393E9190709F40EC6AE
:104DD00008F050C00532B3E91B07F1F170F5003956
:104DE000F0E91F0709F4B5C5E0F483E094E1073565
:104DF000134809F058CE909313058093120580EE66
:104E000091E09093FC048093FB0480E491E0909304
:104E1000FA048093F904F2E0EF2EF12C00E817E099
:104E2000BBC083E094E0023043E9140709F484C076
:104E30000032134909F41CCF36CE093283E9180732
:104E400009F4D7C560F40732A3E91A0709F4A7C526
:104E50000832134909F027CE80E091E197C501336C
:104E6000E3E91E0721F00533134909F01CCE80E069
:104E700090E18CC5093824E91207C8F5073834E9F0
:104E8000130708F0D4C5013844E9140709F4CCC568
:104E900090F4005413490230110508F004CE83E168
:104EA00094E0909313058093120545E6E42EF12CCF
:104EB00007ED16E071C00638144909F0F4CD83E01F
:104EC00094E0909313058093120580EE91E0909307
:104ED000FC048093FB0480E491E09093FA048093B7
:104EE000F9042BE3E22EF12C07E516E055C009305A
:104EF00095EB190709F4B3C5A8F483E194E10131F6
:104F0000BCEA1B07C9F00530154B09F0CCCD88E091
:104F100090E1909313058093120560EB70E082E4BA
:104F200099E01EC00530F5EC1F0789F383E19EE090
:104F30000115134E09F0B7CD909313058093120518
:104F400053E0E52EF12C0CE317E026C082E090E15F
:104F500090931305809312056CE970E08AEB9CE056
:104F60000E94350A10E000E017C083E090E09093C3
:104F700013058093120580EE91E09093FC048093DA
:104F8000FB0480E491E09093FA048093F90443E0F9
:104F9000E42EF12C0FE718E020911305822F829563
:104FA0008F7090E081709927909317058093160574
:104FB0000115110581F069E070E086E196E00E943C
:104FC000A208B701C8010E94A20866E070E080E173
:104FD00096E00E94A20860E085EF94E00E94AC0C8D
:104FE00060E085EF94E00E94570A8091140590914B
:104FF00015058838944909F016C11092BE0120EEBB
:105000003FEF50E040E070E060E085EF94E00E9408
:10501000220CF0902005E09021058091120580FF80
:1050200003C00EE2F02EE12C80911405909115053D
:105030008230964119F41EE2F12EE12C10E000E0DE
:1050400030E020E050E040E070E060E085EF94E088
:105050000E949A0A8091120580FD10C070E060E005
:1050600080911C0590911D050E941F0970E060E071
:1050700080911E0590911F050E941F094398429838
:1050800085B18C7F9E2D9370892B85B99BB19370D0
:105090005E2D5C7FE52EE92AEBB84198419A85B1F7
:1050A0008C7F9F2D9370892B85B99BB193708F2D29
:1050B0008C7FF82EF92AFBB84198419A429A84B124
:1050C0008C7F84B98AB183708AB92091120530919E
:1050D0001305809114059091150526FD0EC0409A88
:1050E00040984098409843B149B1409A20FD05C08E
:1050F0008938A2E19A0709F0C5C48131954139F494
:10510000409A40984098409883B189B1409AB9013B
:1051100064707727409A40984098409824FFCFC405
:1051200093B189B193708C7F982B409A409A4098A4
:105130004098409843B189B143708C7F482B409A86
:10514000409A40984098409883B1E9B08370EE2D22
:10515000EC7F8E2B409A50E0672B09F49BC4E82E1D
:10516000F12CFE2CEE24EE24F8EFFF22B3E0440FE6
:10517000551FBA95E1F7407E5770E42AF52A9695B7
:1051800096959695E92A8091BE01882399F0C701EA
:1051900005E0969587950A95E1F780729927A70112
:1051A000569547954F715527842B952B40ECE4225B
:1051B000E82AF92A409A439A84B1836084B98AB173
:1051C0008C6F8AB920FD14C00091FF041091000576
:1051D000015011092091FD043091FE042150310944
:1051E00050E040E070E060E085EF94E00E949A0AB1
:1051F0005FE1E5165FEFF506B1F486E08983AE0165
:105200004F5F5F4F61E08AE390E00E94EE0880917B
:105210001205909113058F7E9093130580931205CC
:1052200081E08093BE0160E085EF94E00E94AC0CC9
:1052300070E060E085EF94E00E943E1B70E060E06B
:1052400085EF94E00E943E1BB4E0EB2EB1E2FB2E12
:1052500008E211E020EE30E04CE050E068E070E061
:1052600085EF94E00E94731280EE9FEF9093080503
:1052700080930705909306058093050582E080934F
:10528000090580930A0582E190E0909302058093DE
:10529000010518E4E12EF12CF0920405E0920305DB
:1052A0008FEB9DE00E94581286E490E090930205F7
:1052B0008093010584E690E09093040580930305B4
:1052C00087EB9DE00E9458120FEF17E024EB30E0CF
:1052D00047E850E06EE170E085EF94E00E949F1B8C
:1052E0008FEF9FEF90930805809307059093060535
:1052F0008093050581E08093090580930A058DE27E
:1053000090E090930205809301058EE990E09093E0
:105310000405809303058DE99DE00E9458128FEFEC
:1053200097E0909308058093070590930605809376
:105330000505F0920205E092010586ED90E090935C
:105340000405809303058EE59DE060E0FC01249157
:105350006F5F233509F0E2C33196E491E53609F039
:10536000DDC3FC013296E491E03709F0D7C3162F74
:1053700086E59DE00E94581286E491E00E94C61BDB
:105380001A3028F460E385EF94E00E948611612FC3
:1053900070E090E080E04AE00E94D31B62E385EF7A
:1053A00094E00E94861161E385EF94E00E948611EB
:1053B0008FEF9FEF90930805809307059093060564
:1053C000809305058FE290E090930205809301059C
:1053D0008AEF90E0909304058093030583E89DE0B5
:1053E0000E94581260E177E280E090E00E94360867
:1053F0000E948E198093B604811196C30E945B1B94
:1054000060E08091E3040E94C00760E08091E404C2
:105410000E94C00761E08091E6040E94C00761E03D
:105420008091E5040E94C0078091F104E091E904B5
:10543000F091EA049081892B80838091F204E091BD
:10544000ED04F091EE049081809589238083809112
:10545000E3040E94FC078C018091E3040E94FC0796
:105460009801281B390B2C5F3F4F912C29303105B7
:1054700030F4800F911F95958795992493940FEFA1
:1054800013E0081B190B60E08091E6040E94C0073E
:1054900060E08091E5040E94C00761E08091E30430
:1054A0000E94C00761E08091E4040E94C0078091DF
:1054B000F404E091EF04F091F00490818095892349
:1054C00080838091F304E091EB04F091EC049081EF
:1054D000892B80838091E5040E94FC077C018091E8
:1054E000E5040E94FC076C01C7018C199D09049614
:1054F000099708F0AEC3CE0CDF1CD594C79461E0C9
:105500008091E6040E94C00760E08091E3040E945D
:10551000C0078091F104E091E904F091EA049081E0
:105520008095892380838091F404E091EF04F091C9
:10553000F0049081892B80838091E5040E94FC0710
:105540007C018091E3040E94FC07BC01A090E70469
:10555000B090E804A114B10409F47DC3072E000C37
:10556000880B990B0E94D2312B013C01B701FF0C33
:10557000880B990B0E94D2319B01AC01C301B2018F
:105580000E94223120E030E040E85FE30E94B0302A
:105590002B013C01B801012E000C880B990B0E94D5
:1055A000D231A30192010E94D5322B013C01B501F9
:1055B00090E080E00E94D031A30192010E94D53298
:1055C00020E030E040E85AE30E94D5320E94943156
:1055D0007B01911002C0F12CE12C61E081E10E947D
:1055E000C00761E080E10E94C00761E081E10E94A4
:1055F000920761E080E10E949207F9ECEF1AF1084E
:105600002FE1E21623E0F20608F08FC33091B404D4
:105610006091FD047091FE04072E000C880B990B1D
:105620004FEF53E04C195D096A010D2C000CEE0898
:10563000FF088090FF0490900005092C000CAA0838
:10564000BB082801110F6608770831110DC3A301AB
:1056500092012D573109410951090E9447332AE02F
:1056600033E040E050E00E944D3039872887A701A1
:1056700096012158310941095109C501B4010E941F
:1056800047332DEE32E040E050E00E944D301901EA
:1056900011E08091B604882309F446C0112309F46F
:1056A00043C08091B50481113FC08091FF04909167
:1056B00000052091FD043091FE0437FF02C02F5FEA
:1056C0003F4F3595279548845984421A530A9201D1
:1056D000205F3F4F2132310508F029C39C0197FF1D
:1056E00002C02F5F3F4F359527953101621A730A2B
:1056F0009301205F3F4F2132310508F018C36091BC
:10570000B40470E06F5F7F4F637077276093B404D9
:1057100085EF94E00E94AC0C70E060E085EF94E0CF
:105720000E943E1B0E9410211093B504C090AE044D
:10573000D090AF04E090B004F090B1048091B60432
:10574000811114C30E9469086C197D098E099F0993
:10575000683873418105910508F425C30E946908E2
:105760006093AE047093AF048093B0049093B1043F
:105770000E948E198093B604882309F414C30E94F2
:10578000BF16882309F40FC30E945E1A20E030E0A0
:1057900040E251E46091C1047091C2048091C3045D
:1057A0009091C4040E94D5320E9494316B0120E094
:1057B00030E040E251E46091C5047091C6048091EC
:1057C000C7049091C8040E94D5320E94943186018A
:1057D0009B014DEB53E06EEB73E086E394E00E9497
:1057E0006A2220E030E040E251E46091C10470910F
:1057F000C2048091C3049091C4040E94D5320E94D7
:1058000094316B0120E030E040E251E46091C50446
:105810007091C6048091C7049091C8040E94D5324B
:105820000E94943186019B014CEC52E06DEC72E0D9
:1058300085E493E00E946A2220E030E040E251E4F7
:105840006091C1047091C2048091C3049091C4041A
:105850000E94D5320E9494316B0120E030E040E29A
:1058600051E46091C5047091C6048091C704909181
:10587000C8040E94D5320E94943186019B014BEDF1
:1058800051E06CED71E084E592E00E946A220E9492
:10589000102189C283E194E090931305809312054F
:1058A00036E0E32EF12C09E718E076CB80E090E1BA
:1058B00090931305809312056CE970E08EE19CE0F3
:1058C0004FCB83E19EE0909313058093120580EE09
:1058D00091E09093FC048093FB0480E491E090932A
:1058E000FA048093F90402E0E02EF12C08ED17E0B1
:1058F00053CB83E094E0909313058093120580EEE0
:1059000091E09093FC048093FB0480E491E09093F9
:10591000FA048093F90413E0E12EF12C05ED17E071
:105920003BCB83E194E09093130580931205B1E49F
:10593000EB2EF12C04E917E02FCB83E194E1909357
:10594000130580931205A2E1EA2EF12C02E817E07C
:1059500023CB83E194E14FCA83E194E19093130553
:105960008093120580EE91E09093FC048093FB04F9
:1059700080E491E09093FA048093F904EDE1EE2E37
:10598000F12C03E617E008CB82E091E19093130538
:10599000809312056CEC70E082EF99E0E1CA83E03D
:1059A00094E0909313058093120580E991E0909321
:1059B000FC048093FB0480EF90E09093FA048093C2
:1059C000F9047EE1E72EF12C05E417E0E5CA83E057
:1059D00094E0909313058093120566E0E62EF12C77
:1059E0000FE317E0D9CA87E194E1A6CA83E194E006
:1059F000A3CA83E096E1A0CA83E194E090931305E3
:105A00008093120580EE91E09093FC048093FB0458
:105A100080E491E09093FA048093F90435E4E32E56
:105A2000F12C02E916E0B8CA87E094E0E7CF83E101
:105A300094E0909313058093120580EE91E090938B
:105A4000FC048093FB0480E491E09093FA0480933B
:105A5000F9048BE2E82EF12C0FE116E09DCA80E0FC
:105A600090E1909313058093120560EC70E082E85A
:105A700098E00E94350A80E991E09093FC048093BD
:105A8000FB0470CA409A40984098409843B149B18D
:105A9000409A33CBE92EF12CFE2CEE24EE2408EFB5
:105AA000F022F3E0440F551FFA95E1F7407E57705E
:105AB000E42AF52A869586958695E82A64CBE3B094
:105AC00099B1409A409A40984098409883B149B122
:105AD00083704C7F842B409A1E2D1370E12E9C7F87
